:020000040000FA
:1000000097EF21F0C96E120097EF0FF0ACA2FED768
:10001000AD6E120029EF21F031EF1DF0D9CFE5FFD1
:10002000E1CFD9FF82820000000000000000000044
:1000300000000000000000000000000000000000C0
:1000400000000000000000000000000000000000B0
:1000500000000000000000000000000000000000A0
:100060000000000000000000000000000000000090
:100070000000000000000000000000000000000080
:100080000000000000000000000000000000000070
:100090000000000000000000000000000000000060
:1000A0000000000000000000000000000000000050
:1000B0000000000000000000000000000000000040
:1000C0000000000000000000000000000000000030
:1000D0000000000000000000000000000000000020
:1000E0000000000000000000000000000000000010
:1000F0000000000000000000000000000000000000
:1001000000000000000000000000000000000000EF
:1001100000000000000000000000000000000000DF
:1001200000000000000000000000000000000000CF
:1001300000000000829200000000000000000000AB
:1001400000000000000000000000000000000000AF
:10015000000000000000000000000000000000009F
:10016000000000000000000000000000000000008F
:10017000000000000000000000000000000000007F
:10018000000000000000000000000000000000006F
:10019000000000000000000000000000000000005F
:1001A000000000000000000000000000000000004F
:1001B000000000000000000000000000000000003F
:1001C000000000000000000000000000000000002F
:1001D000000000000000000000000000000000001F
:1001E000000000000000000000000000000000000F
:1001F00000000000000000000000000000000000FF
:1002000000000000000000000000000000000000EE
:1002100000000000000000000000000000000000DE
:1002200000000000000000000000000000000000CE
:1002300000000000000000000000000000000000BE
:1002400000000000828200000000000000000000AA
:10025000000000000000000000000000000000009E
:10026000000000000000000000000000000000008E
:10027000000000000000000000000000000000007E
:10028000000000000000000000000000000000006E
:10029000000000000000000000000000000000005E
:1002A000000000000000000000000000000000004E
:1002B000000000000000000000000000000000003E
:1002C000000000000000000000000000000000002E
:1002D000000000000000000000000000000000001E
:1002E000000000000000000000000000000000000E
:1002F00000000000000000000000000000000000FE
:1003000000000000000000000000000000000000ED
:1003100000000000000000000000000000000000DD
:1003200000000000000000000000000000000000CD
:1003300000000000000000000000000000000000BD
:1003400000000000000000000000000000000000AD
:100350000000000082920000000000000000000089
:10036000000000000000000000000000000000008D
:10037000000000000000000000000000000000007D
:10038000000000000000000000000000000000006D
:10039000000000000000000000000000000000005D
:1003A000000000000000000000000000000000004D
:1003B000000000000000000000000000000000003D
:1003C000000000000000000000000000000000002D
:1003D000000000000000000000000000000000001D
:1003E000000000000000000000000000000000000D
:1003F00000000000000000000000000000000000FD
:1004000000000000000000000000000000000000EC
:1004100000000000000000000000000000000000DC
:1004200000000000000000000000000000000000CC
:1004300000000000000000000000000000000000BC
:1004400000000000000000000000000000000000AC
:10045000000000000000000000000000000000009C
:100460000000000082820000000000000000000088
:10047000000000000000000000000000000000007C
:10048000000000000000000000000000000000006C
:10049000000000000000000000000000000000005C
:1004A000000000000000000000000000000000004C
:1004B000000000000000000000000000000000003C
:1004C000000000000000000000000000000000002C
:1004D000000000000000000000000000000000001C
:1004E000000000000000000000000000000000000C
:1004F00000000000000000000000000000000000FC
:1005000000000000000000000000000000000000EB
:1005100000000000000000000000000000000000DB
:1005200000000000000000000000000000000000CB
:1005300000000000000000000000000000000000BB
:1005400000000000000000000000000000000000AB
:10055000000000000000000000000000000000009B
:10056000000000000000000000000000000000008B
:100570000000000082920000000000000000000067
:10058000000000000000000000000000000000006B
:10059000000000000000000000000000000000005B
:1005A000000000000000000000000000000000004B
:1005B000000000000000000000000000000000003B
:1005C000000000000000000000000000000000002B
:1005D000000000000000000000000000000000001B
:1005E000000000000000000000000000000000000B
:1005F00000000000000000000000000000000000FB
:1006000000000000000000000000000000000000EA
:1006100000000000000000000000000000000000DA
:1006200000000000000000000000000000000000CA
:1006300000000000000000000000000000000000BA
:1006400000000000000000000000000000000000AA
:10065000000000000000000000000000000000009A
:10066000000000000000000000000000000000008A
:10067000000000000000000000000000000000007A
:100680000000000082820000000000000000000066
:10069000000000000000000000000000000000005A
:1006A000000000000000000000000000000000004A
:1006B000000000000000000000000000000000003A
:1006C000000000000000000000000000000000002A
:1006D000000000000000000000000000000000001A
:1006E000000000000000000000000000000000000A
:1006F00000000000000000000000000000000000FA
:1007000000000000000000000000000000000000E9
:1007100000000000000000000000000000000000D9
:1007200000000000000000000000000000000000C9
:1007300000000000000000000000000000000000B9
:1007400000000000000000000000000000000000A9
:100750000000000000000000000000000000000099
:100760000000000000000000000000000000000089
:100770000000000000000000000000000000000079
:100780000000000000000000000000000000000069
:100790000000000082920000000000000000000045
:1007A0000000000000000000000000000000000049
:1007B0000000000000000000000000000000000039
:1007C0000000000000000000000000000000000029
:1007D0000000000000000000000000000000000019
:1007E0000000000000000000000000000000000009
:1007F00000000000000000000000000000000000F9
:1008000000000000000000000000000000000000E8
:1008100000000000000000000000000000000000D8
:1008200000000000000000000000000000000000C8
:1008300000000000000000000000000000000000B8
:1008400000000000000000000000000000000000A8
:100850000000000000000000000000000000000098
:100860000000000000000000000000000000000088
:100870000000000000000000000000000000000078
:100880000000000000000000000000000000000068
:100890000000000000000000000000000000000058
:1008A0000000000082820000000000000000000044
:1008B0000000000000000000000000000000000038
:1008C0000000000000000000000000000000000028
:1008D0000000000000000000000000000000000018
:1008E0000000000000000000000000000000000008
:1008F00000000000000000000000000000000000F8
:1009000000000000000000000000000000000000E7
:1009100000000000000000000000000000000000D7
:1009200000000000000000000000000000000000C7
:1009300000000000000000000000000000000000B7
:1009400000000000000000000000000000000000A7
:100950000000000000000000000000000000000097
:100960000000000000000000000000000000000087
:100970000000000000000000000000000000000077
:100980000000000000000000000000000000000067
:100990000000000000000000000000000000000057
:1009A0000000000000000000000000000000000047
:1009B0000000000082920000000000000000000023
:1009C0000000000000000000000000000000000027
:1009D0000000000000000000000000000000000017
:1009E0000000000000000000000000000000000007
:1009F00000000000000000000000000000000000F7
:100A000000000000000000000000000000000000E6
:100A100000000000000000000000000000000000D6
:100A200000000000000000000000000000000000C6
:100A300000000000000000000000000000000000B6
:100A400000000000000000000000000000000000A6
:100A50000000000000000000000000000000000096
:100A60000000000000000000000000000000000086
:100A70000000000000000000000000000000000076
:100A80000000000000000000000000000000000066
:100A90000000000000000000000000000000000056
:100AA0000000000000000000000000000000000046
:100AB0000000000000000000000000000000000036
:100AC0000000000082820000000000000000000022
:100AD0000000000000000000000000000000000016
:100AE0000000000000000000000000000000000006
:100AF00000000000000000000000000000000000F6
:100B000000000000000000000000000000000000E5
:100B100000000000000000000000000000000000D5
:100B200000000000000000000000000000000000C5
:100B300000000000000000000000000000000000B5
:100B400000000000000000000000000000000000A5
:100B50000000000000000000000000000000000095
:100B60000000000000000000000000000000000085
:100B70000000000000000000000000000000000075
:100B80000000000000000000000000000000000065
:100B90000000000000000000000000000000000055
:100BA0000000000000000000000000000000000045
:100BB0000000000000000000000000000000000035
:100BC0000000000000000000000000000000000025
:100BD000000000008292E4CFD9FF1200D9CFE5FFD8
:100BE000E1CFD9FF82820000000000000000000079
:100BF00000000000000000000000000000000000F5
:100C000000000000000000000000000000000000E4
:100C100000000000000000000000000000000000D4
:100C200000000000000000000000000000000000C4
:100C300000000000000000000000000000000000B4
:100C400000000000000000000000000000000000A4
:100C50000000000000000000000000000000000094
:100C60000000000000000000000000000000000084
:100C70000000000000000000000000000000000074
:100C80000000000000000000000000000000000064
:100C90000000000000000000000000000000000054
:100CA0000000000000000000000000000000000044
:100CB0000000000000000000000000000000000034
:100CC0000000000000000000000000000000000024
:100CD0000000000000000000000000000000000014
:100CE0000000000000000000000000000000000004
:100CF00000000000000000000000000000000000F4
:100D000000000000000000000000000000000000E3
:100D100000000000000000000000000000000000D3
:100D200000000000000000000000000000000000C3
:100D300000000000000000000000000000000000B3
:100D400000000000000000000000000000000000A3
:100D50000000000000000000000000000000000093
:100D60000000000000000000000000000000000083
:100D7000000000000000000000000000000082925F
:100D80000000000000000000000000000000000063
:100D90000000000000000000000000000000000053
:100DA0000000000000000000000000000000000043
:100DB0000000000000000000000000000000000033
:100DC0000000000000000000000000000000000023
:100DD0000000000000000000000000000000000013
:100DE0000000000000000000000000000000000003
:100DF00000000000000000000000000000000000F3
:100E000000000000000000000000000000000000E2
:100E100000000000000000000000000000000000D2
:100E200000000000000000000000000000000000C2
:100E300000000000000000000000000000000000B2
:100E400000000000000000000000000000000000A2
:100E50000000000000000000000000000000000092
:100E60000000000000000000000000000000000082
:100E70000000000000000000000000000000000072
:100E80000000000000000000000000000000000062
:100E90000000000000000000000000000000000052
:100EA0000000000000000000000000000000000042
:100EB0000000000000000000000000000000000032
:100EC0000000000000000000000000000000000022
:100ED0000000000000000000000000000000000012
:100EE0000000000000000000000000000000000002
:100EF00000000000000000000000000000000000F2
:100F000000000000000000000000000000000000E1
:100F100000000000000000008282000000000000CD
:100F200000000000000000000000000000000000C1
:100F300000000000000000000000000000000000B1
:100F400000000000000000000000000000000000A1
:100F50000000000000000000000000000000000091
:100F60000000000000000000000000000000000081
:100F70000000000000000000000000000000000071
:100F80000000000000000000000000000000000061
:100F90000000000000000000000000000000000051
:100FA0000000000000000000000000000000000041
:100FB0000000000000000000000000000000000031
:100FC0000000000000000000000000000000000021
:100FD0000000000000000000000000000000000011
:100FE0000000000000000000000000000000000001
:100FF00000000000000000000000000000000000F1
:1010000000000000000000000000000000000000E0
:1010100000000000000000000000000000000000D0
:1010200000000000000000000000000000000000C0
:1010300000000000000000000000000000000000B0
:1010400000000000000000000000000000000000A0
:101050000000000000000000000000000000000090
:101060000000000000000000000000000000000080
:101070000000000000000000000000000000000070
:101080000000000000000000000000000000000060
:101090000000000000000000000000000000000050
:1010A0000000000000000000000000000000000040
:1010B000000082920000000000000000000000001C
:1010C0000000000000000000000000000000000020
:1010D0000000000000000000000000000000000010
:1010E0000000000000000000000000000000000000
:1010F00000000000000000000000000000000000F0
:1011000000000000000000000000000000000000DF
:1011100000000000000000000000000000000000CF
:1011200000000000000000000000000000000000BF
:1011300000000000000000000000000000000000AF
:10114000000000000000000000000000000000009F
:10115000000000000000000000000000000000008F
:10116000000000000000000000000000000000007F
:10117000000000000000000000000000000000006F
:10118000000000000000000000000000000000005F
:10119000000000000000000000000000000000004F
:1011A000000000000000000000000000000000003F
:1011B000000000000000000000000000000000002F
:1011C000000000000000000000000000000000001F
:1011D000000000000000000000000000000000000F
:1011E00000000000000000000000000000000000FF
:1011F00000000000000000000000000000000000EF
:1012000000000000000000000000000000000000DE
:1012100000000000000000000000000000000000CE
:1012200000000000000000000000000000000000BE
:1012300000000000000000000000000000000000AE
:10124000000000000000000000000000828200009A
:10125000000000000000000000000000000000008E
:10126000000000000000000000000000000000007E
:10127000000000000000000000000000000000006E
:10128000000000000000000000000000000000005E
:10129000000000000000000000000000000000004E
:1012A000000000000000000000000000000000003E
:1012B000000000000000000000000000000000002E
:1012C000000000000000000000000000000000001E
:1012D000000000000000000000000000000000000E
:1012E00000000000000000000000000000000000FE
:1012F00000000000000000000000000000000000EE
:1013000000000000000000000000000000000000DD
:1013100000000000000000000000000000000000CD
:1013200000000000000000000000000000000000BD
:1013300000000000000000000000000000000000AD
:10134000000000000000000000000000000000009D
:10135000000000000000000000000000000000008D
:10136000000000000000000000000000000000007D
:10137000000000000000000000000000000000006D
:10138000000000000000000000000000000000005D
:10139000000000000000000000000000000000004D
:1013A000000000000000000000000000000000003D
:1013B000000000000000000000000000000000002D
:1013C000000000000000000000000000000000001D
:1013D000000000000000000000000000000000000D
:1013E00000000000000082920000000000000000E9
:1013F00000000000000000000000000000000000ED
:1014000000000000000000000000000000000000DC
:1014100000000000000000000000000000000000CC
:1014200000000000000000000000000000000000BC
:1014300000000000000000000000000000000000AC
:10144000000000000000000000000000000000009C
:10145000000000000000000000000000000000008C
:10146000000000000000000000000000000000007C
:10147000000000000000000000000000000000006C
:10148000000000000000000000000000000000005C
:10149000000000000000000000000000000000004C
:1014A000000000000000000000000000000000003C
:1014B000000000000000000000000000000000002C
:1014C000000000000000000000000000000000001C
:1014D000000000000000000000000000000000000C
:1014E00000000000000000000000000000000000FC
:1014F00000000000000000000000000000000000EC
:1015000000000000000000000000000000000000DB
:1015100000000000000000000000000000000000CB
:1015200000000000000000000000000000000000BB
:1015300000000000000000000000000000000000AB
:10154000000000000000000000000000000000009B
:10155000000000000000000000000000000000008B
:10156000000000000000000000000000000000007B
:10157000000000000000000000000000000000006B
:101580008282000000000000000000000000000057
:10159000000000000000000000000000000000004B
:1015A000000000000000000000000000000000003B
:1015B000000000000000000000000000000000002B
:1015C000000000000000000000000000000000001B
:1015D000000000000000000000000000000000000B
:1015E00000000000000000000000000000000000FB
:1015F00000000000000000000000000000000000EB
:1016000000000000000000000000000000000000DA
:1016100000000000000000000000000000000000CA
:1016200000000000000000000000000000000000BA
:1016300000000000000000000000000000000000AA
:10164000000000000000000000000000000000009A
:10165000000000000000000000000000000000008A
:10166000000000000000000000000000000000007A
:10167000000000000000000000000000000000006A
:10168000000000000000000000000000000000005A
:10169000000000000000000000000000000000004A
:1016A000000000000000000000000000000000003A
:1016B000000000000000000000000000000000002A
:1016C000000000000000000000000000000000001A
:1016D000000000000000000000000000000000000A
:1016E00000000000000000000000000000000000FA
:1016F00000000000000000000000000000000000EA
:1017000000000000000000000000000000000000D9
:10171000000000000000000000008292E4CFD9FF2A
:101720001200D9CFE5FFE1CFD9FF00C0E5FF01C02E
:10173000E5FF02C0E5FF03C0E5FF04C0E5FF05C00B
:10174000E5FF06C0E5FF07C0E5FF08C0E5FF09C0EB
:10175000E5FF0AC0E5FF0BC0E5FF0CC0E5FF0DC0CB
:10176000E5FF0EC0E5FF0FC0E5FF10C0E5FF11C0AB
:10177000E5FF12C0E5FF13C0E5FF14C0E5FF15C08B
:10178000E5FF16C0E5FF17C0E5FF18C0E5FF19C06B
:10179000E5FF1AC0E5FF1BC0E5FF1CC0E5FF1DC04B
:1017A000E5FF1EC0E5FF020EDBCF00F0030EDBCF2E
:1017B00001F0040EDBCF02F0050EDBCF03F0060EC6
:1017C000DBCF04F0070EDBCF05F0080EDBCF06F011
:1017D000090EDBCF07F00A0EDBCF08F0096A0A6AB0
:1017E00002C00DF00D50800A0DE102500501436F5B
:1017F0000150426F0050416F050E016E410E006EA8
:10180000800E026E03C0E9FF04C0F3FF055018EC20
:1018100021F00B6E0B50D8B44DEF0FF00B50250A92
:1018200002E034EF0FF00C6A0D6A0E6A0F6A106A5C
:101830000A0E116E126A136A146A200E156E16686B
:10184000176A2B0E186E032A02E3044A052A03C006
:10185000E9FF04C0F3FF055018EC21F0196E250ACA
:1018600013E11950E56E0250E56E0150E56E00502F
:10187000E56EA8EC1CF0040EE126094A0A2A032AA8
:1018800002E3044A052ABED71950300A06E1300E99
:10189000156E032A02E3044A052A03C0E9FF04C0C7
:1018A000F3FF055018EC21F02D0A06E1010E146E2D
:1018B000032A02E3044A052A03C0E9FF04C0F3FF38
:1018C000055018EC21F0200A08E1010E176E200ED9
:1018D000186E032A02E3044A052A03C0E9FF04C084
:1018E000F3FF055018EC21F02B0A06E1010E176EEC
:1018F000032A02E3044A052A03C0E9FF04C0F3FFF8
:10190000055018EC21F0196E800F4F0F2DE3195080
:10191000800F460F29E203C019F004C01AF005C079
:101920001BF019C0E9FF1AC0F3FF1B5018EC21F09F
:101930001C6E800F500F12E31C50800F460F0EE2FA
:1019400013500A0DF3CF1DF01D501C26D00E1C2481
:10195000136E192A02E31A4A1B2AE3D719C003F0AF
:101960001AC004F01BC005F003C0E9FF04C0F3FF78
:10197000055018EC21F02E0A2EE1032A02E3044A56
:10198000052A166A03C019F004C01AF005C01BF03E
:1019900019C0E9FF1AC0F3FF1B5018EC21F01C6EB0
:1019A000800F500F12E31C50800F460F0EE21650AE
:1019B0000A0DF3CF1DF01D501C26D00E1C24166EF0
:1019C000192A02E31A4A1B2AE3D719C003F01AC0E6
:1019D00004F01BC005F003C0E9FF04C0F3FF05508D
:1019E00018EC21F0196E6C0A07E1010E0C6E032A47
:1019F00002E3044A052A09D01950680A06E1010EDB
:101A00000E6E032A02E3044A052A03C0E9FF04C05C
:101A1000F3FF055018EC21F0750A06E1010E106E77
:101A2000032A02E3044A052A03C0E9FF04C0F3FFC6
:101A3000055018EC21F0196E730A05E1010E0D6EC8
:101A4000200E156E3FD01950780A03E1100E116E6A
:101A500039D01950580A05E1100E116E010E126EA0
:101A600031D01950630A02E1116A2CD019506F0A63
:101A700003E1080E116E26D01950660A03E1010E2B
:101A80000F6E20D01950640A1DE01950690A1AE03F
:101A9000105005E0FF0E03260422052213D0195032
:101AA000E56E0250E56E0150E56E0050E56EA8EC63
:101AB0001CF0040EE126094A0A2A032A02E3044A1A
:101AC000052AA0D60D5021E00650030F0D6E000E22
:101AD0000720196E000E08201A6E0DC006F019C0FE
:101AE00007F01AC008F0FD0E0D26FF0E19221A226B
:101AF0000DC0E9FF19C0F3FF1A5011EC20F00D6E74
:101B0000F3CF19F0F4CF1AF000D10F500DE0000E12
:101B10001A6E1F0E196E220E0D6E040E0626000E92
:101B2000072208221668F1D016680C5023E00650F0
:101B3000040F0C6E000E07200F6E000E08201B6EA7
:101B40000CC006F00FC007F01BC008F0FC0E0C26FE
:101B5000FF0E0F221B220CC0E9FF0FC0F3FF1B502A
:101B600098EC1FF00C6EF3CF0FF0F4CF1BF0E9CF21
:101B70001CF06AD00E5032E00650020F0E6E000EBE
:101B800007201D6E000E08201E6E0EC006F01DC040
:101B900007F01EC008F0FE0E0E26FF0E1D221E22AC
:101BA0000EC0E9FF1DC0F3FF1E508DEC20F00E6E3D
:101BB0000EC00CF0E86A0EBEFF0E0F6E1B6E1C6EA0
:101BC00011500A0A03E11050D8B43ED00C500E6EEA
:101BD0000EC00CF00F6A1B6A1C6A36D00650020F4A
:101BE0000E6E000E07201D6E000E08201E6E0EC029
:101BF00006F01DC007F01EC008F0FE0E0E26FF0EF8
:101C00001D221E220EC0E9FF1DC0F3FF1E508DECE9
:101C100020F00E6EF3CF1DF00EC00CF01DC00FF0C3
:101C2000E86A1DBEFF0E1B6E1C6E11500A0A02E10F
:101C300010500AE00C500E6E0F501D6E0EC00CF0CE
:101C40001DC00FF01B6A1C6A050E196E110E0D6E79
:101C5000800E1A6E1150D8B440D0105013E01150BD
:101C6000E56E050EE56E110EE56E1C50E56E1B501F
:101C7000E56E0F50E56E0C50E56E56EC17F0070E52
:101C8000E12612D01150E56E050EE56E110EE56EDF
:101C90001C50E56E1B50E56E0F50E56E0C50E56E66
:101CA0005DEC1EF0070EE12617502FE00DC0E9FF96
:101CB00019C0F3FF1A5018EC21F02D0A26E0FF0E90
:101CC0000D2619221A2218C0E5FF0DC0E9FF19C020
:101CD000F3FF1A5064EC21F018D00CC0E5FF0DC0E2
:101CE000E9FF19C0F3FF1A5064EC21F00D50010F09
:101CF0000C6E000E19200E6E000E1A20E56A0CC044
:101D0000E9FF0EC0F3FF64EC21F00DC00CF019C028
:101D10000EF01AC00FF013C010F0105010E00CC0FD
:101D2000E9FF0EC0F3FF0F5018EC21F0176E1750AB
:101D300006E00C2A02E30E4A0F2A1006EED710C066
:101D400013F014501EE109C00CF00AC00EF010C0D0
:101D50000FF00F5010E01550E56E0250E56E015087
:101D6000E56E0050E56EA8EC1CF0040EE1260C4A6E
:101D70000E2A0F06EED70CC009F00EC00AF00FC0F5
:101D800013F016C00CF00DC00DF019C00EF01AC003
:101D90000FF009C010F00AC015F00DC0E9FF0EC029
:101DA000F3FF0F5018EC21F0166E1650D8B43ED049
:101DB0000CC016F0176A161E171E1650171005E0F5
:101DC0000CC016F00C06165031E00DC0E9FF0EC035
:101DD000F3FF0F5018EC21F0116E125010E011506B
:101DE000E56E76EC20F0166EE652165004E01150C7
:101DF000166E169A02D011C016F016C011F01150CE
:101E0000E56E0250E56E0150E56E0050E56EA8ECFF
:101E10001CF0040EE1260D2A02E30E4A0F2A104A96
:101E2000152A1350D8B4B9D71306B7D710C009F084
:101E300015C00AF014502BE010C00CF015C00DF0C6
:101E400013C00EF00E501FE0200EE56E0250E56E3E
:101E50000150E56E0050E56EA8EC1CF0040EE12682
:101E60000C4A0D2A0E06EED70B50E56E0250E56EB9
:101E70000150E56E0050E56EA8EC1CF0040EE12662
:101E8000094A0A2A04D00CC009F00DC00AF0032A3E
:101E900002E3044A052A02EF0CF00AC0F3FF0950DE
:101EA000E4CF1EF0E4CF1DF0E4CF1CF0E4CF1BF034
:101EB000E4CF1AF0E4CF19F0E4CF18F0E4CF17F034
:101EC000E4CF16F0E4CF15F0E4CF14F0E4CF13F034
:101ED000E4CF12F0E4CF11F0E4CF10F0E4CF0FF034
:101EE000E4CF0EF0E4CF0DF0E4CF0CF0E4CF0BF034
:101EF000E4CF0AF0E4CF09F0E4CF08F0E4CF07F034
:101F0000E4CF06F0E4CF05F0E4CF04F0E4CF03F033
:101F1000E4CF02F0E4CF01F0E4CF00F0E4CFD9FF4A
:101F200012003C4E4F20464C4F41543E0000D8CF4B
:101F3000E5FFE0CFE5FFE56EF3CFE5FFF4CFE5FF8A
:101F4000E9CFE5FFEACFE5FFFACFE5FFFBCFE5FFFD
:101F5000D9CFE5FFE1CFD9FF00C0E5FF01C0E5FF24
:101F600002C0E5FF03C0E5FF04C0E5FF05C0E5FFD3
:101F7000F2A235D1F2A833D1D6CF00F0016AD7CF83
:101F800002F0036A0250056E046A04500010050155
:101F9000486F05500110496F05014B51006E016AF1
:101FA0000050D76E4A51D66E05015351010A01E027
:101FB00015D1640EE56E06EC21F0E6521DC500F069
:101FC0000050016E015008E00050020A0CE0005081
:101FD000040A01E13BD002D1D58E010E05011F6F2D
:101FE000020E1D6FFBD005014A518F0F006E020ECD
:101FF0004B21016E05014951015C02E14851005C31
:102000001FE205014A511F0F006E040E4B21016EA5
:1020100001500501495D02E10050485D11E2020EE8
:1020200005011F5D06E21FC500F0002A00501F6F6A
:10203000D5D00501206B216B226B040E1D6FCED015
:10204000010E05011F6F020E1D6FC8D00D0E050198
:10205000225DD8B0C3D005014A518F0F006E020E29
:102060004B21016E05014951015C02E14851005CC0
:102070000EE205014A511F0F006E040E4B21016E46
:1020800001500501495D02E10050485D1CE3050176
:102090004A513D0F006E090E4B21016E0501495159
:1020A000015C02E14851005C35E205014A51CD0F67
:1020B000006E0A0E4B21016E01500501495D02E1DF
:1020C0000050485D27E2050120A10AD02051006E92
:1020D00000262135016E0050206F0150216F13D072
:1020E00005012051006E00262135016E0050206F41
:1020F0000150216F010E2011006E2151016E005020
:10210000206F0150216F22C500F0002A0050050108
:10211000226F48D005014A51E60F006E050E4B2193
:10212000016E05014951015C02E14851005C35E254
:1021300005014A51760F006E070E4B21016E0150CA
:102140000501495D02E10050485D27E2050120A13B
:1021500013D02051006E00262135016E0050206FF3
:102160000150216F010E2011006E2151016E0050AF
:10217000206F0150216F0AD005012051006E00260A
:102180002135016E0050206F0150216F22C500F0F3
:10219000002A00500501226F05D0010E05011F6FB6
:1021A000020E1D6F050122510C0A18E10501215193
:1021B000E56E2051E56E56EC16F0006EE652E652E2
:1021C00000500AE005012051006E016A0050E56EE2
:1021D00003EC1BF0E652818805011D6BF292F2A41C
:1021E000FED0F2AAFCD005014B51006E016A0050EE
:1021F000D76E4A51D66E05015351010A0FE0050111
:102200005351030A10E005015351040A01E14DD076
:1022100005015351050A01E18AD0E0D0D59E0501A0
:102220001D6B0300DBD023C500F00050016E015090
:102230000AE00050030A11E00050080A2DE00050A7
:10224000090A2FE0CBD005012651080A01E0C6D0CB
:102250008192030E0501236FC1D0010E0501265D99
:1022600016E3010E2515006E0050010BE844F46ED4
:102270008150FD0BF410816E25417F0B006E0050E4
:10228000256F26C500F000060050266FA7D081827A
:10229000080E0501236FA2D08182090E0501236F6C
:1022A0009DD081820501236B99D000C500F00050BC
:1022B000040A04E00050070A2EE090D00DC500F09B
:1022C000002A005005010D6F090E0D5D20E2010E80
:1022D000025D02E1550E015D0EE3010E0501025D96
:1022E00002E1DC0E015D07E205010C417F0B006E8F
:1022F00000500C6F73D005010C417F0B006E005035
:102300000C6F800E0C11006E00500C6F67D0070E22
:102310000501006F63D005010C51E56E03EC1BF065
:10232000E65205010C6B020E006FF29A57D000C501
:1023300000F00050016E01500FE00050010A17E05C
:102340000050030A1BE00050050A01E13BD0005099
:10235000080A01E13ED042D00EEC00F005010D511B
:10236000080A03E1010E0501006F819437D0EEECFD
:1023700005F0030E0501006F818430D00DC500F01B
:102380000004016E015005010D6F005015E0800E34
:10239000006E0D5105E0E86CD8900032010FFDE3AE
:1023A00005010C510016005004E00EEC00F0819481
:1023B00003D0EEEC05F0818405010D510FE1050E0F
:1023C000006F0CD00EEC00F0080E0501006F819438
:1023D00005D00EEC00F00501006B8194F294A1ACE5
:1023E00076D0A0AC74D0B4AC70D0D6CF00F0016A77
:1023F000D7CF02F0036A0250056E046A0450001041
:102400000501486F05500110496F818405014C5149
:102410000501485D006E05014D5105014959016EE8
:1024200000500501016F0150026F48C54CF549C5C8
:102430004DF5010E025D02E1550E015D30E3010E26
:102440000501025D02E1DC0E015D29E20501015199
:102450000525006E02510621016E0050056F0150E6
:10246000066F0051020A32E1030E0501065D02E12A
:10247000200E055D2BE305014B51006E016A0050F3
:10248000D76E4A51D66E0501056B066B076B086B5C
:102490000D6B0C6B040E006FF294F28A17D00501DD
:1024A0000051020A06E10501056B066B076B086B1C
:1024B0000DD0050101510725006E02510821016E62
:1024C0000050076F0150086F01D08194A19CE4CFA8
:1024D00005F0E4CF04F0E4CF03F0E4CF02F0E4CF62
:1024E00001F0E4CF00F0E4CFD9FFE4CFFBFFE4CF6D
:1024F000FAFFE4CFEAFFE4CFE9FFE4CFF4FFE4CF53
:10250000F3FFE450E4CFE0FFE4CFD8FF10004D65C7
:102510007465724C6F676765722E2E2E207365721C
:1025200069616C20776F726B696E670A0D0070725B
:10253000657373207072696E74206F6E207465739A
:10254000746F0A00646F6E652072656365697669F1
:102550006E67202D2073656E64696E6720766961F1
:102560002073657269616C2F66736B0A0000776176
:102570006974696E6720666F72206E657720636F7D
:102580006D6D616E640A00006563686F2074657329
:1025900074202D2073656E6420736F6D65206461F7
:1025A00074610A000A77616974696E6720666F72E8
:1025B000206E657720636F6D6D616E640A006B61DC
:1025C0006D7374727570202D2073656E64206B6D51
:1025D00070206672616D6520646174610A006B61D0
:1025E0006D7374727570202D206B6D702066726132
:1025F0006D653A0A000025640A00D350FC0BD36EC7
:10260000D3508F0B7009D36E0501296B2A6B2B6B8E
:102610002C6B0501446B456B0501466B476B70ECF9
:102620001FF0000E026E250E016E0E0E006E02509F
:10263000E56E0150E56E0050E56E06EC1FF0030EEE
:10264000E126000EE56E000EE56E000EE56E640EEE
:10265000E56EC1EC19F0040EE12642EC1FF0050E08
:10266000016E510E006E800E026E0250E56E01503A
:10267000E56E0050E56E02EC19F0006E030EE126E7
:102680000050EDE0050151510BE005015151010AE7
:1026900001E11AD105015151FF0A01E193D0DFD7C1
:1026A0006FEC21F0000E026E250E016E2E0E006EF4
:1026B0000250E56E0150E56E0050E56E06EC1FF02D
:1026C000030EE126D7EC1FF0006A016A000EE56EEA
:1026D000000EE56E270EE56E100EE56EC1EC19F0EA
:1026E000040EE126F5EC1FF0026EF3CF03F0035069
:1026F000015C02E10250005C16E202C000F003C07F
:1027000001F0000EE56E000EE56E000EE56EC80EDF
:10271000E56EC1EC19F0040EE126F5EC1FF0026E37
:10272000F3CF03F0E4D78DEC21F0000E066E250EFA
:10273000056E440E046E0650E56E0550E56E0450BD
:10274000E56E06EC1FF0030EE1262CEC20F0050EE2
:10275000056E510E046E800E066E0650E56E055035
:10276000E56E0450E56E02EC19F0046E030EE126EE
:10277000045013E005015151E56EE0EC20F0E65203
:10278000000EE56E000EE56E000EE56E040EE56EC1
:10279000C1EC19F0040EE126DAD7A1EC21F0000E0D
:1027A000066E250E056E6E0E046E0650E56E055023
:1027B000E56E0450E56E06EC1FF0030EE12642ECD8
:1027C0001FF04DD76FEC21F0000E066E250E056E42
:1027D000880E046E0650E56E0550E56E0450E56EF9
:1027E00006EC1FF0030EE12642EC1FF0006A016ABE
:1027F000000EE56E000EE56E030EE56EE80EE56E6A
:10280000C1EC19F0040EE126F5EC1FF0026EF3CFD7
:1028100003F00350015C02E10250005C16E202C0CA
:1028200000F003C001F0000EE56E000EE56E010E33
:10283000E56EF40EE56EC1EC19F0040EE126F5EC40
:102840001FF0026EF3CF03F0E4D76FEC21F02CEC15
:1028500020F0050E056E520E046E800E066E0650B8
:10286000E56E0550E56E0450E56E02EC19F0046E5D
:10287000030EE126045013E005015251E56EE0EC31
:1028800020F0E652000EE56E000EE56E000EE56EDD
:10289000040EE56EC1EC19F0040EE126DAD7A1ECC6
:1028A00021F0000E066E250E056EA40E046E065075
:1028B000E56E0550E56E0450E56E06EC1FF0030E64
:1028C000E12642EC1FF0CBD66FEC21F0000E066E35
:1028D000250E056EBE0E046E0650E56E0550E56EC3
:1028E0000450E56E06EC1FF0030EE12642EC1FF0EB
:1028F000006A016A000EE56E000EE56E000EE56EE0
:10290000640EE56EC1EC19F0040EE126F5EC1FF043
:10291000026EF3CF03F00350015C02E10250005C51
:1029200016E202C000F003C001F0000EE56E000EDA
:10293000E56E000EE56E640EE56EC1EC19F0040E56
:10294000E126F5EC1FF0026EF3CF03F0E4D76FEC55
:1029500021F0000E026E250E016EDE0E006E02509A
:10296000E56E0150E56E0050E56E06EC1FF0030EBB
:10297000E126B8EC1FF0000EE56E000EE56E000ECD
:10298000E56E080EE56EC1EC19F0040EE126050EA9
:10299000016E520E006E800E026E0250E56E015006
:1029A000E56E0050E56E02EC19F0006E030EE126B4
:1029B0000050D8B446D052C500F0016A000E046E33
:1029C000250E036EF60E026E000E066E600E056E8C
:1029D000800E076E0150E56E0050E56E0450E56E06
:1029E0000350E56E0250E56E0750E56E0650E56E49
:1029F0000550E56E1EEC1CF0080EE126000E016E7F
:102A0000600E006E800E026E0250E56E0150E56EA3
:102A10000050E56E06EC1FF0030EE1260501525151
:102A2000E56EF3EC20F0E652000EE56E000EE56E6A
:102A3000000EE56E080EE56EC1EC19F0040EE126FD
:102A4000A6D7000EE56E000EE56E000EE56E080ED0
:102A5000E56EC1EC19F0040EE12683EC21F0BAEC2E
:102A600021F079EC21F02CEC20F0A1EC21F0000E0B
:102A7000026E250E016EA40E006E0250E56E01502E
:102A8000E56E0050E56E06EC1FF0030EE12642EC09
:102A90001FF02FEF13F01200D9CFE5FFE1CFD9FFE0
:102AA00000C0E5FF01C0E5FF02C0E5FF03C0E5FF90
:102AB00004C0E5FF05C0E5FF06C0E5FF07C0E5FF70
:102AC000020EDBCF00F0030EDBCF01F0040EDBCFF4
:102AD00002F0050EDBCF03F0060EDBCF04F0070E8D
:102AE000DBCF05F0080EDBCF06F0090EDBCF07F0D9
:102AF000005005012D6F01502E6F02502F6F0350B3
:102B0000306F04500501316F0550326F0650336F3E
:102B10000750346F05012D5105013303F4CF01F047
:102B2000F3CF00F000500501376F0150386F0501F9
:102B30002D5105013103F4CF01F0F3CF00F0005027
:102B40000501356F0150366F050130510501310324
:102B5000F3CF00F00501385100260050386F050111
:102B60002F5105013203F3CF00F005013851002643
:102B70000050386F05012F5105013103F4CF01F0EA
:102B8000F3CF00F0050137510026385101220050E3
:102B9000376F0150386F05012E5105013203F4CF14
:102BA00001F0F3CF00F00501375100263851012222
:102BB0000050376F0150386F05012E510501330366
:102BC000F3CF00F0005005013C6F05012E510501C7
:102BD0003103F4CF01F0F3CF00F0005005013A6F5C
:102BE00001503B6F05012D5105013403F3CF00F077
:102BF00000500501406F05012D5105013203F4CF4E
:102C000001F0F3CF00F0005005013E6F01503F6F1F
:102C10000501396B05013D6B05013951050135256C
:102C2000006E05013A5105013621016E05013B5147
:102C300005013721026E05013C5105013821036E63
:102C40000050356F0150366F0250376F0350386FA8
:102C500005013D5105013525006E05013E51050177
:102C60003621016E05013F5105013721026E050134
:102C7000405105013821036E03C0E9FF02C0F4FF93
:102C800001C0F3FF0050E4CF07F0E4CF06F0E4CF3B
:102C900005F0E4CF04F0E4CF03F0E4CF02F0E4CF9A
:102CA00001F0E4CF00F0E4CFD9FF1200D9CFE5FF67
:102CB000E1CFD9FF00C0E5FF01C0E5FF02C0E5FF9D
:102CC00003C0E5FF04C0E5FF05C0E5FF06C0E5FF62
:102CD00007C0E5FF08C0E5FF020EDBCF00F0030EE2
:102CE000DBCF01F0026A780E0014036E046A056AF5
:102CF000010E066E000E076E055006E0E86CD890D7
:102D000006360736010FFCE303500616045007167B
:102D1000065005E1075003E1066A062A01D0066A5B
:102D20000650D880E866D890066A06360250076ECC
:102D300006500718026E052A080E055CD9E3024406
:102D4000FE0B036E026AE60E0014046E056A066A44
:102D5000010E076E000E086E065006E0E86CD89073
:102D600007360836010FFCE3045007160550081615
:102D7000075005E1085003E1076A072A01D0076AF6
:102D80000750D880E866D890076A07360250086E68
:102D900007500818026E062A080E065CD9E3025096
:102DA0000312D8900336026AD50E0014046E056A29
:102DB000066A010E076E000E086E065006E0E86C0B
:102DC000D89007360836010FFCE30450071605506B
:102DD0000816075005E1085003E1076A072A01D0E9
:102DE000076A0750D880E866D890076A073602500D
:102DF000086E07500818026E062A080E065CD9E312
:102E000002500312D8900336026A8B0E0014046E2F
:102E1000056A066A010E076E000E086E065006E08F
:102E2000E86CD89007360836010FFCE3045007160B
:102E300005500816075005E1085003E1076A072A04
:102E400001D0076A0750D880E866D890076A07362D
:102E50000250086E07500818026E062A080E065C1B
:102E6000D9E3025003120150006E016A026A005059
:102E7000031803E10150021801E002D0010E01D055
:102E8000E86AE4CF08F0E4CF07F0E4CF06F0E4CF3F
:102E900005F0E4CF04F0E4CF03F0E4CF02F0E4CF98
:102EA00001F0E4CF00F0E4CFD9FF1200D9CFE5FF65
:102EB000E1CFD9FF00C0E5FF01C0E5FF02C0E5FF9B
:102EC00003C0E5FF04C0E5FF05C0E5FF06C0E5FF60
:102ED00007C0E5FF08C0E5FF09C0E5FF0AC0E5FF40
:102EE0000BC0E5FF0CC0E5FF0DC0E5FF0EC0E5FF20
:102EF0000FC0E5FF020EDBCF00F0030EDBCF01F0C9
:102F0000040EDBCF02F0050EDBCF03F0060EDBCFA5
:102F100004F0070EDBCF05F0080EDBCF06F0200E25
:102F2000076E086A06C009F00A6A0B6A0C6AE56A4D
:102F3000E56AE56A0950E56E0350E56E0250E56EFC
:102F40000150E56E0050E56E66EC1AF00D6E080E4D
:102F5000E126300E0D263A0E0D5C05E30D500E6E87
:102F6000270E0E240D6EFF0E07260822E00E072402
:102F70000E6E000E08200F6E0EC0E9FF0FC0EAFFB4
:102F80000DC0EFFF0C50E56E0B50E56E0A50E56E7C
:102F90000950E56E0350E56E0250E56E0150E56E96
:102FA0000050E56E92EC1BF0006EF3CF01F0F4CF11
:102FB00002F0E9CF03F0080EE126005001100210E4
:102FC0000310D8A4AFD707C000F008C001F004C0B8
:102FD00002F005C003F000C004F001C005F0004A93
:102FE000012AE00E0426000E052204C0E9FF05C0F8
:102FF000EAFFEFCF04F002C0E9FF03C0EAFF04C01C
:10300000EFFF024A032A000E015C02E1200E005C81
:10301000E2E302C0E9FF03C0EAFF000EEF6AE4CF7B
:103020000FF0E4CF0EF0E4CF0DF0E4CF0CF0E4CFDE
:103030000BF0E4CF0AF0E4CF09F0E4CF08F0E4CFDE
:1030400007F0E4CF06F0E4CF05F0E4CF04F0E4CFDE
:1030500003F0E4CF02F0E4CF01F0E4CF00F0E4CFDE
:10306000D9FF1200D9CFE5FFE1CFD9FF00C0E5FFBE
:1030700001C0E5FF02C0E5FF03C0E5FF04C0E5FFB6
:1030800005C0E5FF06C0E5FF020EDBCF00F0030E32
:10309000DBCF01F0040EDBCF02F0050EDBCF03F037
:1030A000060EDBCF04F0F5EC1FF0056EF3CF06F053
:1030B0000650045C02E10550035CD8B091D00501D4
:1030C0004751056E066A000E065C02E1040E055CBF
:1030D000D8B084D0FA6AFB6A0534FA36E834FA3696
:1030E000FC0BF20FE56E300EFA22000EFB22E450CC
:1030F000F96E81EF18F09DEF18F0B9EF18F0D5EFE9
:1031000018F0035005014625056E04504721066E50
:10311000066A000E0526070E062205C0E9FF06C056
:10312000EAFFEFCF05F005C0E5FF00C0E9FF01C0F1
:10313000F3FF025064EC21F051D003500501462505
:10314000056E04504721066E066A000E0526010E24
:10315000062205C0E9FF06C0EAFFEFCF05F005C073
:10316000E5FF00C0E9FF01C0F3FF025064EC21F06D
:1031700035D0035005014625056E04504721066EE3
:10318000066A000E0526020E062205C0E9FF06C0EB
:10319000EAFFEFCF05F005C0E5FF00C0E9FF01C081
:1031A000F3FF025064EC21F019D0050146510326CB
:1031B00047510422046A000E0326030E042203C0B2
:1031C000E9FF04C0EAFFEFCF03F003C0E5FF00C052
:1031D000E9FF01C0F3FF025064EC21F0010E01D0C1
:1031E000E86AE4CF06F0E4CF05F0E4CF04F0E4CFE2
:1031F00003F0E4CF02F0E4CF01F0E4CF00F0E4CF3D
:10320000D9FF1200D9CFE5FFE1CFD9FF00C0E5FF1C
:1032100001C0E5FF02C0E5FF03C0E5FF04C0E5FF14
:10322000020EDBCF00F0030EDBCF01F0040EDBCF8C
:1032300002F0F5EC1FF0036EF3CF04F0035004101E
:10324000D8B491D005014751036E046A000E045CA6
:1032500002E1040E035CD8B076D0FA6AFB6A03344C
:10326000FA36E834FA36FC0B780FE56E320EFA22A5
:10327000000EFB22E450F96E44EF19F05CEF19F0F8
:1032800074EF19F08CEF19F005014651036E046AD2
:10329000000E0326070E042203C0E9FF04C0EAFF64
:1032A000EFCF03F003C0E5FF00C0E9FF01C0F3FF6B
:1032B000025064EC21F047D005014651036E046AC8
:1032C000000E0326010E042203C0E9FF04C0EAFF3A
:1032D000EFCF03F003C0E5FF00C0E9FF01C0F3FF3B
:1032E000025064EC21F02FD005014651036E046AB0
:1032F000000E0326020E042203C0E9FF04C0EAFF09
:10330000EFCF03F003C0E5FF00C0E9FF01C0F3FF0A
:10331000025064EC21F017D005014651036E046A97
:10332000000E0326030E042203C0E9FF04C0EAFFD7
:10333000EFCF03F003C0E5FF00C0E9FF01C0F3FFDA
:10334000025064EC21F00501463F01D0472B0501F6
:10335000465103E14751040A01E003D00501466BE1
:10336000476B010E01D0E86AE4CF04F0E4CF03F02C
:10337000E4CF02F0E4CF01F0E4CF00F0E4CFD9FFD6
:103380001200D9CFE5FFE1CFD9FF00C0E5FF01C0B2
:10339000E5FF02C0E5FF03C0E5FF04C0E5FF05C08F
:1033A000E5FF06C0E5FF07C0E5FF08C0E5FF09C06F
:1033B000E5FF0AC0E5FF0BC0E5FF0CC0E5FF0DC04F
:1033C000E5FF0EC0E5FF0FC0E5FF020EDBCF00F00A
:1033D000030EDBCF01F0040EDBCF02F0050EDBCFD6
:1033E00003F029C504F02AC505F02BC506F02CC54D
:1033F00007F004500501295D086E05502A59096E31
:1034000006502B590A6E07502C590B6E08500C6E43
:1034100009500D6E0A500E6E0B500F6ED8800FAE15
:10342000D8901CE30B50E56E0A50E56E0950E56E2E
:103430000850E56EFF0EE56EFF0EE56EFF0EE56EC1
:10344000FF0EE56E4CEC15F00C6EF3CF0DF0F4CFE3
:103450000EF0E9CF0FF0080EE12608D008C00CF0FE
:1034600009C00DF00AC00EF00BC00FF003500F5C46
:1034700008E102500E5C05E101500D5C02E10050D4
:103480000C5CD8A0B6D7E4CF0FF0E4CF0EF0E4CFB9
:103490000DF0E4CF0CF0E4CF0BF0E4CF0AF0E4CF72
:1034A00009F0E4CF08F0E4CF07F0E4CF06F0E4CF72
:1034B00005F0E4CF04F0E4CF03F0E4CF02F0E4CF72
:1034C00001F0E4CF00F0E4CFD9FF1200D9CFE5FF3F
:1034D000E1CFD9FF00C0E5FF01C0E5FF02C0E5FF75
:1034E00003C0E5FF04C0E5FF05C0E5FF06C0E5FF3A
:1034F00007C0E5FF08C0E5FF09C0E5FF0AC0E5FF1A
:10350000020EDBCF00F0030EDBCF01F0040EDBCFA9
:1035100002F0050EDBCF03F0060EDBCF04F0070E42
:10352000DBCF05F0080EDBCF06F0090EDBCF07F08E
:10353000086A045005100610071005E1E968F468F0
:10354000F368E86847D0096A0750800BE8440A6EC0
:103550000A501BE10450042605360636073607508C
:10356000035C08E10650025C05E10550015C02E1E4
:103570000450005C06E2D89007320632053204326D
:1035800004D0092A09C008F0DFD70750035C08E11E
:103590000650025C05E10550015C02E10450005C4C
:1035A00008E30450005E0550015A0650025A0750C5
:1035B000035AD890073206320532043208C009F0A7
:1035C00008060950E2E103C0E9FF02C0F4FF01C0B0
:1035D000F3FF0050E4CF0AF0E4CF09F0E4CF08F0A5
:1035E000E4CF07F0E4CF06F0E4CF05F0E4CF04F039
:1035F000E4CF03F0E4CF02F0E4CF01F0E4CF00F039
:10360000E4CFD9FF1200D9CFE5FFE1CFD9FF00C049
:10361000E5FF01C0E5FF02C0E5FF020EDBCF00F0D1
:10362000F5EC1FF0016EF3CF02F0015004E10250FF
:10363000040A01E16DD005014551016E026A000ED8
:10364000025C02E1040E015CD8B052D0FA6AFB6A57
:103650000134FA36E834FA36FC0B6A0FE56E360EA2
:10366000FA22000EFB22E450F96E3DEF1BF04CEF06
:103670001BF05BEF1BF06AEF1BF005014451016E7C
:10368000026A000E0126070E022201C0E9FF02C0F5
:10369000EAFF00C0EFFF2CD005014451016E026A21
:1036A000000E0126010E022201C0E9FF02C0EAFF5E
:1036B00000C0EFFF1DD005014451016E026A000EEB
:1036C0000126020E022201C0E9FF02C0EAFF00C08B
:1036D000EFFF0ED005014451016E026A000E012673
:1036E000030E022201C0E9FF02C0EAFF00C0EFFFA3
:1036F0000501443F01D0452B0501445103E14551EB
:10370000040A01E003D00501446B456B010E01D0B2
:10371000E86AE4CF02F0E4CF01F0E4CF00F0E4CFB8
:10372000D9FF1200D9CFE5FFE1CFD9FF00C0E5FFF7
:1037300001C0E5FF02C0E5FF03C0E5FF04C0E5FFEF
:1037400005C0E5FF06C0E5FF07C0E5FF08C0E5FFCF
:1037500009C0E5FF0AC0E5FF0BC0E5FF0CC0E5FFAF
:103760000DC0E5FF020EDBCF00F0030EDBCF01F052
:10377000040EDBCF02F0050EDBCF03F0060EDBCF2D
:1037800004F0070EDBCF05F0080EDBCF06F0090EC4
:10379000DBCF07F0086A096A0A6A0B6A200E0C6E12
:1037A0000350800BE8440D6E0050002601360236AF
:1037B00003360850082609360A360B360D50D8A4B1
:1037C000088007500B5C08E106500A5C05E10550D3
:1037D000095C02E10450085C09E30450085E0550EE
:1037E000095A06500A5A07500B5A00800C2ED8D797
:1037F00003C0E9FF02C0F4FF01C0F3FF0050E4CFB3
:103800000DF0E4CF0CF0E4CF0BF0E4CF0AF0E4CFFE
:1038100009F0E4CF08F0E4CF07F0E4CF06F0E4CFFE
:1038200005F0E4CF04F0E4CF03F0E4CF02F0E4CFFE
:1038300001F0E4CF00F0E4CFD9FF1200D9CFE5FFCB
:10384000E1CFD9FF00C0E5FF01C0E5FF02C0E5FF01
:1038500003C0E5FF04C0E5FF05C0E5FF050ED92460
:10386000006E000EDA20016E800E026E030E00263E
:10387000000E0122022206C0E5FF07C0E5FF08C0D6
:10388000E5FF020EDBCF06F0030EDBCF07F0040EE0
:10389000DBCF08F00850056E0750046E0650036E2B
:1038A000E4CF08F0E4CF07F0E4CF06F00250E56E75
:1038B0000150E56E0050E56E070EDBCFE5FF060E0A
:1038C000DBCFE5FF050EDBCFE5FF0550E56E0450CD
:1038D000E56E0350E56E91EC0BF0006EF3CF01F056
:1038E000090EE12606C0E5FF07C0E5FF08C0E5FFB9
:1038F000020EDBCF06F0030EDBCF07F0040EDBCFAA
:1039000008F000500624026E01500720036EE86A9A
:103910000820E4CF08F0E4CF07F0E4CF06F0E56A32
:1039200002C0E9FF03C0F3FF64EC21F001C0F3FF24
:103930000050E4CF05F0E4CF04F0E4CF03F0E4CF8F
:1039400002F0E4CF01F0E4CF00F0E4CFD9FF1200A1
:10395000D9CFE5FFE1CFD9FF00C0E5FF01C0E5FF0A
:1039600002C0E5FF03C0E5FF04C0E5FF05C0E5FFB9
:1039700006C0E5FF07C0E5FF020EDBCF00F0030E37
:10398000DBCF01F0040EDBCF02F0050EDBCF03F03E
:1039900002C006F00650046E800A33E100C0E9FF61
:1039A00001C0F3FF025011EC20F0056EF3CF06F0DA
:1039B000F4CF07F003C0E5FF05C0E9FF06C0F3FF41
:1039C000075064EC21F000C0E9FF01C0F3FF025092
:1039D00011EC20F0056EF3CF06F0F4CF07F0052AC6
:1039E00002E3064A072A05C0E5FF06C0F4FF07C048
:1039F000F6FF00C0E9FF01C0F3FF025049EC21F0DF
:103A00001DD004AA1BD0047A045004E1035006EC34
:103A100000F014D00450010A04E1035002EC00F05D
:103A20000DD004500F0A04E10350D6EC21F006D06B
:103A300004500E0A03E10350C9EC21F0E4CF07F073
:103A4000E4CF06F0E4CF05F0E4CF04F0E4CF03F0D8
:103A5000E4CF02F0E4CF01F0E4CF00F0E4CFD9FFEF
:103A60001200D8CFE5FFE0CFE5FFE56EF3CFE5FF2D
:103A7000F4CFE5FFE9CFE5FFEACFE5FFFACFE5FFB9
:103A8000FBCFE5FFD9CFE5FFE1CFD9FF00C0E5FFD0
:103A900001C0E5FF9EA028D0F80ECF6E530ECE6E6B
:103AA0004EC500F00050016E015004E00050010AC4
:103AB00006E011D08188010E05014E6F0CD04FC574
:103AC00000F00004016E015005014F6F005003E14A
:103AD0008198020E4E6F0501292B05E32A2B03E383
:103AE0002B3F01D02C2B9E90C5EC21F0006E005096
:103AF00006E0B8EC20F0006E0050AAEC21F0E4CF14
:103B000001F0E4CF00F0E4CFD9FFE4CFFBFFE4CF36
:103B1000FAFFE4CFEAFFE4CFE9FFE4CFF4FFE4CF1C
:103B2000F3FFE450E4CFE0FFE4CFD8FF1000D9CF9B
:103B3000E5FFE1CFD9FF8186000000000000000012
:103B40000000000000000000000000000000000075
:103B50000000000000000000000000000000000065
:103B60000000000000000000000000000000000055
:103B70000000000000000000000000000000000045
:103B80000000000000000000000000000000000035
:103B9000000081960000000000000000000000000E
:103BA0000000000000000000000000000000000015
:103BB0000000000000000000000000000000000005
:103BC00000000000000000000000000000000000F5
:103BD00000000000000000000000000000000000E5
:103BE0000000000000000000000000000000E4CF22
:103BF000D9FF1200D9CFE5FFE1CFD9FF81840000C2
:103C000000000000000000000000000000000000B4
:103C100000000000000000000000000000000000A4
:103C20000000000000000000000000000000000094
:103C30000000000000000000000000000000000084
:103C40000000000000000000000000000000000074
:103C5000000000000000000081940000000000004F
:103C60000000000000000000000000000000000054
:103C70000000000000000000000000000000000044
:103C80000000000000000000000000000000000034
:103C90000000000000000000000000000000000024
:103CA0000000000000000000000000000000000014
:103CB00000000000E4CFD9FF1200D9CFE5FFE1CF2B
:103CC000D9FF00C0E5FF01C0E5FF02C0E5FF03C06A
:103CD000E5FF04C0E5FF05C0E5FF06C0E5FF020EF5
:103CE000DBCF00F0030EDBCF01F0040EDBCF02F0E0
:103CF000050EDBCF03F0060EDBCF04F0070EDBCFA3
:103D000005F0080EDBCF06F0D88003AED89015E39F
:103D100006500A0A12E104C0E9FF05C0EAFF2D0EB1
:103D2000EF6E044A052A031E021E011E006C05E107
:103D3000012A03E1022AD8B4032A0650E56E055091
:103D4000E56E0450E56E0350E56E0250E56E0150DD
:103D5000E56E0050E56E56EC17F0070EE126E4CF55
:103D600006F0E4CF05F0E4CF04F0E4CF03F0E4CFB5
:103D700002F0E4CF01F0E4CF00F0E4CFD9FF12006D
:103D8000D9CFE5FFE1CFD9FF00C0E5FF01C0E5FFD6
:103D900002C0E5FF03C0E5FF020EDBCF00F00040EC
:103DA0007F0B016E550E01160044FE0B026EAA0E2B
:103DB0000216025001120040E8403F0B026E330E23
:103DC00002160044E844FC0B036ECC0E03160350AD
:103DD00002120250011200380F0B026E0F0E021673
:103DE0000038F00B036EF00E0314006E0050021248
:103DF000025001120150E4CF03F0E4CF02F0E4CF0F
:103E000001F0E4CF00F0E4CFD9FF1200D9CFE5FFF5
:103E1000E1CFD9FF00C0E5FF01C0E5FF02C0E5FF2B
:103E200003C0E5FF020EDBCF00F0030EDBCF01F095
:103E3000040EDBCF02F0C1EC21F0036E0350FBE176
:103E400000C0E9FF01C0F3FF025018EC21F0AAEC1A
:103E500021F000C0E9FF01C0F3FF025018EC21F08F
:103E6000036E002A02E3014A022A0350E4E1E4CF90
:103E700003F0E4CF02F0E4CF01F0E4CF00F0E4CFB0
:103E8000D9FF1200D9CFE5FFE1CFD9FF020E05011E
:103E9000006F0A6B0B6B9F0E05014A6FF90E4B6F9B
:103EA000040E0501536FD58ED590D592D594D59C2F
:103EB000D59AD586F184F29AB588B598B59AB55059
:103EC000F00B0909B56EB59CB58EB450F80B060918
:103ED000B46EB496B488A28CA08CE4CFD9FF120043
:103EE000D9CFE5FFE1CFD9FF938093988198939440
:103EF00081949392819293988198928092829492E5
:103F00008292948E949CCD80CD8ECD92CD96CD987C
:103F1000CD9A9F909D809E80D08EF298F18CF28CED
:103F2000F28E9F9A9F98A3EC20F0E4CFD9FF120065
:103F3000E8AE0AD0F3CFEAFFEE50EECFF3FFEECFBC
:103F4000F4FFEECFE9FF1200E8BCD2EF21F0E9CF99
:103F5000F6FFF3CFF7FFF86E0900F5500900F5CF33
:103F6000F3FF0900F5CFF4FF0900F5CFE9FF1200D8
:103F7000D9CFE5FFE1CFD9FFAE0E05014A6FF90EAB
:103F80004B6F0501236B266B8182030E0501536F76
:103F9000D59ED590D592D594D59CD59AD586F184C9
:103FA000F28AF294F298D58EE4CFD9FF1200D9CFDD
:103FB000E5FFE1CFD9FF05011D6B1F6B230E050146
:103FC0004A6FF30E4B6F010E0501536FD59ED590CE
:103FD000D592D594D59CD59AD586F184F28AF2945F
:103FE000F288F18CE4CFD9FF1200D9CFE5FFE1CF01
:103FF000D9FF00C0E5FF01C0E5FF050146510501FD
:10400000445D006E0501475105014559016E01C02F
:10401000F3FF0050E4CF01F0E4CF00F0E4CFD9FF8C
:104020001200E8AE08D0F3CFEAFFEE50EECFF3FF78
:10403000EECFF4FF1200E8BCD0EF21F0E9CFF6FF9D
:10404000F3CFF7FFF86E0900F5500900F5CFF3FF45
:104050000900F5CFF4FF1200D9CFE5FFE1CFD9FF7A
:104060009F0E05014A6FF90E4B6F0501006B050E9F
:104070000501536FD58ED590D592D594D59CD59A00
:10408000D586F184F28AE4CFD9FF1200F2CFEAFF9D
:10409000F29EA69EA69CA684E9CFA9FFE4CFA8FF26
:1040A000B2EC21F0F4CFA8FFB2EC21F0F6CFA8FFDC
:1040B000B2EC21F0A694EABEF28E1200F2CFF6FF27
:1040C000F29EA69EA69CE9CFA9FFA680A850A92A89
:1040D000A680A8CFF3FFA92AA680A8CFF4FFA92A1B
:1040E000A680A8CFEAFFF6BEF28E1200D9CFE5FF78
:1040F000E1CFD9FF00C0E5FF020EDBCF00F0610E7B
:10410000005C05E37B0E005C02E2010E01D0E86A70
:10411000E4CF00F0E4CFD9FF1200E8AE06D0F3CF31
:10412000EAFFEE50EECFF3FF1200E8BCCEEF21F035
:10413000E9CFF6FFF3CFF7FFF86E0900F55009005D
:10414000F5CFF3FF1200D9CFE5FFE1CFD9FF670E1E
:10415000AF6EAC84AC98B886AB8E9D989F989D8AC4
:104160009F9AAC9CAB9CAB88AC8AE4CFD9FF120081
:10417000F00E05015415546FABAC04D05491ABA0B4
:1041800001D05481ABA402D005015485ABA202D06A
:1041900005015487AE501200F2CFF6FFF29EA69EA4
:1041A000A69CE9CFA9FFA680A850A92AA680A8CFDF
:1041B000F3FFA92AA680A8CFF4FFF6BEF28E120064
:1041C000D9CFE5FFE1CFD9FF00C0E5FF020EDBCF7D
:1041D00000F0005005010C6F080E0D6FE4CF00F0E9
:1041E000E4CFD9FF1200D9CFE5FFE1CFD9FF00C05E
:1041F000E5FF020EDBCF00F000500501256F080E31
:10420000266FE4CF00F0E4CFD9FF1200D9CFE5FF4D
:10421000E1CFD9FF00C0E5FF020EDBCF00F0005078
:1042200005014F6F4E6BE4CF00F0E4CFD9FF1200D1
:10423000E8AE04D0F3CFEAFFEE501200E8BCCCEFBA
:1042400021F0E9CFF6FFF3CFF7FFF86E0900F55044
:104250001200F2CFEAFFF29EA69EA69CA684E9CFAA
:10426000A9FFE4CFA8FFB2EC21F0A694EABEF28E3B
:104270001200F2CFF6FFF29EA69EA69CE9CFA9FF00
:10428000A680A850A92AA680A8CFF3FFF6BEF28E7A
:104290001200E8AE09D0F3CFEAFFE4CFEEFFF4CF8F
:1042A000EEFFF6CFEEFF1200E8BCD4EF21F01200D3
:1042B000F2CFF6FFF29EA69EA69CE9CFA9FFA680AC
:1042C000A850F6BEF28E1200E8AE05D0F3CFEAFF9A
:1042D000E4CFEEFF1200E8BC0AEF00F01200D9CFE5
:1042E000E5FFE1CFD9FFA09C0501536BE4CFD9FFD7
:1042F0001200D9CFE5FFE1CFD9FFF2980501536B4A
:10430000E4CFD9FF1200D9CFE5FFE1CFD9FF0501F6
:10431000536B8192E4CFD9FF1200D9CFE5FFE1CFF3
:10432000D9FF0501536BF298E4CFD9FF120014EEC8
:10433000FFF024EEFFF0F86AA68EA69CFDEC12F0CA
:10434000FFD7D9CFE5FFE1CFD9FF0501536BE4CF0C
:10435000D9FF1200ACAC04D0AC90050154B3AC80D2
:10436000AD6E1200550EA76EAA0EA76EA682A6B25B
:10437000FED7A94AD9CFE5FFE1CFD9FFE4CFD9FFD6
:104380001200000EACA2010F1200000E9EBA010F27
:104390001200E8CF7FFF120058EF21F039EF21F033
:0E43A000CCEF20F05EEF20F046EF20F0120090
:020000040030CA
:04000000010A191EBA
:020005008185F3
:060008000FC00FE00F40E5
:00000001FF
