:020000040000FA
:10000000B4EF22F0C96E1200B3EF13F0ACA2FED72A
:10001000AD6E120039EF22F0F9EF1EF0D9CFE5FFF7
:10002000E1CFD9FF82820000000000000000000044
:1000300000000000000000000000000000000000C0
:1000400000000000000000000000000000000000B0
:1000500000000000000000000000000000000000A0
:100060000000000000000000000000000000000090
:100070000000000000000000000000000000000080
:100080000000000000000000000000000000000070
:100090000000000000000000000000000000000060
:1000A0000000000000000000000000000000000050
:1000B0000000000000000000000000000000000040
:1000C0000000000000000000000000000000000030
:1000D0000000000000000000000000000000000020
:1000E0000000000000000000000000000000000010
:1000F0000000000000000000000000000000000000
:1001000000000000000000000000000000000000EF
:1001100000000000000000000000000000000000DF
:1001200000000000000000000000000000000000CF
:1001300000000000829200000000000000000000AB
:1001400000000000000000000000000000000000AF
:10015000000000000000000000000000000000009F
:10016000000000000000000000000000000000008F
:10017000000000000000000000000000000000007F
:10018000000000000000000000000000000000006F
:10019000000000000000000000000000000000005F
:1001A000000000000000000000000000000000004F
:1001B000000000000000000000000000000000003F
:1001C000000000000000000000000000000000002F
:1001D000000000000000000000000000000000001F
:1001E000000000000000000000000000000000000F
:1001F00000000000000000000000000000000000FF
:1002000000000000000000000000000000000000EE
:1002100000000000000000000000000000000000DE
:1002200000000000000000000000000000000000CE
:1002300000000000000000000000000000000000BE
:1002400000000000828200000000000000000000AA
:10025000000000000000000000000000000000009E
:10026000000000000000000000000000000000008E
:10027000000000000000000000000000000000007E
:10028000000000000000000000000000000000006E
:10029000000000000000000000000000000000005E
:1002A000000000000000000000000000000000004E
:1002B000000000000000000000000000000000003E
:1002C000000000000000000000000000000000002E
:1002D000000000000000000000000000000000001E
:1002E000000000000000000000000000000000000E
:1002F00000000000000000000000000000000000FE
:1003000000000000000000000000000000000000ED
:1003100000000000000000000000000000000000DD
:1003200000000000000000000000000000000000CD
:1003300000000000000000000000000000000000BD
:1003400000000000000000000000000000000000AD
:100350000000000082920000000000000000000089
:10036000000000000000000000000000000000008D
:10037000000000000000000000000000000000007D
:10038000000000000000000000000000000000006D
:10039000000000000000000000000000000000005D
:1003A000000000000000000000000000000000004D
:1003B000000000000000000000000000000000003D
:1003C000000000000000000000000000000000002D
:1003D000000000000000000000000000000000001D
:1003E000000000000000000000000000000000000D
:1003F00000000000000000000000000000000000FD
:1004000000000000000000000000000000000000EC
:1004100000000000000000000000000000000000DC
:1004200000000000000000000000000000000000CC
:1004300000000000000000000000000000000000BC
:1004400000000000000000000000000000000000AC
:10045000000000000000000000000000000000009C
:100460000000000082820000000000000000000088
:10047000000000000000000000000000000000007C
:10048000000000000000000000000000000000006C
:10049000000000000000000000000000000000005C
:1004A000000000000000000000000000000000004C
:1004B000000000000000000000000000000000003C
:1004C000000000000000000000000000000000002C
:1004D000000000000000000000000000000000001C
:1004E000000000000000000000000000000000000C
:1004F00000000000000000000000000000000000FC
:1005000000000000000000000000000000000000EB
:1005100000000000000000000000000000000000DB
:1005200000000000000000000000000000000000CB
:1005300000000000000000000000000000000000BB
:1005400000000000000000000000000000000000AB
:10055000000000000000000000000000000000009B
:10056000000000000000000000000000000000008B
:100570000000000082920000000000000000000067
:10058000000000000000000000000000000000006B
:10059000000000000000000000000000000000005B
:1005A000000000000000000000000000000000004B
:1005B000000000000000000000000000000000003B
:1005C000000000000000000000000000000000002B
:1005D000000000000000000000000000000000001B
:1005E000000000000000000000000000000000000B
:1005F00000000000000000000000000000000000FB
:1006000000000000000000000000000000000000EA
:1006100000000000000000000000000000000000DA
:1006200000000000000000000000000000000000CA
:1006300000000000000000000000000000000000BA
:1006400000000000000000000000000000000000AA
:10065000000000000000000000000000000000009A
:10066000000000000000000000000000000000008A
:10067000000000000000000000000000000000007A
:100680000000000082820000000000000000000066
:10069000000000000000000000000000000000005A
:1006A000000000000000000000000000000000004A
:1006B000000000000000000000000000000000003A
:1006C000000000000000000000000000000000002A
:1006D000000000000000000000000000000000001A
:1006E000000000000000000000000000000000000A
:1006F00000000000000000000000000000000000FA
:1007000000000000000000000000000000000000E9
:1007100000000000000000000000000000000000D9
:1007200000000000000000000000000000000000C9
:1007300000000000000000000000000000000000B9
:1007400000000000000000000000000000000000A9
:100750000000000000000000000000000000000099
:100760000000000000000000000000000000000089
:100770000000000000000000000000000000000079
:100780000000000000000000000000000000000069
:100790000000000082920000000000000000000045
:1007A0000000000000000000000000000000000049
:1007B0000000000000000000000000000000000039
:1007C0000000000000000000000000000000000029
:1007D0000000000000000000000000000000000019
:1007E0000000000000000000000000000000000009
:1007F00000000000000000000000000000000000F9
:1008000000000000000000000000000000000000E8
:1008100000000000000000000000000000000000D8
:1008200000000000000000000000000000000000C8
:1008300000000000000000000000000000000000B8
:1008400000000000000000000000000000000000A8
:100850000000000000000000000000000000000098
:100860000000000000000000000000000000000088
:100870000000000000000000000000000000000078
:100880000000000000000000000000000000000068
:100890000000000000000000000000000000000058
:1008A0000000000082820000000000000000000044
:1008B0000000000000000000000000000000000038
:1008C0000000000000000000000000000000000028
:1008D0000000000000000000000000000000000018
:1008E0000000000000000000000000000000000008
:1008F00000000000000000000000000000000000F8
:1009000000000000000000000000000000000000E7
:1009100000000000000000000000000000000000D7
:1009200000000000000000000000000000000000C7
:1009300000000000000000000000000000000000B7
:1009400000000000000000000000000000000000A7
:100950000000000000000000000000000000000097
:100960000000000000000000000000000000000087
:100970000000000000000000000000000000000077
:100980000000000000000000000000000000000067
:100990000000000000000000000000000000000057
:1009A0000000000000000000000000000000000047
:1009B0000000000082920000000000000000000023
:1009C0000000000000000000000000000000000027
:1009D0000000000000000000000000000000000017
:1009E0000000000000000000000000000000000007
:1009F00000000000000000000000000000000000F7
:100A000000000000000000000000000000000000E6
:100A100000000000000000000000000000000000D6
:100A200000000000000000000000000000000000C6
:100A300000000000000000000000000000000000B6
:100A400000000000000000000000000000000000A6
:100A50000000000000000000000000000000000096
:100A60000000000000000000000000000000000086
:100A70000000000000000000000000000000000076
:100A80000000000000000000000000000000000066
:100A90000000000000000000000000000000000056
:100AA0000000000000000000000000000000000046
:100AB0000000000000000000000000000000000036
:100AC0000000000082820000000000000000000022
:100AD0000000000000000000000000000000000016
:100AE0000000000000000000000000000000000006
:100AF00000000000000000000000000000000000F6
:100B000000000000000000000000000000000000E5
:100B100000000000000000000000000000000000D5
:100B200000000000000000000000000000000000C5
:100B300000000000000000000000000000000000B5
:100B400000000000000000000000000000000000A5
:100B50000000000000000000000000000000000095
:100B60000000000000000000000000000000000085
:100B70000000000000000000000000000000000075
:100B80000000000000000000000000000000000065
:100B90000000000000000000000000000000000055
:100BA0000000000000000000000000000000000045
:100BB0000000000000000000000000000000000035
:100BC0000000000000000000000000000000000025
:100BD000000000008292E4CFD9FF1200D9CFE5FFD8
:100BE000E1CFD9FF82820000000000000000000079
:100BF00000000000000000000000000000000000F5
:100C000000000000000000000000000000000000E4
:100C100000000000000000000000000000000000D4
:100C200000000000000000000000000000000000C4
:100C300000000000000000000000000000000000B4
:100C400000000000000000000000000000000000A4
:100C50000000000000000000000000000000000094
:100C60000000000000000000000000000000000084
:100C70000000000000000000000000000000000074
:100C80000000000000000000000000000000000064
:100C90000000000000000000000000000000000054
:100CA0000000000000000000000000000000000044
:100CB0000000000000000000000000000000000034
:100CC0000000000000000000000000000000000024
:100CD0000000000000000000000000000000000014
:100CE0000000000000000000000000000000000004
:100CF00000000000000000000000000000000000F4
:100D000000000000000000000000000000000000E3
:100D100000000000000000000000000000000000D3
:100D200000000000000000000000000000000000C3
:100D300000000000000000000000000000000000B3
:100D400000000000000000000000000000000000A3
:100D50000000000000000000000000000000000093
:100D60000000000000000000000000000000000083
:100D7000000000000000000000000000000082925F
:100D80000000000000000000000000000000000063
:100D90000000000000000000000000000000000053
:100DA0000000000000000000000000000000000043
:100DB0000000000000000000000000000000000033
:100DC0000000000000000000000000000000000023
:100DD0000000000000000000000000000000000013
:100DE0000000000000000000000000000000000003
:100DF00000000000000000000000000000000000F3
:100E000000000000000000000000000000000000E2
:100E100000000000000000000000000000000000D2
:100E200000000000000000000000000000000000C2
:100E300000000000000000000000000000000000B2
:100E400000000000000000000000000000000000A2
:100E50000000000000000000000000000000000092
:100E60000000000000000000000000000000000082
:100E70000000000000000000000000000000000072
:100E80000000000000000000000000000000000062
:100E90000000000000000000000000000000000052
:100EA0000000000000000000000000000000000042
:100EB0000000000000000000000000000000000032
:100EC0000000000000000000000000000000000022
:100ED0000000000000000000000000000000000012
:100EE0000000000000000000000000000000000002
:100EF00000000000000000000000000000000000F2
:100F000000000000000000000000000000000000E1
:100F100000000000000000008282000000000000CD
:100F200000000000000000000000000000000000C1
:100F300000000000000000000000000000000000B1
:100F400000000000000000000000000000000000A1
:100F50000000000000000000000000000000000091
:100F60000000000000000000000000000000000081
:100F70000000000000000000000000000000000071
:100F80000000000000000000000000000000000061
:100F90000000000000000000000000000000000051
:100FA0000000000000000000000000000000000041
:100FB0000000000000000000000000000000000031
:100FC0000000000000000000000000000000000021
:100FD0000000000000000000000000000000000011
:100FE0000000000000000000000000000000000001
:100FF00000000000000000000000000000000000F1
:1010000000000000000000000000000000000000E0
:1010100000000000000000000000000000000000D0
:1010200000000000000000000000000000000000C0
:1010300000000000000000000000000000000000B0
:1010400000000000000000000000000000000000A0
:101050000000000000000000000000000000000090
:101060000000000000000000000000000000000080
:101070000000000000000000000000000000000070
:101080000000000000000000000000000000000060
:101090000000000000000000000000000000000050
:1010A0000000000000000000000000000000000040
:1010B000000082920000000000000000000000001C
:1010C0000000000000000000000000000000000020
:1010D0000000000000000000000000000000000010
:1010E0000000000000000000000000000000000000
:1010F00000000000000000000000000000000000F0
:1011000000000000000000000000000000000000DF
:1011100000000000000000000000000000000000CF
:1011200000000000000000000000000000000000BF
:1011300000000000000000000000000000000000AF
:10114000000000000000000000000000000000009F
:10115000000000000000000000000000000000008F
:10116000000000000000000000000000000000007F
:10117000000000000000000000000000000000006F
:10118000000000000000000000000000000000005F
:10119000000000000000000000000000000000004F
:1011A000000000000000000000000000000000003F
:1011B000000000000000000000000000000000002F
:1011C000000000000000000000000000000000001F
:1011D000000000000000000000000000000000000F
:1011E00000000000000000000000000000000000FF
:1011F00000000000000000000000000000000000EF
:1012000000000000000000000000000000000000DE
:1012100000000000000000000000000000000000CE
:1012200000000000000000000000000000000000BE
:1012300000000000000000000000000000000000AE
:10124000000000000000000000000000828200009A
:10125000000000000000000000000000000000008E
:10126000000000000000000000000000000000007E
:10127000000000000000000000000000000000006E
:10128000000000000000000000000000000000005E
:10129000000000000000000000000000000000004E
:1012A000000000000000000000000000000000003E
:1012B000000000000000000000000000000000002E
:1012C000000000000000000000000000000000001E
:1012D000000000000000000000000000000000000E
:1012E00000000000000000000000000000000000FE
:1012F00000000000000000000000000000000000EE
:1013000000000000000000000000000000000000DD
:1013100000000000000000000000000000000000CD
:1013200000000000000000000000000000000000BD
:1013300000000000000000000000000000000000AD
:10134000000000000000000000000000000000009D
:10135000000000000000000000000000000000008D
:10136000000000000000000000000000000000007D
:10137000000000000000000000000000000000006D
:10138000000000000000000000000000000000005D
:10139000000000000000000000000000000000004D
:1013A000000000000000000000000000000000003D
:1013B000000000000000000000000000000000002D
:1013C000000000000000000000000000000000001D
:1013D000000000000000000000000000000000000D
:1013E00000000000000082920000000000000000E9
:1013F00000000000000000000000000000000000ED
:1014000000000000000000000000000000000000DC
:1014100000000000000000000000000000000000CC
:1014200000000000000000000000000000000000BC
:1014300000000000000000000000000000000000AC
:10144000000000000000000000000000000000009C
:10145000000000000000000000000000000000008C
:10146000000000000000000000000000000000007C
:10147000000000000000000000000000000000006C
:10148000000000000000000000000000000000005C
:10149000000000000000000000000000000000004C
:1014A000000000000000000000000000000000003C
:1014B000000000000000000000000000000000002C
:1014C000000000000000000000000000000000001C
:1014D000000000000000000000000000000000000C
:1014E00000000000000000000000000000000000FC
:1014F00000000000000000000000000000000000EC
:1015000000000000000000000000000000000000DB
:1015100000000000000000000000000000000000CB
:1015200000000000000000000000000000000000BB
:1015300000000000000000000000000000000000AB
:10154000000000000000000000000000000000009B
:10155000000000000000000000000000000000008B
:10156000000000000000000000000000000000007B
:10157000000000000000000000000000000000006B
:101580008282000000000000000000000000000057
:10159000000000000000000000000000000000004B
:1015A000000000000000000000000000000000003B
:1015B000000000000000000000000000000000002B
:1015C000000000000000000000000000000000001B
:1015D000000000000000000000000000000000000B
:1015E00000000000000000000000000000000000FB
:1015F00000000000000000000000000000000000EB
:1016000000000000000000000000000000000000DA
:1016100000000000000000000000000000000000CA
:1016200000000000000000000000000000000000BA
:1016300000000000000000000000000000000000AA
:10164000000000000000000000000000000000009A
:10165000000000000000000000000000000000008A
:10166000000000000000000000000000000000007A
:10167000000000000000000000000000000000006A
:10168000000000000000000000000000000000005A
:10169000000000000000000000000000000000004A
:1016A000000000000000000000000000000000003A
:1016B000000000000000000000000000000000002A
:1016C000000000000000000000000000000000001A
:1016D000000000000000000000000000000000000A
:1016E00000000000000000000000000000000000FA
:1016F00000000000000000000000000000000000EA
:1017000000000000000000000000000000000000D9
:10171000000000000000000000008292E4CFD9FF2A
:101720001200D350FC0BD36ED3508F0B7009D36EC5
:1017300005012C6B2D6B05012E6B2F6B0501306B9A
:10174000316B5EEC20F0000E026E2E0E016E080E64
:10175000006E0250E56E0150E56E0050E56EF4EC4F
:101760001FF0030EE126000EE56E640EE56E5BECE5
:101770001FF0E652E65230EC20F0050E016E3B0EF3
:10178000006E800E026E0250E56E0150E56E005054
:10179000E56E46EC1AF0006E030EE1260050EDE017
:1017A000FD0E05013B5DE9E3030E3B25006EFA6A81
:1017B000FB6A0034FA36E834FA36FC0BCC0FE56EDF
:1017C000170EFA22000EFB22E450F96EACEF0DF07A
:1017D000ECEF0BF0D4EF0CF0A0EC22F0000E026E58
:1017E0002E0E016E2A0E006E0250E56E0150E56E5F
:1017F0000050E56EF4EC1FF0030EE126E5EC20F05E
:10180000006A016A270EE56E100EE56E5BEC1FF0B4
:10181000E652E65203EC21F0026EF3CF03F00350E0
:10182000015C02E10250005C12E202C000F003C061
:1018300001F0000EE56EC80EE56E5BEC1FF0E6529F
:10184000E65203EC21F0026EF3CF03F0E8D7AAECE6
:1018500022F0000E066E2E0E056E440E046E06502B
:10186000E56E0550E56E0450E56EF4EC1FF0030ED6
:10187000E126046A056A03EC21F0066EF3CF07F057
:101880000750055C02E10650045CD8B04CD0050E50
:10189000076E3C0E066E800E086E0850E56E07500F
:1018A000E56E0650E56E46EC1AF0030EE1263CC5E7
:1018B00006F0076A000E0A6E2E0E096E700E086E94
:1018C000000E0C6E600E0B6E800E0D6E0750E56EF6
:1018D0000650E56E0A50E56E0950E56E0850E56E5B
:1018E0000D50E56E0C50E56E0B50E56EBDEC1CF036
:1018F000080EE126000E076E600E066E800E086E62
:101900000850E56E0750E56E0650E56EF4EC1FF0EA
:10191000030EE12605013C51E56EA2EC1BF0E652F8
:10192000044A052AA8D73AEC21F0000EE56E0C0E09
:10193000E56E5BEC1FF0E652E652050E056E3B0EBF
:10194000046E800E066E0650E56E0550E56E04507E
:10195000E56E46EC1AF0046E030EE12604500FE02B
:1019600005013B51E56E03EC22F0E652000EE56EF8
:101970000C0EE56E5BEC1FF0E652E652DED774EC1F
:1019800022F0000E066E2E0E056E740E046E0650CA
:10199000E56E0550E56E0450E56EF4EC1FF0030EA5
:1019A000E12630EC20F0E9D6A0EC22F0000E066E25
:1019B0002E0E056E900E046E0650E56E0550E56E17
:1019C0000450E56EF4EC1FF0030EE12630EC20F03D
:1019D000006A016A030EE56EE80EE56E5BEC1FF02F
:1019E000E652E65203EC21F0026EF3CF03F003500F
:1019F000015C02E10250005C12E202C000F003C090
:101A000001F0010EE56EF40EE56E5BEC1FF0E652A0
:101A1000E65203EC21F0026EF3CF03F0E8D7A0EC1E
:101A200022F0046A056A03EC21F0066EF3CF07F09A
:101A30000750055C02E10650045CD8B04CD0050E9E
:101A4000076E3C0E066E800E086E0850E56E07505D
:101A5000E56E0650E56E46EC1AF0030EE1263CC535
:101A600006F0076A000E0A6E2E0E096E700E086EE2
:101A7000000E0C6E600E0B6E800E0D6E0750E56E44
:101A80000650E56E0A50E56E0950E56E0850E56EA9
:101A90000D50E56E0C50E56E0B50E56EBDEC1CF084
:101AA000080EE126000E076E600E066E800E086EB0
:101AB0000850E56E0750E56E0650E56EF4EC1FF039
:101AC000030EE12605013C51E56EA2EC1BF0E65247
:101AD000044A052AA8D73AEC21F0000EE56E0C0E58
:101AE000E56E5BEC1FF0E652E652050E056E3C0E0D
:101AF000046E800E066E0650E56E0550E56E0450CD
:101B0000E56E46EC1AF0046E030EE12604500FE079
:101B100005013C51E56E03EC22F0E652000EE56E45
:101B20000C0EE56E5BEC1FF0E652E652DED774EC6D
:101B300022F0000E066E2E0E056E740E046E065018
:101B4000E56E0550E56E0450E56EF4EC1FF0030EF3
:101B5000E12630EC20F011D6A0EC22F0000E066E4B
:101B60002E0E056EB00E046E0650E56E0550E56E45
:101B70000450E56EF4EC1FF0030EE12630EC20F08B
:101B8000006A016A010EE56E900EE56E5BEC1FF0D7
:101B9000E652E65203EC21F0026EF3CF03F003505D
:101BA000015C02E10250005C12E202C000F003C0DE
:101BB00001F0000EE56EC80EE56E5BEC1FF0E6521C
:101BC000E65203EC21F0026EF3CF03F0E8D7A0EC6D
:101BD00022F0000E066E2E0E056ED40E046E065018
:101BE000E56E0550E56E0450E56EF4EC1FF0030E53
:101BF000E126046A056A03EC21F0066EF3CF07F0D4
:101C00000750055C02E10650045CD8B04CD0050ECC
:101C1000076E3C0E066E800E086E0850E56E07508B
:101C2000E56E0650E56E46EC1AF0030EE1263CC563
:101C300006F0076A000E0A6E2E0E096E700E086E10
:101C4000000E0C6E600E0B6E800E0D6E0750E56E72
:101C50000650E56E0A50E56E0950E56E0850E56ED7
:101C60000D50E56E0C50E56E0B50E56EBDEC1CF0B2
:101C7000080EE126000E076E600E066E800E086EDE
:101C80000850E56E0750E56E0650E56EF4EC1FF067
:101C9000030EE12605013C51E56EA2EC1BF0E65275
:101CA000044A052AA8D7C7EC20F0050E056E3C0EA5
:101CB000046E800E066E0650E56E0550E56E04500B
:101CC000E56E46EC1AF0046E030EE12604500FE0B8
:101CD00005013C51E56EB1EC21F0E652000EE56ED7
:101CE0000C0EE56E5BEC1FF0E652E652DED78AEC96
:101CF00022F0A8EC20F0006A016A010EE56E900E59
:101D0000E56E5BEC1FF0E652E65203EC21F0026E4A
:101D1000F3CF03F00350015C02E10250005C12E2D9
:101D200002C000F003C001F0000EE56EC80EE56EC3
:101D30005BEC1FF0E652E65203EC21F0026EF3CFAB
:101D400003F0E8D77FEC22F0000E026E2E0E016E3B
:101D5000F80E006E0250E56E0150E56E0050E56E23
:101D6000F4EC1FF0030EE126006A016A03EC21F097
:101D7000026EF3CF03F00350015C02E10250005CFD
:101D8000D8B04CD0050E036E3C0E026E800E046E71
:101D90000450E56E0350E56E0250E56E46EC1AF015
:101DA000030EE1263CC502F0036A000E066E2E0EFD
:101DB000056E700E046E000E086E600E076E800ECB
:101DC000096E0350E56E0250E56E0650E56E055053
:101DD000E56E0450E56E0950E56E0850E56E07505B
:101DE000E56EBDEC1CF0080EE126000E036E600EE1
:101DF000026E800E046E0450E56E0350E56E0250D4
:101E0000E56EF4EC1FF0030EE12605013C51E56E92
:101E1000A2EC1BF0E652004A012AA8D703EC21F0FD
:101E2000006EF3CF01F00050011033E08186000016
:101E3000000081963AEC21F0000EE56E0C0EE56E86
:101E40005BEC1FF0E652E652050E016E3C0E006E92
:101E5000800E026E0250E56E0150E56E0050E56E98
:101E600046EC1AF0006E030EE12600500FE005016B
:101E70003C51E56E03EC22F0E652000EE56E0C0ECE
:101E8000E56E5BEC1FF0E652E652DED774EC22F012
:101E90004FD08186000000008196000000008186FE
:101EA000000000008196000E026E2F0E016E1C0EC7
:101EB000006E000E046E600E036E800E056E025002
:101EC000E56E0150E56E0050E56E0550E56E04507C
:101ED000E56E0350E56EBDEC1CF0060EE126000E2B
:101EE000016E600E006E800E026E0250E56E0150B3
:101EF000E56E0050E56EF4EC1FF0030EE1263AECBF
:101F000021F0000EE56E0C0EE56E5BEC1FF0E65264
:101F1000E6520D0EE56E03EC22F0E652000EE56E81
:101F20000C0EE56E5BEC1FF0E652E65274EC22F00C
:101F3000000E026E2E0E016E740E006E0250E56EE3
:101F40000150E56E0050E56EF4EC1FF0030EE12643
:101F500030EC20F0BDEF0BF01200D9CFE5FFE1CF60
:101F6000D9FF00C0E5FF01C0E5FF02C0E5FF03C0E7
:101F7000E5FF04C0E5FF05C0E5FF06C0E5FF07C0BB
:101F8000E5FF08C0E5FF09C0E5FF0AC0E5FF0BC09B
:101F9000E5FF0CC0E5FF0DC0E5FF0EC0E5FF0FC07B
:101FA000E5FF10C0E5FF11C0E5FF12C0E5FF13C05B
:101FB000E5FF14C0E5FF15C0E5FF16C0E5FF17C03B
:101FC000E5FF18C0E5FF19C0E5FF1AC0E5FF1BC01B
:101FD000E5FF1CC0E5FF1DC0E5FF1EC0E5FF020ECA
:101FE000DBCF00F0030EDBCF01F0040EDBCF02F0FD
:101FF000050EDBCF03F0060EDBCF04F0070EDBCFC0
:1020000005F0080EDBCF06F0090EDBCF07F00A0E55
:10201000DBCF08F0096A0A6A02C00DF00D50800A91
:102020000DE1025005012B6F01502A6F0050296FFE
:10203000050E016E290E006E800E026E03C0E9FFD0
:1020400004C0F3FF055028EC22F00B6E0B50D8B4FF
:1020500069EF13F00B50250A02E050EF13F00C6A01
:102060000D6A0E6A0F6A106A0A0E116E126A136AFE
:10207000146A200E156E1668176A2B0E186E032A46
:1020800002E3044A052A03C0E9FF04C0F3FF055038
:1020900028EC22F0196E250A13E11950E56E025062
:1020A000E56E0150E56E0050E56E47EC1DF0040E44
:1020B000E126094A0A2A032A02E3044A052ABED76E
:1020C0001950300A06E1300E156E032A02E3044A65
:1020D000052A03C0E9FF04C0F3FF055028EC22F0F5
:1020E0002D0A06E1010E146E032A02E3044A052AB2
:1020F00003C0E9FF04C0F3FF055028EC22F0200ADA
:1021000008E1010E176E200E186E032A02E3044A3E
:10211000052A03C0E9FF04C0F3FF055028EC22F0B4
:102120002B0A06E1010E176E032A02E3044A052A70
:1021300003C0E9FF04C0F3FF055028EC22F0196E3C
:10214000800F4F0F2DE31950800F460F29E203C077
:1021500019F004C01AF005C01BF019C0E9FF1AC03D
:10216000F3FF1B5028EC22F01C6E800F500F12E37F
:102170001C50800F460F0EE213500A0DF3CF1DF0D6
:102180001D501C26D00E1C24136E192A02E31A4A75
:102190001B2AE3D719C003F01AC004F01BC005F0D6
:1021A00003C0E9FF04C0F3FF055028EC22F02E0A1B
:1021B0002EE1032A02E3044A052A166A03C019F035
:1021C00004C01AF005C01BF019C0E9FF1AC0F3FFE4
:1021D0001B5028EC22F01C6E800F500F12E31C5095
:1021E000800F460F0EE216500A0DF3CF1DF01D5062
:1021F0001C26D00E1C24166E192A02E31A4A1B2A2A
:10220000E3D719C003F01AC004F01BC005F003C0E7
:10221000E9FF04C0F3FF055028EC22F0196E6C0AA8
:1022200007E1010E0C6E032A02E3044A052A09D0D5
:102230001950680A06E1010E0E6E032A02E3044AF1
:10224000052A03C0E9FF04C0F3FF055028EC22F083
:10225000750A06E1010E106E032A02E3044A052AFC
:1022600003C0E9FF04C0F3FF055028EC22F0196E0B
:10227000730A05E1010E0D6E200E156E3FD0195048
:10228000780A03E1100E116E39D01950580A05E191
:10229000100E116E010E126E31D01950630A02E158
:1022A000116A2CD019506F0A03E1080E116E26D066
:1022B0001950660A03E1010E0F6E20D01950640A0E
:1022C0001DE01950690A1AE0105005E0FF0E0326C0
:1022D0000422052213D01950E56E0250E56E01501C
:1022E000E56E0050E56E47EC1DF0040EE126094A4C
:1022F0000A2A032A02E3044A052AA0D60D5021E047
:102300000650030F0D6E000E0720196E000E0820F8
:102310001A6E0DC006F019C007F01AC008F0FD0EC5
:102320000D26FF0E19221A220DC0E9FF19C0F3FF76
:102330001A501FEC21F00D6EF3CF19F0F4CF1AF004
:1023400000D10F500DE0000E1A6E270E196E5A0EB6
:102350000D6E040E0626000E072208221668F1D024
:1023600016680C5023E00650040F0C6E000E072078
:102370000F6E000E08201B6E0CC006F00FC007F099
:102380001BC008F0FC0E0C26FF0E0F221B220CC0F7
:10239000E9FF0FC0F3FF1B5088EC20F00C6EF3CF69
:1023A0000FF0F4CF1BF0E9CF1CF06AD00E5032E0F2
:1023B0000650020F0E6E000E07201D6E000E082044
:1023C0001E6E0EC006F01DC007F01EC008F0FE0E07
:1023D0000E26FF0E1D221E220EC0E9FF1DC0F3FFB8
:1023E0001E509BEC21F00E6E0EC00CF0E86A0EBE83
:1023F000FF0E0F6E1B6E1C6E11500A0A03E1105087
:10240000D8B43ED00C500E6E0EC00CF00F6A1B6A92
:102410001C6A36D00650020F0E6E000E07201D6E8D
:10242000000E08201E6E0EC006F01DC007F01EC074
:1024300008F0FE0E0E26FF0E1D221E220EC0E9FF22
:102440001DC0F3FF1E509BEC21F00E6EF3CF1DF06C
:102450000EC00CF01DC00FF0E86A1DBEFF0E1B6E13
:102460001C6E11500A0A02E110500AE00C500E6E68
:102470000F501D6E0EC00CF01DC00FF01B6A1C6AC1
:10248000050E196E110E0D6E800E1A6E1150D8B415
:1024900040D0105013E01150E56E050EE56E110EA0
:1024A000E56E1C50E56E1B50E56E0F50E56E0C504E
:1024B000E56E9AEC18F0070EE12612D01150E56E89
:1024C000050EE56E110EE56E1C50E56E1B50E56EB7
:1024D0000F50E56E0C50E56E96EC1EF0070EE126EF
:1024E00017502FE00DC0E9FF19C0F3FF1A5028EC78
:1024F00022F02D0A26E0FF0E0D2619221A2218C0FE
:10250000E5FF0DC0E9FF19C0F3FF1A5095EC22F06A
:1025100018D00CC0E5FF0DC0E9FF19C0F3FF1A5039
:1025200095EC22F00D50010F0C6E000E19200E6E6E
:10253000000E1A20E56A0CC0E9FF0EC0F3FF95EC0F
:1025400022F00DC00CF019C00EF01AC00FF013C02D
:1025500010F0105010E00CC0E9FF0EC0F3FF0F5058
:1025600028EC22F0176E175006E00C2A02E30E4A00
:102570000F2A1006EED710C013F014501EE109C048
:102580000CF00AC00EF010C00FF00F5010E0155004
:10259000E56E0250E56E0150E56E0050E56E47ECC9
:1025A0001DF0040EE1260C4A0E2A0F06EED70CC0D1
:1025B00009F00EC00AF00FC013F016C00CF00DC0E9
:1025C0000DF019C00EF01AC00FF009C010F00AC0CB
:1025D00015F00DC0E9FF0EC0F3FF0F5028EC22F0FC
:1025E000166E1650D8B43ED00CC016F0176A161EE0
:1025F000171E1650171005E00CC016F00C061650EA
:1026000031E00DC0E9FF0EC0F3FF0F5028EC22F0BF
:10261000116E125010E01150E56E84EC21F0166E30
:10262000E652165004E01150166E169A02D011C0F0
:1026300016F016C011F01150E56E0250E56E015013
:10264000E56E0050E56E47EC1DF0040EE1260D2A04
:1026500002E30E4A0F2A104A152A1350D8B4B9D7EC
:102660001306B7D710C009F015C00AF014502BE0BC
:1026700010C00CF015C00DF013C00EF00E501FE08E
:10268000200EE56E0250E56E0150E56E0050E56EDD
:1026900047EC1DF0040EE1260C4A0D2A0E06EED77B
:1026A0000B50E56E0250E56E0150E56E0050E56E90
:1026B00047EC1DF0040EE126094A0A2A04D00CC09A
:1026C00009F00DC00AF0032A02E3044A052A1EEFAE
:1026D00010F00AC0F3FF0950E4CF1EF0E4CF1DF064
:1026E000E4CF1CF0E4CF1BF0E4CF1AF0E4CF19F0F4
:1026F000E4CF18F0E4CF17F0E4CF16F0E4CF15F0F4
:10270000E4CF14F0E4CF13F0E4CF12F0E4CF11F0F3
:10271000E4CF10F0E4CF0FF0E4CF0EF0E4CF0DF0F3
:10272000E4CF0CF0E4CF0BF0E4CF0AF0E4CF09F0F3
:10273000E4CF08F0E4CF07F0E4CF06F0E4CF05F0F3
:10274000E4CF04F0E4CF03F0E4CF02F0E4CF01F0F3
:10275000E4CF00F0E4CFD9FF12003C4E4F20464CAE
:102760004F41543E0000D8CFE5FFE0CFE5FFE56ED6
:10277000F3CFE5FFF4CFE5FFE9CFE5FFEACFE5FFD3
:10278000FACFE5FFFBCFE5FFD9CFE5FFE1CFD9FFDA
:1027900000C0E5FF01C0E5FF02C0E5FF03C0E5FFA3
:1027A00004C0E5FF05C0E5FFF2A247D1F2A845D17C
:1027B000D6CF00F0016AD7CF02F0036A0250056E4F
:1027C000046A045000100501326F05500110336F88
:1027D00005013551006E016A0050D76E3451D66E36
:1027E00005013D51010A06E005013D51020A01E1E2
:1027F00017D122D1640EE56E16EC22F0E6521DC50B
:1028000000F00050016E015008E00050020A0CE098
:102810000050040A01E13BD00FD1D58E010E050115
:102820001F6F020E1D6F08D1050134518F0F006E0E
:10283000020E3521016E05013351015C02E1325176
:10284000005C1FE2050134511F0F006E040E35219C
:10285000016E01500501335D02E10050325D11E26D
:10286000020E05011F5D06E21FC500F0002A0050A0
:102870001F6FE2D00501206B216B226B040E1D6FD0
:10288000DBD0010E05011F6F020E1D6FD5D00D0E9E
:102890000501225DD8B0D0D0050134518F0F006EF4
:1028A000020E3521016E05013351015C02E1325106
:1028B000005C0EE2050134511F0F006E040E35213D
:1028C000016E01500501335D02E10050325D1CE3F1
:1028D000050134513D0F006E090E3521016E0501D1
:1028E0003351015C02E13251005C35E205013451A3
:1028F000CD0F006E0A0E3521016E01500501335DCA
:1029000002E10050325D27E2050120A10AD02051EA
:10291000006E00262135016E0050206F0150216F9E
:1029200013D005012051006E00262135016E0050A4
:10293000206F0150216F010E2011006E2151016E98
:102940000050206F0150216F22C500F0002A005076
:102950000501226F48D005013451E60F006E050EC7
:102960003521016E05013351015C02E13251005CF9
:1029700035E205013451760F006E070E3521016EE8
:1029800001500501335D02E10050325D27E205018F
:1029900020A113D02051006E00262135016E005079
:1029A000206F0150216F010E2011006E2151016E28
:1029B0000050206F0150216F0AD005012051006E98
:1029C00000262135016E0050206F0150216F22C575
:1029D00000F0002A00500501226F05D0010E05010C
:1029E0001F6F020E1D6F050122510C0A25E1050122
:1029F0002151E56E2051E56E9AEC17F0006EE6521B
:102A0000E65200500AE005012051006E016A0050B4
:102A1000E56EA2EC1BF0E652818805011D6B0CD01F
:102A200005012351020A08E1F70ED76ED66AF29823
:102A3000D58E040E0501236FF292F2A44DD1F2AAB5
:102A40004BD105013551006E016A0050D76E3451EB
:102A5000D66E010E05013D5DD8A03DD1060E3D5D4F
:102A6000D8B039D13D05006EFA6AFB6A0034FA36F7
:102A7000E834FA36FC0B860FE56E2A0EFA22000EB9
:102A8000FB22E450F96E4DEF15F09BEF15F052EF7D
:102A900015F0D4EF15F016EF16F0D59E05011D6B5D
:102AA000030019D123C500F00050016E01500AE067
:102AB0000050030A11E00050090A33E000500A0AEE
:102AC00035E009D105012651080A01E004D18182CF
:102AD000030E0501236FFFD0010E0501265D1CE3E7
:102AE000010E2515006E0050D880E866D890006A67
:102AF00000360050010BE844F46E8150FD0BF410D9
:102B0000816E25417F0B006E0050256F26C500F0B9
:102B100000060050266FDFD08192090E0501236F59
:102B2000DAD081920A0E0501236FD5D0819205017A
:102B3000236BD59ED0D023C500F00050040A04E0DA
:102B40000050070A22E0C7D026C500F0002A005036
:102B50000501266F090E265D14E281A006D02541ED
:102B60007F0B006E0050256FB6D0050125417F0B0D
:102B7000006E0050256F800E2511006E0050256FED
:102B8000AAD0070E0501236FA6D005012551E56ED9
:102B9000A2EC1BF0E6520501256B266B020E236F9B
:102BA000D59EF292F28897D000C500F00050040A3A
:102BB00004E00050070A2EE08ED00DC500F0002A78
:102BC000005005010D6F090E0D5D20E2010E025D42
:102BD00002E1550E015D0EE3010E0501025D02E109
:102BE000DC0E015D07E205010C417F0B006E005019
:102BF0000C6F71D005010C417F0B006E00500C6F03
:102C0000800E0C11006E00500C6F65D0070E050190
:102C1000006F61D005010C51E56EA2EC1BF0E6528D
:102C200005010C6B020E006FF29A55D000C500F042
:102C30000050016E01500FE00050010A15E00050F5
:102C4000030A19E00050050A01E139D00050090AD1
:102C500001E13CD040D005010D51080A03E1010E0D
:102C60000501006F819437D0EEEC05F0030E0501ED
:102C7000006F818430D00DC500F00004016E01505A
:102C800005010D6F005015E0800E006E0D5105E03E
:102C9000E86CD8900032010FFDE305010C510016DD
:102CA000005004E00EEC00F0819403D0EEEC05F04F
:102CB000818405010D510FE1050E006F0CD00EEC63
:102CC00000F0090E0501006F819405D00EEC00F0B4
:102CD0000501006B8194F294A1AC76D0A0AC74D0C5
:102CE000B4AC70D0D6CF00F0016AD7CF02F0036A3F
:102CF0000250056E046A045000100501326F055041
:102D00000110336F8184050136510501325D006E7B
:102D10000501375105013359016E00500501016F5E
:102D20000150026F32C536F533C537F5010E025D2D
:102D300002E1550E015D30E3010E0501025D02E185
:102D4000DC0E015D29E2050101510525006E0251ED
:102D50000621016E0050056F0150066F0051020AF6
:102D600032E1030E0501065D02E1200E055D2BE355
:102D700005013551006E016A0050D76E3451D66E90
:102D80000501056B066B076B086B0D6B0C6B040E76
:102D9000006FF294F28A17D005010051020A06E191
:102DA0000501056B066B076B086B0DD00501015122
:102DB0000725006E02510821016E0050076F015077
:102DC000086F01D08194A19CE4CF05F0E4CF04F01A
:102DD000E4CF03F0E4CF02F0E4CF01F0E4CF00F061
:102DE000E4CFD9FFE4CFFBFFE4CFFAFFE4CFEAFF63
:102DF000E4CFE9FFE4CFF4FFE4CFF3FFE450E4CF06
:102E0000E0FFE4CFD8FF10000A0D4D657465724CE9
:102E10006F676765722E2E2E2073657269616C2054
:102E2000776F726B696E670A0D000A0D70726573B9
:102E300073207072696E74206F6E20746573746F86
:102E40000A0D00000A0D646F6E6520726563656986
:102E500076696E67202D2073656E64696E672076D3
:102E600069612073657269616C2F66736B0A0D006E
:102E7000256420000A0D77616974696E6720666FAA
:102E800072206E657720636F6D6D616E640A0D0050
:102E90000A0D6563686F2074657374202D20736557
:102EA0006E6420736F6D6520646174610A0D0000AB
:102EB0000A0D6B616D7374727570202D2073656ED1
:102EC00064206B6D70206672616D65206461746151
:102ED0000A0D00000A0D6B616D7374727570202D00
:102EE000206B6D70206672616D6520726563656927
:102EF0007665643A0A0D00000A0D6B616D73747299
:102F00007570202D206B6D70207265706C79207249
:102F1000656365697665643A0A0D00000A0D6E6F97
:102F2000207265706C792066726F6D206D657465B6
:102F3000720A0D00D9CFE5FFE1CFD9FF00C0E5FF50
:102F400001C0E5FF02C0E5FF03C0E5FF04C0E5FFE7
:102F500005C0E5FF06C0E5FF07C0E5FF08C0E5FFC7
:102F6000020EDBCF00F0030EDBCF01F0026A780E19
:102F70000014036E046A056A010E066E000E076EE9
:102F8000055006E0E86CD89006360736010FFCE3E2
:102F90000350061604500716065005E1075003E1DA
:102FA000066A062A01D0066A0650D880E866D890DC
:102FB000066A06360250076E06500718026E052A8A
:102FC000080E055CD9E30244FE0B036E026AE60EAE
:102FD0000014046E056A066A010E076E000E086E84
:102FE000065006E0E86CD89007360836010FFCE37F
:102FF0000450071605500816075005E1085003E174
:10300000076A072A01D0076A0750D880E866D89077
:10301000076A07360250086E07500818026E062A23
:10302000080E065CD9E302500312D8900336026AF8
:10303000D50E0014046E056A066A010E076E000EB6
:10304000086E065006E0E86CD89007360836010F87
:10305000FCE30450071605500816075005E1085018
:1030600003E1076A072A01D0076A0750D880E8669B
:10307000D890076A07360250086E07500818026E8B
:10308000062A080E065CD9E302500312D8900336D4
:10309000026A8B0E0014046E056A066A010E076E42
:1030A000000E086E065006E0E86CD8900736083629
:1030B000010FFCE30450071605500816075005E100
:1030C000085003E1076A072A01D0076A0750D88031
:1030D000E866D890076A07360250086E075008184D
:1030E000026E062A080E065CD9E302500312015054
:1030F000006E016A026A0050031803E101500218D1
:1031000001E002D0010E01D0E86AE4CF08F0E4CF7C
:1031100007F0E4CF06F0E4CF05F0E4CF04F0E4CF0D
:1031200003F0E4CF02F0E4CF01F0E4CF00F0E4CF0D
:10313000D9FF1200D9CFE5FFE1CFD9FF00C0E5FFED
:1031400001C0E5FF02C0E5FF03C0E5FF04C0E5FFE5
:1031500005C0E5FF06C0E5FF07C0E5FF08C0E5FFC5
:1031600009C0E5FF0AC0E5FF0BC0E5FF0CC0E5FFA5
:103170000DC0E5FF0EC0E5FF0FC0E5FF020EDBCF7F
:1031800000F0030EDBCF01F0040EDBCF02F0050EE2
:10319000DBCF03F0060EDBCF04F0070EDBCF05F02C
:1031A000080EDBCF06F0200E076E086A06C009F095
:1031B0000A6A0B6A0C6AE56AE56AE56A0950E56E17
:1031C0000350E56E0250E56E0150E56E0050E56E6D
:1031D00005EC1BF00D6E080EE126300E0D263A0EA2
:1031E0000D5C05E30D500E6E270E0E240D6EFF0EC6
:1031F00007260822E00E07240E6E000E08200F6E30
:103200000EC0E9FF0FC0EAFF0DC0EFFF0C50E56EE6
:103210000B50E56E0A50E56E0950E56E0350E56E01
:103220000250E56E0150E56E0050E56E31EC1CF089
:10323000006EF3CF01F0F4CF02F0E9CF03F0080EF7
:10324000E1260050011002100310D8A4AFD707C028
:1032500000F008C001F004C002F005C003F000C097
:1032600004F001C005F0004A012AE00E0426000E19
:10327000052204C0E9FF05C0EAFFEFCF04F002C059
:10328000E9FF03C0EAFF04C0EFFF024A032A000E71
:10329000015C02E1200E005CE2E302C0E9FF03C032
:1032A000EAFF000EEF6AE4CF0FF0E4CF0EF0E4CFB8
:1032B0000DF0E4CF0CF0E4CF0BF0E4CF0AF0E4CF54
:1032C00009F0E4CF08F0E4CF07F0E4CF06F0E4CF54
:1032D00005F0E4CF04F0E4CF03F0E4CF02F0E4CF54
:1032E00001F0E4CF00F0E4CFD9FF1200D9CFE5FF21
:1032F000E1CFD9FF00C0E5FF01C0E5FF02C0E5FF57
:1033000003C0E5FF04C0E5FF05C0E5FF06C0E5FF1B
:10331000020EDBCF00F0030EDBCF01F0040EDBCF9B
:1033200002F0050EDBCF03F0060EDBCF04F003EC5A
:1033300021F0056EF3CF06F00650045C02E1055063
:10334000035CD8B091D005013151056E066A000EBC
:10335000065C02E1040E055CD8B084D0FA6AFB6A10
:103360000534FA36E834FA36FC0B7A0FE56E330E84
:10337000FA22000EFB22E450F96EC5EF19F0E1EFDE
:1033800019F0FDEF19F019EF1AF00350050130257F
:10339000056E04503121066E066A000E0526070EE2
:1033A000062205C0E9FF06C0EAFFEFCF05F005C021
:1033B000E5FF00C0E9FF01C0F3FF025095EC22F0E9
:1033C00051D0035005013025056E04503121066EA1
:1033D000066A000E0526010E062205C0E9FF06C09A
:1033E000EAFFEFCF05F005C0E5FF00C0E9FF01C02F
:1033F000F3FF025095EC22F035D003500501302543
:10340000056E04503121066E066A000E0526020E76
:10341000062205C0E9FF06C0EAFFEFCF05F005C0B0
:10342000E5FF00C0E9FF01C0F3FF025095EC22F078
:1034300019D005013051032631510422046A000ECF
:103440000326030E042203C0E9FF04C0EAFFEFCF06
:1034500003F003C0E5FF00C0E9FF01C0F3FF025025
:1034600095EC22F0010E01D0E86AE4CF06F0E4CF3B
:1034700005F0E4CF04F0E4CF03F0E4CF02F0E4CFB2
:1034800001F0E4CF00F0E4CFD9FF1200D9CFE5FF7F
:10349000E1CFD9FF00C0E5FF01C0E5FF02C0E5FFB5
:1034A00003C0E5FF04C0E5FF020EDBCF00F0030E12
:1034B000DBCF01F0040EDBCF02F003EC21F0036E52
:1034C000F3CF04F003500410D8B491D0050131516A
:1034D000036E046A000E045C02E1040E035CD8B0C3
:1034E00076D0FA6AFB6A0334FA36E834FA36FC0B13
:1034F000000FE56E350EFA22000EFB22E450F96E45
:1035000088EF1AF0A0EF1AF0B8EF1AF0D0EF1AF027
:1035100005013051036E046A000E0326070E0422D3
:1035200003C0E9FF04C0EAFFEFCF03F003C0E5FFEB
:1035300000C0E9FF01C0F3FF025095EC22F047D034
:1035400005013051036E046A000E0326010E0422A9
:1035500003C0E9FF04C0EAFFEFCF03F003C0E5FFBB
:1035600000C0E9FF01C0F3FF025095EC22F02FD01C
:1035700005013051036E046A000E0326020E042278
:1035800003C0E9FF04C0EAFFEFCF03F003C0E5FF8B
:1035900000C0E9FF01C0F3FF025095EC22F017D004
:1035A00005013051036E046A000E0326030E042247
:1035B00003C0E9FF04C0EAFFEFCF03F003C0E5FF5B
:1035C00000C0E9FF01C0F3FF025095EC22F00501B5
:1035D000303F01D0312B0501305103E13151040A54
:1035E00001E003D00501306B316B010E01D0E86AB8
:1035F000E4CF04F0E4CF03F0E4CF02F0E4CF01F035
:10360000E4CF00F0E4CFD9FF1200D9CFE5FFE1CF3E
:10361000D9FF00C0E5FF01C0E5FF02C0E5FF03C020
:10362000E5FF04C0E5FF05C0E5FF06C0E5FF07C0F4
:10363000E5FF08C0E5FF09C0E5FF0AC0E5FF020E8F
:10364000DBCF00F0030EDBCF01F0040EDBCF02F086
:10365000050EDBCF03F0060EDBCF04F0070EDBCF49
:1036600005F0080EDBCF06F0090EDBCF07F0086A85
:10367000045005100610071005E1E968F468F368C6
:10368000E86847D0096A0750800BE8440A6E0A5080
:103690001BE1045004260536063607360750035C46
:1036A00008E10650025C05E10550015C02E10450AE
:1036B000005C06E2D890073206320532043204D0AC
:1036C000092A09C008F0DFD70750035C08E106505B
:1036D000025C05E10550015C02E10450005C08E376
:1036E0000450005E0550015A0650025A0750035A12
:1036F000D890073206320532043208C009F00806B5
:103700000950E2E103C0E9FF02C0F4FF01C0F3FF8A
:103710000050E4CF0AF0E4CF09F0E4CF08F0E4CFA2
:1037200007F0E4CF06F0E4CF05F0E4CF04F0E4CFF7
:1037300003F0E4CF02F0E4CF01F0E4CF00F0E4CFF7
:10374000D9FF1200D9CFE5FFE1CFD9FF00C0E5FFD7
:1037500001C0E5FF02C0E5FF020EDBCF00F003EC85
:1037600021F0016EF3CF02F0015004E10250040A8F
:1037700001E16DD005012F51016E026A000E025C5D
:1037800002E1040E015CD8B052D0FA6AFB6A01343F
:10379000FA36E834FA36FC0BA80FE56E370EFA223B
:1037A000000EFB22E450F96EDCEF1BF0EBEF1BF098
:1037B000FAEF1BF009EF1CF005012E51016E026AB1
:1037C000000E0126070E022201C0E9FF02C0EAFF37
:1037D00000C0EFFF2CD005012E51016E026A000ED1
:1037E0000126010E022201C0E9FF02C0EAFF00C06B
:1037F000EFFF1DD005012E51016E026A000E012659
:10380000020E022201C0E9FF02C0EAFF00C0EFFF82
:103810000ED005012E51016E026A000E0126030E24
:10382000022201C0E9FF02C0EAFF00C0EFFF05016C
:103830002E3F01D02F2B05012E5103E12F51040AF9
:1038400001E003D005012E6B2F6B010E01D0E86A59
:10385000E4CF02F0E4CF01F0E4CF00F0E4CFD9FFF1
:103860001200D9CFE5FFE1CFD9FF00C0E5FF01C0CD
:10387000E5FF02C0E5FF03C0E5FF04C0E5FF05C0AA
:10388000E5FF06C0E5FF07C0E5FF08C0E5FF09C08A
:10389000E5FF0AC0E5FF0BC0E5FF0CC0E5FF0DC06A
:1038A000E5FF020EDBCF00F0030EDBCF01F0040ECC
:1038B000DBCF02F0050EDBCF03F0060EDBCF04F00A
:1038C000070EDBCF05F0080EDBCF06F0090EDBCFCD
:1038D00007F0086A096A0A6A0B6A200E0C6E035028
:1038E000800BE8440D6E0050002601360236033688
:1038F0000850082609360A360B360D50D8A4088021
:1039000007500B5C08E106500A5C05E10550095CB4
:1039100002E10450085C09E30450085E0550095AAE
:1039200006500A5A07500B5A00800C2ED8D703C0F5
:10393000E9FF02C0F4FF01C0F3FF0050E4CF0DF037
:10394000E4CF0CF0E4CF0BF0E4CF0AF0E4CF09F0C1
:10395000E4CF08F0E4CF07F0E4CF06F0E4CF05F0C1
:10396000E4CF04F0E4CF03F0E4CF02F0E4CF01F0C1
:10397000E4CF00F0E4CFD9FF1200D9CFE5FFE1CFCB
:10398000D9FF00C0E5FF01C0E5FF02C0E5FF03C0AD
:10399000E5FF04C0E5FF05C0E5FF050ED924006E74
:1039A000000EDA20016E800E026E030E0026000E5D
:1039B0000122022206C0E5FF07C0E5FF08C0E5FFBF
:1039C000020EDBCF06F0030EDBCF07F0040EDBCFD9
:1039D00008F00850056E0750046E0650036EE4CFE1
:1039E00008F0E4CF07F0E4CF06F00250E56E015096
:1039F000E56E0050E56E070EDBCFE5FF060EDBCF70
:103A0000E5FF050EDBCFE5FF0550E56E0450E56EE2
:103A10000350E56EADEC0FF0006EF3CF01F0090E30
:103A2000E12606C0E5FF07C0E5FF08C0E5FF020E7E
:103A3000DBCF06F0030EDBCF07F0040EDBCF08F080
:103A400000500624026E01500720036EE86A082029
:103A5000E4CF08F0E4CF07F0E4CF06F0E56A02C057
:103A6000E9FF03C0F3FF95EC22F001C0F3FF005023
:103A7000E4CF05F0E4CF04F0E4CF03F0E4CF02F0AC
:103A8000E4CF01F0E4CF00F0E4CFD9FF1200D9CFAA
:103A9000E5FFE1CFD9FF00C0E5FF01C0E5FF02C0AF
:103AA000E5FF03C0E5FF04C0E5FF05C0E5FF06C074
:103AB000E5FF07C0E5FF020EDBCF00F0030EDBCF12
:103AC00001F0040EDBCF02F0050EDBCF03F002C0E5
:103AD00006F00650046E800A33E100C0E9FF01C021
:103AE000F3FF02501FEC21F0056EF3CF06F0F4CF88
:103AF00007F003C0E5FF05C0E9FF06C0F3FF07506C
:103B000095EC22F000C0E9FF01C0F3FF02501FEC6A
:103B100021F0056EF3CF06F0F4CF07F0052A02E39B
:103B2000064A072A05C0E5FF06C0F4FF07C0F6FFF6
:103B300000C0E9FF01C0F3FF025059EC22F01DD094
:103B400004AA1BD0047A045004E1035006EC00F0F0
:103B500014D00450010A04E1035002EC00F00DD02F
:103B600004500F0A04E10350E3EC22F006D00450A5
:103B70000E0A03E10350D6EC22F0E4CF07F0E4CFC5
:103B800006F0E4CF05F0E4CF04F0E4CF03F0E4CF97
:103B900002F0E4CF01F0E4CF00F0E4CFD9FF12004F
:103BA000D9CFE5FFE1CFD9FF8186000000000000FA
:103BB0000000000000000000000000000000000005
:103BC00000000000000000000000000000000000F5
:103BD00000000000000000000000000000000000E5
:103BE00000000000000000000000000000000000D5
:103BF00000000000000000000000000000000000C5
:103C0000000000008196000000000000000000009D
:103C100000000000000000000000000000000000A4
:103C20000000000000000000000000000000000094
:103C30000000000000000000000000000000000084
:103C40000000000000000000000000000000000074
:103C50000000000000000000000000000000000064
:103C6000E4CFD9FF1200D9CFE5FFE1CFD9FF81849E
:103C70000000000000000000000000000000000044
:103C80000000000000000000000000000000000034
:103C90000000000000000000000000000000000024
:103CA0000000000000000000000000000000000014
:103CB0000000000000000000000000000000000004
:103CC00000000000000000000000819400000000DF
:103CD00000000000000000000000000000000000E4
:103CE00000000000000000000000000000000000D4
:103CF00000000000000000000000000000000000C4
:103D000000000000000000000000000000000000B3
:103D100000000000000000000000000000000000A3
:103D2000000000000000E4CFD9FF1200D9CFE5FF6A
:103D3000E1CFD9FF00C0E5FF01C0E5FF02C0E5FF0C
:103D400003C0E5FF04C0E5FF05C0E5FF06C0E5FFD1
:103D5000020EDBCF00F0030EDBCF01F0040EDBCF51
:103D600002F0050EDBCF03F0060EDBCF04F0070EEA
:103D7000DBCF05F0080EDBCF06F0D88003AED8907D
:103D800015E306500A0A12E104C0E9FF05C0EAFF84
:103D90002D0EEF6E044A052A031E021E011E006C42
:103DA00005E1012A03E1022AD8B4032A0650E56E90
:103DB0000550E56E0450E56E0350E56E0250E56E69
:103DC0000150E56E0050E56E9AEC18F0070EE12602
:103DD000E4CF06F0E4CF05F0E4CF04F0E4CF03F045
:103DE000E4CF02F0E4CF01F0E4CF00F0E4CFD9FF5C
:103DF0001200D8CFE5FFE0CFE5FFE56EF3CFE5FF9A
:103E0000F4CFE5FFE9CFE5FFEACFE5FFFACFE5FF25
:103E1000FBCFE5FFD9CFE5FFE1CFD9FF00C0E5FF3C
:103E200001C0E5FF9EA024D0F80ECF6E530ECE6EDB
:103E300038C500F00050016E015004E00050010A46
:103E400006E011D08188010E0501386F0CD039C50C
:103E500000F00004016E01500501396F005003E1CC
:103E60008198020E386F05012C3F01D02D2B9E90BA
:103E7000D2EC22F0006E005006E0DBEC21F0006E88
:103E80000050BEEC22F0E4CF01F0E4CF00F0E4CF2C
:103E9000D9FFE4CFFBFFE4CFFAFFE4CFEAFFE4CFA2
:103EA000E9FFE4CFF4FFE4CFF3FFE450E4CFE0FF19
:103EB000E4CFD8FF1000D9CFE5FFE1CFD9FF00C094
:103EC000E5FF01C0E5FF02C0E5FF03C0E5FF04C058
:103ED000E5FF05C0E5FF06C0E5FF07C0E5FF020EF0
:103EE000DBCF00F0030EDBCF01F02CC502F02DC5B7
:103EF00003F00250FF08046EFF0E0354056E0350DA
:103F000005012D5D02E102502C5D08E30250050120
:103F10002C5D066E03502D59076E07D005012C51FC
:103F20000424066E2D510520076E0150075C02E146
:103F30000050065CE4E3E4CF07F0E4CF06F0E4CF02
:103F400005F0E4CF04F0E4CF03F0E4CF02F0E4CFD7
:103F500001F0E4CF00F0E4CFD9FF1200D9CFE5FFA4
:103F6000E1CFD9FF00C0E5FF01C0E5FF02C0E5FFDA
:103F700003C0E5FF020EDBCF00F000407F0B016EB7
:103F8000550E01160044FE0B026EAA0E02160250D8
:103F900001120040E8403F0B026E330E021600444F
:103FA000E844FC0B036ECC0E0316035002120250C1
:103FB000011200380F0B026E0F0E02160038F00BC4
:103FC000036EF00E0314006E005002120250011234
:103FD0000150E4CF03F0E4CF02F0E4CF01F0E4CFEE
:103FE00000F0E4CFD9FF1200D9CFE5FFE1CFD9FF30
:103FF00000C0E5FF01C0E5FF02C0E5FF03C0E5FF2B
:10400000020EDBCF00F0030EDBCF01F0040EDBCF9E
:1040100002F0CEEC22F0036E0350FBE100C0E9FF9A
:1040200001C0F3FF025028EC22F0BEEC22F000C0E9
:10403000E9FF01C0F3FF025028EC22F0036E002AD2
:1040400002E3014A022A0350E4E1E4CF03F0E4CFA3
:1040500002F0E4CF01F0E4CF00F0E4CFD9FF12008A
:10406000D9CFE5FFE1CFD9FF020E0501006F0A6B42
:104070000B6B9F0E0501346FF90E356F040E0501B1
:104080003D6FD58ED590D592D594D59CD59AD586B1
:10409000F184F29AB588B598B59AB550F00B090934
:1040A000B56EB59CB58EB450F80B0609B46EB496D7
:1040B000B488A28CA08CE4CFD9FF1200D9CFE5FF41
:1040C000E1CFD9FF928092829380939881989392C6
:1040D00081929394819493968196939881989492E7
:1040E0008292948E949CCD80CD8ECD92CD96CD989B
:1040F000CD9A9F909D809E80D08EF298F18CF28C0C
:10410000F28E9F9A9F98C6EC21F0E4CFD9FF12005F
:10411000E8AE0AD0F3CFEAFFEE50EECFF3FFEECFDA
:10412000F4FFEECFE9FF1200E8BCDFEF22F0E9CFA9
:10413000F6FFF3CFF7FFF86E0900F5500900F5CF51
:10414000F3FF0900F5CFF4FF0900F5CFE9FF1200F6
:10415000D9CFE5FFE1CFD9FF020E0501236F266B12
:10416000AE0E0501346FF90E356F020E05013D6F7D
:10417000D59ED590D592D594D59CD59AD586F184E7
:10418000F28AF294F288F18CE4CFD9FF1200D9CFF1
:10419000E5FFE1CFD9FFAE0E0501346FF90E356FA3
:1041A0000501236B266B8192030E05013D6FD59EA1
:1041B000D590D592D594D59CD59AD586F184F28A9E
:1041C000F294D59EE4CFD9FF1200D9CFE5FFE1CF1D
:1041D000D9FF05011D6B1F6B230E0501346FF30E14
:1041E000356F010E05013D6FD59ED590D592D594C2
:1041F000D59CD59AD586F184F28AF294F288F18C16
:10420000E4CFD9FF1200D9CFE5FFE1CFD9FF00C03D
:10421000E5FF01C0E5FF0501305105012E5D006E8F
:104220000501315105012F59016E01C0F3FF005006
:10423000E4CF01F0E4CF00F0E4CFD9FF1200E8AE04
:1042400008D0F3CFEAFFEE50EECFF3FFEECFF4FF4E
:104250001200E8BCDDEF22F0E9CFF6FFF3CFF7FF65
:10426000F86E0900F5500900F5CFF3FF0900F5CF0E
:10427000F4FF1200D9CFE5FFE1CFD9FF9F0E050172
:10428000346FF90E356F0501006B050E05013D6FAA
:10429000D58ED590D592D594D59CD59AD586F184D6
:1042A000F28AE4CFD9FF1200F2CFEAFFF29EA69E77
:1042B000A69CA684E9CFA9FFE4CFA8FFC6EC22F014
:1042C000F4CFA8FFC6EC22F0F6CFA8FFC6EC22F090
:1042D000A694EABEF28E1200F2CFF6FFF29EA69EE0
:1042E000A69CE9CFA9FFA680A850A92AA680A8CF9E
:1042F000F3FFA92AA680A8CFF4FFA92AA680A8CFF9
:10430000EAFFF6BEF28E1200D9CFE5FFE1CFD9FF6A
:1043100000C0E5FF020EDBCF00F0610E005C05E39C
:104320007B0E005C02E2010E01D0E86AE4CF00F0EF
:10433000E4CFD9FF1200E8AE06D0F3CFEAFFEE508B
:10434000EECFF3FF1200E8BCDBEF22F0E9CFF6FF7F
:10435000F3CFF7FFF86E0900F5500900F5CFF3FF32
:104360001200D9CFE5FFE1CFD9FF00C0E5FF020E73
:10437000DBCF00F000500501256F080E266FD58EAB
:10438000F284E4CF00F0E4CFD9FF1200D9CFE5FFEB
:10439000E1CFD9FF670EAF6EAC84AC98B886AB8E18
:1043A0009D989F989D8A9F9AAC9CAB9CAB88AC8A49
:1043B000E4CFD9FF1200F00E05013E153E6FABAC05
:1043C00004D03E91ABA001D03E81ABA402D0050148
:1043D0003E85ABA202D005013E87AE501200F2CF5F
:1043E000F6FFF29EA69EA69CE9CFA9FFA680A85044
:1043F000A92AA680A8CFF3FFA92AA680A8CFF4FFF8
:10440000F6BEF28E1200D9CFE5FFE1CFD9FF00C092
:10441000E5FF020EDBCF00F0005005010C6F080E27
:104420000D6FE4CF00F0E4CFD9FF1200D9CFE5FF44
:10443000E1CFD9FF00C0E5FF020EDBCF00F0005056
:104440000501396F386BE4CF00F0E4CFD9FF1200DB
:10445000E8AE04D0F3CFEAFFEE501200E8BCD9EF8B
:1044600022F0E9CFF6FFF3CFF7FFF86E0900F55021
:104470001200F2CFEAFFF29EA69EA69CA684E9CF88
:10448000A9FFE4CFA8FFC6EC22F0A694EABEF28E04
:104490001200F2CFF6FFF29EA69EA69CE9CFA9FFDE
:1044A000A680A850A92AA680A8CFF3FFF6BEF28E58
:1044B0001200E8AE09D0F3CFEAFFE4CFEEFFF4CF6D
:1044C000EEFFF6CFEEFF1200E8BCE1EF22F01200A3
:1044D000F2CFF6FFF29EA69EA69CE9CFA9FFA6808A
:1044E000A850F6BEF28E1200D9CFE5FFE1CFD9FF7A
:1044F00005013D6BD59EA08CE4CFD9FF1200D9CF2A
:10450000E5FFE1CFD9FFF29805013D6BD59EE4CFE1
:10451000D9FF1200D9CFE5FFE1CFD9FF05013D6BEF
:104520008192D59EE4CFD9FF1200E8AE05D0F3CF3B
:10453000EAFFE4CFEEFF1200E8BC0AEF00F0120041
:10454000D9CFE5FFE1CFD9FFA09C05013D6BE4CFBA
:10455000D9FF1200D9CFE5FFE1CFD9FF05013D6BAF
:10456000F298E4CFD9FF120014EEFFF024EEFFF032
:10457000F86AA68EA69C91EC0BF0FFD7ACAC04D0E9
:10458000AC9005013EB3AC80AD6E1200550EA76E27
:10459000AA0EA76EA682A6B2FED7A94A000EACA2AA
:1045A000010F1200000E9EBA010F1200E8CF7FFF2C
:1045B000120068EF22F049EF22F0EFEF21F06CEFEC
:0845C00021F054EF21F012007C
:020000040030CA
:04000000010A191EBA
:020005008185F3
:060008000FC00FE00F40E5
:00000001FF
