:020000040000FA
:1000000076EF19F01AEF19F091EF0BF0000EACA299
:10001000010F12002AEF19F00FEF16F0D9CFE5FF0C
:10002000E1CFD9FF82820000000000000000000044
:1000300000000000000000000000000000000000C0
:1000400000000000000000000000000000000000B0
:1000500000000000000000000000000000000000A0
:100060000000000000000000000000000000000090
:100070000000000000000000000000000000000080
:100080000000000000000000000000000000000070
:100090000000000000000000000000000000000060
:1000A0000000000000000000000000000000000050
:1000B0000000000000000000000000000000000040
:1000C0000000000000000000000000000000000030
:1000D0000000000000000000000000000000000020
:1000E0000000000000000000000000000000000010
:1000F0000000000000000000000000000000000000
:1001000000000000000000000000000000000000EF
:1001100000000000000000000000000000000000DF
:1001200000000000000000000000000000000000CF
:1001300000000000829200000000000000000000AB
:1001400000000000000000000000000000000000AF
:10015000000000000000000000000000000000009F
:10016000000000000000000000000000000000008F
:10017000000000000000000000000000000000007F
:10018000000000000000000000000000000000006F
:10019000000000000000000000000000000000005F
:1001A000000000000000000000000000000000004F
:1001B000000000000000000000000000000000003F
:1001C000000000000000000000000000000000002F
:1001D000000000000000000000000000000000001F
:1001E000000000000000000000000000000000000F
:1001F00000000000000000000000000000000000FF
:1002000000000000000000000000000000000000EE
:1002100000000000000000000000000000000000DE
:1002200000000000000000000000000000000000CE
:1002300000000000000000000000000000000000BE
:1002400000000000828200000000000000000000AA
:10025000000000000000000000000000000000009E
:10026000000000000000000000000000000000008E
:10027000000000000000000000000000000000007E
:10028000000000000000000000000000000000006E
:10029000000000000000000000000000000000005E
:1002A000000000000000000000000000000000004E
:1002B000000000000000000000000000000000003E
:1002C000000000000000000000000000000000002E
:1002D000000000000000000000000000000000001E
:1002E000000000000000000000000000000000000E
:1002F00000000000000000000000000000000000FE
:1003000000000000000000000000000000000000ED
:1003100000000000000000000000000000000000DD
:1003200000000000000000000000000000000000CD
:1003300000000000000000000000000000000000BD
:1003400000000000000000000000000000000000AD
:100350000000000082920000000000000000000089
:10036000000000000000000000000000000000008D
:10037000000000000000000000000000000000007D
:10038000000000000000000000000000000000006D
:10039000000000000000000000000000000000005D
:1003A000000000000000000000000000000000004D
:1003B000000000000000000000000000000000003D
:1003C000000000000000000000000000000000002D
:1003D000000000000000000000000000000000001D
:1003E000000000000000000000000000000000000D
:1003F00000000000000000000000000000000000FD
:1004000000000000000000000000000000000000EC
:1004100000000000000000000000000000000000DC
:1004200000000000000000000000000000000000CC
:1004300000000000000000000000000000000000BC
:1004400000000000000000000000000000000000AC
:10045000000000000000000000000000000000009C
:100460000000000082820000000000000000000088
:10047000000000000000000000000000000000007C
:10048000000000000000000000000000000000006C
:10049000000000000000000000000000000000005C
:1004A000000000000000000000000000000000004C
:1004B000000000000000000000000000000000003C
:1004C000000000000000000000000000000000002C
:1004D000000000000000000000000000000000001C
:1004E000000000000000000000000000000000000C
:1004F00000000000000000000000000000000000FC
:1005000000000000000000000000000000000000EB
:1005100000000000000000000000000000000000DB
:1005200000000000000000000000000000000000CB
:1005300000000000000000000000000000000000BB
:1005400000000000000000000000000000000000AB
:10055000000000000000000000000000000000009B
:10056000000000000000000000000000000000008B
:100570000000000082920000000000000000000067
:10058000000000000000000000000000000000006B
:10059000000000000000000000000000000000005B
:1005A000000000000000000000000000000000004B
:1005B000000000000000000000000000000000003B
:1005C000000000000000000000000000000000002B
:1005D000000000000000000000000000000000001B
:1005E000000000000000000000000000000000000B
:1005F00000000000000000000000000000000000FB
:1006000000000000000000000000000000000000EA
:1006100000000000000000000000000000000000DA
:1006200000000000000000000000000000000000CA
:1006300000000000000000000000000000000000BA
:1006400000000000000000000000000000000000AA
:10065000000000000000000000000000000000009A
:10066000000000000000000000000000000000008A
:10067000000000000000000000000000000000007A
:100680000000000082820000000000000000000066
:10069000000000000000000000000000000000005A
:1006A000000000000000000000000000000000004A
:1006B000000000000000000000000000000000003A
:1006C000000000000000000000000000000000002A
:1006D000000000000000000000000000000000001A
:1006E000000000000000000000000000000000000A
:1006F00000000000000000000000000000000000FA
:1007000000000000000000000000000000000000E9
:1007100000000000000000000000000000000000D9
:1007200000000000000000000000000000000000C9
:1007300000000000000000000000000000000000B9
:1007400000000000000000000000000000000000A9
:100750000000000000000000000000000000000099
:100760000000000000000000000000000000000089
:100770000000000000000000000000000000000079
:100780000000000000000000000000000000000069
:100790000000000082920000000000000000000045
:1007A0000000000000000000000000000000000049
:1007B0000000000000000000000000000000000039
:1007C0000000000000000000000000000000000029
:1007D0000000000000000000000000000000000019
:1007E0000000000000000000000000000000000009
:1007F00000000000000000000000000000000000F9
:1008000000000000000000000000000000000000E8
:1008100000000000000000000000000000000000D8
:1008200000000000000000000000000000000000C8
:1008300000000000000000000000000000000000B8
:1008400000000000000000000000000000000000A8
:100850000000000000000000000000000000000098
:100860000000000000000000000000000000000088
:100870000000000000000000000000000000000078
:100880000000000000000000000000000000000068
:100890000000000000000000000000000000000058
:1008A0000000000082820000000000000000000044
:1008B0000000000000000000000000000000000038
:1008C0000000000000000000000000000000000028
:1008D0000000000000000000000000000000000018
:1008E0000000000000000000000000000000000008
:1008F00000000000000000000000000000000000F8
:1009000000000000000000000000000000000000E7
:1009100000000000000000000000000000000000D7
:1009200000000000000000000000000000000000C7
:1009300000000000000000000000000000000000B7
:1009400000000000000000000000000000000000A7
:100950000000000000000000000000000000000097
:100960000000000000000000000000000000000087
:100970000000000000000000000000000000000077
:100980000000000000000000000000000000000067
:100990000000000000000000000000000000000057
:1009A0000000000000000000000000000000000047
:1009B0000000000082920000000000000000000023
:1009C0000000000000000000000000000000000027
:1009D0000000000000000000000000000000000017
:1009E0000000000000000000000000000000000007
:1009F00000000000000000000000000000000000F7
:100A000000000000000000000000000000000000E6
:100A100000000000000000000000000000000000D6
:100A200000000000000000000000000000000000C6
:100A300000000000000000000000000000000000B6
:100A400000000000000000000000000000000000A6
:100A50000000000000000000000000000000000096
:100A60000000000000000000000000000000000086
:100A70000000000000000000000000000000000076
:100A80000000000000000000000000000000000066
:100A90000000000000000000000000000000000056
:100AA0000000000000000000000000000000000046
:100AB0000000000000000000000000000000000036
:100AC0000000000082820000000000000000000022
:100AD0000000000000000000000000000000000016
:100AE0000000000000000000000000000000000006
:100AF00000000000000000000000000000000000F6
:100B000000000000000000000000000000000000E5
:100B100000000000000000000000000000000000D5
:100B200000000000000000000000000000000000C5
:100B300000000000000000000000000000000000B5
:100B400000000000000000000000000000000000A5
:100B50000000000000000000000000000000000095
:100B60000000000000000000000000000000000085
:100B70000000000000000000000000000000000075
:100B80000000000000000000000000000000000065
:100B90000000000000000000000000000000000055
:100BA0000000000000000000000000000000000045
:100BB0000000000000000000000000000000000035
:100BC0000000000000000000000000000000000025
:100BD000000000008292E4CFD9FF1200D9CFE5FFD8
:100BE000E1CFD9FF82820000000000000000000079
:100BF00000000000000000000000000000000000F5
:100C000000000000000000000000000000000000E4
:100C100000000000000000000000000000000000D4
:100C200000000000000000000000000000000000C4
:100C300000000000000000000000000000000000B4
:100C400000000000000000000000000000000000A4
:100C50000000000000000000000000000000000094
:100C60000000000000000000000000000000000084
:100C70000000000000000000000000000000000074
:100C80000000000000000000000000000000000064
:100C90000000000000000000000000000000000054
:100CA0000000000000000000000000000000000044
:100CB0000000000000000000000000000000000034
:100CC0000000000000000000000000000000000024
:100CD0000000000000000000000000000000000014
:100CE0000000000000000000000000000000000004
:100CF00000000000000000000000000000000000F4
:100D000000000000000000000000000000000000E3
:100D100000000000000000000000000000000000D3
:100D200000000000000000000000000000000000C3
:100D300000000000000000000000000000000000B3
:100D400000000000000000000000000000000000A3
:100D50000000000000000000000000000000000093
:100D60000000000000000000000000000000000083
:100D7000000000000000000000000000000082925F
:100D80000000000000000000000000000000000063
:100D90000000000000000000000000000000000053
:100DA0000000000000000000000000000000000043
:100DB0000000000000000000000000000000000033
:100DC0000000000000000000000000000000000023
:100DD0000000000000000000000000000000000013
:100DE0000000000000000000000000000000000003
:100DF00000000000000000000000000000000000F3
:100E000000000000000000000000000000000000E2
:100E100000000000000000000000000000000000D2
:100E200000000000000000000000000000000000C2
:100E300000000000000000000000000000000000B2
:100E400000000000000000000000000000000000A2
:100E50000000000000000000000000000000000092
:100E60000000000000000000000000000000000082
:100E70000000000000000000000000000000000072
:100E80000000000000000000000000000000000062
:100E90000000000000000000000000000000000052
:100EA0000000000000000000000000000000000042
:100EB0000000000000000000000000000000000032
:100EC0000000000000000000000000000000000022
:100ED0000000000000000000000000000000000012
:100EE0000000000000000000000000000000000002
:100EF00000000000000000000000000000000000F2
:100F000000000000000000000000000000000000E1
:100F100000000000000000008282000000000000CD
:100F200000000000000000000000000000000000C1
:100F300000000000000000000000000000000000B1
:100F400000000000000000000000000000000000A1
:100F50000000000000000000000000000000000091
:100F60000000000000000000000000000000000081
:100F70000000000000000000000000000000000071
:100F80000000000000000000000000000000000061
:100F90000000000000000000000000000000000051
:100FA0000000000000000000000000000000000041
:100FB0000000000000000000000000000000000031
:100FC0000000000000000000000000000000000021
:100FD0000000000000000000000000000000000011
:100FE0000000000000000000000000000000000001
:100FF00000000000000000000000000000000000F1
:1010000000000000000000000000000000000000E0
:1010100000000000000000000000000000000000D0
:1010200000000000000000000000000000000000C0
:1010300000000000000000000000000000000000B0
:1010400000000000000000000000000000000000A0
:101050000000000000000000000000000000000090
:101060000000000000000000000000000000000080
:101070000000000000000000000000000000000070
:101080000000000000000000000000000000000060
:101090000000000000000000000000000000000050
:1010A0000000000000000000000000000000000040
:1010B000000082920000000000000000000000001C
:1010C0000000000000000000000000000000000020
:1010D0000000000000000000000000000000000010
:1010E0000000000000000000000000000000000000
:1010F00000000000000000000000000000000000F0
:1011000000000000000000000000000000000000DF
:1011100000000000000000000000000000000000CF
:1011200000000000000000000000000000000000BF
:1011300000000000000000000000000000000000AF
:10114000000000000000000000000000000000009F
:10115000000000000000000000000000000000008F
:10116000000000000000000000000000000000007F
:10117000000000000000000000000000000000006F
:10118000000000000000000000000000000000005F
:10119000000000000000000000000000000000004F
:1011A000000000000000000000000000000000003F
:1011B000000000000000000000000000000000002F
:1011C000000000000000000000000000000000001F
:1011D000000000000000000000000000000000000F
:1011E00000000000000000000000000000000000FF
:1011F00000000000000000000000000000000000EF
:1012000000000000000000000000000000000000DE
:1012100000000000000000000000000000000000CE
:1012200000000000000000000000000000000000BE
:1012300000000000000000000000000000000000AE
:10124000000000000000000000000000828200009A
:10125000000000000000000000000000000000008E
:10126000000000000000000000000000000000007E
:10127000000000000000000000000000000000006E
:10128000000000000000000000000000000000005E
:10129000000000000000000000000000000000004E
:1012A000000000000000000000000000000000003E
:1012B000000000000000000000000000000000002E
:1012C000000000000000000000000000000000001E
:1012D000000000000000000000000000000000000E
:1012E00000000000000000000000000000000000FE
:1012F00000000000000000000000000000000000EE
:1013000000000000000000000000000000000000DD
:1013100000000000000000000000000000000000CD
:1013200000000000000000000000000000000000BD
:1013300000000000000000000000000000000000AD
:10134000000000000000000000000000000000009D
:10135000000000000000000000000000000000008D
:10136000000000000000000000000000000000007D
:10137000000000000000000000000000000000006D
:10138000000000000000000000000000000000005D
:10139000000000000000000000000000000000004D
:1013A000000000000000000000000000000000003D
:1013B000000000000000000000000000000000002D
:1013C000000000000000000000000000000000001D
:1013D000000000000000000000000000000000000D
:1013E00000000000000082920000000000000000E9
:1013F00000000000000000000000000000000000ED
:1014000000000000000000000000000000000000DC
:1014100000000000000000000000000000000000CC
:1014200000000000000000000000000000000000BC
:1014300000000000000000000000000000000000AC
:10144000000000000000000000000000000000009C
:10145000000000000000000000000000000000008C
:10146000000000000000000000000000000000007C
:10147000000000000000000000000000000000006C
:10148000000000000000000000000000000000005C
:10149000000000000000000000000000000000004C
:1014A000000000000000000000000000000000003C
:1014B000000000000000000000000000000000002C
:1014C000000000000000000000000000000000001C
:1014D000000000000000000000000000000000000C
:1014E00000000000000000000000000000000000FC
:1014F00000000000000000000000000000000000EC
:1015000000000000000000000000000000000000DB
:1015100000000000000000000000000000000000CB
:1015200000000000000000000000000000000000BB
:1015300000000000000000000000000000000000AB
:10154000000000000000000000000000000000009B
:10155000000000000000000000000000000000008B
:10156000000000000000000000000000000000007B
:10157000000000000000000000000000000000006B
:101580008282000000000000000000000000000057
:10159000000000000000000000000000000000004B
:1015A000000000000000000000000000000000003B
:1015B000000000000000000000000000000000002B
:1015C000000000000000000000000000000000001B
:1015D000000000000000000000000000000000000B
:1015E00000000000000000000000000000000000FB
:1015F00000000000000000000000000000000000EB
:1016000000000000000000000000000000000000DA
:1016100000000000000000000000000000000000CA
:1016200000000000000000000000000000000000BA
:1016300000000000000000000000000000000000AA
:10164000000000000000000000000000000000009A
:10165000000000000000000000000000000000008A
:10166000000000000000000000000000000000007A
:10167000000000000000000000000000000000006A
:10168000000000000000000000000000000000005A
:10169000000000000000000000000000000000004A
:1016A000000000000000000000000000000000003A
:1016B000000000000000000000000000000000002A
:1016C000000000000000000000000000000000001A
:1016D000000000000000000000000000000000000A
:1016E00000000000000000000000000000000000FA
:1016F00000000000000000000000000000000000EA
:1017000000000000000000000000000000000000D9
:10171000000000000000000000008292E4CFD9FF2A
:101720001200D8CFE5FFE0CFE5FFE56EF3CFE5FF90
:10173000F4CFE5FFE9CFE5FFEACFE5FFFACFE5FF1C
:10174000FBCFE5FFD9CFE5FFE1CFD9FF00C0E5FF33
:1017500001C0E5FF02C0E5FF03C0E5FF04C0E5FFEF
:1017600005C0E5FFF2A24BD1F2A849D1D6CF00F0D7
:10177000016AD7CF02F0036A0250056E046A045072
:1017800000100501186F05500110196F05011B515C
:10179000006E016A0050D76E1A51D66E05012351B2
:1017A000010A06E005012351020A01E117D126D101
:1017B000640EE56EF7EC18F0E652F0C000F0005051
:1017C000016E015008E00050020A0CE00050040ACB
:1017D00001E13BD013D1D58E010E0001F26F020E54
:1017E000F06F0CD105011A518F0F006E020E1B21F4
:1017F000016E05011951015C02E11851005C1FE204
:1018000005011A511F0F006E040E1B21016E0150BD
:101810000501195D02E10050185D11E2020E0001A0
:10182000F25D06E2F2C000F0002A0050F26FE6D04E
:101830000001F36BF46BF56B040EF06FDFD0010E5B
:101840000001F26F020EF06FD9D00D0E0001F55DB0
:10185000D8B0D4D005011A518F0F006E020E1B2193
:10186000016E05011951015C02E11851005C0EE2A4
:1018700005011A511F0F006E040E1B21016E01504D
:101880000501195D02E10050185D1CE305011A51C4
:101890003D0F006E090E1B21016E05011951015CFF
:1018A00002E11851005C35E205011A51CD0F006EBE
:1018B0000A0E1B21016E01500501195D02E1005065
:1018C000185D27E20001F3A10AD0F351006E002653
:1018D000F435016E0050F36F0150F46F13D0000126
:1018E000F351006E0026F435016E0050F36F015085
:1018F000F46F010EF311006EF451016E0050F36F9E
:101900000150F46FF5C000F0002A00500001F56F9F
:1019100048D005011A51E60F006E050E1B21016E1D
:1019200005011951015C02E11851005C35E2050125
:101930001A51760F006E070E1B21016E0150050132
:10194000195D02E10050185D27E20001F3A113D0F8
:10195000F351006E0026F435016E0050F36F015014
:10196000F46F010EF311006EF451016E0050F36F2D
:101970000150F46F0AD00001F351006E0026F435D7
:10198000016E0050F36F0150F46FF5C000F0002AB3
:1019900000500001F56F05D0010E0001F26F020E3C
:1019A000F06F0001F5510C0A29E10001F451E56ED8
:1019B000F351E56E4CEC12F0006EE652E652005028
:1019C0000AE00001F351006E016A0050E56E80EC00
:1019D00015F0E65281880001F06B10D00001F6513D
:1019E000020A0CE18186000000008196F70ED76E96
:1019F000D66AF298D58E040E0001F66FF292F2A428
:101A00005DD1F2AA5BD105011B51006E016A005045
:101A1000D76E1A51D66E010E0501235DD8A04DD1A7
:101A2000060E235DD8B049D12305006EFA6AFB6A21
:101A30000034FA36E834FA36FC0B4A0FE56E1A0E1B
:101A4000FA22000EFB22E450F96E2FEF0DF07DEF2D
:101A50000DF034EF0DF0C4EF0DF006EF0EF0D59E53
:101A60000001F06B030029D1F6C000F00050016EB8
:101A700001500AE00050030A11E00050090A33E067
:101A800000500A0A35E019D10001F951080A01E0B5
:101A900014D18182030E0001F66F0FD1010E0001F7
:101AA000F95D1CE3010EF815006E0050D880E86661
:101AB000D890006A00360050010BE844F46E815063
:101AC000FD0BF410816EF8417F0B006E0050F86F33
:101AD000F9C000F000060050F96FEFD08192090EB6
:101AE0000001F66FEAD081920A0E0001F66FE5D090
:101AF00081920001F66BD59EE0D0F6C000F0005058
:101B0000040A04E00050070A30E0D7D0F9C000F022
:101B1000002A00500001F96F090EF95D22E281A050
:101B20000AD0F8417F0B006E0050F86F81880000EA
:101B300000008198C2D00001F8417F0B006E005078
:101B4000F86F800EF811006E0050F86F8188000069
:101B5000000081980000000081880000000081984A
:101B6000ACD0070E0001F66FA8D00001F851E56E69
:101B700080EC15F0E6520001F86BF96B020EF66F7F
:101B8000D59EF292F28899D0E0C000F00050040A8D
:101B900004E00050070A2EE090D0EDC000F0002ACB
:101BA00000500001ED6F090EED5D20E2010EE25DD7
:101BB00002E1550EE15D0EE3010E0001E25D02E17E
:101BC000DC0EE15D07E20001EC417F0B006E00508E
:101BD000EC6F73D00001EC417F0B006E0050EC6F96
:101BE000800EEC11006E0050EC6F67D0070E000104
:101BF000E06F63D00001EC51E56E80EC15F0E65229
:101C00000001EC6B020EE06FF29A57D0E0C000F0DA
:101C10000050016E01500FE00050010A17E0005023
:101C2000030A1BE00050050A01E13BD00050090AFD
:101C300001E13ED042D00EEC00F00001ED51080A67
:101C400003E1010E0001E06F819437D0EEEC05F066
:101C5000030E0001E06F818430D0EDC000F000047D
:101C6000016E01500001ED6F005015E0800E006E16
:101C7000ED5105E0E86CD8900032010FFDE3000162
:101C8000EC510016005004E00EEC00F0819403D0FB
:101C9000EEEC05F081840001ED510FE1050EE06FDF
:101CA0000CD00EEC00F0090E0001E06F819405D01D
:101CB0000EEC00F00001E06B8194F294A1AC76D0C0
:101CC000A0AC74D0B4AC70D0D6CF00F0016AD7CF3E
:101CD00002F0036A0250056E046A04500010050108
:101CE000186F05500110196F818405011C51050101
:101CF000185D006E05011D5105011959016E005056
:101D00000001E16F0150E26F18C51CF519C51DF502
:101D1000010EE25D02E1550EE15D30E3010E0001CE
:101D2000E25D02E1DC0EE15D29E20001E151E52521
:101D3000006EE251E621016E0050E56F0150E66F42
:101D4000E051020A32E1030E0001E65D02E1200EDD
:101D5000E55D2BE305011B51006E016A0050D76E53
:101D60001A51D66E0001E56BE66BE76BE86BED6B25
:101D7000EC6B040EE06FF294F28A17D00001E05190
:101D8000020A06E10001E56BE66BE76BE86B0DD03C
:101D90000001E151E725006EE251E821016E00509B
:101DA000E76F0150E86F01D08194A19CE4CF05F06A
:101DB000E4CF04F0E4CF03F0E4CF02F0E4CF01F08D
:101DC000E4CF00F0E4CFD9FFE4CFFBFFE4CFFAFF8C
:101DD000E4CFEAFFE4CFE9FFE4CFF4FFE4CFF3FF81
:101DE000E450E4CFE0FFE4CFD8FF10000A0D70729A
:101DF000657373207072696E74206F6E20746573E2
:101E0000746F0A0D00000A0D646F6E6520726563C1
:101E1000656976696E67202D2073656E64696E67EB
:101E2000207669612073657269616C2F66736B0A35
:101E30000D000A0D77616974696E6720666F722004
:101E40006E657720636F6D6D616E640A0D000A0D1B
:101E50006563686F2074657374202D2073656E64EC
:101E600020736F6D6520646174610A0D0000D350AA
:101E7000FC0BD36ED3508F0B7009D36E0001FC6B3B
:101E8000FD6BFE6BFF6B0501146B156B0501166B8B
:101E9000176BEBEC17F0BDEC17F0050E016E210E81
:101EA000006E800E026E0250E56E0150E56E00502D
:101EB000E56E1CEC14F0006E030EE1260050EDE020
:101EC000050121510BE005012151010A01E11AD15F
:101ED00005012151FF0A01E193D0DFD762EC19F02F
:101EE000000E026E1D0E016EEC0E006E0250E56ECD
:101EF0000150E56E0050E56E81EC17F0030EE1260F
:101F000052EC18F0006A016A000EE56E000EE56EF4
:101F1000270EE56E100EE56EDBEC14F0040EE126E4
:101F200070EC18F0026EF3CF03F00350015C02E195
:101F30000250005C16E202C000F003C001F0000E87
:101F4000E56E000EE56E000EE56EC80EE56EDBEC8C
:101F500014F0040EE12670EC18F0026EF3CF03F0DB
:101F6000E4D76CEC19F0000E066E1E0E056E060E20
:101F7000046E0650E56E0550E56E0450E56E81EC8A
:101F800017F0030EE1268CEC18F0050E056E210EFD
:101F9000046E800E066E0650E56E0550E56E045028
:101FA000E56E1CEC14F0046E030EE126045013E001
:101FB00005012151E56EE4EC18F0E652000EE56EE5
:101FC000000EE56E000EE56E040EE56EDBEC14F01F
:101FD000040EE126DAD736EC19F0000E066E1E0E5E
:101FE000056E320E046E0650E56E0550E56E045027
:101FF000E56E81EC17F0030EE126BDEC17F04DD72E
:1020000062EC19F0000E066E1E0E056E4E0E046E8A
:102010000650E56E0550E56E0450E56E81EC17F054
:10202000030EE126BDEC17F0006A016A000EE56EB2
:10203000000EE56E030EE56EE80EE56EDBEC14F0C7
:10204000040EE12670EC18F0026EF3CF03F003509B
:10205000015C02E10250005C16E202C000F003C025
:1020600001F0000EE56E000EE56E010EE56EF40E59
:10207000E56EDBEC14F0040EE12670EC18F0026E55
:10208000F3CF03F0E4D762EC19F08CEC18F0050EF6
:10209000056E220E046E800E066E0650E56E05502B
:1020A000E56E0450E56E1CEC14F0046E030EE126A0
:1020B000045013E005012251E56EE4EC18F0E652FD
:1020C000000EE56E000EE56E000EE56E040EE56E88
:1020D000DBEC14F0040EE126DAD736EC19F0000E32
:1020E000066E1E0E056E320E046E0650E56E05502D
:1020F000E56E0450E56E81EC17F0030EE126BDECB1
:1021000017F0CBD662EC19F0BDEC17F0006A016A4B
:10211000000EE56E000EE56E010EE56E900EE56EAA
:10212000DBEC14F0040EE12670EC18F0026EF3CF35
:1021300003F00350015C02E10250005C16E202C0B1
:1021400000F003C001F0000EE56E000EE56E000E1B
:10215000E56EC80EE56EDBEC14F0040EE12670ECC3
:1021600018F0026EF3CF03F0E4D762EC19F034EC10
:1021700018F0050E056E220E046E800E066E0650D7
:10218000E56E0550E56E0450E56E1CEC14F0046E2F
:10219000030EE126045013E005012251E56EA6EC82
:1021A00018F0E652000EE56E000EE56E000EE56ECC
:1021B0000C0EE56EDBEC14F0040EE126DAD74CECE5
:1021C00019F015EC18F0006A016A000EE56E000EB9
:1021D000E56E000EE56EC80EE56EDBEC14F0040E45
:1021E000E12670EC18F0026EF3CF03F00350015CAF
:1021F00002E10250005C16E202C000F003C001F0F0
:10220000000EE56E000EE56E000EE56E640EE56EE6
:10221000DBEC14F0040EE12670EC18F0026EF3CF44
:1022200003F0E4D741EC19F08CEC18F0050E016EC8
:10223000220E006E800E026E0250E56E0150E56EB9
:102240000050E56E1CEC14F0006E030EE126005009
:1022500013E005012251E56EE4EC18F0E652000EA1
:10226000E56E000EE56E000EE56E040EE56EDBEC2D
:1022700014F0040EE126DAD736EC19F0BDEC17F0B5
:102280000CD61200D9CFE5FFE1CFD9FF00C0E5FFA2
:1022900001C0E5FF02C0E5FF03C0E5FF04C0E5FFA4
:1022A00005C0E5FF06C0E5FF07C0E5FF020EDBCF76
:1022B00000F0030EDBCF01F0040EDBCF02F0050EC1
:1022C000DBCF03F0060EDBCF04F0070EDBCF05F00B
:1022D000080EDBCF06F0090EDBCF07F0005005013A
:1022E000006F0150016F0250026F0350036F0450E2
:1022F0000501046F0550056F0650066F0750076F04
:102300000501005105010603F4CF01F0F3CF00F001
:10231000005005010A6F01500B6F050100510501C6
:102320000403F4CF01F0F3CF00F000500501086F73
:102330000150096F0501035105010403F3CF00F0BB
:1023400005010B51002600500B6F050102510501DC
:102350000503F3CF00F005010B51002600500B6F71
:102360000501025105010403F4CF01F0F3CF00F0A1
:1023700005010A5100260B51012200500A6F01503D
:102380000B6F0501015105010503F4CF01F0F3CFF7
:1023900000F005010A5100260B51012200500A6F7E
:1023A00001500B6F0501015105010603F3CF00F049
:1023B000005005010F6F0501015105010403F4CF21
:1023C00001F0F3CF00F0005005010D6F01500E6FCA
:1023D0000501005105010703F3CF00F0005005018E
:1023E000136F0501005105010503F4CF01F0F3CF90
:1023F00000F000500501116F0150126F05010C6BC8
:102400000501106B05010C5105010825006E050141
:102410000D5105010921016E05010E5105010A2129
:10242000026E05010F5105010B21036E0050086F6C
:102430000150096F02500A6F03500B6F05011051D4
:1024400005010825006E0501115105010921016EE4
:102450000501125105010A21026E05011351050102
:102460000B21036E03C0E9FF02C0F4FF01C0F3FFBC
:102470000050E4CF07F0E4CF06F0E4CF05F0E4CF5E
:1024800004F0E4CF03F0E4CF02F0E4CF01F0E4CFB6
:1024900000F0E4CFD9FF1200D9CFE5FFE1CFD9FF9B
:1024A00000C0E5FF01C0E5FF02C0E5FF03C0E5FF96
:1024B00004C0E5FF05C0E5FF06C0E5FF07C0E5FF76
:1024C00008C0E5FF020EDBCF00F0030EDBCF01F00A
:1024D000026A780E0014036E046A056A010E066E25
:1024E000000E076E055006E0E86CD89006360736F9
:1024F000010FFCE30350061604500716065005E1D1
:10250000075003E1066A062A01D0066A0650D88001
:10251000E866D890066A06360250076E065007181D
:10252000026E052A080E055CD9E30244FE0B036E19
:10253000026AE60E0014046E056A066A010E076E52
:10254000000E086E065006E0E86CD8900736083694
:10255000010FFCE30450071605500816075005E16B
:10256000085003E1076A072A01D0076A0750D8809C
:10257000E866D890076A07360250086E07500818B8
:10258000026E062A080E065CD9E302500312D890A8
:102590000336026AD50E0014046E056A066A010E3F
:1025A000076E000E086E065006E0E86CD8900736FD
:1025B0000836010FFCE304500716055008160750B3
:1025C00005E1085003E1076A072A01D0076A0750AE
:1025D000D880E866D890076A07360250086E075020
:1025E0000818026E062A080E065CD9E30250031290
:1025F000D8900336026A8B0E0014046E056A066AD0
:10260000010E076E000E086E065006E0E86CD890CA
:1026100007360836010FFCE304500716055008166C
:10262000075005E1085003E1076A072A01D0076A4D
:102630000750D880E866D890076A07360250086EBF
:1026400007500818026E062A080E065CD9E30250ED
:1026500003120150006E016A026A0050031803E180
:102660000150021801E002D0010E01D0E86AE4CF67
:1026700008F0E4CF07F0E4CF06F0E4CF05F0E4CFB4
:1026800004F0E4CF03F0E4CF02F0E4CF01F0E4CFB4
:1026900000F0E4CFD9FF1200D9CFE5FFE1CFD9FF99
:1026A00000C0E5FF01C0E5FF02C0E5FF03C0E5FF94
:1026B00004C0E5FF05C0E5FF06C0E5FF020EDBCF65
:1026C00000F0030EDBCF01F0040EDBCF02F0050EAD
:1026D000DBCF03F0060EDBCF04F070EC18F0056ED4
:1026E000F3CF06F00650045C02E10550035CD8B05D
:1026F00091D005011751056E066A000E065C02E1D5
:10270000040E055CD8B084D0FA6AFB6A0534FA3648
:10271000E834FA36FC0B260FE56E270EFA22000E7F
:10272000FB22E450F96E9BEF13F0B7EF13F0D3EFF9
:1027300013F0EFEF13F0035005011625056E04505A
:102740001721066E066A000E0526070E062205C032
:10275000E9FF06C0EAFFEFCF05F005C0E5FF00C0C6
:10276000E9FF01C0F3FF025057EC19F051D00350BC
:1027700005011625056E04501721066E066A000E27
:102780000526010E062205C0E9FF06C0EAFFEFCFCD
:1027900005F005C0E5FF00C0E9FF01C0F3FF0250EE
:1027A00057EC19F035D0035005011625056E04507D
:1027B0001721066E066A000E0526020E062205C0C7
:1027C000E9FF06C0EAFFEFCF05F005C0E5FF00C056
:1027D000E9FF01C0F3FF025057EC19F019D00501D1
:1027E0001651032617510422046A000E0326030E15
:1027F000042203C0E9FF04C0EAFFEFCF03F003C0E7
:10280000E5FF00C0E9FF01C0F3FF025057EC19F0EB
:10281000010E01D0E86AE4CF06F0E4CF05F0E4CF82
:1028200004F0E4CF03F0E4CF02F0E4CF01F0E4CF12
:1028300000F0E4CFD9FF1200D9CFE5FFE1CFD9FFF7
:1028400000C0E5FF01C0E5FF02C0E5FF03C0E5FFF2
:1028500004C0E5FF020EDBCF00F0030EDBCF01F07A
:10286000040EDBCF02F070EC18F0036EF3CF04F02F
:1028700003500410D8B491D005011751036E046AB7
:10288000000E045C02E1040E035CD8B076D0FA6A54
:10289000FB6A0334FA36E834FA36FC0BAC0FE56E0B
:1028A000280EFA22000EFB22E450F96E5EEF14F0BF
:1028B00076EF14F08EEF14F0A6EF14F00501165128
:1028C000036E046A000E0326070E042203C0E9FF0C
:1028D00004C0EAFFEFCF03F003C0E5FF00C0E9FF4B
:1028E00001C0F3FF025057EC19F047D00501165113
:1028F000036E046A000E0326010E042203C0E9FFE2
:1029000004C0EAFFEFCF03F003C0E5FF00C0E9FF1A
:1029100001C0F3FF025057EC19F02FD005011651FA
:10292000036E046A000E0326020E042203C0E9FFB0
:1029300004C0EAFFEFCF03F003C0E5FF00C0E9FFEA
:1029400001C0F3FF025057EC19F017D005011651E2
:10295000036E046A000E0326030E042203C0E9FF7F
:1029600004C0EAFFEFCF03F003C0E5FF00C0E9FFBA
:1029700001C0F3FF025057EC19F00501163F01D0DA
:10298000172B0501165103E11751040A01E003D08A
:102990000501166B176B010E01D0E86AE4CF04F055
:1029A000E4CF03F0E4CF02F0E4CF01F0E4CF00F095
:1029B000E4CFD9FF1200D9CFE5FFE1CFD9FF00C0A6
:1029C000E5FF01C0E5FF02C0E5FF03C0E5FF04C06D
:1029D000E5FF05C0E5FF06C0E5FF07C0E5FF08C04D
:1029E000E5FF09C0E5FF0AC0E5FF0BC0E5FF0CC02D
:1029F000E5FF0DC0E5FF0EC0E5FF0FC0E5FF020ECD
:102A0000DBCF00F0030EDBCF01F0040EDBCF02F0D2
:102A1000050EDBCF03F0FCC004F0FDC005F0FEC0E6
:102A200006F0FFC007F004500001FC5D086E055081
:102A3000FD59096E0650FE590A6E0750FF590B6E7C
:102A400008500C6E09500D6E0A500E6E0B500F6E32
:102A5000D8800FAED8901CE30B50E56E0A50E56E9F
:102A60000950E56E0850E56EFF0EE56EFF0EE56E4F
:102A7000FF0EE56EFF0EE56E42EC11F00C6EF3CF2B
:102A80000DF0F4CF0EF0E9CF0FF0080EE12608D0DC
:102A900008C00CF009C00DF00AC00EF00BC00FF01A
:102AA00003500F5C08E102500E5C05E101500D5C23
:102AB00002E100500C5CD8A0B6D7E4CF0FF0E4CF11
:102AC0000EF0E4CF0DF0E4CF0CF0E4CF0BF0E4CF48
:102AD0000AF0E4CF09F0E4CF08F0E4CF07F0E4CF48
:102AE00006F0E4CF05F0E4CF04F0E4CF03F0E4CF48
:102AF00002F0E4CF01F0E4CF00F0E4CFD9FF120000
:102B0000D9CFE5FFE1CFD9FF00C0E5FF01C0E5FF68
:102B100002C0E5FF020EDBCF00F070EC18F0016E92
:102B2000F3CF02F0015004E10250040A01E16DD03C
:102B300005011551016E026A000E025C02E1040EED
:102B4000015CD8B052D0FA6AFB6A0134FA36E83434
:102B5000FA36FC0B640FE56E2B0EFA22000EFB22F8
:102B6000E450F96EBAEF15F0C9EF15F0D8EF15F093
:102B7000E7EF15F005011451016E026A000E0126FF
:102B8000070E022201C0E9FF02C0EAFF00C0EFFF0A
:102B90002CD005011451016E026A000E0126010EAF
:102BA000022201C0E9FF02C0EAFF00C0EFFF1DD012
:102BB00005011451016E026A000E0126020E022266
:102BC00001C0E9FF02C0EAFF00C0EFFF0ED005011F
:102BD0001451016E026A000E0126030E022201C08A
:102BE000E9FF02C0EAFF00C0EFFF0501143F01D07A
:102BF000152B0501145103E11551040A01E003D01E
:102C00000501146B156B010E01D0E86AE4CF02F0E8
:102C1000E4CF01F0E4CF00F0E4CFD9FF1200D8CF29
:102C2000E5FFE0CFE5FFE56EF3CFE5FFF4CFE5FF8D
:102C3000E9CFE5FFEACFE5FFFACFE5FFFBCFE5FF00
:102C4000D9CFE5FFE1CFD9FF00C0E5FF01C0E5FF27
:102C50009EA028D0F80ECF6E530ECE6E1EC500F08B
:102C60000050016E015004E00050010A06E011D04E
:102C70008188010E05011E6F0CD01FC500F00004F5
:102C8000016E015005011F6F005003E18198020E93
:102C90001E6F0001FC2B05E3FD2B03E3FE3F01D07B
:102CA000FF2B9E9090EC19F0006E005006E0D0ECE7
:102CB00018F0006E005080EC19F0E4CF01F0E4CF82
:102CC00000F0E4CFD9FFE4CFFBFFE4CFFAFFE4CF7D
:102CD000EAFFE4CFE9FFE4CFF4FFE4CFF3FFE450F1
:102CE000E4CFE0FFE4CFD8FF1000D9CFE5FFE1CF7C
:102CF000D9FF8186000000000000000000000000F5
:102D000000000000000000000000000000000000C3
:102D100000000000000000000000000000000000B3
:102D200000000000000000000000000000000000A3
:102D30000000000000000000000000000000000093
:102D4000000000000000000000000000000081966C
:102D50000000000000000000000000000000000073
:102D60000000000000000000000000000000000063
:102D70000000000000000000000000000000000053
:102D80000000000000000000000000000000000043
:102D90000000000000000000000000000000000033
:102DA00000000000000000000000E4CFD9FF120086
:102DB000D9CFE5FFE1CFD9FF8184000000000000FA
:102DC0000000000000000000000000000000000003
:102DD00000000000000000000000000000000000F3
:102DE00000000000000000000000000000000000E3
:102DF00000000000000000000000000000000000D3
:102E000000000000000000000000000000000000C2
:102E1000000000008194000000000000000000009D
:102E200000000000000000000000000000000000A2
:102E30000000000000000000000000000000000092
:102E40000000000000000000000000000000000082
:102E50000000000000000000000000000000000072
:102E60000000000000000000000000000000000062
:102E7000E4CFD9FF1200D9CFE5FFE1CFD9FF00C0E1
:102E8000E5FF01C0E5FF02C0E5FF03C0E5FF020E5C
:102E9000DBCF00F000407F0B016E550E01160044A1
:102EA000FE0B026EAA0E0216025001120040E8400C
:102EB0003F0B026E330E02160044E844FC0B036E17
:102EC000CC0E0316035002120250011200380F0BF1
:102ED000026E0F0E02160038F00B036EF00E031494
:102EE000006E00500212025001120150E4CF03F0B4
:102EF000E4CF02F0E4CF01F0E4CF00F0E4CFD9FF5B
:102F00001200D9CFE5FFE1CFD9FF00C0E5FF01C036
:102F1000E5FF02C0E5FF03C0E5FF020EDBCF00F0D6
:102F2000030EDBCF01F0040EDBCF02F006EC00F065
:102F3000036E0350FBE100C0E9FF01C0F3FF025044
:102F400009EC19F080EC19F000C0E9FF01C0F3FFB3
:102F5000025009EC19F0036E002A02E3014A022A2A
:102F60000350E4E1E4CF03F0E4CF02F0E4CF01F05A
:102F7000E4CF00F0E4CFD9FF1200D9CFE5FFE1CFD5
:102F8000D9FF020E0001E06FEA6BEB6B9F0E0501AB
:102F90001A6FF90E1B6F040E0501236FD58ED590A5
:102FA000D592D594D59CD59AD586F184F29AB588D8
:102FB000B598B59AB550F00B0909B56EB59CB58EAC
:102FC000B450F80B0609B46EB496B488A28CA08CE9
:102FD000E4CFD9FF1200D9CFE5FFE1CFD9FF92802E
:102FE0009282938093988198939281929394819402
:102FF000939681969398819894928292948E949CC1
:10300000CD80CD8ECD92CD96CD98CD9A9F909D803E
:103010009E80D08EF298F18CF28CF28E9F9A9F98BF
:10302000BBEC18F0E4CFD9FF1200D9CFE5FFE1CF18
:10303000D9FF020E0001F66FF96BAE0E05011A6F93
:10304000F90E1B6F020E0501236FD59ED590D59208
:10305000D594D59CD59AD586F184F28AF294F288DB
:10306000F18CE4CFD9FF1200D9CFE5FFE1CFD9FF32
:10307000AE0E05011A6FF90E1B6F0001F66BF96BAE
:103080008192030E0501236FD59ED590D592D594DC
:10309000D59CD59AD586F184F28AF294D59EE4CF58
:1030A000D9FF1200D9CFE5FFE1CFD9FF0001F06BC6
:1030B000F26B230E05011A6FF30E1B6F010E050153
:1030C000236FD59ED590D592D594D59CD59AD5868B
:1030D000F184F28AF294F288F18CE4CFD9FF1200E5
:1030E000D9CFE5FFE1CFD9FF00C0E5FF01C0E5FF83
:1030F000050116510501145D006E0501175105010A
:103100001559016E01C0F3FF0050E4CF01F0E4CF88
:1031100000F0E4CFD9FF1200D9CFE5FFE1CFD9FF0E
:103120009F0E05011A6FF90E1B6F0001E06B050E73
:103130000501236FD58ED590D592D594D59CD59A7F
:10314000D586F184F28AE4CFD9FF1200D9CFE5FF0A
:10315000E1CFD9FF00C0E5FF020EDBCF00F0005049
:103160000001F86F080EF96FD58EF284E4CF00F0FD
:10317000E4CFD9FF1200D9CFE5FFE1CFD9FF670E29
:10318000AF6EAC84AC98B886AB8E9D989F989D8AA4
:103190009F9AAC9CAB9CAB88AC8AE4CFD9FF120061
:1031A000F00E05012415246FABAC04D02491ABA024
:1031B00001D02481ABA402D005012485ABA202D0AA
:1031C00005012487AE501200D9CFE5FFE1CFD9FF2A
:1031D00000C0E5FF020EDBCF00F000500001EC6FF5
:1031E000080EED6FE4CF00F0E4CFD9FF1200D9CF85
:1031F000E5FFE1CFD9FF00C0E5FF020EDBCF00F015
:10320000005005011F6F1E6BE4CF00F0E4CFD9FF23
:103210001200E8AE04D0F3CFEAFFEE501200E8BC93
:103220000AEF00F0E9CFF6FFF3CFF7FFF86E0900E1
:10323000F5501200F2CFEAFFF29EA69EA69CA6844D
:10324000E9CFA9FFE4CFA8FF88EC19F0A694EABE65
:10325000F28E1200F2CFF6FFF29EA69EA69CE9CF58
:10326000A9FFA680A850F6BEF28E1200D9CFE5FFC6
:10327000E1CFD9FF0501236BD59EA08CE4CFD9FF08
:103280001200D9CFE5FFE1CFD9FFF2980501236BFA
:10329000D59EE4CFD9FF1200D9CFE5FFE1CFD9FF0A
:1032A0000501236B8192D59EE4CFD9FF1200E8AED1
:1032B00005D0F3CFEAFFE4CFEEFF1200E8BC02EF47
:1032C00000F01200D9CFE5FFE1CFD9FFA09C0501A6
:1032D000236BE4CFD9FF1200D9CFE5FFE1CFD9FFAF
:1032E0000501236BF298E4CFD9FF120014EEFFF032
:1032F00024EEFFF0F86AA68EA69C37EC0FF0FFD7FD
:10330000ACAC04D0AC90050124B3AC80AD6E12001F
:10331000550EA76EAA0EA76EA682A6B2FED7A94A20
:08332000000E9EBA010F12001D
:020000040030CA
:04000000010A191EBA
:020005008185F3
:060008000FC00FE00F40E5
:00000001FF
