:020000040000FA
:10000000E9EF29F0C96E120020EF12F0ACA2FED782
:10001000AD6E1200C282120024EF25F0D350FC0B0B
:10002000D36ED3508F0B7009D36E0501406B416BBB
:100030000501426B436B0501446B456B00EC27F0F7
:10004000000EE56E640EE56E86EC25F0E652E65293
:10005000000E026E2D0E016E300E006E0250E56E27
:100060000150E56E0050E56E5DEC26F0030EE126D2
:10007000A6EC1BF099EC26F0006EF3CF01F00050D7
:10008000400A03E10150120A01E01DD0000E046E87
:100090002D0E036E520E026E000E066E600E056E81
:1000A000800E076E0450E56E0350E56E0250E56E5B
:1000B0000750E56E0650E56E0550E56EE8EC22F05F
:1000C000060EE12644D00050400A03E101502A0AFE
:1000D00001E01DD0000E046E2D0E036E6A0E026E3E
:1000E000000E066E600E056E800E076E0450E56E03
:1000F0000350E56E0250E56E0750E56E0650E56E62
:100100000550E56EE8EC22F0060EE12620D0000E48
:10011000046E2D0E036E820E026E000E066E600ED1
:10012000056E800E076E0150E56E0050E56E0450BE
:10013000E56E0350E56E0250E56E0750E56E065021
:10014000E56E0550E56EE8EC22F0080EE126000EA3
:10015000016E600E006E800E026E0250E56E015060
:10016000E56E0050E56E5DEC26F0030EE126D2EC64
:1001700026F0050E016E4F0E006E800E026E0250CC
:10018000E56E0150E56E0050E56E71EC20F0006EFA
:10019000030EE1260050EDE0FB0E05014F5DE9E3A3
:1001A000050E4F25006EFA6AFB6A0034FA36E83411
:1001B000FA36FC0BC40FE56E010EFA22000EFB228C
:1001C000E450F96E94EF06F098EF04F09CEF02F023
:1001D000ECEF00F0CCEF01F0D5EC29F0000E026E50
:1001E0002D0E016EAE0E006E0250E56E0150E56EF2
:1001F0000050E56E5DEC26F0030EE126C9EC27F019
:10020000006A016A270EE56E100EE56E86EC25F099
:10021000E652E65204EC28F0026EF3CF03F00350EE
:10022000015C02E10250005C12E202C000F003C077
:1002300001F0000EE56EC80EE56E86EC25F0E65284
:10024000E65204EC28F0026EF3CF03F0E8D7DFECBF
:1002500029F0000E066E2D0E056EC80E046E0650B7
:10026000E56E0550E56E0450E56E5DEC26F0030E7C
:10027000E126046A056A04EC28F0066EF3CF07F065
:100280000750055C02E10650045CD8B04CD0050E66
:10029000076E500E066E800E086E0850E56E075011
:1002A000E56E0650E56E71EC20F0030EE12650C5B8
:1002B00006F0076A000E0A6E2D0E096EF40E086E27
:1002C000000E0C6E600E0B6E800E0D6E0750E56E0C
:1002D0000650E56E0A50E56E0950E56E0850E56E71
:1002E0000D50E56E0C50E56E0B50E56EE8EC22F01B
:1002F000080EE126000E076E600E066E800E086E78
:100300000850E56E0750E56E0650E56E5DEC26F090
:10031000030EE12605015051E56ECDEC21F0E652C9
:10032000044A052AA8D73BEC28F0050E056E4F0EAF
:10033000046E800E066E0650E56E0550E56E0450A4
:10034000E56E71EC20F0046E030EE12604500FE020
:1003500005014F51E56ECCEC28F0E652000EE56E3B
:10036000040EE56E86EC25F0E652E652DED793ECFD
:1003700029F0000E066E2D0E056EF80E046E065066
:10038000E56E0550E56E0450E56E5DEC26F0030E5B
:10039000E126D2EC26F0EDD6D5EC29F0000E066E63
:1003A0002E0E056E140E046E0650E56E0550E56EB9
:1003B0000450E56E5DEC26F0030EE126D2EC26F04B
:1003C000006A016A030EE56EE80EE56E86EC25F024
:1003D000E652E65204EC28F0026EF3CF03F003502D
:1003E000015C02E10250005C12E202C000F003C0B6
:1003F00001F0010EE56EF40EE56E86EC25F0E65296
:10040000E65204EC28F0026EF3CF03F0E8D7D5EC07
:1004100029F0046A056A04EC28F0066EF3CF07F0B1
:100420000750055C02E10650045CD8B04CD0050EC4
:10043000076E500E066E800E086E0850E56E07506F
:10044000E56E0650E56E71EC20F0030EE12650C516
:1004500006F0076A000E0A6E2D0E096EF40E086E85
:10046000000E0C6E600E0B6E800E0D6E0750E56E6A
:100470000650E56E0A50E56E0950E56E0850E56ECF
:100480000D50E56E0C50E56E0B50E56EE8EC22F079
:10049000080EE126000E076E600E066E800E086ED6
:1004A0000850E56E0750E56E0650E56E5DEC26F0EF
:1004B000030EE12605015051E56ECDEC21F0E65228
:1004C000044A052AA8D73BEC28F0050E056E500E0D
:1004D000046E800E066E0650E56E0550E56E045003
:1004E000E56E71EC20F0046E030EE12604500FE07F
:1004F00005015051E56ECCEC28F0E652000EE56E99
:10050000040EE56E86EC25F0E652E652DED793EC5B
:1005100029F0000E066E2D0E056EF80E046E0650C4
:10052000E56E0550E56E0450E56E5DEC26F0030EB9
:10053000E126D2EC26F01DD6D5EC29F0000E066E91
:100540002E0E056E340E046E0650E56E0550E56EF7
:100550000450E56E5DEC26F0030EE126D2EC26F0A9
:10056000006A016A010EE56E900EE56E86EC25F0DC
:10057000E652E65204EC28F0026EF3CF03F003508B
:10058000015C02E10250005C12E202C000F003C014
:1005900001F0000EE56EC80EE56E86EC25F0E65221
:1005A000E65204EC28F0026EF3CF03F0E8D7D5EC66
:1005B00029F0000E066E2E0E056E580E046E0650C3
:1005C000E56E0550E56E0450E56E5DEC26F0030E19
:1005D000E126046A056A04EC28F0066EF3CF07F002
:1005E0000750055C02E10650045CD8B04CD0050E03
:1005F000076E500E066E800E086E0850E56E0750AE
:10060000E56E0650E56E71EC20F0030EE12650C554
:1006100006F0076A000E0A6E2D0E096EF40E086EC3
:10062000000E0C6E600E0B6E800E0D6E0750E56EA8
:100630000650E56E0A50E56E0950E56E0850E56E0D
:100640000D50E56E0C50E56E0B50E56EE8EC22F0B7
:10065000080EE126000E076E600E066E800E086E14
:100660000850E56E0750E56E0650E56E5DEC26F02D
:10067000030EE12605015051E56ECDEC21F0E65266
:10068000044A052AA8D7F90EE56EAE0EE56EAAEC6F
:1006900027F0E652E652050E056E500E046E800EEF
:1006A000066E0650E56E0550E56E0450E56E71EC81
:1006B00020F0046E030EE12604500FE005015051B6
:1006C000E56E6DEC28F0E652000EE56E0C0EE56E60
:1006D00086EC25F0E652E652DED7BFEC29F0F90EA3
:1006E000E56EAE0EE56E4BEC27F0E652E652006A80
:1006F000016A010EE56E900EE56E86EC25F0E6527D
:10070000E65204EC28F0026EF3CF03F00350015CD4
:1007100002E10250005C12E202C000F003C001F0EE
:10072000000EE56EC80EE56E86EC25F0E652E65248
:1007300004EC28F0026EF3CF03F0E8D7B4EC29F014
:10074000000E066E2E0E056E7C0E046E0650E56ED3
:100750000550E56E0450E56E5DEC26F0030EE126D3
:10076000046A056A04EC28F0066EF3CF07F0075020
:10077000055C02E10650045CD8B04CD0050E076E53
:10078000500E066E800E086E0850E56E0750E56E3E
:100790000650E56E71EC20F0030EE12650C506F020
:1007A000076A000E0A6E2D0E096EF40E086E000E1A
:1007B0000C6E600E0B6E800E0D6E0750E56E0650CF
:1007C000E56E0A50E56E0950E56E0850E56E0D5075
:1007D000E56E0C50E56E0B50E56EE8EC22F0080E6D
:1007E000E126000E076E600E066E800E086E085041
:1007F000E56E0750E56E0650E56E5DEC26F0030EE3
:10080000E12605015051E56ECDEC21F0E652044A97
:10081000052AA8D704EC28F0046EF3CF05F00450A5
:1008200005102BE081860000000081963BEC28F04B
:10083000050E056E500E046E800E066E0650E56EB7
:100840000550E56E0450E56E71EC20F0046E030E69
:10085000E12604500FE005015051E56ECCEC28F084
:10086000E652000EE56E040EE56E86EC25F0E652CB
:10087000E652DED793EC29F047D0818600000000D5
:100880008196000000008186000000008196000E25
:10089000066E2E0E056EA00E046E000E086E600E23
:1008A000076E800E096E0650E56E0550E56E045029
:1008B000E56E0950E56E0850E56E0750E56EE8EC10
:1008C00022F0060EE126000E056E600E046E800E0C
:1008D000066E0650E56E0550E56E0450E56E5DEC63
:1008E00026F0030EE1263BEC28F00D0EE56ECCEC75
:1008F00028F0E652000EE56E040EE56E86EC25F05B
:10090000E652E65293EC29F0000E066E2D0E056EAF
:10091000F80E046E0650E56E0550E56E0450E56E67
:100920005DEC26F0030EE126D2EC26F0B9EF00F0E4
:10093000D5EC29F0000E066E2E0E056EB80E046E74
:100940000650E56E0550E56E0450E56E5DEC26F050
:10095000030EE126D2EC26F0006A016A010EE56E74
:10096000900EE56E86EC25F0E652E65204EC28F097
:10097000026EF3CF03F00350015C02E10250005C11
:1009800012E202C000F003C001F0000EE56EC80ED6
:10099000E56E86EC25F0E652E65204EC28F0026E95
:1009A000F3CF03F0E8D7D5EC29F0000E066E2E0E3B
:1009B000056EE00E046E0650E56E0550E56E0450BF
:1009C000E56E5DEC26F0030EE126046A056A04EC90
:1009D00028F0066EF3CF07F00750055C02E10650E1
:1009E000045CD8B04CD0050E076E500E066E800E1B
:1009F000086E0850E56E0750E56E0650E56E71EC26
:100A000020F0030EE12650C506F0076A000E0A6EBC
:100A10002D0E096EF40E086E000E0C6E600E0B6E3D
:100A2000800E0D6E0750E56E0650E56E0A50E56EBD
:100A30000950E56E0850E56E0D50E56E0C50E56E00
:100A40000B50E56EE8EC22F0080EE126000E076E72
:100A5000600E066E800E086E0850E56E0750E56E5B
:100A60000650E56E5DEC26F0030EE12605015051BF
:100A7000E56ECDEC21F0E652044A052AA8D7E60E31
:100A8000E56E1B0EE56E8BEC27F0E652E652050E86
:100A9000056E500E046E800E066E0650E56E055013
:100AA000E56E0450E56E71EC20F0046E030EE12655
:100AB00004500FE005015051E56E55EC28F0E65268
:100AC000000EE56E0C0EE56E86EC25F0E652E65261
:100AD000DED7A9EC29F0E60EE56E1B0EE56E2BECD9
:100AE00027F0E652E652006A016A050EE56EDC0E5A
:100AF000E56E86EC25F0E652E65204EC28F0026E34
:100B0000F3CF03F00350015C02E10250005C12E2FB
:100B100002C000F003C001F0020EE56E580EE56E53
:100B200086EC25F0E652E65204EC28F0026EF3CF94
:100B300003F0E8D79EEC29F0000E026E2F0E016E36
:100B4000080E006E0250E56E0150E56E0050E56E35
:100B50005DEC26F0030EE126006A016A04EC28F041
:100B6000026EF3CF03F00350015C02E10250005C1F
:100B7000D8B04CD0050E036E500E026E800E046E7F
:100B80000450E56E0350E56E0250E56E71EC20F006
:100B9000030EE12650C502F0036A000E066E2D0E0C
:100BA000056EF40E046E000E086E600E076E800E69
:100BB000096E0350E56E0250E56E0650E56E055075
:100BC000E56E0450E56E0950E56E0850E56E07507D
:100BD000E56EE8EC22F0080EE126000E036E600ED2
:100BE000026E800E046E0450E56E0350E56E0250F6
:100BF000E56E5DEC26F0030EE12605015051E56E31
:100C0000CDEC21F0E652004A012AA8D704EC28F0E6
:100C1000006EF3CF01F0005001102BE08186000040
:100C2000000081963BEC28F0050E016E500E006E20
:100C3000800E026E0250E56E0150E56E0050E56ECA
:100C400071EC20F0006E030EE12600500FE005016C
:100C50005051E56ECCEC28F0E652000EE56E040E25
:100C6000E56E86EC25F0E652E652DED793EC29F0ED
:100C700047D0818600000000819600000000818638
:100C8000000000008196000E026E2E0E016EA00E76
:100C9000006E000E046E600E036E800E056E025034
:100CA000E56E0150E56E0050E56E0550E56E0450AE
:100CB000E56E0350E56EE8EC22F0060EE126000E2C
:100CC000016E600E006E800E026E0250E56E0150E5
:100CD000E56E0050E56E5DEC26F0030EE1263BEC80
:100CE00028F00D0EE56ECCEC28F0E652000EE56E15
:100CF000040EE56E86EC25F0E652E65293EC29F000
:100D0000000E026E2D0E016EF80E006E0250E56EA2
:100D10000150E56E0050E56E5DEC26F0030EE12615
:100D2000D2EC26F0B9EF00F0D5EC29F0A6EC1BF0E0
:100D3000D2EC26F0B9EF00F01200D9CFE5FFE1CFF9
:100D4000D9FF8282000000000000000000000000C7
:100D50000000000000000000000000000000000093
:100D60000000000000000000000000000000000083
:100D70000000000000000000000000000000000073
:100D80000000000000000000000000000000000063
:100D90000000000000000000000000000000000053
:100DA0000000000000000000000000000000000043
:100DB0000000000000000000000000000000000033
:100DC0000000000000000000000000000000000023
:100DD0000000000000000000000000000000000013
:100DE0000000000000000000000000000000000003
:100DF00000000000000000000000000000000000F3
:100E000000000000000000000000000000000000E2
:100E100000000000000000000000000000000000D2
:100E200000000000000000000000000000000000C2
:100E300000000000000000000000000000000000B2
:100E400000000000000000000000000000000000A2
:100E5000000082920000000000000000000000007E
:100E60000000000000000000000000000000000082
:100E70000000000000000000000000000000000072
:100E80000000000000000000000000000000000062
:100E90000000000000000000000000000000000052
:100EA0000000000000000000000000000000000042
:100EB0000000000000000000000000000000000032
:100EC0000000000000000000000000000000000022
:100ED0000000000000000000000000000000000012
:100EE0000000000000000000000000000000000002
:100EF00000000000000000000000000000000000F2
:100F000000000000000000000000000000000000E1
:100F100000000000000000000000000000000000D1
:100F200000000000000000000000000000000000C1
:100F300000000000000000000000000000000000B1
:100F400000000000000000000000000000000000A1
:100F50000000000000000000000000000000000091
:100F6000000082820000000000000000000000007D
:100F70000000000000000000000000000000000071
:100F80000000000000000000000000000000000061
:100F90000000000000000000000000000000000051
:100FA0000000000000000000000000000000000041
:100FB0000000000000000000000000000000000031
:100FC0000000000000000000000000000000000021
:100FD0000000000000000000000000000000000011
:100FE0000000000000000000000000000000000001
:100FF00000000000000000000000000000000000F1
:1010000000000000000000000000000000000000E0
:1010100000000000000000000000000000000000D0
:1010200000000000000000000000000000000000C0
:1010300000000000000000000000000000000000B0
:1010400000000000000000000000000000000000A0
:101050000000000000000000000000000000000090
:101060000000000000000000000000000000000080
:10107000000082920000000000000000000000005C
:101080000000000000000000000000000000000060
:101090000000000000000000000000000000000050
:1010A0000000000000000000000000000000000040
:1010B0000000000000000000000000000000000030
:1010C0000000000000000000000000000000000020
:1010D0000000000000000000000000000000000010
:1010E0000000000000000000000000000000000000
:1010F00000000000000000000000000000000000F0
:1011000000000000000000000000000000000000DF
:1011100000000000000000000000000000000000CF
:1011200000000000000000000000000000000000BF
:1011300000000000000000000000000000000000AF
:10114000000000000000000000000000000000009F
:10115000000000000000000000000000000000008F
:10116000000000000000000000000000000000007F
:10117000000000000000000000000000000000006F
:10118000000082820000000000000000000000005B
:10119000000000000000000000000000000000004F
:1011A000000000000000000000000000000000003F
:1011B000000000000000000000000000000000002F
:1011C000000000000000000000000000000000001F
:1011D000000000000000000000000000000000000F
:1011E00000000000000000000000000000000000FF
:1011F00000000000000000000000000000000000EF
:1012000000000000000000000000000000000000DE
:1012100000000000000000000000000000000000CE
:1012200000000000000000000000000000000000BE
:1012300000000000000000000000000000000000AE
:10124000000000000000000000000000000000009E
:10125000000000000000000000000000000000008E
:10126000000000000000000000000000000000007E
:10127000000000000000000000000000000000006E
:10128000000000000000000000000000000000005E
:10129000000082920000000000000000000000003A
:1012A000000000000000000000000000000000003E
:1012B000000000000000000000000000000000002E
:1012C000000000000000000000000000000000001E
:1012D000000000000000000000000000000000000E
:1012E00000000000000000000000000000000000FE
:1012F00000000000000000000000000000000000EE
:1013000000000000000000000000000000000000DD
:1013100000000000000000000000000000000000CD
:1013200000000000000000000000000000000000BD
:1013300000000000000000000000000000000000AD
:10134000000000000000000000000000000000009D
:10135000000000000000000000000000000000008D
:10136000000000000000000000000000000000007D
:10137000000000000000000000000000000000006D
:10138000000000000000000000000000000000005D
:10139000000000000000000000000000000000004D
:1013A0000000828200000000000000000000000039
:1013B000000000000000000000000000000000002D
:1013C000000000000000000000000000000000001D
:1013D000000000000000000000000000000000000D
:1013E00000000000000000000000000000000000FD
:1013F00000000000000000000000000000000000ED
:1014000000000000000000000000000000000000DC
:1014100000000000000000000000000000000000CC
:1014200000000000000000000000000000000000BC
:1014300000000000000000000000000000000000AC
:10144000000000000000000000000000000000009C
:10145000000000000000000000000000000000008C
:10146000000000000000000000000000000000007C
:10147000000000000000000000000000000000006C
:10148000000000000000000000000000000000005C
:10149000000000000000000000000000000000004C
:1014A000000000000000000000000000000000003C
:1014B0000000829200000000000000000000000018
:1014C000000000000000000000000000000000001C
:1014D000000000000000000000000000000000000C
:1014E00000000000000000000000000000000000FC
:1014F00000000000000000000000000000000000EC
:1015000000000000000000000000000000000000DB
:1015100000000000000000000000000000000000CB
:1015200000000000000000000000000000000000BB
:1015300000000000000000000000000000000000AB
:10154000000000000000000000000000000000009B
:10155000000000000000000000000000000000008B
:10156000000000000000000000000000000000007B
:10157000000000000000000000000000000000006B
:10158000000000000000000000000000000000005B
:10159000000000000000000000000000000000004B
:1015A000000000000000000000000000000000003B
:1015B000000000000000000000000000000000002B
:1015C0000000828200000000000000000000000017
:1015D000000000000000000000000000000000000B
:1015E00000000000000000000000000000000000FB
:1015F00000000000000000000000000000000000EB
:1016000000000000000000000000000000000000DA
:1016100000000000000000000000000000000000CA
:1016200000000000000000000000000000000000BA
:1016300000000000000000000000000000000000AA
:10164000000000000000000000000000000000009A
:10165000000000000000000000000000000000008A
:10166000000000000000000000000000000000007A
:10167000000000000000000000000000000000006A
:10168000000000000000000000000000000000005A
:10169000000000000000000000000000000000004A
:1016A000000000000000000000000000000000003A
:1016B000000000000000000000000000000000002A
:1016C000000000000000000000000000000000001A
:1016D00000008292000000000000000000000000F6
:1016E00000000000000000000000000000000000FA
:1016F00000000000000000000000000000000000EA
:1017000000000000000000000000000000000000D9
:1017100000000000000000000000000000000000C9
:1017200000000000000000000000000000000000B9
:1017300000000000000000000000000000000000A9
:101740000000000000000000000000000000000099
:101750000000000000000000000000000000000089
:101760000000000000000000000000000000000079
:101770000000000000000000000000000000000069
:101780000000000000000000000000000000000059
:101790000000000000000000000000000000000049
:1017A0000000000000000000000000000000000039
:1017B0000000000000000000000000000000000029
:1017C0000000000000000000000000000000000019
:1017D0000000000000000000000000000000000009
:1017E00000008282000000000000000000000000F5
:1017F00000000000000000000000000000000000E9
:1018000000000000000000000000000000000000D8
:1018100000000000000000000000000000000000C8
:1018200000000000000000000000000000000000B8
:1018300000000000000000000000000000000000A8
:101840000000000000000000000000000000000098
:101850000000000000000000000000000000000088
:101860000000000000000000000000000000000078
:101870000000000000000000000000000000000068
:101880000000000000000000000000000000000058
:101890000000000000000000000000000000000048
:1018A0000000000000000000000000000000000038
:1018B0000000000000000000000000000000000028
:1018C0000000000000000000000000000000000018
:1018D0000000000000000000000000000000000008
:1018E00000000000000000000000000000000000F8
:1018F00000008292E4CFD9FF1200D9CFE5FFE1CFFB
:10190000D9FF8282000000000000000000000000FB
:1019100000000000000000000000000000000000C7
:1019200000000000000000000000000000000000B7
:1019300000000000000000000000000000000000A7
:101940000000000000000000000000000000000097
:101950000000000000000000000000000000000087
:101960000000000000000000000000000000000077
:101970000000000000000000000000000000000067
:101980000000000000000000000000000000000057
:101990000000000000000000000000000000000047
:1019A0000000000000000000000000000000000037
:1019B0000000000000000000000000000000000027
:1019C0000000000000000000000000000000000017
:1019D0000000000000000000000000000000000007
:1019E00000000000000000000000000000000000F7
:1019F00000000000000000000000000000000000E7
:101A000000000000000000000000000000000000D6
:101A100000000000000000000000000000000000C6
:101A200000000000000000000000000000000000B6
:101A300000000000000000000000000000000000A6
:101A40000000000000000000000000000000000096
:101A50000000000000000000000000000000000086
:101A60000000000000000000000000000000000076
:101A70000000000000000000000000000000000066
:101A80000000000000000000000000000000000056
:101A90000000000000000000000000008292000032
:101AA0000000000000000000000000000000000036
:101AB0000000000000000000000000000000000026
:101AC0000000000000000000000000000000000016
:101AD0000000000000000000000000000000000006
:101AE00000000000000000000000000000000000F6
:101AF00000000000000000000000000000000000E6
:101B000000000000000000000000000000000000D5
:101B100000000000000000000000000000000000C5
:101B200000000000000000000000000000000000B5
:101B300000000000000000000000000000000000A5
:101B40000000000000000000000000000000000095
:101B50000000000000000000000000000000000085
:101B60000000000000000000000000000000000075
:101B70000000000000000000000000000000000065
:101B80000000000000000000000000000000000055
:101B90000000000000000000000000000000000045
:101BA0000000000000000000000000000000000035
:101BB0000000000000000000000000000000000025
:101BC0000000000000000000000000000000000015
:101BD0000000000000000000000000000000000005
:101BE00000000000000000000000000000000000F5
:101BF00000000000000000000000000000000000E5
:101C000000000000000000000000000000000000D4
:101C100000000000000000000000000000000000C4
:101C200000000000000000000000000000000000B4
:101C300000000000000082820000000000000000A0
:101C40000000000000000000000000000000000094
:101C50000000000000000000000000000000000084
:101C60000000000000000000000000000000000074
:101C70000000000000000000000000000000000064
:101C80000000000000000000000000000000000054
:101C90000000000000000000000000000000000044
:101CA0000000000000000000000000000000000034
:101CB0000000000000000000000000000000000024
:101CC0000000000000000000000000000000000014
:101CD0000000000000000000000000000000000004
:101CE00000000000000000000000000000000000F4
:101CF00000000000000000000000000000000000E4
:101D000000000000000000000000000000000000D3
:101D100000000000000000000000000000000000C3
:101D200000000000000000000000000000000000B3
:101D300000000000000000000000000000000000A3
:101D40000000000000000000000000000000000093
:101D50000000000000000000000000000000000083
:101D60000000000000000000000000000000000073
:101D70000000000000000000000000000000000063
:101D80000000000000000000000000000000000053
:101D90000000000000000000000000000000000043
:101DA0000000000000000000000000000000000033
:101DB0000000000000000000000000000000000023
:101DC0000000000000000000000000000000000013
:101DD00082920000000000000000000000000000EF
:101DE00000000000000000000000000000000000F3
:101DF00000000000000000000000000000000000E3
:101E000000000000000000000000000000000000D2
:101E100000000000000000000000000000000000C2
:101E200000000000000000000000000000000000B2
:101E300000000000000000000000000000000000A2
:101E40000000000000000000000000000000000092
:101E50000000000000000000000000000000000082
:101E60000000000000000000000000000000000072
:101E70000000000000000000000000000000000062
:101E80000000000000000000000000000000000052
:101E90000000000000000000000000000000000042
:101EA0000000000000000000000000000000000032
:101EB0000000000000000000000000000000000022
:101EC0000000000000000000000000000000000012
:101ED0000000000000000000000000000000000002
:101EE00000000000000000000000000000000000F2
:101EF00000000000000000000000000000000000E2
:101F000000000000000000000000000000000000D1
:101F100000000000000000000000000000000000C1
:101F200000000000000000000000000000000000B1
:101F300000000000000000000000000000000000A1
:101F40000000000000000000000000000000000091
:101F50000000000000000000000000000000000081
:101F6000000000000000000000008282000000006D
:101F70000000000000000000000000000000000061
:101F80000000000000000000000000000000000051
:101F90000000000000000000000000000000000041
:101FA0000000000000000000000000000000000031
:101FB0000000000000000000000000000000000021
:101FC0000000000000000000000000000000000011
:101FD0000000000000000000000000000000000001
:101FE00000000000000000000000000000000000F1
:101FF00000000000000000000000000000000000E1
:1020000000000000000000000000000000000000D0
:1020100000000000000000000000000000000000C0
:1020200000000000000000000000000000000000B0
:1020300000000000000000000000000000000000A0
:102040000000000000000000000000000000000090
:102050000000000000000000000000000000000080
:102060000000000000000000000000000000000070
:102070000000000000000000000000000000000060
:102080000000000000000000000000000000000050
:102090000000000000000000000000000000000040
:1020A0000000000000000000000000000000000030
:1020B0000000000000000000000000000000000020
:1020C0000000000000000000000000000000000010
:1020D0000000000000000000000000000000000000
:1020E00000000000000000000000000000000000F0
:1020F00000000000000000000000000000000000E0
:1021000000000000829200000000000000000000BB
:1021100000000000000000000000000000000000BF
:1021200000000000000000000000000000000000AF
:10213000000000000000000000000000000000009F
:10214000000000000000000000000000000000008F
:10215000000000000000000000000000000000007F
:10216000000000000000000000000000000000006F
:10217000000000000000000000000000000000005F
:10218000000000000000000000000000000000004F
:10219000000000000000000000000000000000003F
:1021A000000000000000000000000000000000002F
:1021B000000000000000000000000000000000001F
:1021C000000000000000000000000000000000000F
:1021D00000000000000000000000000000000000FF
:1021E00000000000000000000000000000000000EF
:1021F00000000000000000000000000000000000DF
:1022000000000000000000000000000000000000CE
:1022100000000000000000000000000000000000BE
:1022200000000000000000000000000000000000AE
:10223000000000000000000000000000000000009E
:10224000000000000000000000000000000000008E
:10225000000000000000000000000000000000007E
:10226000000000000000000000000000000000006E
:10227000000000000000000000000000000000005E
:10228000000000000000000000000000000000004E
:10229000000000000000000000000000000082823A
:1022A000000000000000000000000000000000002E
:1022B000000000000000000000000000000000001E
:1022C000000000000000000000000000000000000E
:1022D00000000000000000000000000000000000FE
:1022E00000000000000000000000000000000000EE
:1022F00000000000000000000000000000000000DE
:1023000000000000000000000000000000000000CD
:1023100000000000000000000000000000000000BD
:1023200000000000000000000000000000000000AD
:10233000000000000000000000000000000000009D
:10234000000000000000000000000000000000008D
:10235000000000000000000000000000000000007D
:10236000000000000000000000000000000000006D
:10237000000000000000000000000000000000005D
:10238000000000000000000000000000000000004D
:10239000000000000000000000000000000000003D
:1023A000000000000000000000000000000000002D
:1023B000000000000000000000000000000000001D
:1023C000000000000000000000000000000000000D
:1023D00000000000000000000000000000000000FD
:1023E00000000000000000000000000000000000ED
:1023F00000000000000000000000000000000000DD
:1024000000000000000000000000000000000000CC
:1024100000000000000000000000000000000000BC
:1024200000000000000000000000000000000000AC
:1024300000000000000000008292E4CFD9FF1200EB
:10244000D8CFE5FFE0CFE5FFE56EF3CFE5FFF4CFB2
:10245000E5FFE9CFE5FFEACFE5FFFACFE5FFFBCFE8
:10246000E5FFD9CFE5FFE1CFD9FF00C0E5FF01C00F
:10247000E5FF02C0E5FF03C0E5FF04C0E5FF05C0BE
:10248000E5FFF2A2A4D1F2A8A2D1D6CF00F0016A52
:10249000D7CF02F0036A0250056E046A04500010A0
:1024A0000501466F05500110476F05014951006E47
:1024B000016A0050D76E4851D66E05015151010A8C
:1024C0000BE005015151020A01E11DD105015151F5
:1024D000040A01E146D17AD1640EE56E35EC29F0AB
:1024E000E6521DC500F00050016E015008E000509A
:1024F000020A0CE00050040A01E13BD067D1D58EFE
:10250000010E05011F6F020E1D6F60D105014851BC
:102510008F0F006E020E4921016E05014751015CCB
:1025200002E14651005C1FE2050148511F0F006E99
:10253000040E4921016E01500501475D02E1005082
:10254000465D11E2020E05011F5D06E21FC500F0A7
:10255000002A00501F6F3AD10501206B216B226BBE
:10256000040E1D6F33D1010E05011F6F020E1D6F8A
:102570002DD10D0E0501225DD8B028D1050148519D
:102580008F0F006E020E4921016E05014751015C5B
:1025900002E14651005C0EE2050148511F0F006E3A
:1025A000040E4921016E01500501475D02E1005012
:1025B000465D1CE3050148513D0F006E090E49219F
:1025C000016E05014751015C02E14651005C35E2B4
:1025D00005014851CD0F006E0A0E4921016E0150D0
:1025E0000501475D02E10050465D27E2050120A19B
:1025F0000AD02051006E00262135016E0050206F58
:102600000150216F13D005012051006E00262135A5
:10261000016E0050206F0150216F010E2011006EDD
:102620002151016E0050206F0150216F22C500F032
:10263000002A00500501226F48D005014851E60FDD
:10264000006E050E4921016E05014751015C02E152
:102650004651005C35E205014851760F006E070EC9
:102660004921016E01500501475D02E10050465DC0
:1026700027E2050120A113D02051006E002621354C
:10268000016E0050206F0150216F010E2011006E6D
:102690002151016E0050206F0150216F0AD00501B9
:1026A0002051006E00262135016E0050206F015030
:1026B000216F22C500F0002A00500501226F05D0CD
:1026C000010E05011F6F020E1D6F050122510C0A3C
:1026D00001E07CD005012151E56E2051E56EC5EC8D
:1026E0001DF0006EE652E65200500AE0050120514E
:1026F000006E016A0050E56ECDEC21F0E652818853
:1027000005011D6B63D005012351020A01E05ED073
:1027100005014851FF08006EFF0E4955016ED89023
:10272000013200320050485D006E01504959016E7F
:102730000150006E016A0050D76E4851006E48513A
:10274000FF08016EFF0E4955026ED8900232013229
:102750000150005CD66EF298D58E040E0501236FF1
:1027600035D005012351020A31E1818800000000C3
:10277000819805014851FF08006EFF0E4955016E12
:10278000D890013200320050485D006E0150495926
:10279000016E0150006E016A0050D76E4851006E04
:1027A0004851FF08016EFF0E4955026ED890023263
:1027B00001320150005CD66EF298D58E7F0E050175
:1027C0002515006E0050256F040E236FF292F2A4BF
:1027D00000EF16F0F2AA00EF16F005014951006E65
:1027E000016A0050D76E4851D66E010E0501515D49
:1027F000D8A0FFEF15F0080E515DD8B0FFEF15F02F
:102800005105006EFA6AFB6A0034FA36E834FA368B
:10281000FC0B220FE56E280EFA22000EFB22E4507C
:10282000F96E1FEF14F06EEF14F025EF14F018EFAF
:1028300015F0AEEF14F068EF15F0AAEF15F0D59E85
:1028400005011D6B0300FFEF15F023C500F00050DC
:10285000016E01500AE00050030A11E000500A0A1C
:1028600033E000500B0A35E0CAD105012651080AB1
:1028700001E0C5D18182030E0501236FC0D1010E95
:102880000501265D1CE3010E2515006E0050D88061
:10289000E866D890006A00360050010BE844F46EF8
:1028A0008150FD0BF410816E25417F0B006E0050AE
:1028B000256F26C500F000060050266FA0D181923A
:1028C0000A0E0501236F9BD181920B0E0501236F28
:1028D00096D181920501236BD59E91D123C500F03D
:1028E0000050040A07E00050080A25E00050090AD9
:1028F00026E085D126C500F0002A00500501266F8C
:1029000081A006D025417F0B006E0050256F0BD0B3
:10291000050125417F0B006E0050256F800E2511AB
:10292000006E0050256F080E0501265DD8A067D106
:10293000080E236F64D1090E0501236F60D10501D4
:102940002551E56ECDEC21F0E6520501256B266B95
:10295000020E236FD59EF292F28851D123C500F06A
:102960000050016E01500CE00050030A18E00050C6
:10297000060A01E153D000500A0A01E154D03FD1C8
:1029800005012651070A01E03AD18182010E0501B5
:102990002515006E0050276F030E236F30D1010EF6
:1029A0000501265D26E3010E2515006E0050D88036
:1029B000E866D890006A00360050010BE844F46ED7
:1029C0008150FD0BF410816E2551020BE840006E22
:1029D0002751016E0150001A0050276F25417F0BCF
:1029E000006E0050256F26C500F000060050266FCF
:1029F00006D1010E05012715006E0050D880E8664B
:102A0000D890006A00360050010BE844F46E815003
:102A1000FD0BF410816E060E236FF1D081920A0E29
:102A20000501236FECD081920501236BD59EE7D081
:102A300023C500F00050040A09E00050070A01E134
:102A400034D00050080A01E134D0D9D026C500F0B6
:102A5000002A00500501266F81A00AD025417F0B76
:102A6000006E0050256F818800000000819815D00D
:102A7000050125417F0B006E0050256F400E25118A
:102A8000006E0050256F81880000000081980000D2
:102A900000008188000000008198070E0501265D76
:102AA000D8A0ADD0070E236FAAD0080E0501236F62
:102AB000A6D005012551E56ECDEC21F0E6520501C9
:102AC000256B266B020E236FD59EF292F28897D06B
:102AD00000C500F00050040A04E00050080A2EE08F
:102AE0008ED00DC500F0002A005005010D6F090EB3
:102AF0000D5D20E2010E025D02E1550E015D0EE367
:102B0000010E0501025D02E1DC0E015D07E2050137
:102B10000C417F0B006E00500C6F71D005010C4111
:102B20007F0B006E00500C6F800E0C11006E005079
:102B30000C6F65D0080E0501006F61D005010C51C6
:102B4000E56ECDEC21F0E65205010C6B020E006F34
:102B5000F29A55D000C500F00050016E01500FE010
:102B60000050010A15E00050030A19E00050050A60
:102B700001E139D000500A0A01E13CD040D0050102
:102B80000D51080A03E1010E0501006F819437D051
:102B90007DEC0CF0030E0501006F818430D00DC573
:102BA00000F00004016E015005010D6F005015E0AA
:102BB000800E006E0D5105E0E86CD8900032010FD8
:102BC000FDE305010C510016005004E09DEC06F0F9
:102BD000819403D07DEC0CF0818405010D510FE14F
:102BE000050E006F0CD09DEC06F00A0E0501006F7B
:102BF000819405D09DEC06F00501006B8194F29460
:102C0000A1AC76D0A0AC74D0B4AC70D0D6CF00F06C
:102C1000016AD7CF02F0036A0250056E046A0450BD
:102C200000100501466F05500110476F81840501B2
:102C30004A510501465D006E05014B51050147599A
:102C4000016E00500501016F0150026F46C54AF543
:102C500047C54BF5010E025D02E1550E015D30E303
:102C6000010E0501025D02E1DC0E015D29E20501B4
:102C700001510525006E02510621016E0050056FBD
:102C80000150066F0051020A32E1030E0501065D94
:102C900002E1200E055D2BE305014951006E016A3A
:102CA0000050D76E4851D66E0501056B066B076B59
:102CB000086B0D6B0C6B040E006FF294F28A17D048
:102CC00005010051020A06E10501056B066B076B61
:102CD000086B0DD0050101510725006E0251082136
:102CE000016E0050076F0150086F01D08194A19CC4
:102CF000E4CF05F0E4CF04F0E4CF03F0E4CF02F03A
:102D0000E4CF01F0E4CF00F0E4CFD9FFE4CFFBFF44
:102D1000E4CFFAFFE4CFEAFFE4CFE9FFE4CFF4FF2A
:102D2000E4CFF3FFE450E4CFE0FFE4CFD8FF10009E
:102D30000A0D4D657465724C6F676765722E2E2E95
:102D40002073657269616C20776F726B696E670AB8
:102D50000D0050726F636573736F723A2070696310
:102D6000313866323535300A0D0050726F63657345
:102D7000736F723A20706963313866323535330AC1
:102D80000D0050726F636573736F723A20756E73C6
:102D90007570706F727465642C2064657669636504
:102DA0002069643A203078253034780A0D000A0D05
:102DB0007072657373207072696E74206F6E207408
:102DC0006573746F0A0D00000A0D646F6E652072E2
:102DD0006563656976696E67202D2073656E646929
:102DE0006E67207669612073657269616C2F667306
:102DF0006B0A0D00256420000A0D77616974696E05
:102E00006720666F72206E657720636F6D6D616EEF
:102E1000640A0D000A0D6563686F20746573742081
:102E20002D2073656E6420736F6D6520646174611D
:102E30000A0D00000A0D6B616D7374727570202DA0
:102E40002073656E64206B6D70206672616D652005
:102E5000646174610A0D00000A0D6B616D73747218
:102E60007570202D206B6D70206672616D6520720B
:102E7000656365697665643A0A0D00000A0D6B6149
:102E80006D7374727570202D206B6D70207265707B
:102E90006C792072656365697665643A0A0D000095
:102EA0000A0D6E6F207265706C792066726F6D20EE
:102EB0006D657465720A0D000A0D6B616D73747235
:102EC0007570202D2073656E64204945433631317D
:102ED0003037206672616D6520646174610A0D008F
:102EE0000A0D6B616D7374727570202D2049454316
:102EF0003631313037206672616D652072656365E9
:102F0000697665643A0A0D000A0D6B616D7374721F
:102F10007570202D20494543363131303720726598
:102F2000706C792072656365697665643A0A0D0094
:102F3000426174746572793A2025646D560A0D00F9
:102F4000D9CFE5FFE1CFD9FF00C0E5FF01C0E5FF24
:102F500002C0E5FF03C0E5FF04C0E5FF05C0E5FFD3
:102F600006C0E5FF07C0E5FF08C0E5FF09C0E5FFB3
:102F70000AC0E5FF0BC0E5FF0CC0E5FF0DC0E5FF93
:102F80000EC0E5FF0FC0E5FF10C0E5FF11C0E5FF73
:102F900012C0E5FF13C0E5FF14C0E5FF15C0E5FF53
:102FA00016C0E5FF17C0E5FF18C0E5FF19C0E5FF33
:102FB0001AC0E5FF1BC0E5FF1CC0E5FF1DC0E5FF13
:102FC0001EC0E5FF020EDBCF00F0030EDBCF01F0E9
:102FD000040EDBCF02F0050EDBCF03F0060EDBCFD5
:102FE00004F0070EDBCF05F0080EDBCF06F0090E6C
:102FF000DBCF07F00A0EDBCF08F0096A0A6A02C0CD
:103000000DF00D50800A0DE1025005013F6F015097
:103010003E6F00503D6F050E016E3D0E006E800E3E
:10302000026E03C0E9FF04C0F3FF055047EC29F02E
:103030000B6E0B50D8B45CEF1BF00B50250A02E06E
:1030400043EF1BF00C6A0D6A0E6A0F6A106A0A0ED3
:10305000116E126A136A146A200E156E1668176ACA
:103060002B0E186E032A02E3044A052A03C0E9FF67
:1030700004C0F3FF055047EC29F0196E250A13E14F
:103080001950E56E0250E56E0150E56E0050E56E98
:1030900072EC23F0040EE126094A0A2A032A02E30D
:1030A000044A052ABED71950300A06E1300E156EC3
:1030B000032A02E3044A052A03C0E9FF04C0F3FF20
:1030C000055047EC29F02D0A06E1010E146E032A83
:1030D00002E3044A052A03C0E9FF04C0F3FF0550D8
:1030E00047EC29F0200A08E1010E176E200E186E39
:1030F000032A02E3044A052A03C0E9FF04C0F3FFE0
:10310000055047EC29F02B0A06E1010E176E032A41
:1031100002E3044A052A03C0E9FF04C0F3FF055097
:1031200047EC29F0196E800F4F0F2DE31950800FD7
:10313000460F29E203C019F004C01AF005C01BF0C5
:1031400019C0E9FF1AC0F3FF1B5047EC29F01C6EB1
:10315000800F500F12E31C50800F460F0EE21350E9
:103160000A0DF3CF1DF01D501C26D00E1C24136E2B
:10317000192A02E31A4A1B2AE3D719C003F01AC01E
:1031800004F01BC005F003C0E9FF04C0F3FF0550C5
:1031900047EC29F02E0A2EE1032A02E3044A052A0D
:1031A000166A03C019F004C01AF005C01BF019C05C
:1031B000E9FF1AC0F3FF1B5047EC29F01C6E800F8B
:1031C000500F12E31C50800F460F0EE216500A0DEE
:1031D000F3CF1DF01D501C26D00E1C24166E192A8C
:1031E00002E31A4A1B2AE3D719C003F01AC004F0FD
:1031F0001BC005F003C0E9FF04C0F3FF055047EC16
:1032000029F0196E6C0A07E1010E0C6E032A02E325
:10321000044A052A09D01950680A06E1010E0E6E0B
:10322000032A02E3044A052A03C0E9FF04C0F3FFAE
:10323000055047EC29F0750A06E1010E106E032ACD
:1032400002E3044A052A03C0E9FF04C0F3FF055066
:1032500047EC29F0196E730A05E1010E0D6E200E80
:10326000156E3FD01950780A03E1100E116E39D057
:103270001950580A05E1100E116E010E126E31D070
:103280001950630A02E1116A2CD019506F0A03E148
:10329000080E116E26D01950660A03E1010E0F6E5A
:1032A00020D01950640A1DE01950690A1AE0105024
:1032B00005E0FF0E03260422052213D01950E56E07
:1032C0000250E56E0150E56E0050E56E72EC23F0A1
:1032D000040EE126094A0A2A032A02E3044A052ABF
:1032E000A0D60D5021E00650030F0D6E000E0720F2
:1032F000196E000E08201A6E0DC006F019C007F0F6
:103300001AC008F0FD0E0D26FF0E19221A220DC05C
:10331000E9FF19C0F3FF1A5020EC28F00D6EF3CF2F
:1033200019F0F4CF1AF000D10F500DE0000E1A6E14
:10333000370E196E400E0D6E040E0626000E072283
:1033400008221668F1D016680C5023E00650040FCE
:103350000C6E000E07200F6E000E08201B6E0CC0B6
:1033600006F00FC007F01BC008F0FC0E0C26FF0E85
:103370000F221B220CC0E9FF0FC0F3FF1B506BECA8
:1033800027F00C6EF3CF0FF0F4CF1BF0E9CF1CF059
:103390006AD00E5032E00650020F0E6E000E07206B
:1033A0001D6E000E08201E6E0EC006F01DC007F038
:1033B0001EC008F0FE0E0E26FF0E1D221E220EC09D
:1033C000E9FF1DC0F3FF1E50E2EC28F00E6E0EC0A8
:1033D0000CF0E86A0EBEFF0E0F6E1B6E1C6E1150D5
:1033E0000A0A03E11050D8B43ED00C500E6E0EC045
:1033F0000CF00F6A1B6A1C6A36D00650020F0E6E64
:10340000000E07201D6E000E08201E6E0EC006F076
:103410001DC007F01EC008F0FE0E0E26FF0E1D2276
:103420001E220EC0E9FF1DC0F3FF1E50E2EC28F083
:103430000E6EF3CF1DF00EC00CF01DC00FF0E86A49
:103440001DBEFF0E1B6E1C6E11500A0A02E11050C9
:103450000AE00C500E6E0F501D6E0EC00CF01DC019
:103460000FF01B6A1C6A050E196E110E0D6E800E90
:103470001A6E1150D8B440D0105013E01150E56EC0
:10348000050EE56E110EE56E1C50E56E1B50E56EE7
:103490000F50E56E0C50E56EC5EC1EF0070EE126F0
:1034A00012D01150E56E050EE56E110EE56E1C5042
:1034B000E56E1B50E56E0F50E56E0C50E56EC1ECED
:1034C00024F0070EE12617502FE00DC0E9FF19C0C8
:1034D000F3FF1A5047EC29F02D0A26E0FF0E0D26C7
:1034E00019221A2218C0E5FF0DC0E9FF19C0F3FF29
:1034F0001A50CAEC29F018D00CC0E5FF0DC0E9FF46
:1035000019C0F3FF1A50CAEC29F00D50010F0C6ED0
:10351000000E19200E6E000E1A20E56A0CC0E9FF9D
:103520000EC0F3FFCAEC29F00DC00CF019C00EF06C
:103530001AC00FF013C010F0105010E00CC0E9FFDB
:103540000EC0F3FF0F5047EC29F0176E175006E03E
:103550000C2A02E30E4A0F2A1006EED710C013F011
:1035600014501EE109C00CF00AC00EF010C00FF09C
:103570000F5010E01550E56E0250E56E0150E56EFB
:103580000050E56E72EC23F0040EE1260C4A0E2A80
:103590000F06EED70CC009F00EC00AF00FC013F0F2
:1035A00016C00CF00DC00DF019C00EF01AC00FF0CF
:1035B00009C010F00AC015F00DC0E9FF0EC0F3FFFE
:1035C0000F5047EC29F0166E1650D8B43ED00CC000
:1035D00016F0176A161E171E1650171005E00CC0BD
:1035E00016F00C06165031E00DC0E9FF0EC0F3FFD7
:1035F0000F5047EC29F0116E125010E01150E56E9B
:10360000B5EC28F0166EE652165004E01150166E16
:10361000169A02D011C016F016C011F01150E56EC6
:103620000250E56E0150E56E0050E56E72EC23F03D
:10363000040EE1260D2A02E30E4A0F2A104A152A2B
:103640001350D8B4B9D71306B7D710C009F015C0B6
:103650000AF014502BE010C00CF015C00DF013C090
:103660000EF00E501FE0200EE56E0250E56E015088
:10367000E56E0050E56E72EC23F0040EE1260C4A74
:103680000D2A0E06EED70B50E56E0250E56E015086
:10369000E56E0050E56E72EC23F0040EE126094A57
:1036A0000A2A04D00CC009F00DC00AF0032A02E374
:1036B000044A052A11EF18F00AC0F3FF0950E4CFBD
:1036C0001EF0E4CF1DF0E4CF1CF0E4CF1BF0E4CFFC
:1036D0001AF0E4CF19F0E4CF18F0E4CF17F0E4CFFC
:1036E00016F0E4CF15F0E4CF14F0E4CF13F0E4CFFC
:1036F00012F0E4CF11F0E4CF10F0E4CF0FF0E4CFFC
:103700000EF0E4CF0DF0E4CF0CF0E4CF0BF0E4CFFB
:103710000AF0E4CF09F0E4CF08F0E4CF07F0E4CFFB
:1037200006F0E4CF05F0E4CF04F0E4CF03F0E4CFFB
:1037300002F0E4CF01F0E4CF00F0E4CFD9FF1200B3
:103740003C4E4F20464C4F41543E0000D9CFE5FF40
:10375000E1CFD9FF00C0E5FF01C0E5FF02C0E5FFF2
:1037600003C0E5FF04C0E5FF05C0E5FF06C0E5FFB7
:1037700007C0E5FF800EE56E0A0EE56E060EE56EEB
:10378000040EE56E1FEC26F0040EE126040EE56E35
:10379000E7EC27F0E6520AEC00F00BEC2AF0006EA2
:1037A0000050FBE199EC26F0006EF3CF01F00050E1
:1037B000400A03E10150120A01E041D003EC2AF073
:1037C000026EF3CF03F0E86A03BEFF0E046E056ECF
:1037D0000550E56E0450E56E0350E56E0250E56E4F
:1037E000000EE56E0C0EE56EB50EE56EE80EE56EAC
:1037F000BBEC1CF0026EF3CF03F0F4CF04F0E9CF82
:1038000005F0080EE126000EE56E010EE56E6D0E68
:10381000E56EA00EE56E0550E56E0450E56E0350B2
:10382000E56E0250E56E5CEC22F0026EF3CF03F021
:10383000F4CF04F0E9CF05F0080EE12654D0005093
:10384000400A03E101502A0A01E04BD003EC2AF0C0
:10385000006EF3CF01F00134013200320134013245
:103860000032E86A01BEFF0E046E056E0550E56E7B
:103870000450E56E0150E56E0050E56E000EE56EF9
:103880000C0EE56EB50EE56EE80EE56EBBEC1CF0B9
:10389000006EF3CF01F0F4CF04F0E9CF05F0080E8D
:1038A000E126000EE56E010EE56E6D0EE56EA00ED2
:1038B000E56E0550E56E0450E56E0150E56E005072
:1038C000E56E5CEC22F0006EF3CF01F0F4CF04F073
:1038D000E9CF05F0080EE1260050026E0150036E9C
:1038E00002D0026A036A000E046E2F0E016E300EC3
:1038F000006E000E066E600E056E800E076E0350A1
:10390000E56E0250E56E0450E56E0150E56E005024
:10391000E56E0750E56E0650E56E0550E56EE8EC85
:1039200022F0080EE126000E016E600E006E800E81
:10393000046E0450E56E0150E56E0050E56E5DECDE
:1039400026F0030EE12616EC2AF003C0F3FF025026
:10395000E4CF07F0E4CF06F0E4CF05F0E4CF04F0C5
:10396000E4CF03F0E4CF02F0E4CF01F0E4CF00F0C5
:10397000E4CFD9FF1200D9CFE5FFE1CFD9FF00C0D6
:10398000E5FF01C0E5FF02C0E5FF03C0E5FF04C09D
:10399000E5FF05C0E5FF06C0E5FF07C0E5FF020E35
:1039A000DBCF00F0030EDBCF01F0040EDBCF02F023
:1039B000050EDBCF03F0060EDBCF04F0070EDBCFE6
:1039C00005F0080EDBCF06F0090EDBCF07F0005044
:1039D0000501296F01502A6F02502B6F03502C6F85
:1039E000045005012D6F05502E6F06502F6F0750A4
:1039F000306F0501295105012F03F4CF01F0F3CFFA
:103A000000F000500501336F0150346F050129515A
:103A100005012D03F4CF01F0F3CF00F000500501B4
:103A2000316F0150326F05012C5105012D03F3CF89
:103A300000F00501345100260050346F05012B5170
:103A400005012E03F3CF00F005013451002600508C
:103A5000346F05012B5105012D03F4CF01F0F3CF95
:103A600000F0050133510026345101220050336F1C
:103A70000150346F05012A5105012E03F4CF01F0E6
:103A8000F3CF00F0050133510026345101220050DC
:103A9000336F0150346F05012A5105012F03F3CF15
:103AA00000F000500501386F05012A5105012D0372
:103AB000F4CF01F0F3CF00F000500501366F015054
:103AC000376F0501295105013003F3CF00F0005095
:103AD00005013C6F0501295105012E03F4CF01F0CA
:103AE000F3CF00F0005005013A6F01503B6F050124
:103AF000356B0501396B0501355105013125006E26
:103B00000501365105013221016E050137510501CC
:103B10003321026E0501385105013421036E005036
:103B2000316F0150326F0250336F0350346F050113
:103B3000395105013125006E05013A510501322147
:103B4000016E05013B5105013321026E05013C5117
:103B500005013421036E03C0E9FF02C0F4FF01C078
:103B6000F3FF0050E4CF07F0E4CF06F0E4CF05F018
:103B7000E4CF04F0E4CF03F0E4CF02F0E4CF01F0AF
:103B8000E4CF00F0E4CFD9FF1200D9CFE5FFE1CFB9
:103B9000D9FF00C0E5FF01C0E5FF02C0E5FF03C09B
:103BA000E5FF04C0E5FF05C0E5FF06C0E5FF07C06F
:103BB000E5FF08C0E5FF020EDBCF00F0030EDBCF10
:103BC00001F0026A780E0014036E046A056A010EA1
:103BD000066E000E076E055006E0E86CD8900636BB
:103BE0000736010FFCE30350061604500716065073
:103BF00005E1075003E1066A062A01D0066A06506D
:103C0000D880E866D890066A06360250076E0650DD
:103C10000718026E052A080E055CD9E30244FE0B64
:103C2000036E026AE60E0014046E056A066A010E4F
:103C3000076E000E086E065006E0E86CD890073656
:103C40000836010FFCE3045007160550081607500C
:103C500005E1085003E1076A072A01D0076A075007
:103C6000D880E866D890076A07360250086E075079
:103C70000818026E062A080E065CD9E302500312E9
:103C8000D8900336026AD50E0014046E056A066ADF
:103C9000010E076E000E086E065006E0E86CD89024
:103CA00007360836010FFCE30450071605500816C6
:103CB000075005E1085003E1076A072A01D0076AA7
:103CC0000750D880E866D890076A07360250086E19
:103CD00007500818026E062A080E065CD9E3025047
:103CE0000312D8900336026A8B0E0014046E056A24
:103CF000066A010E076E000E086E065006E0E86CBC
:103D0000D89007360836010FFCE30450071605501B
:103D10000816075005E1085003E1076A072A01D099
:103D2000076A0750D880E866D890076A07360250BD
:103D3000086E07500818026E062A080E065CD9E3C2
:103D4000025003120150006E016A026A005003180B
:103D500003E10150021801E002D0010E01D0E86A2F
:103D6000E4CF08F0E4CF07F0E4CF06F0E4CF05F0AD
:103D7000E4CF04F0E4CF03F0E4CF02F0E4CF01F0AD
:103D8000E4CF00F0E4CFD9FF1200D9CFE5FFE1CFB7
:103D9000D9FF00C0E5FF01C0E5FF02C0E5FF03C099
:103DA000E5FF04C0E5FF05C0E5FF06C0E5FF07C06D
:103DB000E5FF08C0E5FF09C0E5FF0AC0E5FF0BC04D
:103DC000E5FF0CC0E5FF0DC0E5FF0EC0E5FF0FC02D
:103DD000E5FF020EDBCF00F0030EDBCF01F0040E97
:103DE000DBCF02F0050EDBCF03F0060EDBCF04F0D5
:103DF000070EDBCF05F0080EDBCF06F0200E076EB6
:103E0000086A06C009F00A6A0B6A0C6AE56AE56A84
:103E1000E56A0950E56E0350E56E0250E56E01500B
:103E2000E56E0050E56E30EC21F00D6E080EE126D7
:103E3000300E0D263A0E0D5C05E30D500E6E270E6A
:103E40000E240D6EFF0E07260822E00E07240E6ECC
:103E5000000E08200F6E0EC0E9FF0FC0EAFF0DC074
:103E6000EFFF0C50E56E0B50E56E0A50E56E095001
:103E7000E56E0350E56E0250E56E0150E56E0050B0
:103E8000E56E5CEC22F0006EF3CF01F0F4CF02F0AF
:103E9000E9CF03F0080EE1260050011002100310D4
:103EA000D8A4AFD707C000F008C001F004C002F0EA
:103EB00005C003F000C004F001C005F0004A012A6B
:103EC000E00E0426000E052204C0E9FF05C0EAFF4B
:103ED000EFCF04F002C0E9FF03C0EAFF04C0EFFF28
:103EE000024A032A000E015C02E1200E005CE2E3BC
:103EF00002C0E9FF03C0EAFF000EEF6AE4CF0FF053
:103F0000E4CF0EF0E4CF0DF0E4CF0CF0E4CF0BF0F3
:103F1000E4CF0AF0E4CF09F0E4CF08F0E4CF07F0F3
:103F2000E4CF06F0E4CF05F0E4CF04F0E4CF03F0F3
:103F3000E4CF02F0E4CF01F0E4CF00F0E4CFD9FF0A
:103F40001200D9CFE5FFE1CFD9FF00C0E5FF01C0E6
:103F5000E5FF02C0E5FF03C0E5FF04C0E5FF05C0C3
:103F6000E5FF06C0E5FF020EDBCF00F0030EDBCF5E
:103F700001F0040EDBCF02F0050EDBCF03F0060EDE
:103F8000DBCF04F004EC28F0056EF3CF06F006500A
:103F9000045C02E10550035CD8B091D005014551A5
:103FA000056E066A000E065C02E1040E055CD8B0E0
:103FB00084D0FA6AFB6A0534FA36E834FA36FC0B28
:103FC000D00FE56E3F0EFA22000EFB22E450F96E90
:103FD000F0EF1FF00CEF20F028EF20F044EF20F07E
:103FE000035005014425056E04504521066E066AFE
:103FF000000E0526070E062205C0E9FF06C0EAFFEF
:10400000EFCF05F005C0E5FF00C0E9FF01C0F3FFF9
:104010000250CAEC29F051D0035005014425056E29
:1040200004504521066E066A000E0526010E062282
:1040300005C0E9FF06C0EAFFEFCF05F005C0E5FFC8
:1040400000C0E9FF01C0F3FF0250CAEC29F035D0EF
:10405000035005014425056E04504521066E066A8D
:10406000000E0526020E062205C0E9FF06C0EAFF83
:10407000EFCF05F005C0E5FF00C0E9FF01C0F3FF89
:104080000250CAEC29F019D00501445103264551CC
:104090000422046A000E0326030E042203C0E9FF73
:1040A00004C0EAFFEFCF03F003C0E5FF00C0E9FF63
:1040B00001C0F3FF0250CAEC29F0010E01D0E86AFA
:1040C000E4CF06F0E4CF05F0E4CF04F0E4CF03F052
:1040D000E4CF02F0E4CF01F0E4CF00F0E4CFD9FF69
:1040E0001200D9CFE5FFE1CFD9FF00C0E5FF01C045
:1040F000E5FF02C0E5FF03C0E5FF04C0E5FF020ED7
:10410000DBCF00F0030EDBCF01F0040EDBCF02F0BB
:1041100004EC28F0036EF3CF04F003500410D8B47D
:1041200091D005014551036E046A000E045C02E162
:10413000040E035CD8B076D0FA6AFB6A0334FA3610
:10414000E834FA36FC0B560FE56E410EFA22000EEB
:10415000FB22E450F96EB3EF20F0CBEF20F0E3EF59
:1041600020F0FBEF20F005014451036E046A000EBD
:104170000326070E042203C0E9FF04C0EAFFEFCFC5
:1041800003F003C0E5FF00C0E9FF01C0F3FF0250E8
:10419000CAEC29F047D005014451036E046A000EB1
:1041A0000326010E042203C0E9FF04C0EAFFEFCF9B
:1041B00003F003C0E5FF00C0E9FF01C0F3FF0250B8
:1041C000CAEC29F02FD005014451036E046A000E99
:1041D0000326020E042203C0E9FF04C0EAFFEFCF6A
:1041E00003F003C0E5FF00C0E9FF01C0F3FF025088
:1041F000CAEC29F017D005014451036E046A000E81
:104200000326030E042203C0E9FF04C0EAFFEFCF38
:1042100003F003C0E5FF00C0E9FF01C0F3FF025057
:10422000CAEC29F00501443F01D0452B050144515A
:1042300003E14551040A01E003D00501446B456BDD
:10424000010E01D0E86AE4CF04F0E4CF03F0E4CF3C
:1042500002F0E4CF01F0E4CF00F0E4CFD9FF120088
:10426000D9CFE5FFE1CFD9FF00C0E5FF01C0E5FFF1
:1042700002C0E5FF03C0E5FF04C0E5FF05C0E5FFA0
:1042800006C0E5FF07C0E5FF08C0E5FF09C0E5FF80
:104290000AC0E5FF020EDBCF00F0030EDBCF01F01A
:1042A000040EDBCF02F0050EDBCF03F0060EDBCFF2
:1042B00004F0070EDBCF05F0080EDBCF06F0090E89
:1042C000DBCF07F0086A045005100610071005E15F
:1042D000E968F468F368E86847D0096A0750800B1A
:1042E000E8440A6E0A501BE10450042605360636DF
:1042F00007360750035C08E10650025C05E10550F3
:10430000015C02E10450005C06E2D89007320632FC
:104310000532043204D0092A09C008F0DFD707505B
:10432000035C08E10650025C05E10550015C02E116
:104330000450005C08E30450005E0550015A06502A
:10434000025A0750035AD890073206320532043217
:1043500008C009F008060950E2E103C0E9FF02C005
:10436000F4FF01C0F3FF0050E4CF0AF0E4CF09F0FE
:10437000E4CF08F0E4CF07F0E4CF06F0E4CF05F097
:10438000E4CF04F0E4CF03F0E4CF02F0E4CF01F097
:10439000E4CF00F0E4CFD9FF1200D9CFE5FFE1CFA1
:1043A000D9FF00C0E5FF01C0E5FF02C0E5FF020E36
:1043B000DBCF00F004EC28F0016EF3CF02F00150E7
:1043C00004E10250040A01E16DD005014351016E80
:1043D000026A000E025C02E1040E015CD8B052D009
:1043E000FA6AFB6A0134FA36E834FA36FC0BFE0F3F
:1043F000E56E430EFA22000EFB22E450F96E07EF41
:1044000022F016EF22F025EF22F034EF22F0050122
:104410004251016E026A000E0126070E022201C0FF
:10442000E9FF02C0EAFF00C0EFFF2CD005014251B6
:10443000016E026A000E0126010E022201C0E9FF90
:1044400002C0EAFF00C0EFFF1DD005014251016E1E
:10445000026A000E0126020E022201C0E9FF02C01C
:10446000EAFF00C0EFFF0ED005014251016E026A63
:10447000000E0126030E022201C0E9FF02C0EAFF7E
:1044800000C0EFFF0501423F01D0432B050142511F
:1044900003E14351040A01E003D00501426B436B81
:1044A000010E01D0E86AE4CF02F0E4CF01F0E4CFDE
:1044B00000F0E4CFD9FF1200D9CFE5FFE1CFD9FF5B
:1044C00000C0E5FF01C0E5FF02C0E5FF03C0E5FF56
:1044D00004C0E5FF05C0E5FF06C0E5FF07C0E5FF36
:1044E00008C0E5FF09C0E5FF0AC0E5FF0BC0E5FF16
:1044F0000CC0E5FF0DC0E5FF020EDBCF00F0030EA0
:10450000DBCF01F0040EDBCF02F0050EDBCF03F0B2
:10451000060EDBCF04F0070EDBCF05F0080EDBCF75
:1045200006F0090EDBCF07F0086A096A0A6A0B6A0F
:10453000200E0C6E0350800BE8440D6E00500026D8
:104540000136023603360850082609360A360B367D
:104550000D50D8A4088007500B5C08E106500A5C97
:1045600005E10550095C02E10450085C09E30450D0
:10457000085E0550095A06500A5A07500B5A008027
:104580000C2ED8D703C0E9FF02C0F4FF01C0F3FF2F
:104590000050E4CF0DF0E4CF0CF0E4CF0BF0E4CF0B
:1045A0000AF0E4CF09F0E4CF08F0E4CF07F0E4CF5D
:1045B00006F0E4CF05F0E4CF04F0E4CF03F0E4CF5D
:1045C00002F0E4CF01F0E4CF00F0E4CFD9FF120015
:1045D000D9CFE5FFE1CFD9FF00C0E5FF01C0E5FF7E
:1045E00002C0E5FF03C0E5FF04C0E5FF05C0E5FF2D
:1045F000050ED924006E000EDA20016E800E026EC8
:10460000030E0026000E0122022206C0E5FF07C0AD
:10461000E5FF08C0E5FF020EDBCF06F0030EDBCF9F
:1046200007F0040EDBCF08F00850056E0750046E4B
:104630000650036EE4CF08F0E4CF07F0E4CF06F0B5
:104640000250E56E0150E56E0050E56E070EDBCFBF
:10465000E5FF060EDBCFE5FF050EDBCFE5FF0550DE
:10466000E56E0450E56E0350E56EA0EC17F0006EA9
:10467000F3CF01F0090EE12606C0E5FF07C0E5FF14
:1046800008C0E5FF020EDBCF06F0030EDBCF07F01C
:10469000040EDBCF08F000500624026E0150072004
:1046A000036EE86A0820E4CF08F0E4CF07F0E4CF17
:1046B00006F0E56A02C0E9FF03C0F3FFCAEC29F087
:1046C00001C0F3FF0050E4CF05F0E4CF04F0E4CFE5
:1046D00003F0E4CF02F0E4CF01F0E4CF00F0E4CF48
:1046E000D9FF1200D9CFE5FFE1CFD9FF00C0E5FF28
:1046F00001C0E5FF02C0E5FF03C0E5FF04C0E5FF20
:1047000005C0E5FF06C0E5FF07C0E5FF020EDBCFF1
:1047100000F0030EDBCF01F0040EDBCF02F0050E3C
:10472000DBCF03F002C006F00650046E800A33E1CE
:1047300000C0E9FF01C0F3FF025020EC28F0056E35
:10474000F3CF06F0F4CF07F003C0E5FF05C0E9FFA3
:1047500006C0F3FF0750CAEC29F000C0E9FF01C012
:10476000F3FF025020EC28F0056EF3CF06F0F4CFF3
:1047700007F0052A02E3064A072A05C0E5FF06C03E
:10478000F4FF07C0F6FF00C0E9FF01C0F3FF0250CD
:1047900078EC29F01DD004AA1BD0047A045004E15F
:1047A000035006EC00F014D00450010A04E1035059
:1047B00002EC00F00DD004500F0A04E1035025EC88
:1047C0002AF006D004500E0A03E1035013EC2AF03D
:1047D000E4CF07F0E4CF06F0E4CF05F0E4CF04F037
:1047E000E4CF03F0E4CF02F0E4CF01F0E4CF00F037
:1047F000E4CFD9FF1200D9CFE5FFE1CFD9FF818601
:1048000000000000000000000000000000000000A8
:104810000000000000000000000000000000000098
:104820000000000000000000000000000000000088
:104830000000000000000000000000000000000078
:104840000000000000000000000000000000000068
:104850000000000000000000000081960000000041
:104860000000000000000000000000000000000048
:104870000000000000000000000000000000000038
:104880000000000000000000000000000000000028
:104890000000000000000000000000000000000018
:1048A0000000000000000000000000000000000008
:1048B000000000000000E4CFD9FF1200D9CFE5FFCF
:1048C000E1CFD9FF8184000000000000000000005B
:1048D00000000000000000000000000000000000D8
:1048E00000000000000000000000000000000000C8
:1048F00000000000000000000000000000000000B8
:1049000000000000000000000000000000000000A7
:104910000000000000000000000000000000000097
:104920008194000000000000000000000000000072
:104930000000000000000000000000000000000077
:104940000000000000000000000000000000000067
:104950000000000000000000000000000000000057
:104960000000000000000000000000000000000047
:10497000000000000000000000000000E4CFD9FFAC
:104980001200D9CFE5FFE1CFD9FF00C0E5FF01C09C
:10499000E5FF02C0E5FF03C0E5FF04C0E5FF05C079
:1049A000E5FF06C0E5FF020EDBCF00F0030EDBCF14
:1049B00001F0040EDBCF02F0050EDBCF03F0060E94
:1049C000DBCF04F0070EDBCF05F0080EDBCF06F0DF
:1049D000D88003AED89015E306500A0A12E104C04D
:1049E000E9FF05C0EAFF2D0EEF6E044A052A031EFB
:1049F000021E011E006C05E1012A03E1022AD8B45F
:104A0000032A0650E56E0550E56E0450E56E03502E
:104A1000E56E0250E56E0150E56E0050E56EC5ECA6
:104A20001EF0070EE126E4CF06F0E4CF05F0E4CF58
:104A300004F0E4CF03F0E4CF02F0E4CF01F0E4CFE0
:104A400000F0E4CFD9FF1200D8CFE5FFE0CFE5FFBB
:104A5000E56EF3CFE5FFF4CFE5FFE9CFE5FFEACF61
:104A6000E5FFFACFE5FFFBCFE5FFD9CFE5FFE1CFCB
:104A7000D9FF00C0E5FF01C0E5FF9EA024D0F80EDD
:104A8000CF6E530ECE6E4CC500F00050016E01503B
:104A900004E00050010A06E011D08188010E0501F2
:104AA0004C6F0CD04DC500F00004016E01500501A3
:104AB0004D6F005003E18198020E4C6F0501403F9D
:104AC00001D0412B9E900FEC2AF0006E005006E0C2
:104AD0000DEC29F0006E0050F3EC29F0E4CF01F06A
:104AE000E4CF00F0E4CFD9FFE4CFFBFFE4CFFAFF3F
:104AF000E4CFEAFFE4CFE9FFE4CFF4FFE4CFF3FF34
:104B0000E450E4CFE0FFE4CFD8FF1000D9CFE5FFB9
:104B1000E1CFD9FF00C0E5FF01C0E5FF02C0E5FF1E
:104B200003C0E5FF04C0E5FF05C0E5FF06C0E5FFE3
:104B300007C0E5FF020EDBCF00F0030EDBCF01F074
:104B400040C502F041C503F00250FF08046EFF0E9D
:104B50000354056E03500501415D02E10250405DC2
:104B600008E302500501405D066E03504159076E8F
:104B700007D0050140510424066E41510520076EFF
:104B80000150075C02E10050065CE4E3E4CF07F06B
:104B9000E4CF06F0E4CF05F0E4CF04F0E4CF03F077
:104BA000E4CF02F0E4CF01F0E4CF00F0E4CFD9FF8E
:104BB0001200D9CFE5FFE1CFD9FF00C0E5FF01C06A
:104BC000E5FF02C0E5FF03C0E5FF020EDBCF00F00A
:104BD00000407F0B016E550E01160044FE0B026E65
:104BE000AA0E0216025001120040E8403F0B026E6E
:104BF000330E02160044E844FC0B036ECC0E031681
:104C0000035002120250011200380F0B026E0F0EF9
:104C100002160038F00B036EF00E0314006E005005
:104C20000212025001120150E4CF03F0E4CF02F06F
:104C3000E4CF01F0E4CF00F0E4CFD9FF1200D9CFE8
:104C4000E5FFE1CFD9FF00C0E5FF01C0E5FF02C0ED
:104C5000E5FF03C0E5FF020EDBCF00F0030EDBCF64
:104C600001F0040EDBCF02F0050EDBCF03F0C26AC9
:104C70000F0E00160044E844FC0BC26E3F0E0216F5
:104C8000300E03140210C16E800E0314006E3F0E2E
:104C9000011601500010C06E03AC03D09E9C9D8C89
:104CA000F28CC280E4CF03F0E4CF02F0E4CF01F055
:104CB000E4CF00F0E4CFD9FF1200D9CFE5FFE1CF78
:104CC000D9FF00C0E5FF01C0E5FF02C0E5FF03C05A
:104CD000E5FF020EDBCF00F0030EDBCF01F0040E88
:104CE000DBCF02F007EC2AF0036E0350FBE100C0BB
:104CF000E9FF01C0F3FF025047EC29F0F3EC29F083
:104D000000C0E9FF01C0F3FF025047EC29F0036E39
:104D1000002A02E3014A022A0350E4E1E4CF03F04F
:104D2000E4CF02F0E4CF01F0E4CF00F0E4CFD9FF0C
:104D30001200D9CFE5FFE1CFD9FF00C0E5FF01C0E8
:104D4000E5FF02C0E5FF03C0E5FF04C0E5FF05C0C5
:104D5000E5FF3F0EF86EFF0EF76EFE0EF66E0900D1
:104D6000F5CF00F00900F5CF01F0026A0150046EA2
:104D7000036A056A0050032605500422E00E03165C
:104D800004C0F3FF0350E4CF05F0E4CF04F0E4CF18
:104D900003F0E4CF02F0E4CF01F0E4CF00F0E4CF81
:104DA000D9FF1200D9CFE5FFE1CFD9FF020E0501EF
:104DB000006F0A6B0B6B9F0E0501486FF90E496F70
:104DC000060E0501516FD58ED590D592D594D59C00
:104DD000D59AD586F184F29AB588B598B59AB5502A
:104DE000F00B0909B56EB59CB58EB450F80B0609E9
:104DF000B46EB496B488A28CA08CE4CFD9FF120014
:104E0000D9CFE5FFE1CFD9FF92809282938093982A
:104E1000819893928192928A9394819493968196A9
:104E20009398819894928292948E949CCD80CD8E0A
:104E3000CD92CD96CD98CD9A9F909D809E80D08E1C
:104E4000F298F18CF28CF28E9F9A9F98F8EC28F0F1
:104E5000E4CFD9FF1200D9CFE5FFE1CFD9FF020E91
:104E6000DBCF48F5030EDBCF49F5020E0501236FBA
:104E7000266B040E0501516FD59ED590D592D59421
:104E8000D59CD59AD586F184F28AF294F288F18C79
:104E9000E4CFD9FF1200D9CFE5FFE1CFD9FF020E51
:104EA000DBCF48F5030EDBCF49F5020E0501236F7A
:104EB000266B020E0501516FD59ED590D592D594E3
:104EC000D59CD59AD586F184F28AF294F288F18C39
:104ED000E4CFD9FF1200E8AE0AD0F3CFEAFFEE50DC
:104EE000EECFF3FFEECFF4FFEECFE9FF1200E8BC08
:104EF00021EF2AF0E9CFF6FFF3CFF7FFF86E0900B4
:104F0000F5500900F5CFF3FF0900F5CFF4FF0900D4
:104F1000F5CFE9FF1200D9CFE5FFE1CFD9FF020EAF
:104F2000DBCF48F5030EDBCF49F50501236B266B7C
:104F30008192050E0501516FD59ED590D592D594DD
:104F4000D59CD59AD586F184F28AF294D59EE4CF89
:104F5000D9FF1200D9CFE5FFE1CFD9FF020EDBCF99
:104F600048F5030EDBCF49F50501236B266B8192D3
:104F7000030E0501516FD59ED590D592D594D59C41
:104F8000D59AD586F184F28AF294D59EE4CFD9FFE2
:104F90001200D9CFE5FFE1CFD9FF05011D6B1F6BD3
:104FA000230E0501486FF30E496F010E0501516F85
:104FB000D59ED590D592D594D59CD59AD586F18499
:104FC000F28AF294F288F18CE4CFD9FF1200D9CFA3
:104FD000E5FFE1CFD9FF00C0E5FF01C0E5FF020E0C
:104FE000DBCF00F0C250016EC30E01160F0E00168B
:104FF0000044E844FC0B0110C26EE4CF01F0E4CFA2
:1050000000F0E4CFD9FF1200D9CFE5FFE1CFD9FFFF
:1050100000C0E5FF01C0E5FF050144510501425D07
:10502000006E0501455105014359016E01C0F3FFB2
:105030000050E4CF01F0E4CF00F0E4CFD9FF12003C
:10504000E8AE08D0F3CFEAFFEE50EECFF3FFEECF9D
:10505000F4FF1200E8BC1FEF2AF0E9CFF6FFF3CF10
:10506000F7FFF86E0900F5500900F5CFF3FF0900CE
:10507000F5CFF4FF1200D9CFE5FFE1CFD9FF9F0EA6
:105080000501486FF90E496F0501006B070E050118
:10509000516FD58ED590D592D594D59CD59AD5867D
:1050A000F184F28AE4CFD9FF1200D9CFE5FFE1CF36
:1050B000D9FF00C0E5FF020EDBCF00F00050050174
:1050C000256F070E266FD58EF28405012651FDE16E
:1050D000E4CF00F0E4CFD9FF1200D9CFE5FFE1CF54
:1050E000D9FF00C0E5FF020EDBCF00F00050050144
:1050F000256F080E266FD58EF28405012651FDE13D
:10510000E4CF00F0E4CFD9FF1200F2CFEAFFF29E25
:10511000A69EA69CA684E9CFA9FFE4CFA8FFFBEC3E
:1051200029F0F4CFA8FFFBEC29F0F6CFA8FFFBECA9
:1051300029F0A694EABEF28E1200F2CFF6FFF29E9C
:10514000A69EA69CE9CFA9FFA680A850A92AA68062
:10515000A8CFF3FFA92AA680A8CFF4FFA92AA6808A
:10516000A8CFEAFFF6BEF28E1200D9CFE5FFE1CF5D
:10517000D9FF00C0E5FF020EDBCF00F0610E005C3E
:1051800005E37B0E005C02E2010E01D0E86AE4CF89
:1051900000F0E4CFD9FF1200D9CFE5FFE1CFD9FF6E
:1051A00000C0E5FF020EDBCF00F0005005010C6FE0
:1051B000080E0D6F05010D51FDE1E4CF00F0E4CFC5
:1051C000D9FF1200E8AE06D0F3CFEAFFEE50EECFE3
:1051D000F3FF1200E8BC1DEF2AF0E9CFF6FFF3CF92
:1051E000F7FFF86E0900F5500900F5CFF3FF120044
:1051F000D9CFE5FFE1CFD9FF670EAF6EAC84AC9895
:10520000B886AB8E9D989F989D8A9F9AAC9CAB9CCC
:10521000AB88AC8AE4CFD9FF1200F00E050152151D
:10522000526FABAC04D05291ABA001D05281ABA471
:1052300002D005015285ABA202D005015287AE50C3
:105240001200F2CFF6FFF29EA69EA69CE9CFA9FF20
:10525000A680A850A92AA680A8CFF3FFA92AA680D5
:10526000A8CFF4FFF6BEF28E1200D9CFE5FFE1CF52
:10527000D9FF00C0E5FF020EDBCF00F000500501B2
:105280004D6F4C6BE4CF00F0E4CFD9FF1200E8AED5
:1052900004D0F3CFEAFFEE501200E8BC1BEF2AF077
:1052A000E9CFF6FFF3CFF7FFF86E0900F5501200D3
:1052B000F2CFEAFFF29EA69EA69CA684E9CFA9FFA4
:1052C000E4CFA8FFFBEC29F0A694EABEF28E120010
:1052D000F2CFF6FFF29EA69EA69CE9CFA9FFA6807C
:1052E000A850A92AA680A8CFF3FFF6BEF28E12001E
:1052F000E8AE09D0F3CFEAFFE4CFEEFFF4CFEEFF44
:10530000F6CFEEFF1200E8BC23EF2AF01200F2CF36
:10531000F6FFF29EA69EA69CE9CFA9FFA680A85004
:10532000F6BEF28E1200D9CFE5FFE1CFD9FF05011D
:10533000516BD59EA08CE4CFD9FF1200D9CFE5FFE9
:10534000E1CFD9FFF2980501516BD59EE4CFD9FF8B
:105350001200D9CFE5FFE1CFD9FF0501516B819252
:10536000D59EE4CFD9FF1200D9CFE5FFE1CFD9FF19
:10537000F2980501516BD59EE4CFD9FF1200D9CF29
:10538000E5FFE1CFD9FF0501516B8192D59EE4CFB6
:10539000D9FF1200E8AE05D0F3CFEAFFE4CFEEFF6D
:1053A0001200E8BC19EF2AF01200D9CFE5FFE1CFD7
:1053B000D9FFA09C0501516BE4CFD9FF1200D9CFD2
:1053C000E5FFE1CFD9FF0501516BF298E4CFD9FF9A
:1053D000120014EEFFF024EEFFF0F86AA68EA69CF1
:1053E0000EEC00F0FFD7ACAC04D0AC90050152B38A
:1053F000AC80AD6E1200550EA76EAA0EA76EA682E7
:10540000A6B2FED7A94AC4CFF3FFC3501200000EC4
:10541000ACA2010F1200000EC2B2010F1200000E6A
:105420009EBA010F1200E8CF7FFF1200C2909D9C30
:10543000120058EF29F087EF29F068EF29F021EFEB
:0C54400029F09DEF28F085EF28F0120005
:020000040030CA
:04000000010A191EBA
:020005008185F3
:060008000FC00FE00F40E5
:00000001FF
