:020000040000FA
:10000000FFEF29F0C96E1200E9EF12F0ACA2FED7A3
:10001000AD6E1200C28212003AEF25F0D350FC0BF5
:10002000D36ED3508F0B7009D36E0501416B426BB9
:100030000501436B446B0501456B466B16EC27F0DD
:10004000000EE56E640EE56E9CEC25F0E652E6527D
:10005000BCEC1BF0AFEC26F0006EF3CF01F00050CB
:10006000400A03E10150120A01E01DD0000E046EA7
:100070002E0E036ED60E026E000E066E600E056E1C
:10008000800E076E0450E56E0350E56E0250E56E7B
:100090000750E56E0650E56E0550E56EFEEC22F069
:1000A000060EE12644D00050400A03E101502A0A1E
:1000B00001E01DD0000E046E2E0E036EEE0E026ED9
:1000C000000E066E600E056E800E076E0450E56E23
:1000D0000350E56E0250E56E0750E56E0650E56E82
:1000E0000550E56EFEEC22F0060EE12620D0000E53
:1000F000046E2F0E036E060E026E000E066E600E6C
:10010000056E800E076E0150E56E0050E56E0450DE
:10011000E56E0350E56E0250E56E0750E56E065041
:10012000E56E0550E56EFEEC22F0080EE126000EAD
:10013000016E600E006E800E026E0250E56E015080
:10014000E56E0050E56E73EC26F0030EE126E8EC58
:1001500026F0050E016E500E006E800E026E0250EB
:10016000E56E0150E56E0050E56E87EC20F0006E04
:10017000030EE1260050EDE0FB0E0501505DE9E3C2
:10018000050E5025006EFA6AFB6A0034FA36E83430
:10019000FA36FC0BA40FE56E010EFA22000EFB22CC
:1001A000E450F96E5DEF07F02BEF05F0F9EF02F088
:1001B000DCEF00F0F4EF01F0EBEC29F0000E026E42
:1001C0002F0E016E320E006E0250E56E0150E56E8C
:1001D0000050E56E73EC26F0030EE126DFEC27F00D
:1001E000006A016A270EE56E100EE56E9CEC25F0A4
:1001F000E652E6521AEC28F0026EF3CF03F00350F9
:10020000015C02E10250005C12E202C000F003C097
:1002100001F0000EE56EC80EE56E9CEC25F0E6528E
:10022000E6521AEC28F0026EF3CF03F0E8D7F5ECB3
:1002300029F0000E066E2F0E056E4C0E046E000E99
:10024000086E600E076E800E096E0650E56E055052
:10025000E56E0450E56E0950E56E0850E56E0750F6
:10026000E56EFEEC22F0060EE126000E056E600E35
:10027000046E800E066E0650E56E0550E56E045065
:10028000E56E73EC26F0030EE126046A056A1AECAB
:1002900028F0066EF3CF07F00750055C02E1065028
:1002A000045CD8B04CD0050E076E510E066E800E61
:1002B000086E0850E56E0750E56E0650E56E87EC57
:1002C00020F0030EE12651C506F0076A000E0A6E03
:1002D0002F0E096E500E086E000E0C6E600E0B6E27
:1002E000800E0D6E0750E56E0650E56E0A50E56E05
:1002F0000950E56E0850E56E0D50E56E0C50E56E48
:100300000B50E56EFEEC22F0080EE126000E076EA3
:10031000600E066E800E086E0850E56E0750E56EA2
:100320000650E56E73EC26F0030EE12605015151EF
:10033000E56EE3EC21F0E652044A052AA8D7000E48
:10034000066E2F0E056E540E046E000E086E600EC3
:10035000076E800E096E0650E56E0550E56E04507E
:10036000E56E0950E56E0850E56E0750E56EFEEC4F
:1003700022F0060EE126000E056E600E046E800E61
:10038000066E0650E56E0550E56E0450E56E73ECA2
:1003900026F0030EE12651EC28F0050E056E500EF6
:1003A000046E800E066E0650E56E0550E56E045034
:1003B000E56E87EC20F0046E030EE12604500FE09A
:1003C00005015051E56EE2EC28F0E652000EE56EB4
:1003D000040EE56E9CEC25F0E652E652DED7A9EC61
:1003E00029F0E8EC26F0B5D6006A016A030EE56E46
:1003F000E80EE56E9CEC25F0E652E6521AEC28F089
:10040000026EF3CF03F00350015C02E10250005C86
:1004100012E202C000F003C001F0010EE56EF40E1E
:10042000E56E9CEC25F0E652E6521AEC28F0026EDE
:10043000F3CF03F0E8D7EBEC29F0000E066E2F0E99
:10044000056E580E046E000E086E600E076E800E6C
:10045000096E0650E56E0550E56E0450E56E0950D4
:10046000E56E0850E56E0750E56EFEEC22F0060ED4
:10047000E126000E056E600E046E800E066E0650BC
:10048000E56E0550E56E0450E56E73EC26F0030E44
:10049000E126046A056A1AEC28F0066EF3CF07F02D
:1004A0000750055C02E10650045CD8B04CD0050E44
:1004B000076E510E066E800E086E0850E56E0750EE
:1004C000E56E0650E56E87EC20F0030EE12651C57F
:1004D00006F0076A000E0A6E2F0E096E500E086EA7
:1004E000000E0C6E600E0B6E800E0D6E0750E56EEA
:1004F0000650E56E0A50E56E0950E56E0850E56E4F
:100500000D50E56E0C50E56E0B50E56EFEEC22F0E2
:10051000080EE126000E076E600E066E800E086E55
:100520000850E56E0750E56E0650E56E73EC26F058
:10053000030EE12605015151E56EE3EC21F0E65290
:10054000044A052AA8D7000E066E2F0E056E540E1B
:10055000046E000E086E600E076E800E096E065067
:10056000E56E0550E56E0450E56E0950E56E0850E5
:10057000E56E0750E56EFEEC22F0060EE126000E59
:10058000056E600E046E800E066E0650E56E055018
:10059000E56E0450E56E73EC26F0030EE12651EC97
:1005A00028F0050E056E510E046E800E066E065084
:1005B000E56E0550E56E0450E56E87EC20F0046EA4
:1005C000030EE12604500FE005015151E56EE2EC07
:1005D00028F0E652000EE56E040EE56E9CEC25F068
:1005E000E652E652DED7A9EC29F0E8EC26F0A9EFB6
:1005F00000F0EBEC29F0E8EC26F0006A016A010E4D
:10060000E56E900EE56E9CEC25F0E652E6521AEC93
:1006100028F0026EF3CF03F00350015C02E10250B8
:10062000005C12E202C000F003C001F0000EE56EB3
:10063000C80EE56E9CEC25F0E652E6521AEC28F066
:10064000026EF3CF03F0E8D7EBEC29F0000E066E54
:100650002F0E056E580E046E000E086E600E076EAB
:10066000800E096E0650E56E0550E56E0450E56E8D
:100670000950E56E0850E56E0750E56EFEEC22F07D
:10068000060EE126000E056E600E046E800E066EEC
:100690000650E56E0550E56E0450E56E73EC26F0ED
:1006A000030EE126046A056A1AEC28F0066EF3CF01
:1006B00007F00750055C02E10650045CD8B04CD04E
:1006C000050E076E510E066E800E086E0850E56E20
:1006D0000750E56E0650E56E87EC20F0030EE1262C
:1006E00051C506F0076A000E0A6E2F0E096E500EF5
:1006F000086E000E0C6E600E0B6E800E0D6E0750B5
:10070000E56E0650E56E0A50E56E0950E56E08503C
:10071000E56E0D50E56E0C50E56E0B50E56EFEEC8F
:1007200022F0080EE126000E076E600E066E800EA7
:10073000086E0850E56E0750E56E0650E56E73ECE6
:1007400026F0030EE12605015151E56EE3EC21F0A0
:10075000E652044A052AA8D7000E066E2F0E056E33
:10076000540E046E000E086E600E076E800E096E49
:100770000650E56E0550E56E0450E56E0950E56ED5
:100780000850E56E0750E56EFEEC22F0060EE126FD
:10079000000E056E600E046E800E066E0650E56E4D
:1007A0000550E56E0450E56E73EC26F0030EE1266D
:1007B000F90EE56EAE0EE56EC0EC27F0E652E6529D
:1007C000050E056E510E046E800E066E0650E56E27
:1007D0000550E56E0450E56E87EC20F0046E030EC4
:1007E000E12604500FE005015151E56E83EC28F03D
:1007F000E652000EE56E0C0EE56E9CEC25F0E6521E
:10080000E652DED7D5EC29F0F90EE56EAE0EE56EB8
:1008100061EC27F0E652E652006A016A010EE56ECD
:10082000900EE56E9CEC25F0E652E6521AEC28F0AC
:10083000026EF3CF03F00350015C02E10250005C52
:1008400012E202C000F003C001F0000EE56EC80E17
:10085000E56E9CEC25F0E652E6521AEC28F0026EAA
:10086000F3CF03F0E8D7CAEC29F0000E066E2F0E86
:10087000056E4C0E046E000E086E600E076E800E44
:10088000096E0650E56E0550E56E0450E56E0950A0
:10089000E56E0850E56E0750E56EFEEC22F0060EA0
:1008A000E126000E056E600E046E800E066E065088
:1008B000E56E0550E56E0450E56E73EC26F0030E10
:1008C000E126046A056A1AEC28F0066EF3CF07F0F9
:1008D0000750055C02E10650045CD8B04CD0050E10
:1008E000076E510E066E800E086E0850E56E0750BA
:1008F000E56E0650E56E87EC20F0030EE12651C54B
:1009000006F0076A000E0A6E2F0E096E500E086E72
:10091000000E0C6E600E0B6E800E0D6E0750E56EB5
:100920000650E56E0A50E56E0950E56E0850E56E1A
:100930000D50E56E0C50E56E0B50E56EFEEC22F0AE
:10094000080EE126000E076E600E066E800E086E21
:100950000850E56E0750E56E0650E56E73EC26F024
:10096000030EE12605015151E56EE3EC21F0E6525C
:10097000044A052AA8D7000E066E2F0E056E540EE7
:10098000046E000E086E600E076E800E096E065033
:10099000E56E0550E56E0450E56E0950E56E0850B1
:1009A000E56E0750E56EFEEC22F0060EE126000E25
:1009B000056E600E046E800E066E0650E56E0550E4
:1009C000E56E0450E56E73EC26F0030EE1261AEC9A
:1009D00028F0046EF3CF05F00450051027E051EC29
:1009E00028F0050E056E510E046E800E066E065040
:1009F000E56E0550E56E0450E56E87EC20F0046E60
:100A0000030EE12604500FE005015151E56EE2ECC2
:100A100028F0E652000EE56E040EE56E9CEC25F023
:100A2000E652E652DED7A9EC29F011D051EC28F0BD
:100A30000D0EE56EE2EC28F0E652000EE56E040EB7
:100A4000E56E9CEC25F0E652E652A9EC29F0E8ECC4
:100A500026F0A9EF00F0EBEC29F0E8EC26F0006AB4
:100A6000016A010EE56E900EE56E9CEC25F0E652F3
:100A7000E6521AEC28F0026EF3CF03F00350015C4B
:100A800002E10250005C12E202C000F003C001F07B
:100A9000000EE56EC80EE56E9CEC25F0E652E652BF
:100AA0001AEC28F0026EF3CF03F0E8D7EBEC29F054
:100AB000000E066E2F0E056E580E046E000E086EA8
:100AC000600E076E800E096E0650E56E0550E56EED
:100AD0000450E56E0950E56E0850E56E0750E56E6E
:100AE000FEEC22F0060EE126000E056E600E046E8E
:100AF000800E066E0650E56E0550E56E0450E56EFC
:100B000073EC26F0030EE126046A056A1AEC28F05D
:100B1000066EF3CF07F00750055C02E10650045C57
:100B2000D8B04CD0050E076E510E066E800E086EC2
:100B30000850E56E0750E56E0650E56E87EC20F034
:100B4000030EE12651C506F0076A000E0A6E2F0E4D
:100B5000096E500E086E000E0C6E600E0B6E800E4D
:100B60000D6E0750E56E0650E56E0A50E56E0950B1
:100B7000E56E0850E56E0D50E56E0C50E56E0B50BD
:100B8000E56EFEEC22F0080EE126000E076E600E08
:100B9000066E800E086E0850E56E0750E56E065032
:100BA000E56E73EC26F0030EE12605015151E56E6A
:100BB000E3EC21F0E652044A052AA8D7000E066E9F
:100BC0002F0E056E540E046E000E086E600E076E3A
:100BD000800E096E0650E56E0550E56E0450E56E18
:100BE0000950E56E0850E56E0750E56EFEEC22F008
:100BF000060EE126000E056E600E046E800E066E77
:100C00000650E56E0550E56E0450E56E73EC26F077
:100C1000030EE126E60EE56E1B0EE56EA1EC27F055
:100C2000E652E652050E056E510E046E800E066EFB
:100C30000650E56E0550E56E0450E56E87EC20F039
:100C4000046E030EE12604500FE005015151E56EDC
:100C50006BEC28F0E652000EE56E0C0EE56E9CEC97
:100C600025F0E652E652DED7BFEC29F0E60EE56E3F
:100C70001B0EE56E41EC27F0E652E652006A016A6F
:100C8000050EE56EDC0EE56E9CEC25F0E652E652B4
:100C90001AEC28F0026EF3CF03F00350015C02E17E
:100CA0000250005C12E202C000F003C001F0020E2C
:100CB000E56E580EE56E9CEC25F0E652E6521AEC15
:100CC00028F0026EF3CF03F0E8D7B4EC29F0000E61
:100CD000026E2F0E016E4C0E006E000E046E600E42
:100CE000036E800E056E0250E56E0150E56E0050F9
:100CF000E56E0550E56E0450E56E0350E56EFEECC2
:100D000022F0060EE126000E016E600E006E800ECF
:100D1000026E0250E56E0150E56E0050E56E73EC18
:100D200026F0030EE126006A016A1AEC28F0026E32
:100D3000F3CF03F00350015C02E10250005CD8B035
:100D40004CD0050E036E510E026E800E046E0450E0
:100D5000E56E0350E56E0250E56E87EC20F0030E61
:100D6000E12651C502F0036A000E066E2F0E056ED5
:100D7000500E046E000E086E600E076E800E096E37
:100D80000350E56E0250E56E0650E56E0550E56EC7
:100D90000450E56E0950E56E0850E56E0750E56EAB
:100DA000FEEC22F0080EE126000E036E600E026ECD
:100DB000800E046E0450E56E0350E56E0250E56E41
:100DC00073EC26F0030EE12605015151E56EE3ECCC
:100DD00021F0E652004A012AA8D7000E026E2F0E1B
:100DE000016E540E006E000E046E600E036E800ED7
:100DF000056E0250E56E0150E56E0050E56E05503F
:100E0000E56E0450E56E0350E56EFEEC22F0060E32
:100E1000E126000E016E600E006E800E026E025022
:100E2000E56E0150E56E0050E56E73EC26F0030EA2
:100E3000E1261AEC28F0006EF3CF01F0005001100B
:100E400027E051EC28F0050E016E510E006E800E69
:100E5000026E0250E56E0150E56E0050E56E87ECC3
:100E600020F0006E030EE12600500FE00501515105
:100E7000E56EE2EC28F0E652000EE56E040EE56E3B
:100E80009CEC25F0E652E652DED7A9EC29F011D011
:100E900051EC28F00D0EE56EE2EC28F0E652000E63
:100EA000E56E040EE56E9CEC25F0E652E652A9ECE8
:100EB00029F0E8EC26F0A9EF00F0EBEC29F0BCEC0F
:100EC0001BF0E8EC26F0A9EF00F01200D9CFE5FF07
:100ED000E1CFD9FF82820000000000000000000086
:100EE0000000000000000000000000000000000002
:100EF00000000000000000000000000000000000F2
:100F000000000000000000000000000000000000E1
:100F100000000000000000000000000000000000D1
:100F200000000000000000000000000000000000C1
:100F300000000000000000000000000000000000B1
:100F400000000000000000000000000000000000A1
:100F50000000000000000000000000000000000091
:100F60000000000000000000000000000000000081
:100F70000000000000000000000000000000000071
:100F80000000000000000000000000000000000061
:100F90000000000000000000000000000000000051
:100FA0000000000000000000000000000000000041
:100FB0000000000000000000000000000000000031
:100FC0000000000000000000000000000000000021
:100FD0000000000000000000000000000000000011
:100FE00000000000829200000000000000000000ED
:100FF00000000000000000000000000000000000F1
:1010000000000000000000000000000000000000E0
:1010100000000000000000000000000000000000D0
:1010200000000000000000000000000000000000C0
:1010300000000000000000000000000000000000B0
:1010400000000000000000000000000000000000A0
:101050000000000000000000000000000000000090
:101060000000000000000000000000000000000080
:101070000000000000000000000000000000000070
:101080000000000000000000000000000000000060
:101090000000000000000000000000000000000050
:1010A0000000000000000000000000000000000040
:1010B0000000000000000000000000000000000030
:1010C0000000000000000000000000000000000020
:1010D0000000000000000000000000000000000010
:1010E0000000000000000000000000000000000000
:1010F00000000000828200000000000000000000EC
:1011000000000000000000000000000000000000DF
:1011100000000000000000000000000000000000CF
:1011200000000000000000000000000000000000BF
:1011300000000000000000000000000000000000AF
:10114000000000000000000000000000000000009F
:10115000000000000000000000000000000000008F
:10116000000000000000000000000000000000007F
:10117000000000000000000000000000000000006F
:10118000000000000000000000000000000000005F
:10119000000000000000000000000000000000004F
:1011A000000000000000000000000000000000003F
:1011B000000000000000000000000000000000002F
:1011C000000000000000000000000000000000001F
:1011D000000000000000000000000000000000000F
:1011E00000000000000000000000000000000000FF
:1011F00000000000000000000000000000000000EF
:1012000000000000829200000000000000000000CA
:1012100000000000000000000000000000000000CE
:1012200000000000000000000000000000000000BE
:1012300000000000000000000000000000000000AE
:10124000000000000000000000000000000000009E
:10125000000000000000000000000000000000008E
:10126000000000000000000000000000000000007E
:10127000000000000000000000000000000000006E
:10128000000000000000000000000000000000005E
:10129000000000000000000000000000000000004E
:1012A000000000000000000000000000000000003E
:1012B000000000000000000000000000000000002E
:1012C000000000000000000000000000000000001E
:1012D000000000000000000000000000000000000E
:1012E00000000000000000000000000000000000FE
:1012F00000000000000000000000000000000000EE
:1013000000000000000000000000000000000000DD
:1013100000000000828200000000000000000000C9
:1013200000000000000000000000000000000000BD
:1013300000000000000000000000000000000000AD
:10134000000000000000000000000000000000009D
:10135000000000000000000000000000000000008D
:10136000000000000000000000000000000000007D
:10137000000000000000000000000000000000006D
:10138000000000000000000000000000000000005D
:10139000000000000000000000000000000000004D
:1013A000000000000000000000000000000000003D
:1013B000000000000000000000000000000000002D
:1013C000000000000000000000000000000000001D
:1013D000000000000000000000000000000000000D
:1013E00000000000000000000000000000000000FD
:1013F00000000000000000000000000000000000ED
:1014000000000000000000000000000000000000DC
:1014100000000000000000000000000000000000CC
:1014200000000000829200000000000000000000A8
:1014300000000000000000000000000000000000AC
:10144000000000000000000000000000000000009C
:10145000000000000000000000000000000000008C
:10146000000000000000000000000000000000007C
:10147000000000000000000000000000000000006C
:10148000000000000000000000000000000000005C
:10149000000000000000000000000000000000004C
:1014A000000000000000000000000000000000003C
:1014B000000000000000000000000000000000002C
:1014C000000000000000000000000000000000001C
:1014D000000000000000000000000000000000000C
:1014E00000000000000000000000000000000000FC
:1014F00000000000000000000000000000000000EC
:1015000000000000000000000000000000000000DB
:1015100000000000000000000000000000000000CB
:1015200000000000000000000000000000000000BB
:1015300000000000828200000000000000000000A7
:10154000000000000000000000000000000000009B
:10155000000000000000000000000000000000008B
:10156000000000000000000000000000000000007B
:10157000000000000000000000000000000000006B
:10158000000000000000000000000000000000005B
:10159000000000000000000000000000000000004B
:1015A000000000000000000000000000000000003B
:1015B000000000000000000000000000000000002B
:1015C000000000000000000000000000000000001B
:1015D000000000000000000000000000000000000B
:1015E00000000000000000000000000000000000FB
:1015F00000000000000000000000000000000000EB
:1016000000000000000000000000000000000000DA
:1016100000000000000000000000000000000000CA
:1016200000000000000000000000000000000000BA
:1016300000000000000000000000000000000000AA
:101640000000000082920000000000000000000086
:10165000000000000000000000000000000000008A
:10166000000000000000000000000000000000007A
:10167000000000000000000000000000000000006A
:10168000000000000000000000000000000000005A
:10169000000000000000000000000000000000004A
:1016A000000000000000000000000000000000003A
:1016B000000000000000000000000000000000002A
:1016C000000000000000000000000000000000001A
:1016D000000000000000000000000000000000000A
:1016E00000000000000000000000000000000000FA
:1016F00000000000000000000000000000000000EA
:1017000000000000000000000000000000000000D9
:1017100000000000000000000000000000000000C9
:1017200000000000000000000000000000000000B9
:1017300000000000000000000000000000000000A9
:101740000000000000000000000000000000000099
:101750000000000082820000000000000000000085
:101760000000000000000000000000000000000079
:101770000000000000000000000000000000000069
:101780000000000000000000000000000000000059
:101790000000000000000000000000000000000049
:1017A0000000000000000000000000000000000039
:1017B0000000000000000000000000000000000029
:1017C0000000000000000000000000000000000019
:1017D0000000000000000000000000000000000009
:1017E00000000000000000000000000000000000F9
:1017F00000000000000000000000000000000000E9
:1018000000000000000000000000000000000000D8
:1018100000000000000000000000000000000000C8
:1018200000000000000000000000000000000000B8
:1018300000000000000000000000000000000000A8
:101840000000000000000000000000000000000098
:101850000000000000000000000000000000000088
:101860000000000082920000000000000000000064
:101870000000000000000000000000000000000068
:101880000000000000000000000000000000000058
:101890000000000000000000000000000000000048
:1018A0000000000000000000000000000000000038
:1018B0000000000000000000000000000000000028
:1018C0000000000000000000000000000000000018
:1018D0000000000000000000000000000000000008
:1018E00000000000000000000000000000000000F8
:1018F00000000000000000000000000000000000E8
:1019000000000000000000000000000000000000D7
:1019100000000000000000000000000000000000C7
:1019200000000000000000000000000000000000B7
:1019300000000000000000000000000000000000A7
:101940000000000000000000000000000000000097
:101950000000000000000000000000000000000087
:101960000000000000000000000000000000000077
:101970000000000082820000000000000000000063
:101980000000000000000000000000000000000057
:101990000000000000000000000000000000000047
:1019A0000000000000000000000000000000000037
:1019B0000000000000000000000000000000000027
:1019C0000000000000000000000000000000000017
:1019D0000000000000000000000000000000000007
:1019E00000000000000000000000000000000000F7
:1019F00000000000000000000000000000000000E7
:101A000000000000000000000000000000000000D6
:101A100000000000000000000000000000000000C6
:101A200000000000000000000000000000000000B6
:101A300000000000000000000000000000000000A6
:101A40000000000000000000000000000000000096
:101A50000000000000000000000000000000000086
:101A60000000000000000000000000000000000076
:101A70000000000000000000000000000000000066
:101A8000000000008292E4CFD9FF1200D9CFE5FF19
:101A9000E1CFD9FF828200000000000000000000BA
:101AA0000000000000000000000000000000000036
:101AB0000000000000000000000000000000000026
:101AC0000000000000000000000000000000000016
:101AD0000000000000000000000000000000000006
:101AE00000000000000000000000000000000000F6
:101AF00000000000000000000000000000000000E6
:101B000000000000000000000000000000000000D5
:101B100000000000000000000000000000000000C5
:101B200000000000000000000000000000000000B5
:101B300000000000000000000000000000000000A5
:101B40000000000000000000000000000000000095
:101B50000000000000000000000000000000000085
:101B60000000000000000000000000000000000075
:101B70000000000000000000000000000000000065
:101B80000000000000000000000000000000000055
:101B90000000000000000000000000000000000045
:101BA0000000000000000000000000000000000035
:101BB0000000000000000000000000000000000025
:101BC0000000000000000000000000000000000015
:101BD0000000000000000000000000000000000005
:101BE00000000000000000000000000000000000F5
:101BF00000000000000000000000000000000000E5
:101C000000000000000000000000000000000000D4
:101C100000000000000000000000000000000000C4
:101C200000000000000000000000000000008292A0
:101C300000000000000000000000000000000000A4
:101C40000000000000000000000000000000000094
:101C50000000000000000000000000000000000084
:101C60000000000000000000000000000000000074
:101C70000000000000000000000000000000000064
:101C80000000000000000000000000000000000054
:101C90000000000000000000000000000000000044
:101CA0000000000000000000000000000000000034
:101CB0000000000000000000000000000000000024
:101CC0000000000000000000000000000000000014
:101CD0000000000000000000000000000000000004
:101CE00000000000000000000000000000000000F4
:101CF00000000000000000000000000000000000E4
:101D000000000000000000000000000000000000D3
:101D100000000000000000000000000000000000C3
:101D200000000000000000000000000000000000B3
:101D300000000000000000000000000000000000A3
:101D40000000000000000000000000000000000093
:101D50000000000000000000000000000000000083
:101D60000000000000000000000000000000000073
:101D70000000000000000000000000000000000063
:101D80000000000000000000000000000000000053
:101D90000000000000000000000000000000000043
:101DA0000000000000000000000000000000000033
:101DB0000000000000000000000000000000000023
:101DC000000000000000000082820000000000000F
:101DD0000000000000000000000000000000000003
:101DE00000000000000000000000000000000000F3
:101DF00000000000000000000000000000000000E3
:101E000000000000000000000000000000000000D2
:101E100000000000000000000000000000000000C2
:101E200000000000000000000000000000000000B2
:101E300000000000000000000000000000000000A2
:101E40000000000000000000000000000000000092
:101E50000000000000000000000000000000000082
:101E60000000000000000000000000000000000072
:101E70000000000000000000000000000000000062
:101E80000000000000000000000000000000000052
:101E90000000000000000000000000000000000042
:101EA0000000000000000000000000000000000032
:101EB0000000000000000000000000000000000022
:101EC0000000000000000000000000000000000012
:101ED0000000000000000000000000000000000002
:101EE00000000000000000000000000000000000F2
:101EF00000000000000000000000000000000000E2
:101F000000000000000000000000000000000000D1
:101F100000000000000000000000000000000000C1
:101F200000000000000000000000000000000000B1
:101F300000000000000000000000000000000000A1
:101F40000000000000000000000000000000000091
:101F50000000000000000000000000000000000081
:101F6000000082920000000000000000000000005D
:101F70000000000000000000000000000000000061
:101F80000000000000000000000000000000000051
:101F90000000000000000000000000000000000041
:101FA0000000000000000000000000000000000031
:101FB0000000000000000000000000000000000021
:101FC0000000000000000000000000000000000011
:101FD0000000000000000000000000000000000001
:101FE00000000000000000000000000000000000F1
:101FF00000000000000000000000000000000000E1
:1020000000000000000000000000000000000000D0
:1020100000000000000000000000000000000000C0
:1020200000000000000000000000000000000000B0
:1020300000000000000000000000000000000000A0
:102040000000000000000000000000000000000090
:102050000000000000000000000000000000000080
:102060000000000000000000000000000000000070
:102070000000000000000000000000000000000060
:102080000000000000000000000000000000000050
:102090000000000000000000000000000000000040
:1020A0000000000000000000000000000000000030
:1020B0000000000000000000000000000000000020
:1020C0000000000000000000000000000000000010
:1020D0000000000000000000000000000000000000
:1020E00000000000000000000000000000000000F0
:1020F00000000000000000000000000082820000DC
:1021000000000000000000000000000000000000CF
:1021100000000000000000000000000000000000BF
:1021200000000000000000000000000000000000AF
:10213000000000000000000000000000000000009F
:10214000000000000000000000000000000000008F
:10215000000000000000000000000000000000007F
:10216000000000000000000000000000000000006F
:10217000000000000000000000000000000000005F
:10218000000000000000000000000000000000004F
:10219000000000000000000000000000000000003F
:1021A000000000000000000000000000000000002F
:1021B000000000000000000000000000000000001F
:1021C000000000000000000000000000000000000F
:1021D00000000000000000000000000000000000FF
:1021E00000000000000000000000000000000000EF
:1021F00000000000000000000000000000000000DF
:1022000000000000000000000000000000000000CE
:1022100000000000000000000000000000000000BE
:1022200000000000000000000000000000000000AE
:10223000000000000000000000000000000000009E
:10224000000000000000000000000000000000008E
:10225000000000000000000000000000000000007E
:10226000000000000000000000000000000000006E
:10227000000000000000000000000000000000005E
:10228000000000000000000000000000000000004E
:10229000000000000000829200000000000000002A
:1022A000000000000000000000000000000000002E
:1022B000000000000000000000000000000000001E
:1022C000000000000000000000000000000000000E
:1022D00000000000000000000000000000000000FE
:1022E00000000000000000000000000000000000EE
:1022F00000000000000000000000000000000000DE
:1023000000000000000000000000000000000000CD
:1023100000000000000000000000000000000000BD
:1023200000000000000000000000000000000000AD
:10233000000000000000000000000000000000009D
:10234000000000000000000000000000000000008D
:10235000000000000000000000000000000000007D
:10236000000000000000000000000000000000006D
:10237000000000000000000000000000000000005D
:10238000000000000000000000000000000000004D
:10239000000000000000000000000000000000003D
:1023A000000000000000000000000000000000002D
:1023B000000000000000000000000000000000001D
:1023C000000000000000000000000000000000000D
:1023D00000000000000000000000000000000000FD
:1023E00000000000000000000000000000000000ED
:1023F00000000000000000000000000000000000DD
:1024000000000000000000000000000000000000CC
:1024100000000000000000000000000000000000BC
:1024200000000000000000000000000000000000AC
:102430008282000000000000000000000000000098
:10244000000000000000000000000000000000008C
:10245000000000000000000000000000000000007C
:10246000000000000000000000000000000000006C
:10247000000000000000000000000000000000005C
:10248000000000000000000000000000000000004C
:10249000000000000000000000000000000000003C
:1024A000000000000000000000000000000000002C
:1024B000000000000000000000000000000000001C
:1024C000000000000000000000000000000000000C
:1024D00000000000000000000000000000000000FC
:1024E00000000000000000000000000000000000EC
:1024F00000000000000000000000000000000000DC
:1025000000000000000000000000000000000000CB
:1025100000000000000000000000000000000000BB
:1025200000000000000000000000000000000000AB
:10253000000000000000000000000000000000009B
:10254000000000000000000000000000000000008B
:10255000000000000000000000000000000000007B
:10256000000000000000000000000000000000006B
:10257000000000000000000000000000000000005B
:10258000000000000000000000000000000000004B
:10259000000000000000000000000000000000003B
:1025A000000000000000000000000000000000002B
:1025B000000000000000000000000000000000001B
:1025C000000000000000000000008292E4CFD9FF6C
:1025D0001200D8CFE5FFE0CFE5FFE56EF3CFE5FFD2
:1025E000F4CFE5FFE9CFE5FFEACFE5FFFACFE5FF5E
:1025F000FBCFE5FFD9CFE5FFE1CFD9FF00C0E5FF75
:1026000001C0E5FF02C0E5FF03C0E5FF04C0E5FF30
:1026100005C0E5FFF2A2A1D1F2A89FD1D6CF00F06C
:10262000016AD7CF02F0036A0250056E046A0450B3
:1026300000100501476F05500110486F05014A5110
:10264000006E016A0050D76E4951D66E0501525195
:10265000010A0BE005015251020A01E11DD10501F9
:102660005251040A01E146D177D1640EE56E4BEC7C
:1026700029F0E65224C500F00050016E015008E038
:102680000050020A0CE00050040A01E13BD064D182
:10269000D58E010E0501266F020E246F5DD1050156
:1026A00049518F0F006E020E4A21016E05014851FB
:1026B000015C02E14751005C1FE2050149511F0F17
:1026C000006E040E4A21016E01500501485D02E1D1
:1026D0000050475D11E2020E0501265D06E226C5A7
:1026E00000F0002A0050266F37D10501276B286BB8
:1026F000296B040E246F30D1010E0501266F020EE6
:10270000246F2AD10D0E0501295DD8B025D1050110
:1027100049518F0F006E020E4A21016E050148518A
:10272000015C02E14751005C0EE2050149511F0FB7
:10273000006E040E4A21016E01500501485D02E160
:102740000050475D1CE3050149513D0F006E090E25
:102750004A21016E05014851015C02E14751005CCC
:1027600035E205014951CD0F006E0A0E4A21016E76
:1027700001500501485D02E10050475D27E2050177
:1027800027A10AD02751006E00262835016E00507F
:10279000276F0150286F13D005012751006E0026C6
:1027A0002835016E0050276F0150286F010E271148
:1027B000006E2851016E0050276F0150286F29C507
:1027C00000F0002A00500501296F48D00501495149
:1027D000E60F006E050E4A21016E05014851015CAD
:1027E00002E14751005C35E205014951760F006E68
:1027F000070E4A21016E01500501485D02E10050BB
:10280000475D27E2050127A113D02751006E00265E
:102810002835016E0050276F0150286F010E2711D7
:10282000006E2851016E0050276F0150286F0AD0AA
:1028300005012751006E00262835016E0050276FD4
:102840000150286F29C500F0002A00500501296FAA
:1028500005D0010E0501266F020E246F05012951D6
:102860000C0A01E079D005012851E56E2751E56E8B
:10287000DBEC1DF0006EE652E65200500AE0050166
:102880002751006E016A0050E56EE3EC21F0E6523C
:1028900081880501246B60D005011D51020A01E009
:1028A0005BD005014951FF08006EFF0E4A55016ECD
:1028B000D890013200320050495D006E01504A59F3
:1028C000016E0150006E016A0050D76E4951006ED2
:1028D0004951FF08016EFF0E4A55026ED890023230
:1028E00001320150005CD66EF298D58E040E0501BF
:1028F0001D6F32D005011D51020A2EE1050149511B
:10290000FF08006EFF0E4A55016ED890013200326A
:102910000050495D006E01504A59016E0150006E31
:10292000016A0050D76E4951006E4951FF08016E8F
:10293000FF0E4A55026ED890023201320150005CFF
:10294000D66EF298D58E7F0E05011F15006E0050D1
:102950001F6F226B040E1D6FF292F2A4D3EF16F0DC
:10296000F2AAD3EF16F005014A51006E016A005039
:10297000D76E4951D66E010E0501525DD8A0D2EF37
:1029800016F0080E525DD8B0D2EF16F05205006E68
:10299000FA6AFB6A0034FA36E834FA36FC0BAE0FFA
:1029A000E56E290EFA22000EFB22E450F96EE5EFE7
:1029B00014F035EF15F0EBEF14F0DFEF15F075EFD5
:1029C00015F03BEF16F07DEF16F0D59E0501246B58
:1029D0000300D2EF16F01DC500F00050016E01504B
:1029E0000BE00050030A12E000500A0A34E00050E5
:1029F0000B0A36E0D2EF16F005012051080A01E07B
:102A0000D1D18182030E05011D6FCCD1010E0501CC
:102A1000205D1CE3010E1F15006E0050D880E86693
:102A2000D890006A00360050010BE844F46E8150E3
:102A3000FD0BF410816E1F417F0B006E00501F6F65
:102A400020C500F000060050206FACD181920A0E24
:102A500005011D6FA7D181920B0E05011D6FA2D13B
:102A6000819205011D6BD59E9DD11DC500F00050C2
:102A7000040A07E00050080A25E00050090A26E091
:102A800091D120C500F0002A00500501206F81A0DF
:102A900006D01F417F0B006E00501F6F0BD0050149
:102AA0001F417F0B006E00501F6F800E1F11006EC4
:102AB00000501F6F080E0501205DD8A073D1080ECD
:102AC0001D6F70D1090E05011D6F6CD105011F51DD
:102AD000E56EE3EC21F0E65205011F6B206B020E60
:102AE0001D6FD59EF292F2885DD11DC500F0005099
:102AF000016E01500CE00050030A18E00050060A75
:102B000001E153D000500A0A01E154D04BD1050134
:102B10002051070A01E046D18182010E05011F15EF
:102B2000006E0050216F030E1D6F3CD1010E050198
:102B3000205D26E3010E1F15006E0050D880E86668
:102B4000D890006A00360050010BE844F46E8150C2
:102B5000FD0BF410816E1F51020BE840006E2151F5
:102B6000016E0150001A0050216F1F417F0B006E53
:102B700000501F6F20C500F000060050206F12D1DA
:102B8000010E05012115006E0050D880E866D8902E
:102B9000006A00360050010BE844F46E8150FD0BD2
:102BA000F410816E060E1D6FFDD081920A0E050194
:102BB0001D6FF8D0819205011D6BD59EF3D01DC508
:102BC00000F00050040A07E00050070A2EE0005011
:102BD000080A37E0E7D020C500F0002A00500501C0
:102BE000206F81A00AD022C500F00050226F1F4143
:102BF0007F0B006E00501F6F10D0010E05012219CF
:102C0000006E0050226F1F417F0B006E00501F6F3F
:102C1000400E1F11006E00501F6F070E0501205D52
:102C2000D8A0C0D0070E1D6FBDD081A002D0006A11
:102C300002D0010E006E00500501216F080E1D6FBD
:102C4000B1D005012251211907E105011F51E56E9F
:102C5000E3EC21F0E65206D005011F51E56EE3ECEE
:102C600021F0E65205011F6B206B020E1D6FD59EF1
:102C7000F292F28897D000C500F00050040A04E0F8
:102C80000050080A2EE08ED00DC500F0002A00503A
:102C900005010D6F090E0D5D20E2010E025D02E1DE
:102CA000550E015D0EE3010E0501025D02E1DC0E31
:102CB000015D07E205010C417F0B006E00500C6FB7
:102CC00071D005010C417F0B006E00500C6F800E1F
:102CD0000C11006E00500C6F65D0080E0501006FDE
:102CE00061D005010C51E56EE3EC21F0E6520501DF
:102CF0000C6B020E006FF29A55D000C500F0005028
:102D0000016E01500FE00050010A15E00050030A67
:102D100019E00050050A01E139D000500A0A01E12A
:102D20003CD040D005010D51080A03E1010E050118
:102D3000006F819437D046EC0DF0030E0501006F53
:102D4000818430D00DC500F00004016E01500501F2
:102D50000D6F005015E0800E006E0D5105E0E86C1F
:102D6000D8900032010FFDE305010C510016005010
:102D700004E066EC07F0819403D046EC0DF081840A
:102D800005010D510FE1050E006F0CD066EC07F048
:102D90000A0E0501006F819405D066EC07F005016D
:102DA000006B8194F294A1AC76D0A0AC74D0B4AC9A
:102DB00070D0D6CF00F0016AD7CF02F0036A02507C
:102DC000056E046A045000100501476F055001109C
:102DD000486F818405014B510501475D006E050177
:102DE0004C5105014859016E00500501016F015019
:102DF000026F47C54BF548C54CF5010E025D02E177
:102E0000550E015D30E3010E0501025D02E1DC0EAD
:102E1000015D29E2050101510525006E02510621DF
:102E2000016E0050056F0150066F0051020A32E139
:102E3000030E0501065D02E1200E055D2BE3050191
:102E40004A51006E016A0050D76E4951D66E050195
:102E5000056B066B076B086B0D6B0C6B040E006F3C
:102E6000F294F28A17D005010051020A06E1050129
:102E7000056B066B076B086B0DD00501015107252B
:102E8000006E02510821016E0050076F0150086F5B
:102E900001D08194A19CE4CF05F0E4CF04F0E4CF0D
:102EA00003F0E4CF02F0E4CF01F0E4CF00F0E4CF90
:102EB000D9FFE4CFFBFFE4CFFAFFE4CFEAFFE4CF92
:102EC000E9FFE4CFF4FFE4CFF3FFE450E4CFE0FF09
:102ED000E4CFD8FF100050726F636573736F723A5E
:102EE00020706963313866323535300A0D00507212
:102EF0006F636573736F723A20706963313866323D
:102F00003535330A0D0050726F636573736F723A13
:102F100020756E737570706F727465642C206465B3
:102F2000766963652069643A203078253034780A00
:102F30000D000A0D7072657373207072696E7420D3
:102F40006F6E20746573746F0A0D00003C2D2000B5
:102F5000256420000A0D00002D3E2000426174749B
:102F60006572793A2025646D560A0D00D9CFE5FFC8
:102F7000E1CFD9FF00C0E5FF01C0E5FF02C0E5FFDA
:102F800003C0E5FF04C0E5FF05C0E5FF06C0E5FF9F
:102F900007C0E5FF08C0E5FF09C0E5FF0AC0E5FF7F
:102FA0000BC0E5FF0CC0E5FF0DC0E5FF0EC0E5FF5F
:102FB0000FC0E5FF10C0E5FF11C0E5FF12C0E5FF3F
:102FC00013C0E5FF14C0E5FF15C0E5FF16C0E5FF1F
:102FD00017C0E5FF18C0E5FF19C0E5FF1AC0E5FFFF
:102FE0001BC0E5FF1CC0E5FF1DC0E5FF1EC0E5FFDF
:102FF000020EDBCF00F0030EDBCF01F0040EDBCFBF
:1030000002F0050EDBCF03F0060EDBCF04F0070E57
:10301000DBCF05F0080EDBCF06F0090EDBCF07F0A3
:103020000A0EDBCF08F0096A0A6A02C00DF00D50E3
:10303000800A0DE102500501406F01503F6F0050C2
:103040003E6F050E016E3E0E006E800E026E03C0D6
:10305000E9FF04C0F3FF05505DEC29F00B6E0B5047
:10306000D8B472EF1BF00B50250A02E059EF1BF0A9
:103070000C6A0D6A0E6A0F6A106A0A0E116E126AE5
:10308000136A146A200E156E1668176A2B0E186ED6
:10309000032A02E3044A052A03C0E9FF04C0F3FF40
:1030A00005505DEC29F0196E250A13E11950E56E03
:1030B0000250E56E0150E56E0050E56E88EC23F09D
:1030C000040EE126094A0A2A032A02E3044A052AD1
:1030D000BED71950300A06E1300E156E032A02E3FE
:1030E000044A052A03C0E9FF04C0F3FF05505DEC64
:1030F00029F02D0A06E1010E146E032A02E3044AA8
:10310000052A03C0E9FF04C0F3FF05505DEC29F078
:10311000200A08E1010E176E200E186E032A02E342
:10312000044A052A03C0E9FF04C0F3FF05505DEC23
:1031300029F02B0A06E1010E176E032A02E3044A66
:10314000052A03C0E9FF04C0F3FF05505DEC29F038
:10315000196E800F4F0F2DE31950800F460F29E293
:1031600003C019F004C01AF005C01BF019C0E9FF34
:103170001AC0F3FF1B505DEC29F01C6E800F500F3E
:1031800012E31C50800F460F0EE213500A0DF3CFCE
:103190001DF01D501C26D00E1C24136E192A02E3AC
:1031A0001A4A1B2AE3D719C003F01AC004F01BC047
:1031B00005F003C0E9FF04C0F3FF05505DEC29F002
:1031C0002E0A2EE1032A02E3044A052A166A03C0E6
:1031D00019F004C01AF005C01BF019C0E9FF1AC0AD
:1031E000F3FF1B505DEC29F01C6E800F500F12E3B3
:1031F0001C50800F460F0EE216500A0DF3CF1DF043
:103200001D501C26D00E1C24166E192A02E31A4AE1
:103210001B2AE3D719C003F01AC004F01BC005F045
:1032200003C0E9FF04C0F3FF05505DEC29F0196EFF
:103230006C0A07E1010E0C6E032A02E3044A052A18
:1032400009D01950680A06E1010E0E6E032A02E346
:10325000044A052A03C0E9FF04C0F3FF05505DECF2
:1032600029F0750A06E1010E106E032A02E3044AF2
:10327000052A03C0E9FF04C0F3FF05505DEC29F007
:10328000196E730A05E1010E0D6E200E156E3FD00A
:103290001950780A03E1100E116E39D01950580AEE
:1032A00005E1100E116E010E126E31D01950630A35
:1032B00002E1116A2CD019506F0A03E1080E116E59
:1032C00026D01950660A03E1010E0F6E20D0195066
:1032D000640A1DE01950690A1AE0105005E0FF0E5B
:1032E00003260422052213D01950E56E0250E56E24
:1032F0000150E56E0050E56E88EC23F0040EE126E7
:10330000094A0A2A032A02E3044A052AA0D60D50D4
:1033100021E00650030F0D6E000E0720196E000EFF
:1033200008201A6E0DC006F019C007F01AC008F088
:10333000FD0E0D26FF0E19221A220DC0E9FF19C03D
:10334000F3FF1A5036EC28F00D6EF3CF19F0F4CFDE
:103350001AF000D10F500DE0000E1A6E370E196EE4
:103360006C0E0D6E040E0626000E0722082216684B
:10337000F1D016680C5023E00650040F0C6E000EBE
:1033800007200F6E000E08201B6E0CC006F00FC049
:1033900007F01BC008F0FC0E0C26FF0E0F221B22AC
:1033A0000CC0E9FF0FC0F3FF1B5081EC27F00C6E3F
:1033B000F3CF0FF0F4CF1BF0E9CF1CF06AD00E5022
:1033C00032E00650020F0E6E000E07201D6E000E3A
:1033D00008201E6E0EC006F01DC007F01EC008F0CB
:1033E000FE0E0E26FF0E1D221E220EC0E9FF1DC07E
:1033F000F3FF1E50F8EC28F00E6E0EC00CF0E86AD9
:103400000EBEFF0E0F6E1B6E1C6E11500A0A03E1FA
:103410001050D8B43ED00C500E6E0EC00CF00F6A97
:103420001B6A1C6A36D00650020F0E6E000E072073
:103430001D6E000E08201E6E0EC006F01DC007F0A7
:103440001EC008F0FE0E0E26FF0E1D221E220EC00C
:10345000E9FF1DC0F3FF1E50F8EC28F00E6EF3CF0D
:103460001DF00EC00CF01DC00FF0E86A1DBEFF0E6F
:103470001B6E1C6E11500A0A02E110500AE00C503B
:103480000E6E0F501D6E0EC00CF01DC00FF01B6AAB
:103490001C6A050E196E110E0D6E800E1A6E1150FB
:1034A000D8B440D0105013E01150E56E050EE56E13
:1034B000110EE56E1C50E56E1B50E56E0F50E56E6B
:1034C0000C50E56EDBEC1EF0070EE12612D0115019
:1034D000E56E050EE56E110EE56E1C50E56E1B5097
:1034E000E56E0F50E56E0C50E56ED7EC24F0070E3C
:1034F000E12617502FE00DC0E9FF19C0F3FF1A5065
:103500005DEC29F02D0A26E0FF0E0D2619221A2265
:1035100018C0E5FF0DC0E9FF19C0F3FF1A50E0EC39
:1035200029F018D00CC0E5FF0DC0E9FF19C0F3FF6A
:103530001A50E0EC29F00D50010F0C6E000E19200E
:103540000E6E000E1A20E56A0CC0E9FF0EC0F3FFF4
:10355000E0EC29F00DC00CF019C00EF01AC00FF00D
:1035600013C010F0105010E00CC0E9FF0EC0F3FFC4
:103570000F505DEC29F0176E175006E00C2A02E39D
:103580000E4A0F2A1006EED710C013F014501EE199
:1035900009C00CF00AC00EF010C00FF00F5010E080
:1035A0001550E56E0250E56E0150E56E0050E56E77
:1035B00088EC23F0040EE1260C4A0E2A0F06EED703
:1035C0000CC009F00EC00AF00FC013F016C00CF0CA
:1035D0000DC00DF019C00EF01AC00FF009C010F0A8
:1035E0000AC015F00DC0E9FF0EC0F3FF0F505DECEF
:1035F00029F0166E1650D8B43ED00CC016F0176ADB
:10360000161E171E1650171005E00CC016F00C06FB
:10361000165031E00DC0E9FF0EC0F3FF0F505DEC16
:1036200029F0116E125010E01150E56ECBEC28F02D
:10363000166EE652165004E01150166E169A02D01D
:1036400011C016F016C011F01150E56E0250E56E73
:103650000150E56E0050E56E88EC23F0040EE12683
:103660000D2A02E30E4A0F2A104A152A1350D8B425
:10367000B9D71306B7D710C009F015C00AF0145017
:103680002BE010C00CF015C00DF013C00EF00E5062
:103690001FE0200EE56E0250E56E0150E56E005011
:1036A000E56E88EC23F0040EE1260C4A0D2A0E0686
:1036B000EED70B50E56E0250E56E0150E56E0050FE
:1036C000E56E88EC23F0040EE126094A0A2A04D0AC
:1036D0000CC009F00DC00AF0032A02E3044A052ACF
:1036E00027EF18F00AC0F3FF0950E4CF1EF0E4CF33
:1036F0001DF0E4CF1CF0E4CF1BF0E4CF1AF0E4CFD0
:1037000019F0E4CF18F0E4CF17F0E4CF16F0E4CFCF
:1037100015F0E4CF14F0E4CF13F0E4CF12F0E4CFCF
:1037200011F0E4CF10F0E4CF0FF0E4CF0EF0E4CFCF
:103730000DF0E4CF0CF0E4CF0BF0E4CF0AF0E4CFCF
:1037400009F0E4CF08F0E4CF07F0E4CF06F0E4CFCF
:1037500005F0E4CF04F0E4CF03F0E4CF02F0E4CFCF
:1037600001F0E4CF00F0E4CFD9FF12003C4E4F202F
:10377000464C4F41543E0000D9CFE5FFE1CFD9FF81
:1037800000C0E5FF01C0E5FF02C0E5FF03C0E5FFA3
:1037900004C0E5FF05C0E5FF06C0E5FF07C0E5FF83
:1037A000800EE56E0A0EE56E060EE56E040EE56E01
:1037B00035EC26F0040EE126040EE56EFDEC27F054
:1037C000E6520AEC00F021EC2AF0006E0050FBE11A
:1037D000AFEC26F0006EF3CF01F00050400A03E199
:1037E0000150120A01E041D019EC2AF0026EF3CF29
:1037F00003F0E86A03BEFF0E046E056E0550E56E29
:103800000450E56E0350E56E0250E56E000EE56E65
:103810000C0EE56EB50EE56EE80EE56ED1EC1CF013
:10382000026EF3CF03F0F4CF04F0E9CF05F0080EF9
:10383000E126000EE56E010EE56E6D0EE56EA00E42
:10384000E56E0550E56E0450E56E0350E56E0250DE
:10385000E56E72EC22F0026EF3CF03F0F4CF04F0C9
:10386000E9CF05F0080EE12654D00050400A03E1EC
:1038700001502A0A01E04BD019EC2AF0006EF3CF78
:1038800001F0013401320032013401320032E86AC1
:1038900001BEFF0E046E056E0550E56E0450E56E28
:1038A0000150E56E0050E56E000EE56E0C0EE56E03
:1038B000B50EE56EE80EE56ED1EC1CF0006EF3CFB0
:1038C00001F0F4CF04F0E9CF05F0080EE126000E78
:1038D000E56E010EE56E6D0EE56EA00EE56E05500F
:1038E000E56E0450E56E0150E56E0050E56E72EC39
:1038F00022F0006EF3CF01F0F4CF04F0E9CF05F031
:10390000080EE1260050026E0150036E02D0026ADA
:10391000036A000E046E2F0E016E5C0E006E000E28
:10392000066E600E056E800E076E0350E56E025047
:10393000E56E0450E56E0150E56E0050E56E0750EF
:10394000E56E0650E56E0550E56EFEEC22F0080EC1
:10395000E126000E016E600E006E800E046E0450B3
:10396000E56E0150E56E0050E56E73EC26F0030E37
:10397000E1262CEC2AF003C0F3FF0250E4CF07F05D
:10398000E4CF06F0E4CF05F0E4CF04F0E4CF03F099
:10399000E4CF02F0E4CF01F0E4CF00F0E4CFD9FFB0
:1039A0001200D9CFE5FFE1CFD9FF00C0E5FF01C08C
:1039B000E5FF02C0E5FF03C0E5FF04C0E5FF05C069
:1039C000E5FF06C0E5FF07C0E5FF020EDBCF00F014
:1039D000030EDBCF01F0040EDBCF02F0050EDBCFD0
:1039E00003F0060EDBCF04F0070EDBCF05F0080E68
:1039F000DBCF06F0090EDBCF07F0005005012A6F80
:103A000001502B6F02502C6F03502D6F0450050195
:103A10002E6F05502F6F0650306F0750316F050124
:103A20002A5105013003F4CF01F0F3CF00F000502C
:103A30000501346F0150356F05012A5105012E0330
:103A4000F4CF01F0F3CF00F000500501326F0150C8
:103A5000336F05012D5105012E03F3CF00F0050151
:103A6000355100260050356F05012C5105012F03FB
:103A7000F3CF00F00501355100260050356F0501E8
:103A80002C5105012E03F4CF01F0F3CF00F0050116
:103A900034510026355101220050346F0150356FEA
:103AA00005012B5105012F03F4CF01F0F3CF00F0F6
:103AB000050134510026355101220050346F015068
:103AC000356F05012B5105013003F3CF00F0005095
:103AD0000501396F05012B5105012E03F4CF01F0CB
:103AE000F3CF00F000500501376F0150386F05012A
:103AF0002A5105013103F3CF00F0005005013D6F5D
:103B000005012A5105012F03F4CF01F0F3CF00F096
:103B1000005005013B6F01503C6F0501366B0501FC
:103B20003A6B0501365105013225006E050137510A
:103B300005013321016E0501385105013421026E62
:103B40000501395105013521036E0050326F0150D6
:103B5000336F0250346F0350356F05013A51050140
:103B60003225006E05013B5105013321016E05012F
:103B70003C5105013421026E05013D5105013521FD
:103B8000036E03C0E9FF02C0F4FF01C0F3FF005061
:103B9000E4CF07F0E4CF06F0E4CF05F0E4CF04F083
:103BA000E4CF03F0E4CF02F0E4CF01F0E4CF00F083
:103BB000E4CFD9FF1200D9CFE5FFE1CFD9FF00C094
:103BC000E5FF01C0E5FF02C0E5FF03C0E5FF04C05B
:103BD000E5FF05C0E5FF06C0E5FF07C0E5FF08C03B
:103BE000E5FF020EDBCF00F0030EDBCF01F0026A2F
:103BF000780E0014036E046A056A010E066E000E4C
:103C0000076E055006E0E86CD89006360736010FBF
:103C1000FCE30350061604500716065005E1075052
:103C200003E1066A062A01D0066A0650D880E866D3
:103C3000D890066A06360250076E06500718026EC4
:103C4000052A080E055CD9E30244FE0B036E026AE6
:103C5000E60E0014046E056A066A010E076E000E79
:103C6000086E065006E0E86CD89007360836010F5B
:103C7000FCE30450071605500816075005E10850EC
:103C800003E1076A072A01D0076A0750D880E8666F
:103C9000D890076A07360250086E07500818026E5F
:103CA000062A080E065CD9E302500312D8900336A8
:103CB000026AD50E0014046E056A066A010E076ECC
:103CC000000E086E065006E0E86CD89007360836FD
:103CD000010FFCE30450071605500816075005E1D4
:103CE000085003E1076A072A01D0076A0750D88005
:103CF000E866D890076A07360250086E0750081821
:103D0000026E062A080E065CD9E302500312D89010
:103D10000336026A8B0E0014046E056A066A010EF1
:103D2000076E000E086E065006E0E86CD890073665
:103D30000836010FFCE3045007160550081607501B
:103D400005E1085003E1076A072A01D0076A075016
:103D5000D880E866D890076A07360250086E075088
:103D60000818026E062A080E065CD9E302500312F8
:103D70000150006E016A026A0050031803E101500D
:103D8000021801E002D0010E01D0E86AE4CF08F089
:103D9000E4CF07F0E4CF06F0E4CF05F0E4CF04F081
:103DA000E4CF03F0E4CF02F0E4CF01F0E4CF00F081
:103DB000E4CFD9FF1200D9CFE5FFE1CFD9FF00C092
:103DC000E5FF01C0E5FF02C0E5FF03C0E5FF04C059
:103DD000E5FF05C0E5FF06C0E5FF07C0E5FF08C039
:103DE000E5FF09C0E5FF0AC0E5FF0BC0E5FF0CC019
:103DF000E5FF0DC0E5FF0EC0E5FF0FC0E5FF020EB9
:103E0000DBCF00F0030EDBCF01F0040EDBCF02F0BE
:103E1000050EDBCF03F0060EDBCF04F0070EDBCF81
:103E200005F0080EDBCF06F0200E076E086A06C00C
:103E300009F00A6A0B6A0C6AE56AE56AE56A0950E4
:103E4000E56E0350E56E0250E56E0150E56E0050E0
:103E5000E56E46EC21F00D6E080EE126300E0D26C3
:103E60003A0E0D5C05E30D500E6E270E0E240D6EFE
:103E7000FF0E07260822E00E07240E6E000E082013
:103E80000F6E0EC0E9FF0FC0EAFF0DC0EFFF0C5030
:103E9000E56E0B50E56E0A50E56E0950E56E035075
:103EA000E56E0250E56E0150E56E0050E56E72EC75
:103EB00022F0006EF3CF01F0F4CF02F0E9CF03F06F
:103EC000080EE1260050011002100310D8A4AFD74D
:103ED00007C000F008C001F004C002F005C003F004
:103EE00000C004F001C005F0004A012AE00E0426DB
:103EF000000E052204C0E9FF05C0EAFFEFCF04F081
:103F000002C0E9FF03C0EAFF04C0EFFF024A032A30
:103F1000000E015C02E1200E005CE2E302C0E9FF5A
:103F200003C0EAFF000EEF6AE4CF0FF0E4CF0EF01B
:103F3000E4CF0DF0E4CF0CF0E4CF0BF0E4CF0AF0C7
:103F4000E4CF09F0E4CF08F0E4CF07F0E4CF06F0C7
:103F5000E4CF05F0E4CF04F0E4CF03F0E4CF02F0C7
:103F6000E4CF01F0E4CF00F0E4CFD9FF1200D9CFC5
:103F7000E5FFE1CFD9FF00C0E5FF01C0E5FF02C0CA
:103F8000E5FF03C0E5FF04C0E5FF05C0E5FF06C08F
:103F9000E5FF020EDBCF00F0030EDBCF01F0040ED5
:103FA000DBCF02F0050EDBCF03F0060EDBCF04F013
:103FB0001AEC28F0056EF3CF06F00650045C02E11F
:103FC0000550035CD8B091D005014651056E066AD4
:103FD000000E065C02E1040E055CD8B084D0FA6ADB
:103FE000FB6A0534FA36E834FA36FC0BFC0FE56E52
:103FF0003F0EFA22000EFB22E450F96E06EF20F08D
:1040000022EF20F03EEF20F05AEF20F003500501A0
:104010004525056E04504621066E066A000E0526EB
:10402000070E062205C0E9FF06C0EAFFEFCF05F044
:1040300005C0E5FF00C0E9FF01C0F3FF0250E0EC5E
:1040400029F051D0035005014525056E0450462145
:10405000066E066A000E0526010E062205C0E9FF5F
:1040600006C0EAFFEFCF05F005C0E5FF00C0E9FF9D
:1040700001C0F3FF0250E0EC29F035D003500501F8
:104080004525056E04504621066E066A000E05267B
:10409000020E062205C0E9FF06C0EAFFEFCF05F0D9
:1040A00005C0E5FF00C0E9FF01C0F3FF0250E0ECEE
:1040B00029F019D005014551032646510422046A0E
:1040C000000E0326030E042203C0E9FF04C0EAFF2A
:1040D000EFCF03F003C0E5FF00C0E9FF01C0F3FF2D
:1040E0000250E0EC29F0010E01D0E86AE4CF06F0BE
:1040F000E4CF05F0E4CF04F0E4CF03F0E4CF02F026
:10410000E4CF01F0E4CF00F0E4CFD9FF1200D9CF23
:10411000E5FFE1CFD9FF00C0E5FF01C0E5FF02C028
:10412000E5FF03C0E5FF04C0E5FF020EDBCF00F0B2
:10413000030EDBCF01F0040EDBCF02F01AEC28F007
:10414000036EF3CF04F003500410D8B491D00501EE
:104150004651036E046A000E045C02E1040E035C27
:10416000D8B076D0FA6AFB6A0334FA36E834FA3605
:10417000FC0B820FE56E410EFA22000EFB22E4508A
:10418000F96EC9EF20F0E1EF20F0F9EF20F011EF28
:1041900021F005014551036E046A000E0326070E47
:1041A000042203C0E9FF04C0EAFFEFCF03F003C01D
:1041B000E5FF00C0E9FF01C0F3FF0250E0EC29F089
:1041C00047D005014551036E046A000E0326010E17
:1041D000042203C0E9FF04C0EAFFEFCF03F003C0ED
:1041E000E5FF00C0E9FF01C0F3FF0250E0EC29F059
:1041F0002FD005014551036E046A000E0326020EFE
:10420000042203C0E9FF04C0EAFFEFCF03F003C0BC
:10421000E5FF00C0E9FF01C0F3FF0250E0EC29F028
:1042200017D005014551036E046A000E0326030EE4
:10423000042203C0E9FF04C0EAFFEFCF03F003C08C
:10424000E5FF00C0E9FF01C0F3FF0250E0EC29F0F8
:104250000501453F01D0462B0501455103E146517B
:10426000040A01E003D00501456B466B010E01D045
:10427000E86AE4CF04F0E4CF03F0E4CF02F0E4CF47
:1042800001F0E4CF00F0E4CFD9FF1200D9CFE5FF71
:10429000E1CFD9FF00C0E5FF01C0E5FF02C0E5FFA7
:1042A00003C0E5FF04C0E5FF05C0E5FF06C0E5FF6C
:1042B00007C0E5FF08C0E5FF09C0E5FF0AC0E5FF4C
:1042C000020EDBCF00F0030EDBCF01F0040EDBCFDC
:1042D00002F0050EDBCF03F0060EDBCF04F0070E75
:1042E000DBCF05F0080EDBCF06F0090EDBCF07F0C1
:1042F000086A045005100610071005E1E968F46823
:10430000F368E86847D0096A0750800BE8440A6EF2
:104310000A501BE1045004260536063607360750BE
:10432000035C08E10650025C05E10550015C02E116
:104330000450005C06E2D89007320632053204329F
:1043400004D0092A09C008F0DFD70750035C08E150
:104350000650025C05E10550015C02E10450005C7E
:1043600008E30450005E0550015A0650025A0750F7
:10437000035AD890073206320532043208C009F0D9
:1043800008060950E2E103C0E9FF02C0F4FF01C0E2
:10439000F3FF0050E4CF0AF0E4CF09F0E4CF08F0D7
:1043A000E4CF07F0E4CF06F0E4CF05F0E4CF04F06B
:1043B000E4CF03F0E4CF02F0E4CF01F0E4CF00F06B
:1043C000E4CFD9FF1200D9CFE5FFE1CFD9FF00C07C
:1043D000E5FF01C0E5FF02C0E5FF020EDBCF00F004
:1043E0001AEC28F0016EF3CF02F0015004E1025004
:1043F000040A01E16DD005014451016E026A000E0C
:10440000025C02E1040E015CD8B052D0FA6AFB6A89
:104410000134FA36E834FA36FC0B2A0FE56E440E06
:10442000FA22000EFB22E450F96E1DEF22F02CEF71
:1044300022F03BEF22F04AEF22F005014351016EDA
:10444000026A000E0126070E022201C0E9FF02C027
:10445000EAFF00C0EFFF2CD005014351016E026A54
:10446000000E0126010E022201C0E9FF02C0EAFF90
:1044700000C0EFFF1DD005014351016E026A000E1E
:104480000126020E022201C0E9FF02C0EAFF00C0BD
:10449000EFFF0ED005014351016E026A000E0126A6
:1044A000030E022201C0E9FF02C0EAFF00C0EFFFD5
:1044B0000501433F01D0442B0501435103E1445121
:1044C000040A01E003D00501436B446B010E01D0E7
:1044D000E86AE4CF02F0E4CF01F0E4CF00F0E4CFEB
:1044E000D9FF1200D9CFE5FFE1CFD9FF00C0E5FF2A
:1044F00001C0E5FF02C0E5FF03C0E5FF04C0E5FF22
:1045000005C0E5FF06C0E5FF07C0E5FF08C0E5FF01
:1045100009C0E5FF0AC0E5FF0BC0E5FF0CC0E5FFE1
:104520000DC0E5FF020EDBCF00F0030EDBCF01F084
:10453000040EDBCF02F0050EDBCF03F0060EDBCF5F
:1045400004F0070EDBCF05F0080EDBCF06F0090EF6
:10455000DBCF07F0086A096A0A6A0B6A200E0C6E44
:104560000350800BE8440D6E0050002601360236E1
:1045700003360850082609360A360B360D50D8A4E3
:10458000088007500B5C08E106500A5C05E1055005
:10459000095C02E10450085C09E30450085E055020
:1045A000095A06500A5A07500B5A00800C2ED8D7C9
:1045B00003C0E9FF02C0F4FF01C0F3FF0050E4CFE5
:1045C0000DF0E4CF0CF0E4CF0BF0E4CF0AF0E4CF31
:1045D00009F0E4CF08F0E4CF07F0E4CF06F0E4CF31
:1045E00005F0E4CF04F0E4CF03F0E4CF02F0E4CF31
:1045F00001F0E4CF00F0E4CFD9FF1200D9CFE5FFFE
:10460000E1CFD9FF00C0E5FF01C0E5FF02C0E5FF33
:1046100003C0E5FF04C0E5FF05C0E5FF050ED92492
:10462000006E000EDA20016E800E026E030E002670
:10463000000E0122022206C0E5FF07C0E5FF08C008
:10464000E5FF020EDBCF06F0030EDBCF07F0040E12
:10465000DBCF08F00850056E0750046E0650036E5D
:10466000E4CF08F0E4CF07F0E4CF06F00250E56EA7
:104670000150E56E0050E56E070EDBCFE5FF060E3C
:10468000DBCFE5FF050EDBCFE5FF0550E56E0450FF
:10469000E56E0350E56EB6EC17F0006EF3CF01F057
:1046A000090EE12606C0E5FF07C0E5FF08C0E5FFEB
:1046B000020EDBCF06F0030EDBCF07F0040EDBCFDC
:1046C00008F000500624026E01500720036EE86ACD
:1046D0000820E4CF08F0E4CF07F0E4CF06F0E56A65
:1046E00002C0E9FF03C0F3FFE0EC29F001C0F3FFD3
:1046F0000050E4CF05F0E4CF04F0E4CF03F0E4CFC2
:1047000002F0E4CF01F0E4CF00F0E4CFD9FF1200D3
:10471000D9CFE5FFE1CFD9FF00C0E5FF01C0E5FF3C
:1047200002C0E5FF03C0E5FF04C0E5FF05C0E5FFEB
:1047300006C0E5FF07C0E5FF020EDBCF00F0030E69
:10474000DBCF01F0040EDBCF02F0050EDBCF03F070
:1047500002C006F00650046E800A33E100C0E9FF93
:1047600001C0F3FF025036EC28F0056EF3CF06F0DF
:10477000F4CF07F003C0E5FF05C0E9FF06C0F3FF73
:104780000750E0EC29F000C0E9FF01C0F3FF025040
:1047900036EC28F0056EF3CF06F0F4CF07F0052ACB
:1047A00002E3064A072A05C0E5FF06C0F4FF07C07A
:1047B000F6FF00C0E9FF01C0F3FF02508EEC29F0C4
:1047C0001DD004AA1BD0047A045004E1035006EC67
:1047D00000F014D00450010A04E1035002EC00F090
:1047E0000DD004500F0A04E103503BEC2AF006D030
:1047F00004500E0A03E1035029EC2AF0E4CF07F03D
:10480000E4CF06F0E4CF05F0E4CF04F0E4CF03F00A
:10481000E4CF02F0E4CF01F0E4CF00F0E4CFD9FF21
:104820001200D9CFE5FFE1CFD9FF8186000000005B
:104830000000000000000000000000000000000078
:104840000000000000000000000000000000000068
:104850000000000000000000000000000000000058
:104860000000000000000000000000000000000048
:104870000000000000000000000000000000000038
:104880000000000000008196000000000000000011
:104890000000000000000000000000000000000018
:1048A0000000000000000000000000000000000008
:1048B00000000000000000000000000000000000F8
:1048C00000000000000000000000000000000000E8
:1048D00000000000000000000000000000000000D8
:1048E0000000E4CFD9FF1200D9CFE5FFE1CFD9FF17
:1048F00081840000000000000000000000000000B3
:1049000000000000000000000000000000000000A7
:104910000000000000000000000000000000000097
:104920000000000000000000000000000000000087
:104930000000000000000000000000000000000077
:104940000000000000000000000000008194000052
:104950000000000000000000000000000000000057
:104960000000000000000000000000000000000047
:104970000000000000000000000000000000000037
:104980000000000000000000000000000000000027
:104990000000000000000000000000000000000017
:1049A0000000000000000000E4CFD9FF1200D9CFC2
:1049B000E5FFE1CFD9FF00C0E5FF01C0E5FF02C080
:1049C000E5FF03C0E5FF04C0E5FF05C0E5FF06C045
:1049D000E5FF020EDBCF00F0030EDBCF01F0040E8B
:1049E000DBCF02F0050EDBCF03F0060EDBCF04F0C9
:1049F000070EDBCF05F0080EDBCF06F0D88003AE44
:104A0000D89015E306500A0A12E104C0E9FF05C078
:104A1000EAFF2D0EEF6E044A052A031E021E011E38
:104A2000006C05E1012A03E1022AD8B4032A0650EA
:104A3000E56E0550E56E0450E56E0350E56E0250DC
:104A4000E56E0150E56E0050E56EDBEC1EF0070EE2
:104A5000E126E4CF06F0E4CF05F0E4CF04F0E4CFA4
:104A600003F0E4CF02F0E4CF01F0E4CF00F0E4CFB4
:104A7000D9FF1200D8CFE5FFE0CFE5FFE56EF3CF19
:104A8000E5FFF4CFE5FFE9CFE5FFEACFE5FFFACF99
:104A9000E5FFFBCFE5FFD9CFE5FFE1CFD9FF00C0B0
:104AA000E5FF01C0E5FF9EA024D0F80ECF6E530EA7
:104AB000CE6E4DC500F00050016E015004E0005074
:104AC000010A06E011D08188010E05014D6F0CD05E
:104AD0004EC500F00004016E015005014E6F0050FC
:104AE00003E18198020E4D6F0501413F01D0422B39
:104AF0009E9025EC2AF0006E005006E023EC29F091
:104B0000006E005009EC2AF0E4CF01F0E4CF00F091
:104B1000E4CFD9FFE4CFFBFFE4CFFAFFE4CFEAFF15
:104B2000E4CFE9FFE4CFF4FFE4CFF3FFE450E4CFB8
:104B3000E0FFE4CFD8FF1000D9CFE5FFE1CFD9FFE8
:104B400000C0E5FF01C0E5FF02C0E5FF03C0E5FFCF
:104B500004C0E5FF05C0E5FF06C0E5FF07C0E5FFAF
:104B6000020EDBCF00F0030EDBCF01F041C502F0F7
:104B700042C503F00250FF08046EFF0E0354056E99
:104B800003500501425D02E10250415D08E302501D
:104B90000501415D066E03504259076E07D00501BD
:104BA00041510424066E42510520076E0150075CF6
:104BB00002E10050065CE4E3E4CF07F0E4CF06F046
:104BC000E4CF05F0E4CF04F0E4CF03F0E4CF02F04B
:104BD000E4CF01F0E4CF00F0E4CFD9FF1200D9CF49
:104BE000E5FFE1CFD9FF00C0E5FF01C0E5FF02C04E
:104BF000E5FF03C0E5FF020EDBCF00F000407F0BB6
:104C0000016E550E01160044FE0B026EAA0E02162E
:104C1000025001120040E8403F0B026E330E0216B4
:104C20000044E844FC0B036ECC0E03160350021242
:104C30000250011200380F0B026E0F0E02160038E0
:104C4000F00B036EF00E0314006E005002120250BF
:104C500001120150E4CF03F0E4CF02F0E4CF01F001
:104C6000E4CF00F0E4CFD9FF1200D9CFE5FFE1CFC8
:104C7000D9FF00C0E5FF01C0E5FF02C0E5FF03C0AA
:104C8000E5FF020EDBCF00F0030EDBCF01F0040ED8
:104C9000DBCF02F0050EDBCF03F0C26A0F0E001669
:104CA0000044E844FC0BC26E3F0E0216300E0314A3
:104CB0000210C16E800E0314006E3F0E01160150EB
:104CC0000010C06E03AC03D09E9C9D8CF28CC28001
:104CD000E4CF03F0E4CF02F0E4CF01F0E4CF00F042
:104CE000E4CFD9FF1200D9CFE5FFE1CFD9FF00C053
:104CF000E5FF01C0E5FF02C0E5FF03C0E5FF020ECE
:104D0000DBCF00F0030EDBCF01F0040EDBCF02F0AF
:104D10001DEC2AF0036E0350FBE100C0E9FF01C067
:104D2000F3FF02505DEC29F009EC2AF000C0E9FF26
:104D300001C0F3FF02505DEC29F0036E002A02E38C
:104D4000014A022A0350E4E1E4CF03F0E4CF02F089
:104D5000E4CF01F0E4CF00F0E4CFD9FF1200D9CFC7
:104D6000E5FFE1CFD9FF00C0E5FF01C0E5FF02C0CC
:104D7000E5FF03C0E5FF04C0E5FF05C0E5FF3F0E0A
:104D8000F86EFF0EF76EFE0EF66E0900F5CF00F01E
:104D90000900F5CF01F0026A0150046E036A056A4A
:104DA0000050032605500422E00E031604C0F3FF52
:104DB0000350E4CF05F0E4CF04F0E4CF03F0E4CFF8
:104DC00002F0E4CF01F0E4CF00F0E4CFD9FF12000D
:104DD000D9CFE5FFE1CFD9FF020E0501006F0A6BC5
:104DE0000B6B9F0E0501496FF90E4A6F060E050108
:104DF000526FD58ED590D592D594D59CD59AD5861F
:104E0000F184F29AB588B598B59AB550F00B0909B6
:104E1000B56EB59CB58EB450F80B0609B46EB49659
:104E2000B488A28CA08CE4CFD9FF1200D9CFE5FFC3
:104E3000E1CFD9FF92809282938093988198939248
:104E40008192928A93948194939681969398819873
:104E500094928292948E949CCD80CD8ECD92CD965C
:104E6000CD98CD9A9F909D809E80D08EF298F18CA7
:104E7000F28CF28E9F9A9F980EEC29F0E4CFD9FF26
:104E80001200D9CFE5FFE1CFD9FF020EDBCF49F504
:104E9000030EDBCF4AF5020E05011D6F206B040ED9
:104EA0000501526FD59ED590D592D594D59CD59AB3
:104EB000D586F184F28AF294F288F18CE4CFD9FF9E
:104EC0001200D9CFE5FFE1CFD9FF020EDBCF49F5C4
:104ED000030EDBCF4AF5020E05011D6F206B020E9B
:104EE0000501526FD59ED590D592D594D59CD59A73
:104EF000D586F184F28AF294F288F18CE4CFD9FF5E
:104F00001200E8AE0AD0F3CFEAFFEE50EECFF3FF87
:104F1000EECFF4FFEECFE9FF1200E8BC37EF2AF046
:104F2000E9CFF6FFF3CFF7FFF86E0900F55009005F
:104F3000F5CFF3FF0900F5CFF4FF0900F5CFE9FF46
:104F40001200D9CFE5FFE1CFD9FF020EDBCF49F543
:104F5000030EDBCF4AF505011D6B206B8192050E18
:104F60000501526FD59ED590D592D594D59CD59AF2
:104F7000D586F184F28AF294D59EE4CFD9FF12004F
:104F8000D9CFE5FFE1CFD9FF020EDBCF49F5030E04
:104F9000DBCF4AF505011D6B206B8192030E0501E5
:104FA000526FD59ED590D592D594D59CD59AD5865D
:104FB000F184F28AF294D59EE4CFD9FF1200D9CFC2
:104FC000E5FFE1CFD9FF0501246B266B230E050118
:104FD000496FF30E4A6F010E0501526FD59ED590B1
:104FE000D592D594D59CD59AD586F184F28AF2943F
:104FF000F288F18CE4CFD9FF1200D9CFE5FFE1CFE1
:10500000D9FF00C0E5FF01C0E5FF020EDBCF00F0D5
:10501000C250016EC30E01160F0E00160044E84484
:10502000FC0B0110C26EE4CF01F0E4CF00F0E4CF3E
:10503000D9FF1200D9CFE5FFE1CFD9FF00C0E5FFCE
:1050400001C0E5FF050145510501435D006E050105
:10505000465105014459016E01C0F3FF0050E4CFF1
:1050600001F0E4CF00F0E4CFD9FF1200E8AE08D0A1
:10507000F3CFEAFFEE50EECFF3FFEECFF4FF1200D6
:10508000E8BC35EF2AF0E9CFF6FFF3CFF7FFF86E73
:105090000900F5500900F5CFF3FF0900F5CFF4FF43
:1050A0001200D9CFE5FFE1CFD9FF9F0E0501496F6F
:1050B000F90E4A6F0501006B070E0501526FD58E80
:1050C000D590D592D594D59CD59AD586F184F28A7F
:1050D000E4CFD9FF1200D9CFE5FFE1CFD9FF00C05F
:1050E000E5FF020EDBCF00F0005005011F6F070E39
:1050F000206FD58EF28405012051FDE1E4CF00F050
:10510000E4CFD9FF1200D9CFE5FFE1CFD9FF00C02E
:10511000E5FF020EDBCF00F0005005011F6F080E07
:10512000206FD58EF28405012051FDE1E4CF00F01F
:10513000E4CFD9FF1200F2CFEAFFF29EA69EA69C12
:10514000A684E9CFA9FFE4CFA8FF11EC2AF0F4CFA1
:10515000A8FF11EC2AF0F6CFA8FF11EC2AF0A694D4
:10516000EABEF28E1200F2CFF6FFF29EA69EA69C39
:10517000E9CFA9FFA680A850A92AA680A8CFF3FF4F
:10518000A92AA680A8CFF4FFA92AA680A8CFEAFF63
:10519000F6BEF28E1200D9CFE5FFE1CFD9FF00C0F5
:1051A000E5FF020EDBCF00F0610E005C05E37B0E35
:1051B000005C02E2010E01D0E86AE4CF00F0E4CF27
:1051C000D9FF1200D9CFE5FFE1CFD9FF00C0E5FF3D
:1051D000020EDBCF00F0005005010C6F080E0D6FC2
:1051E00005010D51FDE1E4CF00F0E4CFD9FF12003D
:1051F000E8AE06D0F3CFEAFFEE50EECFF3FF120099
:10520000E8BC33EF2AF0E9CFF6FFF3CFF7FFF86EF3
:105210000900F5500900F5CFF3FF1200D9CFE5FFE3
:10522000E1CFD9FF670EAF6EAC84AC98B886AB8E79
:105230009D989F989D8A9F9AAC9CAB9CAB88AC8AAA
:10524000E4CFD9FF1200F00E05015315536FABAC3C
:1052500004D05391ABA001D05381ABA402D005017F
:105260005385ABA202D005015387AE501200F2CF96
:10527000F6FFF29EA69EA69CE9CFA9FFA680A850A5
:10528000A92AA680A8CFF3FFA92AA680A8CFF4FF59
:10529000F6BEF28E1200D9CFE5FFE1CFD9FF00C0F4
:1052A000E5FF020EDBCF00F0005005014E6F4D6BA5
:1052B000E4CF00F0E4CFD9FF1200E8AE04D0F3CF82
:1052C000EAFFEE501200E8BC31EF2AF0E9CFF6FF1A
:1052D000F3CFF7FFF86E0900F5501200F2CFEAFFA6
:1052E000F29EA69EA69CA684E9CFA9FFE4CFA8FFC4
:1052F00011EC2AF0A694EABEF28E1200F2CFF6FF6D
:10530000F29EA69EA69CE9CFA9FFA680A850A92A36
:10531000A680A8CFF3FFF6BEF28E1200E8AE09D049
:10532000F3CFEAFFE4CFEEFFF4CFEEFFF6CFEEFFD0
:105330001200E8BC39EF2AF01200F2CFF6FFF29E1D
:10534000A69EA69CE9CFA9FFA680A850F6BEF28E25
:105350001200D9CFE5FFE1CFD9FF0501526BD59EF1
:10536000A08CE4CFD9FF1200D9CFE5FFE1CFD9FF60
:10537000F2980501526BD59EE4CFD9FF1200D9CF28
:10538000E5FFE1CFD9FF0501526B8192D59EE4CFB5
:10539000D9FF1200D9CFE5FFE1CFD9FFF29805017F
:1053A000526BD59EE4CFD9FF1200D9CFE5FFE1CFF4
:1053B000D9FF0501526B8192D59EE4CFD9FF12002F
:1053C000E8AE05D0F3CFEAFFE4CFEEFF1200E8BC71
:1053D0002FEF2AF01200D9CFE5FFE1CFD9FFA09C33
:1053E0000501526BE4CFD9FF1200D9CFE5FFE1CF21
:1053F000D9FF0501526BF298E4CFD9FF120014EEE9
:10540000FFF024EEFFF0F86AA68EA69C0EEC00F0EA
:10541000FFD7ACAC04D0AC90050153B3AC80AD6EFB
:105420001200550EA76EAA0EA76EA682A6B2FED7D0
:10543000A94AC4CFF3FFC3501200000EACA2010F63
:105440001200000EC2B2010F1200000E9EBA010F30
:105450001200E8CF7FFF1200C2909D9C12006EEFF9
:1054600029F09DEF29F07EEF29F037EF29F0B3EF17
:0854700028F09BEF28F0120068
:020000040030CA
:04000000010A191EBA
:020005008185F3
:060008000FC00FE00F40E5
:00000001FF
