:020000040000FA
:10000000FBEF17F0C0EF17F091EF0BF0000EACA272
:10001000010F1200D0EF17F0EBEF14F0D9CFE5FF8E
:10002000E1CFD9FF82820000000000000000000044
:1000300000000000000000000000000000000000C0
:1000400000000000000000000000000000000000B0
:1000500000000000000000000000000000000000A0
:100060000000000000000000000000000000000090
:100070000000000000000000000000000000000080
:100080000000000000000000000000000000000070
:100090000000000000000000000000000000000060
:1000A0000000000000000000000000000000000050
:1000B0000000000000000000000000000000000040
:1000C0000000000000000000000000000000000030
:1000D0000000000000000000000000000000000020
:1000E0000000000000000000000000000000000010
:1000F0000000000000000000000000000000000000
:1001000000000000000000000000000000000000EF
:1001100000000000000000000000000000000000DF
:1001200000000000000000000000000000000000CF
:1001300000000000829200000000000000000000AB
:1001400000000000000000000000000000000000AF
:10015000000000000000000000000000000000009F
:10016000000000000000000000000000000000008F
:10017000000000000000000000000000000000007F
:10018000000000000000000000000000000000006F
:10019000000000000000000000000000000000005F
:1001A000000000000000000000000000000000004F
:1001B000000000000000000000000000000000003F
:1001C000000000000000000000000000000000002F
:1001D000000000000000000000000000000000001F
:1001E000000000000000000000000000000000000F
:1001F00000000000000000000000000000000000FF
:1002000000000000000000000000000000000000EE
:1002100000000000000000000000000000000000DE
:1002200000000000000000000000000000000000CE
:1002300000000000000000000000000000000000BE
:1002400000000000828200000000000000000000AA
:10025000000000000000000000000000000000009E
:10026000000000000000000000000000000000008E
:10027000000000000000000000000000000000007E
:10028000000000000000000000000000000000006E
:10029000000000000000000000000000000000005E
:1002A000000000000000000000000000000000004E
:1002B000000000000000000000000000000000003E
:1002C000000000000000000000000000000000002E
:1002D000000000000000000000000000000000001E
:1002E000000000000000000000000000000000000E
:1002F00000000000000000000000000000000000FE
:1003000000000000000000000000000000000000ED
:1003100000000000000000000000000000000000DD
:1003200000000000000000000000000000000000CD
:1003300000000000000000000000000000000000BD
:1003400000000000000000000000000000000000AD
:100350000000000082920000000000000000000089
:10036000000000000000000000000000000000008D
:10037000000000000000000000000000000000007D
:10038000000000000000000000000000000000006D
:10039000000000000000000000000000000000005D
:1003A000000000000000000000000000000000004D
:1003B000000000000000000000000000000000003D
:1003C000000000000000000000000000000000002D
:1003D000000000000000000000000000000000001D
:1003E000000000000000000000000000000000000D
:1003F00000000000000000000000000000000000FD
:1004000000000000000000000000000000000000EC
:1004100000000000000000000000000000000000DC
:1004200000000000000000000000000000000000CC
:1004300000000000000000000000000000000000BC
:1004400000000000000000000000000000000000AC
:10045000000000000000000000000000000000009C
:100460000000000082820000000000000000000088
:10047000000000000000000000000000000000007C
:10048000000000000000000000000000000000006C
:10049000000000000000000000000000000000005C
:1004A000000000000000000000000000000000004C
:1004B000000000000000000000000000000000003C
:1004C000000000000000000000000000000000002C
:1004D000000000000000000000000000000000001C
:1004E000000000000000000000000000000000000C
:1004F00000000000000000000000000000000000FC
:1005000000000000000000000000000000000000EB
:1005100000000000000000000000000000000000DB
:1005200000000000000000000000000000000000CB
:1005300000000000000000000000000000000000BB
:1005400000000000000000000000000000000000AB
:10055000000000000000000000000000000000009B
:10056000000000000000000000000000000000008B
:100570000000000082920000000000000000000067
:10058000000000000000000000000000000000006B
:10059000000000000000000000000000000000005B
:1005A000000000000000000000000000000000004B
:1005B000000000000000000000000000000000003B
:1005C000000000000000000000000000000000002B
:1005D000000000000000000000000000000000001B
:1005E000000000000000000000000000000000000B
:1005F00000000000000000000000000000000000FB
:1006000000000000000000000000000000000000EA
:1006100000000000000000000000000000000000DA
:1006200000000000000000000000000000000000CA
:1006300000000000000000000000000000000000BA
:1006400000000000000000000000000000000000AA
:10065000000000000000000000000000000000009A
:10066000000000000000000000000000000000008A
:10067000000000000000000000000000000000007A
:100680000000000082820000000000000000000066
:10069000000000000000000000000000000000005A
:1006A000000000000000000000000000000000004A
:1006B000000000000000000000000000000000003A
:1006C000000000000000000000000000000000002A
:1006D000000000000000000000000000000000001A
:1006E000000000000000000000000000000000000A
:1006F00000000000000000000000000000000000FA
:1007000000000000000000000000000000000000E9
:1007100000000000000000000000000000000000D9
:1007200000000000000000000000000000000000C9
:1007300000000000000000000000000000000000B9
:1007400000000000000000000000000000000000A9
:100750000000000000000000000000000000000099
:100760000000000000000000000000000000000089
:100770000000000000000000000000000000000079
:100780000000000000000000000000000000000069
:100790000000000082920000000000000000000045
:1007A0000000000000000000000000000000000049
:1007B0000000000000000000000000000000000039
:1007C0000000000000000000000000000000000029
:1007D0000000000000000000000000000000000019
:1007E0000000000000000000000000000000000009
:1007F00000000000000000000000000000000000F9
:1008000000000000000000000000000000000000E8
:1008100000000000000000000000000000000000D8
:1008200000000000000000000000000000000000C8
:1008300000000000000000000000000000000000B8
:1008400000000000000000000000000000000000A8
:100850000000000000000000000000000000000098
:100860000000000000000000000000000000000088
:100870000000000000000000000000000000000078
:100880000000000000000000000000000000000068
:100890000000000000000000000000000000000058
:1008A0000000000082820000000000000000000044
:1008B0000000000000000000000000000000000038
:1008C0000000000000000000000000000000000028
:1008D0000000000000000000000000000000000018
:1008E0000000000000000000000000000000000008
:1008F00000000000000000000000000000000000F8
:1009000000000000000000000000000000000000E7
:1009100000000000000000000000000000000000D7
:1009200000000000000000000000000000000000C7
:1009300000000000000000000000000000000000B7
:1009400000000000000000000000000000000000A7
:100950000000000000000000000000000000000097
:100960000000000000000000000000000000000087
:100970000000000000000000000000000000000077
:100980000000000000000000000000000000000067
:100990000000000000000000000000000000000057
:1009A0000000000000000000000000000000000047
:1009B0000000000082920000000000000000000023
:1009C0000000000000000000000000000000000027
:1009D0000000000000000000000000000000000017
:1009E0000000000000000000000000000000000007
:1009F00000000000000000000000000000000000F7
:100A000000000000000000000000000000000000E6
:100A100000000000000000000000000000000000D6
:100A200000000000000000000000000000000000C6
:100A300000000000000000000000000000000000B6
:100A400000000000000000000000000000000000A6
:100A50000000000000000000000000000000000096
:100A60000000000000000000000000000000000086
:100A70000000000000000000000000000000000076
:100A80000000000000000000000000000000000066
:100A90000000000000000000000000000000000056
:100AA0000000000000000000000000000000000046
:100AB0000000000000000000000000000000000036
:100AC0000000000082820000000000000000000022
:100AD0000000000000000000000000000000000016
:100AE0000000000000000000000000000000000006
:100AF00000000000000000000000000000000000F6
:100B000000000000000000000000000000000000E5
:100B100000000000000000000000000000000000D5
:100B200000000000000000000000000000000000C5
:100B300000000000000000000000000000000000B5
:100B400000000000000000000000000000000000A5
:100B50000000000000000000000000000000000095
:100B60000000000000000000000000000000000085
:100B70000000000000000000000000000000000075
:100B80000000000000000000000000000000000065
:100B90000000000000000000000000000000000055
:100BA0000000000000000000000000000000000045
:100BB0000000000000000000000000000000000035
:100BC0000000000000000000000000000000000025
:100BD000000000008292E4CFD9FF1200D9CFE5FFD8
:100BE000E1CFD9FF82820000000000000000000079
:100BF00000000000000000000000000000000000F5
:100C000000000000000000000000000000000000E4
:100C100000000000000000000000000000000000D4
:100C200000000000000000000000000000000000C4
:100C300000000000000000000000000000000000B4
:100C400000000000000000000000000000000000A4
:100C50000000000000000000000000000000000094
:100C60000000000000000000000000000000000084
:100C70000000000000000000000000000000000074
:100C80000000000000000000000000000000000064
:100C90000000000000000000000000000000000054
:100CA0000000000000000000000000000000000044
:100CB0000000000000000000000000000000000034
:100CC0000000000000000000000000000000000024
:100CD0000000000000000000000000000000000014
:100CE0000000000000000000000000000000000004
:100CF00000000000000000000000000000000000F4
:100D000000000000000000000000000000000000E3
:100D100000000000000000000000000000000000D3
:100D200000000000000000000000000000000000C3
:100D300000000000000000000000000000000000B3
:100D400000000000000000000000000000000000A3
:100D50000000000000000000000000000000000093
:100D60000000000000000000000000000000000083
:100D7000000000000000000000000000000082925F
:100D80000000000000000000000000000000000063
:100D90000000000000000000000000000000000053
:100DA0000000000000000000000000000000000043
:100DB0000000000000000000000000000000000033
:100DC0000000000000000000000000000000000023
:100DD0000000000000000000000000000000000013
:100DE0000000000000000000000000000000000003
:100DF00000000000000000000000000000000000F3
:100E000000000000000000000000000000000000E2
:100E100000000000000000000000000000000000D2
:100E200000000000000000000000000000000000C2
:100E300000000000000000000000000000000000B2
:100E400000000000000000000000000000000000A2
:100E50000000000000000000000000000000000092
:100E60000000000000000000000000000000000082
:100E70000000000000000000000000000000000072
:100E80000000000000000000000000000000000062
:100E90000000000000000000000000000000000052
:100EA0000000000000000000000000000000000042
:100EB0000000000000000000000000000000000032
:100EC0000000000000000000000000000000000022
:100ED0000000000000000000000000000000000012
:100EE0000000000000000000000000000000000002
:100EF00000000000000000000000000000000000F2
:100F000000000000000000000000000000000000E1
:100F100000000000000000008282000000000000CD
:100F200000000000000000000000000000000000C1
:100F300000000000000000000000000000000000B1
:100F400000000000000000000000000000000000A1
:100F50000000000000000000000000000000000091
:100F60000000000000000000000000000000000081
:100F70000000000000000000000000000000000071
:100F80000000000000000000000000000000000061
:100F90000000000000000000000000000000000051
:100FA0000000000000000000000000000000000041
:100FB0000000000000000000000000000000000031
:100FC0000000000000000000000000000000000021
:100FD0000000000000000000000000000000000011
:100FE0000000000000000000000000000000000001
:100FF00000000000000000000000000000000000F1
:1010000000000000000000000000000000000000E0
:1010100000000000000000000000000000000000D0
:1010200000000000000000000000000000000000C0
:1010300000000000000000000000000000000000B0
:1010400000000000000000000000000000000000A0
:101050000000000000000000000000000000000090
:101060000000000000000000000000000000000080
:101070000000000000000000000000000000000070
:101080000000000000000000000000000000000060
:101090000000000000000000000000000000000050
:1010A0000000000000000000000000000000000040
:1010B000000082920000000000000000000000001C
:1010C0000000000000000000000000000000000020
:1010D0000000000000000000000000000000000010
:1010E0000000000000000000000000000000000000
:1010F00000000000000000000000000000000000F0
:1011000000000000000000000000000000000000DF
:1011100000000000000000000000000000000000CF
:1011200000000000000000000000000000000000BF
:1011300000000000000000000000000000000000AF
:10114000000000000000000000000000000000009F
:10115000000000000000000000000000000000008F
:10116000000000000000000000000000000000007F
:10117000000000000000000000000000000000006F
:10118000000000000000000000000000000000005F
:10119000000000000000000000000000000000004F
:1011A000000000000000000000000000000000003F
:1011B000000000000000000000000000000000002F
:1011C000000000000000000000000000000000001F
:1011D000000000000000000000000000000000000F
:1011E00000000000000000000000000000000000FF
:1011F00000000000000000000000000000000000EF
:1012000000000000000000000000000000000000DE
:1012100000000000000000000000000000000000CE
:1012200000000000000000000000000000000000BE
:1012300000000000000000000000000000000000AE
:10124000000000000000000000000000828200009A
:10125000000000000000000000000000000000008E
:10126000000000000000000000000000000000007E
:10127000000000000000000000000000000000006E
:10128000000000000000000000000000000000005E
:10129000000000000000000000000000000000004E
:1012A000000000000000000000000000000000003E
:1012B000000000000000000000000000000000002E
:1012C000000000000000000000000000000000001E
:1012D000000000000000000000000000000000000E
:1012E00000000000000000000000000000000000FE
:1012F00000000000000000000000000000000000EE
:1013000000000000000000000000000000000000DD
:1013100000000000000000000000000000000000CD
:1013200000000000000000000000000000000000BD
:1013300000000000000000000000000000000000AD
:10134000000000000000000000000000000000009D
:10135000000000000000000000000000000000008D
:10136000000000000000000000000000000000007D
:10137000000000000000000000000000000000006D
:10138000000000000000000000000000000000005D
:10139000000000000000000000000000000000004D
:1013A000000000000000000000000000000000003D
:1013B000000000000000000000000000000000002D
:1013C000000000000000000000000000000000001D
:1013D000000000000000000000000000000000000D
:1013E00000000000000082920000000000000000E9
:1013F00000000000000000000000000000000000ED
:1014000000000000000000000000000000000000DC
:1014100000000000000000000000000000000000CC
:1014200000000000000000000000000000000000BC
:1014300000000000000000000000000000000000AC
:10144000000000000000000000000000000000009C
:10145000000000000000000000000000000000008C
:10146000000000000000000000000000000000007C
:10147000000000000000000000000000000000006C
:10148000000000000000000000000000000000005C
:10149000000000000000000000000000000000004C
:1014A000000000000000000000000000000000003C
:1014B000000000000000000000000000000000002C
:1014C000000000000000000000000000000000001C
:1014D000000000000000000000000000000000000C
:1014E00000000000000000000000000000000000FC
:1014F00000000000000000000000000000000000EC
:1015000000000000000000000000000000000000DB
:1015100000000000000000000000000000000000CB
:1015200000000000000000000000000000000000BB
:1015300000000000000000000000000000000000AB
:10154000000000000000000000000000000000009B
:10155000000000000000000000000000000000008B
:10156000000000000000000000000000000000007B
:10157000000000000000000000000000000000006B
:101580008282000000000000000000000000000057
:10159000000000000000000000000000000000004B
:1015A000000000000000000000000000000000003B
:1015B000000000000000000000000000000000002B
:1015C000000000000000000000000000000000001B
:1015D000000000000000000000000000000000000B
:1015E00000000000000000000000000000000000FB
:1015F00000000000000000000000000000000000EB
:1016000000000000000000000000000000000000DA
:1016100000000000000000000000000000000000CA
:1016200000000000000000000000000000000000BA
:1016300000000000000000000000000000000000AA
:10164000000000000000000000000000000000009A
:10165000000000000000000000000000000000008A
:10166000000000000000000000000000000000007A
:10167000000000000000000000000000000000006A
:10168000000000000000000000000000000000005A
:10169000000000000000000000000000000000004A
:1016A000000000000000000000000000000000003A
:1016B000000000000000000000000000000000002A
:1016C000000000000000000000000000000000001A
:1016D000000000000000000000000000000000000A
:1016E00000000000000000000000000000000000FA
:1016F00000000000000000000000000000000000EA
:1017000000000000000000000000000000000000D9
:10171000000000000000000000008292E4CFD9FF2A
:101720001200D8CFE5FFE0CFE5FFE56EF3CFE5FF90
:10173000F4CFE5FFE9CFE5FFEACFE5FFFACFE5FF1C
:10174000FBCFE5FFD9CFE5FFE1CFD9FF00C0E5FF33
:1017500001C0E5FF02C0E5FF03C0E5FF04C0E5FFEF
:1017600005C0E5FFF2A235D1F2A833D1D6CF00F003
:10177000016AD7CF02F0036A0250056E046A045072
:1017800000100001D86F05500110D96F0001DB5126
:10179000006E016A0050D76EDA51D66E0001E25138
:1017A000010A01E015D1640EE56E9DEC17F0E652DA
:1017B000B0C000F00050016E015008E00050020A75
:1017C0000CE00050040A01E13BD002D1D58E010E9D
:1017D0000001B26F020EB06FFBD00001DA518F0F23
:1017E000006E020EDB21016E0001D951015C02E1A5
:1017F000D851005C1FE20001DA511F0F006E040E89
:10180000DB21016E01500001D95D02E10050D85D7D
:1018100011E2020E0001B25D06E2B2C000F0002A41
:101820000050B26FD5D00001B36BB46BB56B040E32
:10183000B06FCED0010E0001B26F020EB06FC8D0F3
:101840000D0E0001B55DD8B0C3D00001DA518F0F85
:10185000006E020EDB21016E0001D951015C02E134
:10186000D851005C0EE20001DA511F0F006E040E29
:10187000DB21016E01500001D95D02E10050D85D0D
:101880001CE30001DA513D0F006E090EDB21016EF1
:101890000001D951015C02E1D851005C35E2000140
:1018A000DA51CD0F006E0A0EDB21016E01500001EE
:1018B000D95D02E10050D85D27E20001B3A10AD052
:1018C000B351006E0026B435016E0050B36F015065
:1018D000B46F13D00001B351006E0026B435016E11
:1018E0000050B36F0150B46F010EB311006EB451CC
:1018F000016E0050B36F0150B46FB5C000F0002A04
:1019000000500001B56F48D00001DA51E60F006EBB
:10191000050EDB21016E0001D951015C02E1D851B5
:10192000005C35E20001DA51760F006E070EDB2114
:10193000016E01500001D95D02E10050D85D27E23F
:101940000001B3A113D0B351006E0026B435016E6F
:101950000050B36F0150B46F010EB311006EB4515B
:10196000016E0050B36F0150B46F0AD00001B35143
:10197000006E0026B435016E0050B36F0150B46F95
:10198000B5C000F0002A00500001B56F05D0010E6F
:101990000001B26F020EB06F0001B5510C0A18E1E0
:1019A0000001B451E56EB351E56E28EC11F0006E04
:1019B000E652E65200500AE00001B351006E016A9F
:1019C0000050E56E5CEC14F0E65281880001B06BCB
:1019D000F292F2A40CD1F2AA0AD10001DB51006EFE
:1019E000016A0050D76EDA51D66E0001E251010A49
:1019F0000FE00001E251030A10E00001E251040A85
:101A000001E15BD00001E251050A01E198D0EED07E
:101A1000D59E0001B06B0300E9D0B6C000F00050C5
:101A2000016E015008E00050030A24E00050080A4B
:101A300001E13FD0DBD0000E016EE30E006E800EA0
:101A4000026E0250E56E0150E56E0050E56EF8EC56
:101A500012F0006E030EE1260050D8B4C7D0829277
:101A6000030E0001B66F080EB96F0001E3510001CB
:101A7000B86FBCD0010E0001B95D16E3010EB815B8
:101A8000006E0050010BE844F46E8250FD0BF41020
:101A9000826EB8417F0B006E0050B86FB9C000F085
:101AA00000060050B96FA2D08282080E0001B66F06
:101AB0009DD082820001B66B99D0A0C000F000508A
:101AC000040A04E00050070A2EE090D0ADC000F0F8
:101AD000002A00500001AD6F090EAD5D20E2010E3D
:101AE000A25D02E1550EA15D0EE3010E0001A25DB3
:101AF00002E1DC0EA15D07E20001AC417F0B006E4C
:101B00000050AC6F73D00001AC417F0B006E0050F1
:101B1000AC6F800EAC11006E0050AC6F67D0070E3A
:101B20000001A06F63D00001AC51E56E5CEC14F0D5
:101B3000E6520001AC6B020EA06FF29A57D0A0C023
:101B400000F00050016E01500FE00050010A17E054
:101B50000050030A1BE00050050A01E13BD0005091
:101B6000080A01E13ED042D00EEC00F00001AD5178
:101B7000080A03E1010E0001A06F819237D0EEEC5C
:101B800005F0030E0001A06F818230D0ADC000F0DF
:101B90000004016E01500001AD6F005015E0800E91
:101BA000006EAD5105E0E86CD8900032010FFDE306
:101BB0000001AC510016005004E00EEC00F08192E0
:101BC00003D0EEEC05F081820001AD510FE1050E6E
:101BD000A06F0CD00EEC00F0080E0001A06F8192F7
:101BE00005D00EEC00F00001A06B8192F294A1AC44
:101BF00076D0A0AC74D0B4AC70D0D6CF00F0016A6F
:101C0000D7CF02F0036A0250056E046A0450001038
:101C10000001D86F05500110D96F81820001DC519D
:101C20000001D85D006E0001DD510001D959016E3F
:101C300000500001A16F0150A26FD8C0DCF0D9C0E4
:101C4000DDF0010EA25D02E1550EA15D30E3010E53
:101C50000001A25D02E1DC0EA15D29E20001A151BB
:101C6000A525006EA251A621016E0050A56F01505E
:101C7000A66FA051020A32E1030E0001A65D02E147
:101C8000200EA55D2BE30001DB51006E016A0050C0
:101C9000D76EDA51D66E0001A56BA66BA76BA86B49
:101CA000AD6BAC6B040EA06FF294F28A17D00001FA
:101CB000A051020A06E10001A56BA66BA76BA86BF9
:101CC0000DD00001A151A725006EA251A821016EDF
:101CD0000050A76F0150A86F01D08192A19CE4CF62
:101CE00005F0E4CF04F0E4CF03F0E4CF02F0E4CF5A
:101CF00001F0E4CF00F0E4CFD9FFE4CFFBFFE4CF65
:101D0000FAFFE4CFEAFFE4CFE9FFE4CFF4FFE4CF4A
:101D1000F3FFE450E4CFE0FFE4CFD8FF100070728F
:101D2000657373207072696E74206F6E20746573B2
:101D3000746F0A00646F6E65207265636569766909
:101D40006E67202D2073656E64696E672076696109
:101D50002073657269616C2F66736B0A000077618E
:101D60006974696E6720666F72206E657720636F95
:101D70006D6D616E640A00006563686F2074657341
:101D800074202D2073656E6420736F6D652064610F
:101D900074610A000A77616974696E6720666F7200
:101DA000206E657720636F6D6D616E640A00D3509D
:101DB000FC0BD36ED3508F0B7009D36E0001BC6B3C
:101DC000BD6BBE6BBF6B0001D46BD56B0001D66BD6
:101DD000D76BC7EC16F099EC16F0000E016EE00E12
:101DE000006E800E026E0250E56E0150E56E0050EE
:101DF000E56EF8EC12F0006E030EE1260050EDE007
:101E00000001E05106E00001E051FF0A01E193D03A
:101E1000E4D7E7EC17F0000E026E1D0E016E1E0EE9
:101E2000006E0250E56E0150E56E0050E56E5DEC0F
:101E300016F0030EE1260DEC17F0006A016A000EA1
:101E4000E56E000EE56E270EE56E100EE56EB7EC42
:101E500013F0040EE1262BEC17F0026EF3CF03F023
:101E60000350015C02E10250005C16E202C000F087
:101E700003C001F0000EE56E000EE56E000EE56E8B
:101E8000C80EE56EB7EC13F0040EE1262BEC17F04C
:101E9000026EF3CF03F0E4D7F1EC17F0000E066EFC
:101EA0001D0E056E340E046E0650E56E0550E56E8F
:101EB0000450E56E5DEC16F0030EE12647EC17F0DA
:101EC000000E056EE00E046E800E066E0650E56E86
:101ED0000550E56E0450E56EF8EC12F0046E030E4A
:101EE000E126045013E00001E051E56E8AEC17F0A2
:101EF000E652000EE56E000EE56E000EE56E040E75
:101F0000E56EB7EC13F0040EE126DAD705EC18F015
:101F1000000E066E1D0E056E5E0E046E0650E56E1A
:101F20000550E56E0450E56E5DEC16F0030EE126FB
:101F300099EC16F052D7E7EC17F0000E066E1D0E66
:101F4000056E780E046E0650E56E0550E56E045081
:101F5000E56E5DEC16F0030EE12699EC16F0006AD2
:101F6000016A000EE56E000EE56E030EE56EE80EEA
:101F7000E56EB7EC13F0040EE1262BEC17F0026EC1
:101F8000F3CF03F00350015C02E10250005C16E263
:101F900002C000F003C001F0000EE56E000EE56E19
:101FA000010EE56EF40EE56EB7EC13F0040EE126BB
:101FB0002BEC17F0026EF3CF03F0E4D7E7EC17F049
:101FC00047EC17F0000E016EE10E006E800E026EFF
:101FD0000250E56E0150E56E0050E56EF8EC12F02F
:101FE000006E030EE126005013E00001E151E56EA2
:101FF0008AEC17F0E652000EE56E000EE56E000E5C
:10200000E56E040EE56EB7EC13F0040EE126DAD7A8
:1020100005EC18F0000E026E1D0E016E940E006E9F
:102020000250E56E0150E56E0050E56E5DEC16F075
:10203000030EE12699EC16F0D0D61200D9CFE5FFB9
:10204000E1CFD9FF00C0E5FF01C0E5FF02C0E5FF19
:1020500003C0E5FF04C0E5FF05C0E5FF06C0E5FFDE
:1020600007C0E5FF020EDBCF00F0030EDBCF01F06F
:10207000040EDBCF02F0050EDBCF03F0060EDBCF44
:1020800004F0070EDBCF05F0080EDBCF06F0090EDB
:10209000DBCF07F000500001C06F0150C16F02504C
:1020A000C26F0350C36F04500001C46F0550C56F69
:1020B0000650C66F0750C76F0001C0510001C6032C
:1020C000F4CF01F0F3CF00F000500001CA6F0150CF
:1020D000CB6F0001C0510001C403F4CF01F0F3CF76
:1020E00000F000500001C86F0150C96F0001C351DA
:1020F0000001C403F3CF00F00001CB5100260050D3
:10210000CB6F0001C2510001C503F3CF00F0000105
:10211000CB5100260050CB6F0001C2510001C40317
:10212000F4CF01F0F3CF00F00001CA510026CB51EB
:1021300001220050CA6F0150CB6F0001C151000154
:10214000C503F4CF01F0F3CF00F00001CA5100261F
:10215000CB5101220050CA6F0150CB6F0001C15119
:102160000001C603F3CF00F000500001CF6F000163
:10217000C1510001C403F4CF01F0F3CF00F00050CF
:102180000001CD6F0150CE6F0001C0510001C703A7
:10219000F3CF00F000500001D36F0001C0510001E7
:1021A000C503F4CF01F0F3CF00F000500001D16F70
:1021B0000150D26F0001CC6B0001D06B0001CC51FB
:1021C0000001C825006E0001CD510001C921016E3A
:1021D0000001CE510001CA21026E0001CF51000161
:1021E000CB21036E0050C86F0150C96F0250CA6FF7
:1021F0000350CB6F0001D0510001C825006E0001D3
:10220000D1510001C921016E0001D2510001CA2142
:10221000026E0001D3510001CB21036E03C0E9FF20
:1022200002C0F4FF01C0F3FF0050E4CF07F0E4CF99
:1022300006F0E4CF05F0E4CF04F0E4CF03F0E4CF00
:1022400002F0E4CF01F0E4CF00F0E4CFD9FF1200B8
:10225000D9CFE5FFE1CFD9FF00C0E5FF01C0E5FF21
:1022600002C0E5FF03C0E5FF04C0E5FF05C0E5FFD0
:1022700006C0E5FF07C0E5FF08C0E5FF020EDBCFA3
:1022800000F0030EDBCF01F0026A780E0014036E3B
:10229000046A056A010E066E000E076E055006E020
:1022A000E86CD89006360736010FFCE3035006169B
:1022B00004500716065005E1075003E1066A062A96
:1022C00001D0066A0650D880E866D890066A0636BD
:1022D0000250076E06500718026E052A080E055CAC
:1022E000D9E30244FE0B036E026AE60E0014046E8C
:1022F000056A066A010E076E000E086E065006E0BB
:10230000E86CD89007360836010FFCE30450071636
:1023100005500816075005E1085003E1076A072A2F
:1023200001D0076A0750D880E866D890076A073658
:102330000250086E07500818026E062A080E065C46
:10234000D9E302500312D8900336026AD50E001466
:10235000046E056A066A010E076E000E086E0650CE
:1023600006E0E86CD89007360836010FFCE304500D
:10237000071605500816075005E1085003E1076AE3
:10238000072A01D0076A0750D880E866D890076A04
:1023900007360250086E07500818026E062A080E0B
:1023A000065CD9E302500312D8900336026A8B0E02
:1023B0000014046E056A066A010E076E000E086EB0
:1023C000065006E0E86CD89007360836010FFCE3AB
:1023D0000450071605500816075005E1085003E1A0
:1023E000076A072A01D0076A0750D880E866D890A4
:1023F000076A07360250086E07500818026E062A50
:10240000080E065CD9E3025003120150006E016A07
:10241000026A0050031803E10150021801E002D0E3
:10242000010E01D0E86AE4CF08F0E4CF07F0E4CF72
:1024300006F0E4CF05F0E4CF04F0E4CF03F0E4CFFE
:1024400002F0E4CF01F0E4CF00F0E4CFD9FF1200B6
:10245000D9CFE5FFE1CFD9FF00C0E5FF01C0E5FF1F
:1024600002C0E5FF03C0E5FF04C0E5FF05C0E5FFCE
:1024700006C0E5FF020EDBCF00F0030EDBCF01F05C
:10248000040EDBCF02F0050EDBCF03F0060EDBCF30
:1024900004F02BEC17F0056EF3CF06F00650045C49
:1024A00002E10550035CD8B091D00001D751056E10
:1024B000066A000E065C02E1040E055CD8B084D00A
:1024C000FA6AFB6A0534FA36E834FA36FC0BDE0F9A
:1024D000E56E240EFA22000EFB22E450F96E77EF2F
:1024E00012F093EF12F0AFEF12F0CBEF12F00350B7
:1024F0000001D625056E0450D721066E066A000E2F
:102500000526070E062205C0E9FF06C0EAFFEFCF49
:1025100005F005C0E5FF00C0E9FF01C0F3FF025070
:10252000DCEC17F051D003500001D625056E0450A5
:10253000D721066E066A000E0526010E062205C08A
:10254000E9FF06C0EAFFEFCF05F005C0E5FF00C0D8
:10255000E9FF01C0F3FF0250DCEC17F035D0035067
:102560000001D625056E0450D721066E066A000EBE
:102570000526020E062205C0E9FF06C0EAFFEFCFDE
:1025800005F005C0E5FF00C0E9FF01C0F3FF025000
:10259000DCEC17F019D00001D6510326D7510422E4
:1025A000046A000E0326030E042203C0E9FF04C0E0
:1025B000EAFFEFCF03F003C0E5FF00C0E9FF01C071
:1025C000F3FF0250DCEC17F0010E01D0E86AE4CF13
:1025D00006F0E4CF05F0E4CF04F0E4CF03F0E4CF5D
:1025E00002F0E4CF01F0E4CF00F0E4CFD9FF120015
:1025F000D9CFE5FFE1CFD9FF00C0E5FF01C0E5FF7E
:1026000002C0E5FF03C0E5FF04C0E5FF020EDBCF1B
:1026100000F0030EDBCF01F0040EDBCF02F02BEC59
:1026200017F0036EF3CF04F003500410D8B491D028
:102630000001D751036E046A000E045C02E1040E2F
:10264000035CD8B076D0FA6AFB6A0334FA36E83411
:10265000FA36FC0B640FE56E260EFA22000EFB2202
:10266000E450F96E3AEF13F052EF13F06AEF13F003
:1026700082EF13F00001D651036E046A000E0326A8
:10268000070E042203C0E9FF04C0EAFFEFCF03F006
:1026900003C0E5FF00C0E9FF01C0F3FF0250DCEC1E
:1026A00017F047D00001D651036E046A000E0326CE
:1026B000010E042203C0E9FF04C0EAFFEFCF03F0DC
:1026C00003C0E5FF00C0E9FF01C0F3FF0250DCECEE
:1026D00017F02FD00001D651036E046A000E0326B6
:1026E000020E042203C0E9FF04C0EAFFEFCF03F0AB
:1026F00003C0E5FF00C0E9FF01C0F3FF0250DCECBE
:1027000017F017D00001D651036E046A000E03269D
:10271000030E042203C0E9FF04C0EAFFEFCF03F079
:1027200003C0E5FF00C0E9FF01C0F3FF0250DCEC8D
:1027300017F00001D63F01D0D72B0001D65103E19D
:10274000D751040A01E003D00001D66BD76B010E0C
:1027500001D0E86AE4CF04F0E4CF03F0E4CF02F064
:10276000E4CF01F0E4CF00F0E4CFD9FF1200D9CFDD
:10277000E5FFE1CFD9FF00C0E5FF01C0E5FF02C0E2
:10278000E5FF03C0E5FF04C0E5FF05C0E5FF06C0A7
:10279000E5FF07C0E5FF08C0E5FF09C0E5FF0AC087
:1027A000E5FF0BC0E5FF0CC0E5FF0DC0E5FF0EC067
:1027B000E5FF0FC0E5FF020EDBCF00F0030EDBCF1D
:1027C00001F0040EDBCF02F0050EDBCF03F0BCC03E
:1027D00004F0BDC005F0BEC006F0BFC007F0045055
:1027E0000001BC5D086E0550BD59096E0650BE590A
:1027F0000A6E0750BF590B6E08500C6E09500D6ED3
:102800000A500E6E0B500F6ED8800FAED8901CE39E
:102810000B50E56E0A50E56E0950E56E0850E56E06
:10282000FF0EE56EFF0EE56EFF0EE56EFF0EE56E28
:102830001EEC10F00C6EF3CF0DF0F4CF0EF0E9CFDC
:102840000FF0080EE12608D008C00CF009C00DF00A
:102850000AC00EF00BC00FF003500F5C08E10250ED
:102860000E5C05E101500D5C02E100500C5CD8A04B
:10287000B6D7E4CF0FF0E4CF0EF0E4CF0DF0E4CF05
:102880000CF0E4CF0BF0E4CF0AF0E4CF09F0E4CF92
:1028900008F0E4CF07F0E4CF06F0E4CF05F0E4CF92
:1028A00004F0E4CF03F0E4CF02F0E4CF01F0E4CF92
:1028B00000F0E4CFD9FF1200D9CFE5FFE1CFD9FF77
:1028C00000C0E5FF01C0E5FF02C0E5FF020EDBCF5F
:1028D00000F02BEC17F0016EF3CF02F0015004E191
:1028E0000250040A01E16DD00001D551016E026A67
:1028F000000E025C02E1040E015CD8B052D0FA6A0C
:10290000FB6A0134FA36E834FA36FC0B1C0FE56E2C
:10291000290EFA22000EFB22E450F96E96EF14F015
:10292000A5EF14F0B4EF14F0C3EF14F00001D4518C
:10293000016E026A000E0126070E022201C0E9FFA5
:1029400002C0EAFF00C0EFFF2CD00001D451016E9D
:10295000026A000E0126010E022201C0E9FF02C038
:10296000EAFF00C0EFFF1DD00001D451016E026AE2
:10297000000E0126020E022201C0E9FF02C0EAFF9A
:1029800000C0EFFF0ED00001D451016E026A000EAC
:102990000126030E022201C0E9FF02C0EAFF00C0C7
:1029A000EFFF0001D43F01D0D52B0001D45103E14A
:1029B000D551040A01E003D00001D46BD56B010EA0
:1029C00001D0E86AE4CF02F0E4CF01F0E4CF00F0F8
:1029D000E4CFD9FF1200D8CFE5FFE0CFE5FFE56EE9
:1029E000F3CFE5FFF4CFE5FFE9CFE5FFEACFE5FF61
:1029F000FACFE5FFFBCFE5FFD9CFE5FFE1CFD9FF68
:102A000000C0E5FF01C0E5FF9EA028D0F80ECF6E04
:102A1000530ECE6EDEC000F00050016E015004E097
:102A20000050010A06E011D08188010E0001DE6F1E
:102A30000CD0DFC000F00004016E01500001DF6F18
:102A4000005003E18198020EDE6F0001BC2B05E30C
:102A5000BD2B03E3BE3F01D0BF2B9E9024EC18F0AA
:102A6000006E005006E076EC17F0006E00500DECA2
:102A700018F0E4CF01F0E4CF00F0E4CFD9FFE4CFC9
:102A8000FBFFE4CFFAFFE4CFEAFFE4CFE9FFE4CFB6
:102A9000F4FFE4CFF3FFE450E4CFE0FFE4CFD8FF4E
:102AA0001000D9CFE5FFE1CFD9FF818400000000FD
:102AB0000000000000000000000000000000000016
:102AC0000000000000000000000000000000000006
:102AD00000000000000000000000000000000000F6
:102AE00000000000000000000000000000000000E6
:102AF00000000000000000000000000000000000D6
:102B000000000000000081940000000000000000B0
:102B100000000000000000000000000000000000B5
:102B200000000000000000000000000000000000A5
:102B30000000000000000000000000000000000095
:102B40000000000000000000000000000000000085
:102B50000000000000000000000000000000000075
:102B60000000E4CFD9FF1200D9CFE5FFE1CFD9FFB4
:102B70008182000000000000000000000000000052
:102B80000000000000000000000000000000000045
:102B90000000000000000000000000000000000035
:102BA0000000000000000000000000000000000025
:102BB0000000000000000000000000000000000015
:102BC00000000000000000000000000081920000F2
:102BD00000000000000000000000000000000000F5
:102BE00000000000000000000000000000000000E5
:102BF00000000000000000000000000000000000D5
:102C000000000000000000000000000000000000C4
:102C100000000000000000000000000000000000B4
:102C20000000000000000000E4CFD9FF1200D9CF5F
:102C3000E5FFE1CFD9FF00C0E5FF01C0E5FF02C01D
:102C4000E5FF03C0E5FF020EDBCF00F000407F0B85
:102C5000016E550E01160044FE0B026EAA0E0216FE
:102C6000025001120040E8403F0B026E330E021684
:102C70000044E844FC0B036ECC0E03160350021212
:102C80000250011200380F0B026E0F0E02160038B0
:102C9000F00B036EF00E0314006E0050021202508F
:102CA00001120150E4CF03F0E4CF02F0E4CF01F0D1
:102CB000E4CF00F0E4CFD9FF1200D9CFE5FFE1CF98
:102CC000D9FF00C0E5FF01C0E5FF02C0E5FF03C07A
:102CD000E5FF020EDBCF00F0030EDBCF01F0040EA8
:102CE000DBCF02F006EC00F0036E0350FBE100C006
:102CF000E9FF01C0F3FF0250AFEC17F00DEC18F044
:102D000000C0E9FF01C0F3FF0250AFEC17F0036E03
:102D1000002A02E3014A022A0350E4E1E4CF03F06F
:102D2000E4CF02F0E4CF01F0E4CF00F0E4CFD9FF2C
:102D30001200D9CFE5FFE1CFD9FF020E0001A06F4D
:102D4000AA6BAB6B9F0E0001DA6FF90EDB6F040EFE
:102D50000001E26FD58ED590D592D594D59CD59AA9
:102D6000D586F184F29AB588B598B59AB550F00B2E
:102D70000909B56EB59CB58EB450F80B0609B46E52
:102D8000B496B488A28CA08CE4CFD9FF1200D9CF1E
:102D9000E5FFE1CFD9FF9380939881989392819238
:102DA0009394819493968196928092829492829247
:102DB000948E949CCD80CD8ECD92CD96CD98CD9A8B
:102DC0009F909D809E80D08EF298F18CF28CF28E36
:102DD0009F9A9F9861EC17F0E4CFD9FF1200D9CFEA
:102DE000E5FFE1CFD9FF0001B66BF20E0001DA6F0B
:102DF000FC0EDB6F8282030E0001E26FD59ED59040
:102E0000D592D594D59CD59AD586F184F28AF29440
:102E1000F298D58EE4CFD9FF1200D9CFE5FFE1CFEC
:102E2000D9FF0001B06BB26B230E0001DA6FF30E15
:102E3000DB6F010E0001E26FD59ED590D592D5943F
:102E4000D59CD59AD586F184F28AF294F288F18CD9
:102E5000E4CFD9FF1200D9CFE5FFE1CFD9FF00C001
:102E6000E5FF01C0E5FF0001D6510001D45D006E11
:102E70000001D7510001D559016E01C0F3FF005088
:102E8000E4CF01F0E4CF00F0E4CFD9FF1200D9CFB6
:102E9000E5FFE1CFD9FF9F0E0001DA6FF90EDB6F7E
:102EA0000001A06B050E0001E26FD58ED590D59282
:102EB000D594D59CD59AD586F184F28AE4CFD9FFF2
:102EC0001200D9CFE5FFE1CFD9FF670EAF6EAC841A
:102ED000AC98B886AB8E9D989F989D8A9F9AAC9C23
:102EE000AB9CAB88AC8AE4CFD9FF1200F00E000196
:102EF000E415E46FABAC04D0E491ABA001D0E48165
:102F0000ABA402D00001E485ABA202D00001E487AB
:102F1000AE501200D9CFE5FFE1CFD9FF00C0E5FFE9
:102F2000020EDBCF00F000500001AC6F080EAD6F59
:102F3000E4CF00F0E4CFD9FF1200D9CFE5FFE1CF15
:102F4000D9FF00C0E5FF020EDBCF00F0005000010A
:102F5000DF6FDE6BE4CF00F0E4CFD9FF1200E8AE04
:102F600004D0F3CFEAFFEE501200E8BC0AEF00F005
:102F7000E9CFF6FFF3CFF7FFF86E0900F550120026
:102F8000F2CFEAFFF29EA69EA69CA684E9CFA9FFF7
:102F9000E4CFA8FF15EC18F0A694EABEF28E12005A
:102FA000F2CFF6FFF29EA69EA69CE9CFA9FFA680CF
:102FB000A850F6BEF28E1200E8AE05D0F3CFEAFFBD
:102FC000E4CFEEFF1200E8BC02EF00F01200D9CF10
:102FD000E5FFE1CFD9FFA09C0001E26BE4CFD9FF70
:102FE0001200D9CFE5FFE1CFD9FF0001E26BF298E3
:102FF000E4CFD9FF120014EEFFF024EEFFF0F86AE0
:10300000A68EA69CD7EC0EF0FFD7D9CFE5FFE1CF77
:10301000D9FFCA94E4CFD9FF1200ACAC04D0AC9075
:103020000001E4B3AC80AD6E1200550EA76EAA0E7F
:10303000A76EA682A6B2FED7A94AD9CFE5FFE1CFF7
:10304000D9FFE4CFD9FF1200000E9EBA010F120083
:020000040030CA
:04000000010A191EBA
:020005008185F3
:060008000FC00FE00F40E5
:00000001FF
