:020000040000FA
:0400000023EF0AF0F0
:080008007FEF03F0000E9EBA29
:04001000010F1200CA
:0800180003EF09F0D9CFE5FF69
:10002000E1CFD9FF82820000000000000000000044
:1000300000000000000000000000000000000000C0
:1000400000000000000000000000000000000000B0
:1000500000000000000000000000000000000000A0
:100060000000000000000000000000000000000090
:100070000000000000000000000000000000000080
:100080000000000000000000000000000000000070
:100090000000000000000000000000000000000060
:1000A0000000000000000000000000000000000050
:1000B0000000000000000000000000000000000040
:1000C0000000000000000000000000000000000030
:1000D000000082920000000000000000000000000C
:1000E0000000000000000000000000000000000010
:1000F0000000000000000000000000000000000000
:1001000000000000000000000000000000000000EF
:1001100000000000000000000000000000000000DF
:1001200000000000000000000000000000000000CF
:1001300000000000000000000000000000000000BF
:1001400000000000000000000000000000000000AF
:10015000000000000000000000000000000000009F
:10016000000000000000000000000000000000008F
:10017000000000000000000000000000000000007F
:10018000828200000000000000000000000000006B
:10019000000000000000000000000000000000005F
:1001A000000000000000000000000000000000004F
:1001B000000000000000000000000000000000003F
:1001C000000000000000000000000000000000002F
:1001D000000000000000000082920000000000000B
:1001E000000000000000000000000000000000000F
:1001F00000000000000000000000000000000000FF
:1002000000000000000000000000000000000000EE
:1002100000000000000000000000000000000000DE
:1002200000000000000000000000000000000000CE
:1002300082820000000000000000000000000000BA
:1002400000000000000000000000000000000000AE
:10025000000000000000000000000000000000009E
:10026000000000000000000000000000000000008E
:10027000000000000000000000000000000000007E
:10028000000000000000000000000000000000006E
:10029000000000000000000000000000000000005E
:1002A000000000000000000000000000000000004E
:1002B000000000000000000000000000000000003E
:1002C000000000000000000000000000000000002E
:1002D000000000000000000000000000000082920A
:1002E000000000000000000000000000000000000E
:1002F00000000000000000000000000000000000FE
:1003000000000000000000000000000000000000ED
:1003100000000000000000000000000000000000DD
:1003200000000000000000000000000000000000CD
:1003300000000000000082820000000000000000B9
:1003400000000000000000000000000000000000AD
:10035000000000000000000000000000000000009D
:10036000000000000000000000000000000000008D
:10037000000000000000000000000000000000007D
:100380000000000000000000000000000000829259
:10039000000000000000000000000000000000005D
:1003A000000000000000000000000000000000004D
:1003B000000000000000000000000000000000003D
:1003C000000000000000000000000000000000002D
:1003D000000000000000000000000000000000001D
:1003E000000000000000000000000000000000000D
:1003F00000000000000000000000000000000000FD
:1004000000000000000000000000000000000000EC
:1004100000000000000000000000000000000000DC
:1004200000000000000000000000000000000000CC
:1004300000000000000000000000000082820000B8
:1004400000000000000000000000000000000000AC
:10045000000000000000000000000000000000009C
:10046000000000000000000000000000000000008C
:10047000000000000000000000000000000000007C
:10048000000000000000000000000000000000006C
:100490000000000082920000000000000000000048
:1004A000000000000000000000000000000000004C
:1004B000000000000000000000000000000000003C
:1004C000000000000000000000000000000000002C
:1004D000000000000000000000000000000000001C
:1004E0000000000000000000000000008282000008
:1004F00000000000000000000000000000000000FC
:1005000000000000000000000000000000000000EB
:1005100000000000000000000000000000000000DB
:1005200000000000000000000000000000000000CB
:1005300000000000000000000000000000000000BB
:100540000000000082920000000000000000000097
:10055000000000000000000000000000000000009B
:10056000000000000000000000000000000000008B
:10057000000000000000000000000000000000007B
:10058000000000000000000000000000000000006B
:100590000000000000000000000000008282000057
:1005A000000000000000000000000000000000004B
:1005B000000000000000000000000000000000003B
:1005C000000000000000000000000000000000002B
:1005D000000000000000000000000000000000001B
:1005E000000000000000000000000000000000000B
:1005F00000000000000000000000000000000000FB
:1006000000000000000000000000000000000000EA
:1006100000000000000000000000000000000000DA
:1006200000000000000000000000000000000000CA
:1006300000000000000000000000000000000000BA
:100640000000000000000000000082920000000096
:10065000000000000000000000000000000000009A
:10066000000000000000000000000000000000008A
:10067000000000000000000000000000000000007A
:10068000000000000000000000000000000000006A
:10069000000000000000000000000000000000005A
:1006A000000000000000000000000000000000004A
:1006B000000000000000000000000000000000003A
:1006C000000000000000000000000000000000002A
:1006D000000000000000000000000000000000001A
:1006E000000000000000000000000000000000000A
:1006F0000000000000000000E4CFD9FF1200D8CFB6
:10070000E5FFE0CFE5FFE56EF3CFE5FFF4CFE5FFD2
:10071000E9CFE5FFEACFE5FFFACFE5FFFBCFE5FF45
:10072000D9CFE5FFE1CFD9FF00C0E5FF01C0E5FF6C
:1007300002C0E5FF03C0E5FF04C0E5FF05C0E5FF1B
:10074000F2A243D1D6CF00F0016AD7CF02F0036AFC
:100750000250056E046A045000100001846F0550B9
:1007600001100001856FF30ED76E230ED66E0001C7
:100770008651010A01E028D160C000F0030E005C40
:10078000D8B022D1FA6AFB6A0034FA36E834FA3675
:10079000FC0BA20FE56E070EFA22000EFB22E450BE
:1007A000F96ED7EF03F0DFEF03F00BEF04F0D58E17
:1007B000010E0001626F010E0001606F05D1F50EA0
:1007C0000001855D03E1B30E0001845D1DE3F70EBA
:1007D0000001855D03E1420E0001845D15E2020E19
:1007E0000001625D07E262C000F0002A00500001D3
:1007F000626FEAD00001636B0001646B0001656BFE
:10080000020E0001606FE0D0010E0001626F010E68
:100810000001606FD9D00D0E0001655DD8B0D4D055
:10082000F50E0001855D03E1B30E0001845D08E370
:10083000F70E0001855D03E1420E0001845D12E3C5
:10084000FC0E0001855D03E1610E0001845DD8A00E
:1008500049D0FD0E0001855D03E1F00E0001845DCD
:10086000D8B040D0000163A11CD000016351006EDC
:10087000002600016435016E00500001636F0150D5
:100880000001646FFE0E00016315006E0F0E000183
:100890006415016E00500001636F01500001646F28
:1008A0001AD000016351006E002600016435016E0C
:1008B00000500001636F01500001646F010E0001E0
:1008C0006311006E00016451016E00500001636FFE
:1008D00001500001646F65C000F0002A0050000163
:1008E000656F58D0F90E0001855D03E10A0E000125
:1008F000845DD8A049D0FA0E0001855D03E1990E10
:100900000001845DD8B040D0000163A11BD000017C
:100910006351006E002600016435016E0050000135
:10092000636F01500001646F010E00016311006EDE
:1009300000016451016E00500001636F015000011D
:10094000646F1BD000016351006E00260001643506
:10095000016E00500001636F01500001646FFE0ED4
:1009600000016315006E0F0E00016415016E00504A
:100970000001636F01500001646F65C000F0002A40
:1009800000500001656F06D0010E0001626F010E7C
:100990000001606F000165510C0A16E1000164510D
:1009A000E56E00016351E56E36EC06F0006EE6522E
:1009B000E652005007E000016351006E016A0050EA
:1009C0002DEC0AF00001606BF292F2A425D0F30E38
:1009D000D76E230ED66E00018651010A05E0000194
:1009E0008651020A08E017D0D59E0001606B030013
:1009F00060C0E8FF10D0010E00016819006E0050C1
:100A00000001686F00016851010BE844F46E9450D6
:100A1000FD0BF410946EF294E4CF05F0E4CF04F0F3
:100A2000E4CF03F0E4CF02F0E4CF01F0E4CF00F034
:100A3000E4CFD9FFE4CFFBFFE4CFFAFFE4CFEAFF36
:100A4000E4CFE9FFE4CFF4FFE4CFF3FFE450E4CFD9
:100A5000E0FFE4CFD8FF1000D9CFE5FFE1CFD9FF09
:100A600000C0E5FF01C0E5FF02C0E5FF03C0E5FFF0
:100A700004C0E5FF05C0E5FF06C0E5FF07C0E5FFD0
:100A8000020EDBCF00F0030EDBCF01F0040EDBCF54
:100A900002F0050EDBCF03F0060EDBCF04F0070EED
:100AA000DBCF05F0080EDBCF06F0090EDBCF07F039
:100AB00000500001706F0150716F0250726F03504F
:100AC000736F04500001746F0550756F0650766F98
:100AD0000750776F0001705100017603F4CF01F0E9
:100AE000F3CF00F0005000017A6F01507B6F0001DE
:100AF000705100017403F4CF01F0F3CF00F0005007
:100B00000001786F0150796F000173510001740387
:100B1000F3CF00F000017B51002600507B6F0001F5
:100B2000725100017503F3CF00F000017B510026E4
:100B300000507B6F0001725100017403F4CF01F08B
:100B4000F3CF00F000017A5100267B5101220050C2
:100B50007A6F01507B6F0001715100017503F4CF72
:100B600001F0F3CF00F000017A5100267B51012201
:100B700000507A6F01507B6F0001715100017603C4
:100B8000F3CF00F0005000017F6F000171510001B0
:100B90007403F4CF01F0F3CF00F0005000017D6F3B
:100BA00001507E6F0001705100017703F3CF00F018
:100BB00000500001836F0001705100017503F4CFF4
:100BC00001F0F3CF00F000500001816F0150826FFF
:100BD00000017C6B0001806B00017C5100017825D5
:100BE000006E00017D5100017921016E00017E51EE
:100BF00000017A21026E00017F5100017B21036E0A
:100C00000050786F0150796F02507A6F03507B6FFC
:100C10000001805100017825006E00018151000122
:100C20007921016E0001825100017A21026E0001DA
:100C3000835100017B21036E03C0E9FF02C0F4FF72
:100C400001C0F3FF0050E4CF07F0E4CF06F0E4CF9B
:100C500005F0E4CF04F0E4CF03F0E4CF02F0E4CFFA
:100C600001F0E4CF00F0E4CFD9FF1200D9CFE5FFC7
:100C7000E1CFD9FF00C0E5FF01C0E5FF02C0E5FFFD
:100C800003C0E5FF04C0E5FF05C0E5FF06C0E5FFC2
:100C900007C0E5FF08C0E5FF020EDBCF00F0030E42
:100CA000DBCF01F0026A780E0014036E046A056A55
:100CB000010E066E000E076E055006E0E86CD89037
:100CC00006360736010FFCE30350061604500716DC
:100CD000065005E1075003E1066A062A01D0066ABC
:100CE0000650D880E866D890066A06360250076E2D
:100CF00006500718026E052A080E055CD9E3024467
:100D0000FE0B036E026AE60E0014046E056A066AA4
:100D1000010E076E000E086E065006E0E86CD890D3
:100D200007360836010FFCE3045007160550081675
:100D3000075005E1085003E1076A072A01D0076A56
:100D40000750D880E866D890076A07360250086EC8
:100D500007500818026E062A080E065CD9E30250F6
:100D60000312D8900336026AD50E0014046E056A89
:100D7000066A010E076E000E086E065006E0E86C6B
:100D8000D89007360836010FFCE3045007160550CB
:100D90000816075005E1085003E1076A072A01D049
:100DA000076A0750D880E866D890076A073602506D
:100DB000086E07500818026E062A080E065CD9E372
:100DC00002500312D8900336026A8B0E0014046E90
:100DD000056A066A010E076E000E086E065006E0F0
:100DE000E86CD89007360836010FFCE3045007166C
:100DF00005500816075005E1085003E1076A072A65
:100E000001D0076A0750D880E866D890076A07368D
:100E10000250086E07500818026E062A080E065C7B
:100E2000D9E3025003120150006E016A026A0050B9
:100E3000031803E10150021801E002D0010E01D0B5
:100E4000E86AE4CF08F0E4CF07F0E4CF06F0E4CF9F
:100E500005F0E4CF04F0E4CF03F0E4CF02F0E4CFF8
:100E600001F0E4CF00F0E4CFD9FF1200D9CFE5FFC5
:100E7000E1CFD9FF00C0E5FF01C0E5FF02C0E5FFFB
:100E800003C0E5FF04C0E5FF05C0E5FF06C0E5FFC0
:100E900007C0E5FF08C0E5FF09C0E5FF0AC0E5FFA0
:100EA0000BC0E5FF0CC0E5FF0DC0E5FF0EC0E5FF80
:100EB0000FC0E5FF020EDBCF00F0030EDBCF01F029
:100EC000040EDBCF02F0050EDBCF03F06CC004F0A4
:100ED0006DC005F06EC006F06FC007F00450000151
:100EE0006C5D086E055000016D59096E06500001D9
:100EF0006E590A6E075000016F590B6E08500C6E48
:100F000009500D6E0A500E6E0B500F6ED8800FAE4A
:100F1000D8901CE30B50E56E0A50E56E0950E56E63
:100F20000850E56EFF0EE56EFF0EE56EFF0EE56EF6
:100F3000FF0EE56E2CEC05F00C6EF3CF0DF0F4CF48
:100F40000EF0E9CF0FF0080EE12608D008C00CF033
:100F500009C00DF00AC00EF00BC00FF003500F5C7B
:100F600008E102500E5C05E101500D5C02E1005009
:100F70000C5CD8A0B3D7E4CF0FF0E4CF0EF0E4CFF1
:100F80000DF0E4CF0CF0E4CF0BF0E4CF0AF0E4CFA7
:100F900009F0E4CF08F0E4CF07F0E4CF06F0E4CFA7
:100FA00005F0E4CF04F0E4CF03F0E4CF02F0E4CFA7
:100FB00001F0E4CF00F0E4CFD9FF1200D9CFE5FF74
:100FC000E1CFD9FF81840000000000000000000094
:100FD0000000000000000000000000000000000011
:100FE0000000000000000000000000000000000001
:100FF00000000000000000000000000000000000F1
:1010000000000000000000000000000000000000E0
:1010100000000000000000000000000000000000D0
:1010200081940000000000000000000000000000AB
:1010300000000000000000000000000000000000B0
:1010400000000000000000000000000000000000A0
:101050000000000000000000000000000000000090
:101060000000000000000000000000000000000080
:10107000000000000000000000000000E4CFD9FFE5
:101080001200D9CFE5FFE1CFD9FF81820000000037
:101090000000000000000000000000000000000050
:1010A0000000000000000000000000000000000040
:1010B0000000000000000000000000000000000030
:1010C0000000000000000000000000000000000020
:1010D0000000000000000000000000000000000010
:1010E00000000000000081920000000000000000ED
:1010F00000000000000000000000000000000000F0
:1011000000000000000000000000000000000000DF
:1011100000000000000000000000000000000000CF
:1011200000000000000000000000000000000000BF
:1011300000000000000000000000000000000000AF
:101140000000E4CFD9FF1200D9CFE5FFE1CFD9FFEE
:10115000828200000000000000000000000000008B
:10116000000000000000000000000000000000007F
:10117000000000000000000000000000000000006F
:10118000000000000000000000000000000000005F
:10119000000000000000000000000000000000004F
:1011A000000000000000000082920000000000002B
:1011B000000000000000000000000000000000002F
:1011C000000000000000000000000000000000001F
:1011D000000000000000000000000000000000000F
:1011E00000000000000000000000000000000000FF
:1011F00000000000000000000000000000000000EF
:10120000E4CFD9FF1200D8CFE5FFE0CFE5FFE56ED0
:10121000F3CFE5FFF4CFE5FFE9CFE5FFEACFE5FF48
:10122000FACFE5FFFBCFE5FFD9CFE5FFE1CFD9FF4F
:1012300000C0E5FF9EA010D0F80ECF6E530ECE6E0C
:101240009E9000016C2B08E300016D2B05E300016B
:101250006E3F02D000016F2B06EC00F0006E0050D4
:1012600006E0EDEC09F0006E00502DEC0AF0E4CF42
:1012700000F0E4CFD9FFE4CFFBFFE4CFFAFFE4CFE7
:10128000EAFFE4CFE9FFE4CFF4FFE4CFF3FFE4505B
:10129000E4CFE0FFE4CFD8FF1000D9CFE5FFE1CFE6
:1012A000D9FF00C0E5FF01C0E5FF02C0E5FF03C0B4
:1012B000E5FF020EDBCF00F000407F0B016E550E04
:1012C00001160044FE0B026EAA0E02160250011215
:1012D0000040E8403F0B026E330E02160044E84423
:1012E000FC0B036ECC0E03160350021202500112C7
:1012F00000380F0B026E0F0E02160038F00B036E53
:10130000F00E0314006E0050021202500112015040
:10131000E4CF03F0E4CF02F0E4CF01F0E4CF00F03B
:10132000E4CFD9FF1200D9CFE5FFE1CFD9FF9380F9
:10133000939281929394819494928292948E949CAD
:10134000D59ED590D592D594D59CD59AD586F18445
:10135000F28AF284CD80CD8ECD92CD96CD98CD9A65
:101360009F909D809E80D08EF298F18CF28CF28EB0
:101370009F9A9F98D8EC09F0E4CFD9FF1200D35080
:10138000FC0BD36ED3508F0B7009D36E00016C6BC6
:1013900000016D6B00016E6B00016F6B0001606BF3
:1013A0000001626B93EC09F00DEC0AF0FFD712001C
:1013B000D9CFE5FFE1CFD9FF670EAF6EAC84AC9813
:1013C000B886AB8E9D989F989D8A9F9AAC9CAB9C4B
:1013D000AB88AC8AE4CFD9FF1200F00E000187156C
:1013E000876FABAC04D08791ABA001D08781ABA451
:1013F00002D000018785ABA202D000018787AE50E2
:101400001200D9CFE5FFE1CFD9FF020E0001866FB0
:10141000F298D58EE4CFD9FF1200D9CFE5FFE1CF06
:10142000D9FF010E0001866FF288F18CE4CFD9FF5D
:101430001200D9CFE5FFE1CFD9FF0001866BF2980A
:10144000E4CFD9FF120017EEFFF027EEFFF0F86AA5
:10145000A68EA69CBFEC09F0FFD7ACAC04D0AC9034
:0A146000000187B3AC80AD6E1200EE
:020000040030CA
:04000000010A191EBA
:020005008185F3
:060008000FC00FE00F40E5
:00000001FF
