:020000040000FA
:10000000F6EF15F0C96E120085EF07F0ACA2FED72F
:10001000AD6E12009CEF15F0ECEF12F0D9CFE5FFBA
:10002000E1CFD9FF00C0E5FF01C0E5FF02C0E5FF59
:1000300003C0E5FF04C0E5FF05C0E5FF06C0E5FF1E
:1000400007C0E5FF08C0E5FF09C0E5FF0AC0E5FFFE
:100050000BC0E5FF0CC0E5FF0DC0E5FF0EC0E5FFDE
:100060000FC0E5FF10C0E5FF11C0E5FF12C0E5FFBE
:1000700013C0E5FF14C0E5FF15C0E5FF16C0E5FF9E
:1000800017C0E5FF18C0E5FF19C0E5FF1AC0E5FF7E
:100090001BC0E5FF1CC0E5FF1DC0E5FF1EC0E5FF5E
:1000A000020EDBCF00F0030EDBCF01F0040EDBCF3E
:1000B00002F0050EDBCF03F0060EDBCF04F0070ED7
:1000C000DBCF05F0080EDBCF06F0090EDBCF07F023
:1000D0000A0EDBCF08F0096A0A6A02C00DF00D5063
:1000E000800A0DE102500001FB6F0150FA6F0050D1
:1000F000F96F000E016EF90E006E800E026E03C0E5
:10010000E9FF04C0F3FF05508BEC15F00B6E0B50AC
:10011000D8B4CAEF03F00B50250A02E0B1EF03F0A8
:100120000C6A0D6A0E6A0F6A106A0A0E116E126A64
:10013000136A146A200E156E1668176A2B0E186E55
:10014000032A02E3044A052A03C0E9FF04C0F3FFBF
:1001500005508BEC15F0196E250A13E11950E56E68
:100160000250E56E0150E56E0050E56ECDEC0FF0EB
:10017000040EE126094A0A2A032A02E3044A052A50
:10018000BED71950300A06E1300E156E032A02E37D
:10019000044A052A03C0E9FF04C0F3FF05508BECB5
:1001A00015F02D0A06E1010E146E032A02E3044A3B
:1001B000052A03C0E9FF04C0F3FF05508BEC15F0DE
:1001C000200A08E1010E176E200E186E032A02E3C2
:1001D000044A052A03C0E9FF04C0F3FF05508BEC75
:1001E00015F02B0A06E1010E176E032A02E3044AFA
:1001F000052A03C0E9FF04C0F3FF05508BEC15F09E
:10020000196E800F4F0F2DE31950800F460F29E212
:1002100003C019F004C01AF005C01BF019C0E9FFB3
:100220001AC0F3FF1B508BEC15F01C6E800F500FA3
:1002300012E31C50800F460F0EE213500A0DF3CF4D
:100240001DF01D501C26D00E1C24136E192A02E32B
:100250001A4A1B2AE3D719C003F01AC004F01BC0C6
:1002600005F003C0E9FF04C0F3FF05508BEC15F067
:100270002E0A2EE1032A02E3044A052A166A03C065
:1002800019F004C01AF005C01BF019C0E9FF1AC02C
:10029000F3FF1B508BEC15F01C6E800F500F12E318
:1002A0001C50800F460F0EE216500A0DF3CF1DF0C2
:1002B0001D501C26D00E1C24166E192A02E31A4A61
:1002C0001B2AE3D719C003F01AC004F01BC005F0C5
:1002D00003C0E9FF04C0F3FF05508BEC15F0196E65
:1002E0006C0A07E1010E0C6E032A02E3044A052A98
:1002F00009D01950680A06E1010E0E6E032A02E3C6
:10030000044A052A03C0E9FF04C0F3FF05508BEC43
:1003100015F0750A06E1010E106E032A02E3044A85
:10032000052A03C0E9FF04C0F3FF05508BEC15F06C
:10033000196E730A05E1010E0D6E200E156E3FD089
:100340001950780A03E1100E116E39D01950580A6D
:1003500005E1100E116E010E126E31D01950630AB4
:1003600002E1116A2CD019506F0A03E1080E116ED8
:1003700026D01950660A03E1010E0F6E20D01950E5
:10038000640A1DE01950690A1AE0105005E0FF0EDA
:1003900003260422052213D01950E56E0250E56EA3
:1003A0000150E56E0050E56ECDEC0FF0040EE12635
:1003B000094A0A2A032A02E3044A052AA0D60D5054
:1003C00021E00650030F0D6E000E0720196E000E7F
:1003D00008201A6E0DC006F019C007F01AC008F008
:1003E000FD0E0D26FF0E19221A220DC0E9FF19C0BD
:1003F000F3FF1A50C0EC14F00D6EF3CF19F0F4CFE8
:100400001AF000D10F500DE0000E1A6E080E196E92
:100410001C0E0D6E040E0626000E0722082216681A
:10042000F1D016680C5023E00650040F0C6E000E3D
:1004300007200F6E000E08201B6E0CC006F00FC0C8
:1004400007F01BC008F0FC0E0C26FF0E0F221B222B
:100450000CC0E9FF0FC0F3FF1B5065EC14F00C6EED
:10046000F3CF0FF0F4CF1BF0E9CF1CF06AD00E50A1
:1004700032E00650020F0E6E000E07201D6E000EB9
:1004800008201E6E0EC006F01DC007F01EC008F04A
:10049000FE0E0E26FF0E1D221E220EC0E9FF1DC0FD
:1004A000F3FF1E5038EC15F00E6E0EC00CF0E86A2B
:1004B0000EBEFF0E0F6E1B6E1C6E11500A0A03E17A
:1004C0001050D8B43ED00C500E6E0EC00CF00F6A17
:1004D0001B6A1C6A36D00650020F0E6E000E0720F3
:1004E0001D6E000E08201E6E0EC006F01DC007F027
:1004F0001EC008F0FE0E0E26FF0E1D221E220EC08C
:10050000E9FF1DC0F3FF1E5038EC15F00E6EF3CF5F
:100510001DF00EC00CF01DC00FF0E86A1DBEFF0EEE
:100520001B6E1C6E11500A0A02E110500AE00C50BA
:100530000E6E0F501D6E0EC00CF01DC00FF01B6A2A
:100540001C6A000E196EC10E0D6E800E1A6E1150CF
:10055000D8B440D0105013E01150E56E000EE56E97
:10056000C10EE56E1C50E56E1B50E56E0F50E56E3A
:100570000C50E56E96EC0CF0070EE12612D01150EF
:10058000E56E000EE56EC10EE56E1C50E56E1B506B
:10059000E56E0F50E56E0C50E56E7FEC11F0070E26
:1005A000E12617502FE00DC0E9FF19C0F3FF1A50E4
:1005B0008BEC15F02D0A26E0FF0E0D2619221A22CB
:1005C00018C0E5FF0DC0E9FF19C0F3FF1A50D7ECC2
:1005D00015F018D00CC0E5FF0DC0E9FF19C0F3FFFE
:1005E0001A50D7EC15F00D50010F0C6E000E1920AB
:1005F0000E6E000E1A20E56A0CC0E9FF0EC0F3FF74
:10060000D7EC15F00DC00CF019C00EF01AC00FF0A9
:1006100013C010F0105010E00CC0E9FF0EC0F3FF43
:100620000F508BEC15F0176E175006E00C2A02E302
:100630000E4A0F2A1006EED710C013F014501EE118
:1006400009C00CF00AC00EF010C00FF00F5010E0FF
:100650001550E56E0250E56E0150E56E0050E56EF6
:10066000CDEC0FF0040EE1260C4A0E2A0F06EED751
:100670000CC009F00EC00AF00FC013F016C00CF049
:100680000DC00DF019C00EF01AC00FF009C010F027
:100690000AC015F00DC0E9FF0EC0F3FF0F508BEC40
:1006A00015F0166E1650D8B43ED00CC016F0176A6E
:1006B000161E171E1650171005E00CC016F00C067B
:1006C000165031E00DC0E9FF0EC0F3FF0F508BEC68
:1006D00015F0116E125010E01150E56E0BEC15F094
:1006E000166EE652165004E01150166E169A02D09D
:1006F00011C016F016C011F01150E56E0250E56EF3
:100700000150E56E0050E56ECDEC0FF0040EE126D1
:100710000D2A02E30E4A0F2A104A152A1350D8B4A4
:10072000B9D71306B7D710C009F015C00AF0145096
:100730002BE010C00CF015C00DF013C00EF00E50E1
:100740001FE0200EE56E0250E56E0150E56E005090
:10075000E56ECDEC0FF0040EE1260C4A0D2A0E06D4
:10076000EED70B50E56E0250E56E0150E56E00507D
:10077000E56ECDEC0FF0040EE126094A0A2A04D0FA
:100780000CC009F00DC00AF0032A02E3044A052A4E
:100790007FEF00F00AC0F3FF0950E4CF1EF0E4CF72
:1007A0001DF0E4CF1CF0E4CF1BF0E4CF1AF0E4CF4F
:1007B00019F0E4CF18F0E4CF17F0E4CF16F0E4CF4F
:1007C00015F0E4CF14F0E4CF13F0E4CF12F0E4CF4F
:1007D00011F0E4CF10F0E4CF0FF0E4CF0EF0E4CF4F
:1007E0000DF0E4CF0CF0E4CF0BF0E4CF0AF0E4CF4F
:1007F00009F0E4CF08F0E4CF07F0E4CF06F0E4CF4F
:1008000005F0E4CF04F0E4CF03F0E4CF02F0E4CF4E
:1008100001F0E4CF00F0E4CFD9FF12003C4E4F20AE
:10082000464C4F41543E0000D9CFE5FFE1CFD9FF00
:1008300082820000000000000000000000000000B4
:1008400000000000000000000000000000000000A8
:100850000000000000000000000000000000000098
:100860000000000000000000000000000000000088
:100870000000000000000000000000000000000078
:100880000000000000000000000000000000000068
:100890000000000000000000000000000000000058
:1008A0000000000000000000000000000000000048
:1008B0000000000000000000000000000000000038
:1008C0000000000000000000000000000000000028
:1008D0000000000000000000000000000000829204
:1008E0000000000000000000000000000000000008
:1008F00000000000000000000000000000000000F8
:1009000000000000000000000000000000000000E7
:1009100000000000000000000000000000000000D7
:1009200000000000000000000000000000000000C7
:1009300000000000000000000000000000000000B7
:1009400000000000000000000000000000000000A7
:100950000000000000000000000000000000000097
:100960000000000000000000000000000000000087
:100970000000000000000000000000000000000077
:100980000000000000000000000000008282000063
:100990000000000000000000000000000000000057
:1009A0000000000000000000000000000000000047
:1009B0000000000000000000000000000000000037
:1009C0000000000000000000000000000000000027
:1009D0000000000000000000000000000000000017
:1009E00000000000829200000000000000000000F3
:1009F00000000000000000000000000000000000F7
:100A000000000000000000000000000000000000E6
:100A100000000000000000000000000000000000D6
:100A200000000000000000000000000000000000C6
:100A300000000000000000000000000082820000B2
:100A400000000000000000000000000000000000A6
:100A50000000000000000000000000000000000096
:100A60000000000000000000000000000000000086
:100A70000000000000000000000000000000000076
:100A80000000000000000000000000000000000066
:100A90000000000000000000000000000000000056
:100AA0000000000000000000000000000000000046
:100AB0000000000000000000000000000000000036
:100AC0000000000000000000000000000000000026
:100AD0000000000000000000000000000000000016
:100AE00000000000000000000000829200000000F2
:100AF00000000000000000000000000000000000F6
:100B000000000000000000000000000000000000E5
:100B100000000000000000000000000000000000D5
:100B200000000000000000000000000000000000C5
:100B300000000000000000000000000000000000B5
:100B400000008282000000000000000000000000A1
:100B50000000000000000000000000000000000095
:100B60000000000000000000000000000000000085
:100B70000000000000000000000000000000000075
:100B80000000000000000000000000000000000065
:100B90000000000000000000000082920000000041
:100BA0000000000000000000000000000000000045
:100BB0000000000000000000000000000000000035
:100BC0000000000000000000000000000000000025
:100BD0000000000000000000000000000000000015
:100BE0000000000000000000000000000000000005
:100BF00000000000000000000000000000000000F5
:100C000000000000000000000000000000000000E4
:100C100000000000000000000000000000000000D4
:100C200000000000000000000000000000000000C4
:100C300000000000000000000000000000000000B4
:100C400000000000000000008282000000000000A0
:100C50000000000000000000000000000000000094
:100C60000000000000000000000000000000000084
:100C70000000000000000000000000000000000074
:100C80000000000000000000000000000000000064
:100C90000000000000000000000000000000000054
:100CA0008292000000000000000000000000000030
:100CB0000000000000000000000000000000000034
:100CC0000000000000000000000000000000000024
:100CD0000000000000000000000000000000000014
:100CE0000000000000000000000000000000000004
:100CF00000000000000000008282000000000000F0
:100D000000000000000000000000000000000000E3
:100D100000000000000000000000000000000000D3
:100D200000000000000000000000000000000000C3
:100D300000000000000000000000000000000000B3
:100D400000000000000000000000000000000000A3
:100D5000829200000000000000000000000000007F
:100D60000000000000000000000000000000000083
:100D70000000000000000000000000000000000073
:100D80000000000000000000000000000000000063
:100D90000000000000000000000000000000000053
:100DA000000000000000000082820000000000003F
:100DB0000000000000000000000000000000000033
:100DC0000000000000000000000000000000000023
:100DD0000000000000000000000000000000000013
:100DE0000000000000000000000000000000000003
:100DF00000000000000000000000000000000000F3
:100E000000000000000000000000000000000000E2
:100E100000000000000000000000000000000000D2
:100E200000000000000000000000000000000000C2
:100E300000000000000000000000000000000000B2
:100E400000000000000000000000000000000000A2
:100E5000000000000000829200000000000000007E
:100E60000000000000000000000000000000000082
:100E70000000000000000000000000000000000072
:100E80000000000000000000000000000000000062
:100E90000000000000000000000000000000000052
:100EA0000000000000000000000000000000000042
:100EB0000000000000000000000000000000000032
:100EC0000000000000000000000000000000000022
:100ED0000000000000000000000000000000000012
:100EE0000000000000000000000000000000000002
:100EF00000000000000000000000000000000000F2
:100F000000000000E4CFD9FF1200D8CFE5FFE0CF0A
:100F1000E5FFE56EF3CFE5FFF4CFE5FFE9CFE5FFB1
:100F2000EACFE5FFFACFE5FFFBCFE5FFD9CFE5FF3D
:100F3000E1CFD9FF00C0E5FF01C0E5FF02C0E5FF3A
:100F400003C0E5FF04C0E5FF05C0E5FFF2A27BD1C9
:100F5000F2A879D1D6CF00F0016AD7CF02F0036AA8
:100F60000250056E046A045000100301026F055020
:100F700001100301036F03010551006E016A005067
:100F8000D76E03010451D66E03011051010A01E02E
:100F900059D1D5C000F0005008E00050010A0DE022
:100FA0000050030A01E145D04DD1D58E010E00015C
:100FB000D76F010E0001D56F45D1030104518F0F8A
:100FC000006E020E03010521016E03010351015C55
:100FD00003E103010251005C25E2030104511F0FEC
:100FE000006E040E03010521016E01500301035D33
:100FF00003E100500301025D15E2020E0001D75D1E
:1010000007E2D7C000F0002A00500001D76F1AD1C4
:101010000001D86B0001D96B0001DA6B030E0001EF
:10102000D56F10D1010E0001D76F010E0001D56FF1
:1010300009D10D0E0001DA5DD8B004D103010451CD
:101040008F0F006E020E03010521016E0301035193
:10105000015C03E103010251005C10E20301045151
:101060001F0F006E040E03010521016E01500301E4
:10107000035D03E100500301025D22E3030104511B
:101080003D0F006E090E03010521016E030103519E
:10109000015C03E103010251005CD8B051D00301AF
:1010A0000451CD0F006E0A0E03010521016E01509F
:1010B0000301035D03E100500301025DD8B040D09D
:1010C0000001D8A11CD00001D851006E00260001FB
:1010D000D935016E00500001D86F01500001D96F61
:1010E000FE0E0001D815006E0F0E0001D915016E1D
:1010F00000500001D86F01500001D96F1AD00001D3
:10110000D851006E00260001D935016E0050000153
:10111000D86F01500001D96F010E0001D811006E87
:101120000001D951016E00500001D86F015000013B
:10113000D96FDAC000F0002A00500001DA6F68D0E1
:1011400003010451E60F006E050E03010521016E37
:1011500003010351015C03E103010251005CD8B0BB
:1011600051D003010451760F006E070E03010521D3
:10117000016E01500301035D03E100500301025DB4
:10118000D8B040D00001D8A11BD00001D851006ECA
:1011900000260001D935016E00500001D86F0150C2
:1011A0000001D96F010E0001D811006E0001D95164
:1011B000016E00500001D86F01500001D96F1BD0A3
:1011C0000001D851006E00260001D935016E005093
:1011D0000001D86F01500001D96FFE0E0001D81533
:1011E000006E0F0E0001D915016E00500001D86F7E
:1011F00001500001D96FDAC000F0002A0050000150
:10120000DA6F06D0010E0001D76F010E0001D56F15
:101210000001DA510C0A16E10001D951E56E000116
:10122000D851E56E96EC0BF0006EE652E652005097
:1012300007E00001D851006E016A005008EC16F07A
:101240000001D56BF292F2A4C5D0F2AAC3D003017B
:101250000551006E016A0050D76E03010451D66E2D
:1012600003011051010A0AE003011051030A0DE0C5
:1012700003011051040A01E15BD0ABD0D59E0001FF
:10128000D56B0300D5C0E8FFA4D0DBC000F0005050
:1012900008E00050020A25E00050070A01E144D0AE
:1012A00098D0030E016E0F0E006E800E026E02507B
:1012B000E56E0150E56E0050E56EA0EC12F0006E98
:1012C000030EE1260050D8B484D08292020E0001B1
:1012D000DB6F080E0001DE6F03010F510001DD6FAF
:1012E00078D0010E0001DE5D1AE3010E0001DD156C
:1012F000006E0050010BE844F46E8250FD0BF410B8
:10130000826E0001DD417F0B006E00500001DD6F39
:10131000DEC000F0000600500001DE6F5AD082826D
:10132000070E0001DB6F55D082820001DB6B51D0CC
:10133000CDC000F00050030A05E00050060A01E1AC
:101340003CD047D0D2C000F0002A00500001D26F3C
:10135000090E0001D25D2DE2010E0301075D03E1DC
:10136000550E0301065D13E3010E0301075D03E162
:10137000DC0E0301065D0BE20001D1417F0B006E24
:1013800000500001D16F81840000819422D00001BF
:10139000D1417F0B006E00500001D16F800E000123
:1013A000D111006E00500001D16F8186000081963E
:1013B00010D0060E0001CD6F0CD00001D151E56EAA
:1013C000B8EC13F0E6520001D16B010E0001CD6FB5
:1013D000F29AF294A1AC7ED0A0AC7CD0B4AC79D01F
:1013E000D6CF00F0016AD7CF02F0036A0250056E33
:1013F000046A045000100301026F0550011003013C
:10140000036F030108510301025D0301066F03012D
:101410000951030103590301076F02C308F303C312
:1014200009F3010E0301075D03E1550E0301065D9B
:10143000D8A03AD0010E0301075D03E1DC0E0301E1
:10144000065DD8B031D00301065103010A2703011C
:10145000075103010B230001CD51010A01E039D0EE
:10146000050E03010B5D03E1140E03010A5DD8A014
:1014700030D003010551006E016A0050D76E0301A0
:101480000451D66E03010A6B03010B6B03010C6B55
:1014900003010D6B0001D26B0001D16B030E000143
:1014A000CD6FF294F28A15D00001CD51010A09E105
:1014B00003010A6B03010B6B03010C6B03010D6B42
:1014C00008D00301065103010C2703010751030152
:1014D0000D23A19CE4CF05F0E4CF04F0E4CF03F0AA
:1014E000E4CF02F0E4CF01F0E4CF00F0E4CFD9FF85
:1014F000E4CFFBFFE4CFFAFFE4CFEAFFE4CFE9FF5C
:10150000E4CFF4FFE4CFF3FFE450E4CFE0FFE4CF17
:10151000D8FF100025642000D9CFE5FFE1CFD9FF27
:1015200000C0E5FF01C0E5FF02C0E5FF03C0E5FF25
:1015300004C0E5FF05C0E5FF06C0E5FF07C0E5FF05
:10154000020EDBCF00F0030EDBCF01F0040EDBCF89
:1015500002F0050EDBCF03F0060EDBCF04F0070E22
:10156000DBCF05F0080EDBCF06F0090EDBCF07F06E
:1015700000500001E56F0150E66F0250E76F035025
:10158000E86F04500001E96F0550EA6F0650EB6FF9
:101590000750EC6F0001E5510001EB03F4CF01F0BF
:1015A000F3CF00F000500001EF6F0150F06F000129
:1015B000E5510001E903F4CF01F0F3CF00F0005052
:1015C0000001ED6F0150EE6F0001E8510001E903E9
:1015D000F3CF00F00001F05100260050F06F000141
:1015E000E7510001EA03F3CF00F00001F0510026BB
:1015F0000050F06F0001E7510001E903F4CF01F062
:10160000F3CF00F00001EF510026F051012200500D
:10161000EF6F0150F06F0001E6510001EA03F4CFD3
:1016200001F0F3CF00F00001EF510026F05101224C
:101630000050EF6F0150F06F0001E6510001EB0325
:10164000F3CF00F000500001F46F0001E6510001FB
:10165000E903F4CF01F0F3CF00F000500001F26F86
:101660000150F36F0001E5510001EC03F3CF00F0EE
:1016700000500001F86F0001E5510001EA03F4CFCA
:1016800001F0F3CF00F000500001F66F0150F76F4A
:101690000001F16B0001F56B0001F1510001ED2536
:1016A000006E0001F2510001EE21016E0001F351C4
:1016B0000001EF21026E0001F4510001F021036EE0
:1016C0000050ED6F0150EE6F0250EF6F0350F06F5E
:1016D0000001F5510001ED25006E0001F6510001F9
:1016E000EE21016E0001F7510001EF21026E0001B1
:1016F000F8510001F021036E03C0E9FF02C0F4FFBE
:1017000001C0F3FF0050E4CF07F0E4CF06F0E4CFD0
:1017100005F0E4CF04F0E4CF03F0E4CF02F0E4CF2F
:1017200001F0E4CF00F0E4CFD9FF1200D9CFE5FFFC
:10173000E1CFD9FF00C0E5FF01C0E5FF02C0E5FF32
:1017400003C0E5FF04C0E5FF05C0E5FF06C0E5FFF7
:1017500007C0E5FF08C0E5FF020EDBCF00F0030E77
:10176000DBCF01F0026A780E0014036E046A056A8A
:10177000010E066E000E076E055006E0E86CD8906C
:1017800006360736010FFCE3035006160450071611
:10179000065005E1075003E1066A062A01D0066AF1
:1017A0000650D880E866D890066A06360250076E62
:1017B00006500718026E052A080E055CD9E302449C
:1017C000FE0B036E026AE60E0014046E056A066ADA
:1017D000010E076E000E086E065006E0E86CD89009
:1017E00007360836010FFCE30450071605500816AB
:1017F000075005E1085003E1076A072A01D0076A8C
:101800000750D880E866D890076A07360250086EFD
:1018100007500818026E062A080E065CD9E302502B
:101820000312D8900336026AD50E0014046E056ABE
:10183000066A010E076E000E086E065006E0E86CA0
:10184000D89007360836010FFCE304500716055000
:101850000816075005E1085003E1076A072A01D07E
:10186000076A0750D880E866D890076A07360250A2
:10187000086E07500818026E062A080E065CD9E3A7
:1018800002500312D8900336026A8B0E0014046EC5
:10189000056A066A010E076E000E086E065006E025
:1018A000E86CD89007360836010FFCE304500716A1
:1018B00005500816075005E1085003E1076A072A9A
:1018C00001D0076A0750D880E866D890076A0736C3
:1018D0000250086E07500818026E062A080E065CB1
:1018E000D9E3025003120150006E016A026A0050EF
:1018F000031803E10150021801E002D0010E01D0EB
:10190000E86AE4CF08F0E4CF07F0E4CF06F0E4CFD4
:1019100005F0E4CF04F0E4CF03F0E4CF02F0E4CF2D
:1019200001F0E4CF00F0E4CFD9FF1200D9CFE5FFFA
:10193000E1CFD9FF00C0E5FF01C0E5FF02C0E5FF30
:1019400003C0E5FF04C0E5FF05C0E5FF06C0E5FFF5
:1019500007C0E5FF08C0E5FF09C0E5FF0AC0E5FFD5
:101960000BC0E5FF0CC0E5FF0DC0E5FF0EC0E5FFB5
:101970000FC0E5FF020EDBCF00F0030EDBCF01F05E
:10198000040EDBCF02F0050EDBCF03F0060EDBCF3B
:1019900004F0070EDBCF05F0080EDBCF06F0200EBB
:1019A000076E086A06C009F00A6A0B6A0C6AE56AE3
:1019B000E56AE56A0950E56E0350E56E0250E56E92
:1019C0000150E56E0050E56E1AEC0EF00D6E080E3B
:1019D000E126300E0D263A0E0D5C05E30D500E6E1D
:1019E000270E0E240D6EFF0E07260822A00E0724D8
:1019F0000E6E000E08200F6E0EC0E9FF0FC0EAFF4A
:101A00000DC0EFFF0C50E56E0B50E56E0A50E56E11
:101A10000950E56E0350E56E0250E56E0150E56E2B
:101A20000050E56EB7EC0EF0006EF3CF01F0F4CF8E
:101A300002F0E9CF03F0080EE12600500110021079
:101A40000310D8A4AFD707C000F008C001F004C04D
:101A500002F005C003F000C004F001C005F0004A28
:101A6000012AA00E0426000E052204C0E9FF05C0CD
:101A7000EAFFEFCF04F002C0E9FF03C0EAFF04C0B1
:101A8000EFFF024A032A000E015C02E1200E005C17
:101A9000E2E302C0E9FF03C0EAFF000EEF6AE4CF11
:101AA0000FF0E4CF0EF0E4CF0DF0E4CF0CF0E4CF74
:101AB0000BF0E4CF0AF0E4CF09F0E4CF08F0E4CF74
:101AC00007F0E4CF06F0E4CF05F0E4CF04F0E4CF74
:101AD00003F0E4CF02F0E4CF01F0E4CF00F0E4CF74
:101AE000D9FF1200D9CFE5FFE1CFD9FF00C0E5FF54
:101AF00001C0E5FF02C0E5FF03C0E5FF04C0E5FF4C
:101B000005C0E5FF06C0E5FF07C0E5FF08C0E5FF2B
:101B100009C0E5FF0AC0E5FF0BC0E5FF0CC0E5FF0B
:101B20000DC0E5FF0EC0E5FF0FC0E5FF020EDBCFE5
:101B300000F0030EDBCF01F0040EDBCF02F0050E48
:101B4000DBCF03F0E1C004F0E2C005F0E3C006F033
:101B5000E4C007F004500001E15D086E055000018B
:101B6000E259096E06500001E3590A6E0750000160
:101B7000E4590B6E08500C6E09500D6E0A500E6E33
:101B80000B500F6ED8800FAED8901CE30B50E56E53
:101B90000A50E56E0950E56E0850E56EFF0EE56EE1
:101BA000FF0EE56EFF0EE56EFF0EE56E8CEC0AF0A3
:101BB0000C6EF3CF0DF0F4CF0EF0E9CF0FF0080E5E
:101BC000E12608D008C00CF009C00DF00AC00EF0E4
:101BD0000BC00FF003500F5C08E102500E5C05E1F2
:101BE00001500D5C02E100500C5CD8A0B3D7E4CFEB
:101BF0000FF0E4CF0EF0E4CF0DF0E4CF0CF0E4CF23
:101C00000BF0E4CF0AF0E4CF09F0E4CF08F0E4CF22
:101C100007F0E4CF06F0E4CF05F0E4CF04F0E4CF22
:101C200003F0E4CF02F0E4CF01F0E4CF00F0E4CF22
:101C3000D9FF1200D9CFE5FFE1CFD9FF00C0E5FF02
:101C400001C0E5FF02C0E5FF03C0E5FF04C0E5FFFA
:101C500005C0E5FF06C0E5FF07C0E5FF08C0E5FFDA
:101C600009C0E5FF0AC0E5FF020EDBCF00F0030E5E
:101C7000DBCF01F0040EDBCF02F0050EDBCF03F06B
:101C8000060EDBCF04F0070EDBCF05F0080EDBCF2E
:101C900006F0090EDBCF07F0086A045005100610A5
:101CA000071005E1E968F468F368E86847D0096A55
:101CB0000750800BE8440A6E0A501BE104500426CA
:101CC0000536063607360750035C08E10650025C0D
:101CD00005E10550015C02E10450005C06E2D89089
:101CE000073206320532043204D0092A09C008F04E
:101CF000DFD70750035C08E10650025C05E10550A0
:101D0000015C02E10450005C08E30450005E0550F1
:101D1000015A0650025A0750035AD8900732063229
:101D20000532043208C009F008060950E2E103C098
:101D3000E9FF02C0F4FF01C0F3FF0050E4CF0AF056
:101D4000E4CF09F0E4CF08F0E4CF07F0E4CF06F0E9
:101D5000E4CF05F0E4CF04F0E4CF03F0E4CF02F0E9
:101D6000E4CF01F0E4CF00F0E4CFD9FF1200D9CFE7
:101D7000E5FFE1CFD9FF00C0E5FF01C0E5FF02C0EC
:101D8000E5FF03C0E5FF04C0E5FF05C0E5FF06C0B1
:101D9000E5FF07C0E5FF08C0E5FF09C0E5FF0AC091
:101DA000E5FF0BC0E5FF0CC0E5FF0DC0E5FF020E2F
:101DB000DBCF00F0030EDBCF01F0040EDBCF02F02F
:101DC000050EDBCF03F0060EDBCF04F0070EDBCFF2
:101DD00005F0080EDBCF06F0090EDBCF07F0086A2E
:101DE000096A0A6A0B6A200E0C6E0350800BE844E5
:101DF0000D6E0050002601360236033608500826C4
:101E000009360A360B360D50D8A4088007500B5CF3
:101E100008E106500A5C05E10550095C02E1045046
:101E2000085C09E30450085E0550095A06500A5A36
:101E300007500B5A00800C2ED8D703C0E9FF02C010
:101E4000F4FF01C0F3FF0050E4CF0DF0E4CF0CF03D
:101E5000E4CF0BF0E4CF0AF0E4CF09F0E4CF08F0D0
:101E6000E4CF07F0E4CF06F0E4CF05F0E4CF04F0D0
:101E7000E4CF03F0E4CF02F0E4CF01F0E4CF00F0D0
:101E8000E4CFD9FF1200D9CFE5FFE1CFD9FF00C0E1
:101E9000E5FF01C0E5FF02C0E5FF03C0E5FF04C0A8
:101EA000E5FF05C0E5FF050ED924006E000EDA201F
:101EB000016E800E026E030E0026000E0122022229
:101EC00006C0E5FF07C0E5FF08C0E5FF020EDBCF57
:101ED00006F0030EDBCF07F0040EDBCF08F008504E
:101EE000056E0750046E0650036EE4CF08F0E4CF91
:101EF00007F0E4CF06F00250E56E0150E56E0050A9
:101F0000E56E070EDBCFE5FF060EDBCFE5FF050E26
:101F1000DBCFE5FF0550E56E0450E56E0350E56E3E
:101F20000EEC00F0006EF3CF01F0090EE12606C0C2
:101F3000E5FF07C0E5FF08C0E5FF020EDBCF06F0B6
:101F4000030EDBCF07F0040EDBCF08F000500624B1
:101F5000026E01500720036EE86A0820E4CF08F003
:101F6000E4CF07F0E4CF06F0E56A02C0E9FF03C062
:101F7000F3FFD7EC15F001C0F3FF0050E4CF05F0FC
:101F8000E4CF04F0E4CF03F0E4CF02F0E4CF01F0BB
:101F9000E4CF00F0E4CFD9FF1200D9CFE5FFE1CFC5
:101FA000D9FF00C0E5FF01C0E5FF02C0E5FF03C0A7
:101FB000E5FF04C0E5FF05C0E5FF06C0E5FF07C07B
:101FC000E5FF020EDBCF00F0030EDBCF01F0040EC5
:101FD000DBCF02F0050EDBCF03F002C006F00650A7
:101FE000046E800A33E100C0E9FF01C0F3FF025034
:101FF000C0EC14F0056EF3CF06F0F4CF07F003C089
:10200000E5FF05C0E9FF06C0F3FF0750D7EC15F068
:1020100000C0E9FF01C0F3FF0250C0EC14F0056EF0
:10202000F3CF06F0F4CF07F0052A02E3064A072AA9
:1020300005C0E5FF06C0F4FF07C0F6FF00C0E9FFDA
:1020400001C0F3FF0250BCEC15F01DD004AA1BD058
:10205000047A045004E1035006EC00F014D004505C
:10206000010A04E1035002EC00F00DD004500F0A05
:1020700004E1035034EC16F006D004500E0A03E1DC
:10208000035027EC16F0E4CF07F0E4CF06F0E4CFDE
:1020900005F0E4CF04F0E4CF03F0E4CF02F0E4CFA6
:1020A00001F0E4CF00F0E4CFD9FF1200D350FC0BD5
:1020B000D36ED3508F0B7009D36E0001E16B00011A
:1020C000E26B0001E36B0001E46B0001FE6B0001B9
:1020D000FF6B0301006B0301016B1FEC14F0EFECCD
:1020E00013F0030E016E0E0E006E800E026E025093
:1020F000E56E0150E56E0050E56EA0EC12F0006E4A
:10210000030EE1260050EDE00EC300F0016A000E60
:10211000046E150E036E140E026E000E066E600E37
:10212000056E800E076E0150E56E0050E56E04509E
:10213000E56E0350E56E0250E56E0750E56E065001
:10214000E56E0550E56E43EC0FF0080EE126000E3B
:10215000016E600E006E800E026E0250E56E015040
:10216000E56E0050E56E7CEC13F0030EE126B9D766
:102170001200D9CFE5FFE1CFD9FF81840000000034
:10218000000000000000000000000000000000004F
:10219000000000000000000000000000000000003F
:1021A000000000000000000000000000000000002F
:1021B000000000000000000000000000000000001F
:1021C000000000000000000000000000000000000F
:1021D00000000000000081940000000000000000EA
:1021E00000000000000000000000000000000000EF
:1021F00000000000000000000000000000000000DF
:1022000000000000000000000000000000000000CE
:1022100000000000000000000000000000000000BE
:1022200000000000000000000000000000000000AE
:102230000000E4CFD9FF1200D9CFE5FFE1CFD9FFED
:10224000818200000000000000000000000000008B
:10225000000000000000000000000000000000007E
:10226000000000000000000000000000000000006E
:10227000000000000000000000000000000000005E
:10228000000000000000000000000000000000004E
:10229000000000000000000000000000819200002B
:1022A000000000000000000000000000000000002E
:1022B000000000000000000000000000000000001E
:1022C000000000000000000000000000000000000E
:1022D00000000000000000000000000000000000FE
:1022E00000000000000000000000000000000000EE
:1022F0000000000000000000E4CFD9FF1200D9CF99
:10230000E5FFE1CFD9FF00C0E5FF01C0E5FF02C056
:10231000E5FF03C0E5FF04C0E5FF05C0E5FF06C01B
:10232000E5FF020EDBCF00F0030EDBCF01F0040E61
:10233000DBCF02F0050EDBCF03F0060EDBCF04F09F
:10234000070EDBCF05F0080EDBCF06F0D88003AE1A
:10235000D89015E306500A0A12E104C0E9FF05C04F
:10236000EAFF2D0EEF6E044A052A031E021E011E0F
:10237000006C05E1012A03E1022AD8B4032A0650C1
:10238000E56E0550E56E0450E56E0350E56E0250B3
:10239000E56E0150E56E0050E56E96EC0CF0070E10
:1023A000E126E4CF06F0E4CF05F0E4CF04F0E4CF7B
:1023B00003F0E4CF02F0E4CF01F0E4CF00F0E4CF8B
:1023C000D9FF1200D9CFE5FFE1CFD9FF00C0E5FF6B
:1023D00001C0E5FF02C0E5FF03C0E5FF04C0E5FF63
:1023E00005C0E5FF06C0E5FF07C0E5FF020EDBCF35
:1023F00000F0030EDBCF01F0040EDBCF02F0050E80
:10240000DBCF03F0A4EC14F0046EF3CF05F003C0AF
:1024100006F0076A0550075C02E10450065C1DE205
:10242000046A030100510326030101510422046AD6
:10243000000E0326010E042203C0E9FF04C0EAFFD8
:10244000EFCF03F003C0E5FF00C0E9FF01C0F3FFD9
:102450000250D7EC15F0010E01D0E86AE4CF07F086
:10246000E4CF06F0E4CF05F0E4CF04F0E4CF03F0CE
:10247000E4CF02F0E4CF01F0E4CF00F0E4CFD9FFE5
:102480001200D9CFE5FFE1CFD9FF82820000000022
:10249000000000000000000000000000000000003C
:1024A000000000000000000000000000000000002C
:1024B000000000000000000000000000000000001C
:1024C000000000000000000000000000000000000C
:1024D00000000000000000000000000000000000FC
:1024E00000008292000000000000000000000000D8
:1024F00000000000000000000000000000000000DC
:1025000000000000000000000000000000000000CB
:1025100000000000000000000000000000000000BB
:1025200000000000000000000000000000000000AB
:1025300000000000000000000000E4CFD9FF1200FE
:10254000D9CFE5FFE1CFD9FF00C0E5FF01C0E5FF2E
:1025500002C0E5FF03C0E5FF04C0E5FF020EDBCFCC
:1025600000F0030EDBCF01F0040EDBCF02F0A4EC91
:1025700014F0036EF3CF04F0035004101FE000C307
:1025800003F001C304F00301003F02D00301012B5B
:10259000046A000E0326010E042203C0E9FF04C0F2
:1025A000EAFFEFCF03F003C0E5FF00C0E9FF01C081
:1025B000F3FF0250D7EC15F0010E01D0E86AE4CF2A
:1025C00004F0E4CF03F0E4CF02F0E4CF01F0E4CF75
:1025D00000F0E4CFD9FF1200D8CFE5FFE0CFE5FF50
:1025E000E56EF3CFE5FFF4CFE5FFE9CFE5FFEACFF6
:1025F000E5FFFACFE5FFFBCFE5FFD9CFE5FFE1CF60
:10260000D9FF00C0E5FF9EA010D0F80ECF6E530E8C
:10261000CE6E9E900001E12B08E30001E22B05E362
:102620000001E33F02D00001E42B23EC16F0006E22
:10263000005006E063EC15F0006E005008EC16F058
:10264000E4CF00F0E4CFD9FFE4CFFBFFE4CFFAFF03
:10265000E4CFEAFFE4CFE9FFE4CFF4FFE4CFF3FFF8
:10266000E450E4CFE0FFE4CFD8FF1000D9CFE5FF7E
:10267000E1CFD9FF00C0E5FF01C0E5FF02C0E5FFE3
:1026800003C0E5FF020EDBCF00F000407F0B016EC0
:10269000550E01160044FE0B026EAA0E02160250E1
:1026A00001120040E8403F0B026E330E0216004458
:1026B000E844FC0B036ECC0E0316035002120250CA
:1026C000011200380F0B026E0F0E02160038F00BCD
:1026D000036EF00E0314006E00500212025001123D
:1026E0000150E4CF03F0E4CF02F0E4CF01F0E4CFF7
:1026F00000F0E4CFD9FF1200D9CFE5FFE1CFD9FF39
:1027000000C0E5FF01C0E5FF02C0E5FF03C0E5FF33
:10271000020EDBCF00F0030EDBCF01F0040EDBCFA7
:1027200002F01FEC16F0036E0350FBE100C0E9FF5E
:1027300001C0F3FF02508BEC15F008EC16F000C05E
:10274000E9FF01C0F3FF02508BEC15F0036E002A85
:1027500002E3014A022A0350E4E1E4CF03F0E4CFAC
:1027600002F0E4CF01F0E4CF00F0E4CFD9FF120093
:10277000D9CFE5FFE1CFD9FF00C0E5FF01C0E5FFFC
:1027800002C0E5FF020EDBCF00F0A4EC14F0016EF6
:10279000F3CF02F0015003E10250010A16E0FEC03F
:1027A00001F0FFC002F00001FE3F02D00001FF2B4C
:1027B000026A000E0126010E022201C0E9FF02C0DA
:1027C000EAFF00C0EFFF010E01D0E86AE4CF02F09B
:1027D000E4CF01F0E4CF00F0E4CFD9FF1200D9CF6D
:1027E000E5FFE1CFD9FF010E0001CD6F0001CF6BF6
:1027F0000001D06B9F0E0301046FF90E0301056FFA
:10280000040E0301106FD58ED590D592D594D59C2A
:10281000D59AD586F29AB588B598B59AB550F00B89
:102820000909B56EB59CB58EB450F80B0609B46EA7
:10283000B496B498A28CA08CE4CFD9FF1200D9CF63
:10284000E5FFE1CFD9FF9380939281929394819495
:10285000939681969280928294928292948E949C86
:10286000CD80CD8ECD92CD96CD98CD9A9F909D80E6
:102870009E80D08EF298F18CF28CF28E9F9A9F9867
:102880004EEC15F0E4CFD9FF1200D9CFE5FFE1CF30
:10289000D9FF0001D56B0001D76B230E0301046F34
:1028A000F30E0301056F010E0301106FD59ED59045
:1028B000D592D594D59CD59AD586F184F28AF29496
:1028C000F288F18CE4CFD9FF1200E8AE0AD0F3CF42
:1028D000EAFFEE50EECFF3FFEECFF4FFEECFE9FFCD
:1028E0001200E8BC30EF16F0E9CFF6FFF3CFF7FFA8
:1028F000F86E0900F5500900F5CFF3FF0900F5CF98
:10290000F4FF0900F5CFE9FF1200D9CFE5FFE1CFD1
:10291000D9FF0001DB6BF20E0301046FFC0E030113
:10292000056F8282030E0301106FD59ED590D5925C
:10293000D594D59CD59AD586F184F28AF294F298F2
:10294000D58EE4CFD9FF1200D9CFE5FFE1CFD9FF73
:1029500000C0E5FF01C0E5FF030100510001FE5D7D
:10296000006E030101510001FF59016E01C0F3FF28
:102970000050E4CF01F0E4CF00F0E4CFD9FF120023
:10298000E8AE08D0F3CFEAFFEE50EECFF3FFEECF84
:10299000F4FF1200E8BC2EEF16F0E9CFF6FFF3CFFC
:1029A000F7FFF86E0900F5500900F5CFF3FF0900B5
:1029B000F5CFF4FF1200F2CFEAFFF29EA69EA69C8E
:1029C000A684E9CFA9FFE4CFA8FF10EC16F0F4CF5E
:1029D000A8FF10EC16F0F6CFA8FF10EC16F0A694A6
:1029E000EABEF28E1200F2CFF6FFF29EA69EA69CE1
:1029F000E9CFA9FFA680A850A92AA680A8CFF3FFF7
:102A0000A92AA680A8CFF4FFA92AA680A8CFEAFF0A
:102A1000F6BEF28E1200D9CFE5FFE1CFD9FF00C09C
:102A2000E5FF020EDBCF00F0610E005C05E37B0EDC
:102A3000005C02E2010E01D0E86AE4CF00F0E4CFCE
:102A4000D9FF1200D9CFE5FFE1CFD9FF5A0ECB6EE7
:102A50002D0EBB6ECA50FC0BCA6ECA50870BCA6ED5
:102A6000CA84BA50F00B0C09BA6EE4CFD9FF120039
:102A7000E8AE06D0F3CFEAFFEE50EECFF3FF120040
:102A8000E8BC2CEF16F0E9CFF6FFF3CFF7FFF86EB6
:102A90000900F5500900F5CFF3FF1200D9CFE5FF8B
:102AA000E1CFD9FF670EAF6EAC84AC98B886AB8E21
:102AB0009D989F989D8A9F9AAC9CAB9CAB88AC8A52
:102AC000E4CFD9FF1200F00E03011115116FABAC6A
:102AD00004D01191ABA001D01181ABA402D00301AD
:102AE0001185ABA202D003011187AE501200F2CFC4
:102AF000F6FFF29EA69EA69CE9CFA9FFA680A8504D
:102B0000A92AA680A8CFF3FFA92AA680A8CFF4FF00
:102B1000F6BEF28E1200E8AE04D0F3CFEAFFEE501C
:102B20001200E8BC2AEF16F0E9CFF6FFF3CFF7FF6B
:102B3000F86E0900F5501200F2CFEAFFF29EA69E51
:102B4000A69CA684E9CFA9FFE4CFA8FF10EC16F05D
:102B5000A694EABEF28E1200F2CFF6FFF29EA69E77
:102B6000A69CE9CFA9FFA680A850A92AA680A8CF35
:102B7000F3FFF6BEF28E1200E8AE09D0F3CFEAFF03
:102B8000E4CFEEFFF4CFEEFFF6CFEEFF1200E8BC8D
:102B900032EF16F01200F2CFF6FFF29EA69EA69C30
:102BA000E9CFA9FFA680A850F6BEF28E1200E8AECB
:102BB00005D0F3CFEAFFE4CFEEFF1200E8BC0AEF46
:102BC00000F01200D9CFE5FFE1CFD9FFA09C0301AF
:102BD000106BE4CFD9FF1200D9CFE5FFE1CFD9FFC9
:102BE0000301106BF298E4CFD9FF120012EEFFF050
:102BF00022EEFFF0F86AA68EA69C56EC10F0FFD7E6
:102C0000D9CFE5FFE1CFD9FFCA94E4CFD9FF1200B5
:102C1000ACAC04D0AC90030111B3AC80AD6E12002B
:102C2000550EA76EAA0EA76EA682A6B2FED7A94A17
:102C3000D9CFE5FFE1CFD9FFE4CFD9FF1200000ED5
:102C4000ACA2010F1200000E9EBA010F1200E8CFD5
:102C50007FFF1200CBEF15F0ACEF15F077EF15F01A
:0A2C6000F3EF14F0DBEF14F01200A4
:020000040030CA
:04000000010A191EBA
:020005008185F3
:060008000FC00FE00F40E5
:00000001FF
