:020000040000FA
:04000000FAEF09F01A
:080008007FEF03F0000E9EBA29
:04001000010F1200CA
:08001800E4EF08F0D9CFE5FF89
:10002000E1CFD9FF82820000000000000000000044
:1000300000000000000000000000000000000000C0
:1000400000000000000000000000000000000000B0
:1000500000000000000000000000000000000000A0
:100060000000000000000000000000000000000090
:100070000000000000000000000000000000000080
:100080000000000000000000000000000000000070
:100090000000000000000000000000000000000060
:1000A0000000000000000000000000000000000050
:1000B0000000000000000000000000000000000040
:1000C0000000000000000000000000000000000030
:1000D000000082920000000000000000000000000C
:1000E0000000000000000000000000000000000010
:1000F0000000000000000000000000000000000000
:1001000000000000000000000000000000000000EF
:1001100000000000000000000000000000000000DF
:1001200000000000000000000000000000000000CF
:1001300000000000000000000000000000000000BF
:1001400000000000000000000000000000000000AF
:10015000000000000000000000000000000000009F
:10016000000000000000000000000000000000008F
:10017000000000000000000000000000000000007F
:10018000828200000000000000000000000000006B
:10019000000000000000000000000000000000005F
:1001A000000000000000000000000000000000004F
:1001B000000000000000000000000000000000003F
:1001C000000000000000000000000000000000002F
:1001D000000000000000000082920000000000000B
:1001E000000000000000000000000000000000000F
:1001F00000000000000000000000000000000000FF
:1002000000000000000000000000000000000000EE
:1002100000000000000000000000000000000000DE
:1002200000000000000000000000000000000000CE
:1002300082820000000000000000000000000000BA
:1002400000000000000000000000000000000000AE
:10025000000000000000000000000000000000009E
:10026000000000000000000000000000000000008E
:10027000000000000000000000000000000000007E
:10028000000000000000000000000000000000006E
:10029000000000000000000000000000000000005E
:1002A000000000000000000000000000000000004E
:1002B000000000000000000000000000000000003E
:1002C000000000000000000000000000000000002E
:1002D000000000000000000000000000000082920A
:1002E000000000000000000000000000000000000E
:1002F00000000000000000000000000000000000FE
:1003000000000000000000000000000000000000ED
:1003100000000000000000000000000000000000DD
:1003200000000000000000000000000000000000CD
:1003300000000000000082820000000000000000B9
:1003400000000000000000000000000000000000AD
:10035000000000000000000000000000000000009D
:10036000000000000000000000000000000000008D
:10037000000000000000000000000000000000007D
:100380000000000000000000000000000000829259
:10039000000000000000000000000000000000005D
:1003A000000000000000000000000000000000004D
:1003B000000000000000000000000000000000003D
:1003C000000000000000000000000000000000002D
:1003D000000000000000000000000000000000001D
:1003E000000000000000000000000000000000000D
:1003F00000000000000000000000000000000000FD
:1004000000000000000000000000000000000000EC
:1004100000000000000000000000000000000000DC
:1004200000000000000000000000000000000000CC
:1004300000000000000000000000000082820000B8
:1004400000000000000000000000000000000000AC
:10045000000000000000000000000000000000009C
:10046000000000000000000000000000000000008C
:10047000000000000000000000000000000000007C
:10048000000000000000000000000000000000006C
:100490000000000082920000000000000000000048
:1004A000000000000000000000000000000000004C
:1004B000000000000000000000000000000000003C
:1004C000000000000000000000000000000000002C
:1004D000000000000000000000000000000000001C
:1004E0000000000000000000000000008282000008
:1004F00000000000000000000000000000000000FC
:1005000000000000000000000000000000000000EB
:1005100000000000000000000000000000000000DB
:1005200000000000000000000000000000000000CB
:1005300000000000000000000000000000000000BB
:100540000000000082920000000000000000000097
:10055000000000000000000000000000000000009B
:10056000000000000000000000000000000000008B
:10057000000000000000000000000000000000007B
:10058000000000000000000000000000000000006B
:100590000000000000000000000000008282000057
:1005A000000000000000000000000000000000004B
:1005B000000000000000000000000000000000003B
:1005C000000000000000000000000000000000002B
:1005D000000000000000000000000000000000001B
:1005E000000000000000000000000000000000000B
:1005F00000000000000000000000000000000000FB
:1006000000000000000000000000000000000000EA
:1006100000000000000000000000000000000000DA
:1006200000000000000000000000000000000000CA
:1006300000000000000000000000000000000000BA
:100640000000000000000000000082920000000096
:10065000000000000000000000000000000000009A
:10066000000000000000000000000000000000008A
:10067000000000000000000000000000000000007A
:10068000000000000000000000000000000000006A
:10069000000000000000000000000000000000005A
:1006A000000000000000000000000000000000004A
:1006B000000000000000000000000000000000003A
:1006C000000000000000000000000000000000002A
:1006D000000000000000000000000000000000001A
:1006E000000000000000000000000000000000000A
:1006F0000000000000000000E4CFD9FF1200D8CFB6
:10070000E5FFE0CFE5FFE56EF3CFE5FFF4CFE5FFD2
:10071000E9CFE5FFEACFE5FFFACFE5FFFBCFE5FF45
:10072000D9CFE5FFE1CFD9FF00C0E5FF01C0E5FF6C
:1007300002C0E5FF03C0E5FF04C0E5FF05C0E5FF1B
:10074000F2A23ED1D6CF00F0016AD7CF02F0036A01
:100750000250056E046A0450001000017E6F0550BF
:10076000011000017F6FF30ED76E230ED66E60C0AE
:1007700000F0030E005CD8B022D1FA6AFB6A0034A4
:10078000FA36E834FA36FC0B980FE56E070EFA22BB
:10079000000EFB22E450F96ED2EF03F0DAEF03F023
:1007A00006EF04F0D58E010E0001626F010E00010C
:1007B000606F05D1F50E00017F5D03E1B30E00010E
:1007C0007E5D1DE3F70E00017F5D03E1420E000137
:1007D0007E5D15E2020E0001625D07E262C000F07C
:1007E000002A00500001626FEAD00001636B000133
:1007F000646B0001656B020E0001606FE0D0010EBA
:100800000001626F010E0001606FD9D00D0E000172
:10081000655DD8B0D4D0F50E00017F5D03E1B30E65
:1008200000017E5D08E3F70E00017F5D03E1420EEB
:1008300000017E5D12E3FC0E00017F5D03E1610EAD
:1008400000017E5DD8A049D0FD0E00017F5D03E16F
:10085000F00E00017E5DD8B040D0000163A11CD035
:1008600000016351006E002600016435016E0050E6
:100870000001636F01500001646FFE0E00016315FB
:10088000006E0F0E00016415016E00500001636FD1
:1008900001500001646F1AD000016351006E002600
:1008A00000016435016E00500001636F01500001CA
:1008B000646F010E00016311006E00016451016E4E
:1008C00000500001636F01500001646F65C000F0CB
:1008D000002A00500001656F58D0F90E00017F5DBD
:1008E00003E10A0E00017E5DD8A049D0FA0E000196
:1008F0007F5D03E1990E00017E5DD8B040D000011C
:1009000063A11BD000016351006E00260001643515
:10091000016E00500001636F01500001646F010E11
:1009200000016311006E00016451016E005000016E
:10093000636F01500001646F1BD000016351006EB2
:10094000002600016435016E00500001636F015004
:100950000001646FFE0E00016315006E0F0E0001B2
:100960006415016E00500001636F01500001646F57
:1009700065C000F0002A00500001656F06D0010E2E
:100980000001626F010E0001606F000165510C0AE9
:1009900016E100016451E56E00016351E56E17EC4C
:1009A00006F0006EE652E652005007E00001635187
:1009B000006E016A005004EC0AF00001606BF292D4
:1009C000F2A40BD0F30ED76E230ED66ED59E000187
:1009D000606B030060C0E8FFF294E4CF05F0E4CF61
:1009E00004F0E4CF03F0E4CF02F0E4CF01F0E4CF71
:1009F00000F0E4CFD9FFE4CFFBFFE4CFFAFFE4CF70
:100A0000EAFFE4CFE9FFE4CFF4FFE4CFF3FFE450E3
:100A1000E4CFE0FFE4CFD8FF1000D9CFE5FFE1CF6E
:100A2000D9FF00C0E5FF01C0E5FF02C0E5FF03C03C
:100A3000E5FF04C0E5FF05C0E5FF06C0E5FF07C010
:100A4000E5FF020EDBCF00F0030EDBCF01F0040E5A
:100A5000DBCF02F0050EDBCF03F0060EDBCF04F098
:100A6000070EDBCF05F0080EDBCF06F0090EDBCF5B
:100A700007F0005000016A6F01506B6F02506C6FFD
:100A800003506D6F045000016E6F05506F6F06507C
:100A9000706F0750716F00016A5100017003F4CF4D
:100AA00001F0F3CF00F000500001746F0150756F3A
:100AB00000016A5100016E03F4CF01F0F3CF00F0A2
:100AC00000500001726F0150736F00016D51000101
:100AD0006E03F3CF00F00001755100260050756FD2
:100AE00000016C5100016F03F3CF00F0000175515C
:100AF00000260050756F00016C5100016E03F4CFA9
:100B000001F0F3CF00F0000174510026755101226D
:100B10000050746F0150756F00016B5100016F033D
:100B2000F4CF01F0F3CF00F00001745100267551AD
:100B300001220050746F0150756F00016B5100016C
:100B40007003F3CF00F000500001796F00016B518A
:100B500000016E03F4CF01F0F3CF00F0005000016C
:100B6000776F0150786F00016A5100017103F3CF74
:100B700000F0005000017D6F00016A5100016F0319
:100B8000F4CF01F0F3CF00F0005000017B6F015073
:100B90007C6F0001766B00017A6B000176510001D9
:100BA0007225006E0001775100017321016E000172
:100BB000785100017421026E000179510001752104
:100BC000036E0050726F0150736F0250746F0350C8
:100BD000756F00017A5100017225006E00017B5192
:100BE00000017321016E00017C5100017421026E2D
:100BF00000017D5100017521036E03C0E9FF02C0B1
:100C0000F4FF01C0F3FF0050E4CF07F0E4CF06F09B
:100C1000E4CF05F0E4CF04F0E4CF03F0E4CF02F03A
:100C2000E4CF01F0E4CF00F0E4CFD9FF1200D9CF38
:100C3000E5FFE1CFD9FF00C0E5FF01C0E5FF02C03D
:100C4000E5FF03C0E5FF04C0E5FF05C0E5FF06C002
:100C5000E5FF07C0E5FF08C0E5FF020EDBCF00F0AF
:100C6000030EDBCF01F0026A780E0014036E046AF3
:100C7000056A010E066E000E076E055006E0E86C70
:100C8000D89006360736010FFCE3035006160450D1
:100C90000716065005E1075003E1066A062A01D04F
:100CA000066A0650D880E866D890066A0636025072
:100CB000076E06500718026E052A080E055CD9E378
:100CC0000244FE0B036E026AE60E0014046E056A0F
:100CD000066A010E076E000E086E065006E0E86C0C
:100CE000D89007360836010FFCE30450071605506C
:100CF0000816075005E1085003E1076A072A01D0EA
:100D0000076A0750D880E866D890076A073602500D
:100D1000086E07500818026E062A080E065CD9E312
:100D200002500312D8900336026AD50E0014046EE6
:100D3000056A066A010E076E000E086E065006E090
:100D4000E86CD89007360836010FFCE3045007160C
:100D500005500816075005E1085003E1076A072A05
:100D600001D0076A0750D880E866D890076A07362E
:100D70000250086E07500818026E062A080E065C1C
:100D8000D9E302500312D8900336026A8B0E001486
:100D9000046E056A066A010E076E000E086E0650A4
:100DA00006E0E86CD89007360836010FFCE30450E3
:100DB000071605500816075005E1085003E1076AB9
:100DC000072A01D0076A0750D880E866D890076ADA
:100DD00007360250086E07500818026E062A080EE1
:100DE000065CD9E3025003120150006E016A026AE8
:100DF0000050031803E10150021801E002D0010E77
:100E000001D0E86AE4CF08F0E4CF07F0E4CF06F0C1
:100E1000E4CF05F0E4CF04F0E4CF03F0E4CF02F038
:100E2000E4CF01F0E4CF00F0E4CFD9FF1200D9CF36
:100E3000E5FFE1CFD9FF00C0E5FF01C0E5FF02C03B
:100E4000E5FF03C0E5FF04C0E5FF05C0E5FF06C000
:100E5000E5FF07C0E5FF08C0E5FF09C0E5FF0AC0E0
:100E6000E5FF0BC0E5FF0CC0E5FF0DC0E5FF0EC0C0
:100E7000E5FF0FC0E5FF020EDBCF00F0030EDBCF76
:100E800001F0040EDBCF02F0050EDBCF03F066C0ED
:100E900004F067C005F068C006F069C007F00450B0
:100EA0000001665D086E055000016759096E065025
:100EB000000168590A6E0750000169590B6E08500D
:100EC0000C6E09500D6E0A500E6E0B500F6ED880CE
:100ED0000FAED8901CE30B50E56E0A50E56E09503A
:100EE000E56E0850E56EFF0EE56EFF0EE56EFF0E37
:100EF000E56EFF0EE56E0DEC05F00C6EF3CF0DF018
:100F0000F4CF0EF0E9CF0FF0080EE12608D008C0AC
:100F10000CF009C00DF00AC00EF00BC00FF003502A
:100F20000F5C08E102500E5C05E101500D5C02E12E
:100F300000500C5CD8A0B3D7E4CF0FF0E4CF0EF094
:100F4000E4CF0DF0E4CF0CF0E4CF0BF0E4CF0AF0E7
:100F5000E4CF09F0E4CF08F0E4CF07F0E4CF06F0E7
:100F6000E4CF05F0E4CF04F0E4CF03F0E4CF02F0E7
:100F7000E4CF01F0E4CF00F0E4CFD9FF1200D9CFE5
:100F8000E5FFE1CFD9FF81840000000000000000F0
:100F90000000000000000000000000000000000051
:100FA0000000000000000000000000000000000041
:100FB0000000000000000000000000000000000031
:100FC0000000000000000000000000000000000021
:100FD0000000000000000000000000000000000011
:100FE00000008194000000000000000000000000EC
:100FF00000000000000000000000000000000000F1
:1010000000000000000000000000000000000000E0
:1010100000000000000000000000000000000000D0
:1010200000000000000000000000000000000000C0
:101030000000000000000000000000000000E4CFFD
:10104000D9FF1200D9CFE5FFE1CFD9FF818200009F
:101050000000000000000000000000000000000090
:101060000000000000000000000000000000000080
:101070000000000000000000000000000000000070
:101080000000000000000000000000000000000060
:101090000000000000000000000000000000000050
:1010A000000000000000000081920000000000002D
:1010B0000000000000000000000000000000000030
:1010C0000000000000000000000000000000000020
:1010D0000000000000000000000000000000000010
:1010E0000000000000000000000000000000000000
:1010F00000000000000000000000000000000000F0
:1011000000000000E4CFD9FF1200D9CFE5FFE1CF06
:10111000D9FF8282000000000000000000000000F3
:1011200000000000000000000000000000000000BF
:1011300000000000000000000000000000000000AF
:10114000000000000000000000000000000000009F
:10115000000000000000000000000000000000008F
:10116000000000000000000000008292000000006B
:10117000000000000000000000000000000000006F
:10118000000000000000000000000000000000005F
:10119000000000000000000000000000000000004F
:1011A000000000000000000000000000000000003F
:1011B000000000000000000000000000000000002F
:1011C0000000E4CFD9FF1200D8CFE5FFE0CFE5FF64
:1011D000E56EF3CFE5FFF4CFE5FFE9CFE5FFEACF1A
:1011E000E5FFFACFE5FFFBCFE5FFD9CFE5FFE1CF84
:1011F000D9FF00C0E5FF9EA010D0F80ECF6E530EB1
:10120000CE6E9E900001662B08E30001672B05E37C
:101210000001683F02D00001692B06EC00F0006E6F
:10122000005006E0E6EC09F0006E005004EC0AF015
:10123000E4CF00F0E4CFD9FFE4CFFBFFE4CFFAFF27
:10124000E4CFEAFFE4CFE9FFE4CFF4FFE4CFF3FF1C
:10125000E450E4CFE0FFE4CFD8FF1000D9CFE5FFA2
:10126000E1CFD9FF00C0E5FF01C0E5FF02C0E5FF07
:1012700003C0E5FF020EDBCF00F000407F0B016EE4
:10128000550E01160044FE0B026EAA0E0216025005
:1012900001120040E8403F0B026E330E021600447C
:1012A000E844FC0B036ECC0E0316035002120250EE
:1012B000011200380F0B026E0F0E02160038F00BF1
:1012C000036EF00E0314006E005002120250011261
:1012D0000150E4CF03F0E4CF02F0E4CF01F0E4CF1B
:1012E00000F0E4CFD9FF1200D350FC0BD36ED350E3
:1012F0008F0B7009D36E0001666B0001676B0001F4
:10130000686B0001696B0001606B0001626BA5EC0A
:1013100009F085EC08F00EEC00F085EC08F085ECA7
:1013200008F085EC08F085EC08F085EC08F085EC19
:1013300008F085EC08F085EC08F085EC08F085EC09
:1013400008F085EC08F0E5D71200D9CFE5FFE1CF32
:10135000D9FF9380939281929394819494928292F4
:10136000948E949CD59ED590D592D594D59CD59AA3
:10137000D586F184F28AF284CD80CD8ECD92CD9641
:10138000CD98CD9A9F909D809E80D08EF288F18CD2
:10139000F28CF28E9F9A9F98D1EC09F0E4CFD9FF9E
:1013A0001200D9CFE5FFE1CFD9FF670EAF6EAC8455
:1013B000AC98B886AB8E9D989F989D8A9F9AAC9C5E
:1013C000AB9CAB88AC8AE4CFD9FF1200F00E0001D1
:1013D0008015806FABAC04D08091ABA001D0808130
:1013E000ABA402D000018085ABA202D000018087AF
:1013F000AE50120017EEFFF027EEFFF0F86AA68E4F
:10140000A69C74EC09F0FFD7ACAC04D0AC90000102
:0814100080B3AC80AD6E120048
:020000040030CA
:04000000010A191EBA
:020005008185F3
:060008000FC00FE00F40E5
:00000001FF
