:020000040000FA
:10000000C6EF05F0BAEF05F00EEF00F0000EACA25F
:04001000010F1200CA
:0800180066EF04F0D8CFE5FF0C
:10002000E0CFE5FFE56EF3CFE5FFF4CFE5FFE9CFE5
:10003000E5FFEACFE5FFFACFE5FFFBCFE5FFD9CF3C
:10004000E5FFE1CFD9FF00C0E5FF01C0E5FF02C039
:10005000E5FF03C0E5FF04C0E5FF05C0E5FFF2A230
:100060003ED18182D6CF00F0016AD7CF02F0036A79
:100070000250056E046A045000100001BE6F055066
:1000800001100001BF6FF30ED76E230ED66EA0C015
:1000900000F0030E005CD8B021D1FA6AFB6A00348C
:1000A000FA36E834FA36FC0BB80FE56E000EFA2289
:1000B000000EFB22E450F96E62EF00F069EF00F0F1
:1000C00095EF00F0010E0001A26F010E0001A06F7C
:1000D00005D1F50E0001BF5D03E1B30E0001BE5D69
:1000E0001DE3F70E0001BF5D03E1420E0001BE5D9E
:1000F00015E2020E0001A25D07E2A2C000F0002A94
:1001000000500001A26FEAD00001A36B0001A46BB4
:100110000001A56B020E0001A06FE0D0010E0001EE
:10012000A26F010E0001A06FD9D00D0E0001A55DD8
:10013000D8B0D4D0F50E0001BF5D03E1B30E0001CD
:10014000BE5D08E3F70E0001BF5D03E1420E000152
:10015000BE5D12E3FC0E0001BF5D03E1610E000114
:10016000BE5DD8A049D0FD0E0001BF5D03E1F00ED9
:100170000001BE5DD8B040D00001A3A11CD0000199
:10018000A351006E00260001A435016E005000014D
:10019000A36F01500001A46FFE0E0001A315006EB5
:1001A0000F0E0001A415016E00500001A36F015055
:1001B0000001A46F1AD00001A351006E00260001B7
:1001C000A435016E00500001A36F01500001A46F1F
:1001D000010E0001A311006E0001A451016E005038
:1001E0000001A36F01500001A46FA5C000F0002A18
:1001F00000500001A56F58D0F90E0001BF5D03E16A
:100200000A0E0001BE5DD8A049D0FA0E0001BF5D04
:1002100003E1990E0001BE5DD8B040D00001A3A15A
:100220001BD00001A351006E00260001A435016E11
:1002300000500001A36F01500001A46F010E0001E6
:10024000A311006E0001A451016E00500001A36FC4
:1002500001500001A46F1BD00001A351006E0026C5
:100260000001A435016E00500001A36F0150000190
:10027000A46FFE0E0001A315006E0F0E0001A41561
:10028000016E00500001A36F01500001A46FA5C0D2
:1002900000F0002A00500001A56F06D0010E0001F9
:1002A000A26F010E0001A06F0001A5510C0A16E11A
:1002B0000001A451E56E0001A351E56EBEEC02F011
:1002C000006EE652E652005007E00001A351006EB6
:1002D000016A0050D0EC05F00001A06BF292F2A48C
:1002E0000DD0F30ED76E230ED66E0001A16B000168
:1002F000A05101E003000001A06BF294E4CF05F0EF
:10030000E4CF04F0E4CF03F0E4CF02F0E4CF01F057
:10031000E4CF00F0E4CFD9FFE4CFFBFFE4CFFAFF56
:10032000E4CFEAFFE4CFE9FFE4CFF4FFE4CFF3FF4B
:10033000E450E4CFE0FFE4CFD8FF100054657374BD
:100340006F207072696E74657220656D756C617472
:100350006F722E2E2E2073657269616C20776F721A
:100360006B696E670A0D0000D9CFE5FFE1CFD9FFB9
:1003700000C0E5FF01C0E5FF02C0E5FF03C0E5FFE7
:1003800004C0E5FF05C0E5FF06C0E5FF07C0E5FFC7
:10039000020EDBCF00F0030EDBCF01F0040EDBCF4B
:1003A00002F0050EDBCF03F0060EDBCF04F0070EE4
:1003B000DBCF05F0080EDBCF06F0090EDBCF07F030
:1003C00000500001AA6F0150AB6F0250AC6F035098
:1003D000AD6F04500001AE6F0550AF6F0650B06FA7
:1003E0000750B16F0001AA510001B003F4CF01F032
:1003F000F3CF00F000500001B46F0150B56F000161
:10040000AA510001AE03F4CF01F0F3CF00F0005089
:100410000001B26F0150B36F0001AD510001AE0396
:10042000F3CF00F00001B55100260050B56F000178
:10043000AC510001AF03F3CF00F00001B55100262D
:100440000050B56F0001AC510001AE03F4CF01F0D4
:10045000F3CF00F00001B4510026B5510122005045
:10046000B46F0150B56F0001AB510001AF03F4CF81
:1004700001F0F3CF00F00001B4510026B551012284
:100480000050B46F0150B56F0001AB510001B003D3
:10049000F3CF00F000500001B96F0001AB51000133
:1004A000AE03F4CF01F0F3CF00F000500001B76FBE
:1004B0000150B86F0001AA510001B103F3CF00F061
:1004C00000500001BD6F0001AA510001AF03F4CF3D
:1004D00001F0F3CF00F000500001BB6F0150BC6F82
:1004E0000001B66B0001BA6B0001B6510001B225E4
:1004F000006E0001B7510001B321016E0001B85137
:100500000001B421026E0001B9510001B521036E52
:100510000050B26F0150B36F0250B46F0350B56F0B
:100520000001BA510001B225006E0001BB5100016B
:10053000B321016E0001BC510001B421026E000123
:10054000BD510001B521036E03C0E9FF02C0F4FFF5
:1005500001C0F3FF0050E4CF07F0E4CF06F0E4CF92
:1005600005F0E4CF04F0E4CF03F0E4CF02F0E4CFF1
:1005700001F0E4CF00F0E4CFD9FF1200D9CFE5FFBE
:10058000E1CFD9FF00C0E5FF01C0E5FF02C0E5FFF4
:1005900003C0E5FF04C0E5FF05C0E5FF06C0E5FFB9
:1005A00007C0E5FF08C0E5FF020EDBCF00F0030E39
:1005B000DBCF01F0026A780E0014036E046A056A4C
:1005C000010E066E000E076E055006E0E86CD8902E
:1005D00006360736010FFCE30350061604500716D3
:1005E000065005E1075003E1066A062A01D0066AB3
:1005F0000650D880E866D890066A06360250076E24
:1006000006500718026E052A080E055CD9E302445D
:10061000FE0B036E026AE60E0014046E056A066A9B
:10062000010E076E000E086E065006E0E86CD890CA
:1006300007360836010FFCE304500716055008166C
:10064000075005E1085003E1076A072A01D0076A4D
:100650000750D880E866D890076A07360250086EBF
:1006600007500818026E062A080E065CD9E30250ED
:100670000312D8900336026AD50E0014046E056A80
:10068000066A010E076E000E086E065006E0E86C62
:10069000D89007360836010FFCE3045007160550C2
:1006A0000816075005E1085003E1076A072A01D040
:1006B000076A0750D880E866D890076A0736025064
:1006C000086E07500818026E062A080E065CD9E369
:1006D00002500312D8900336026A8B0E0014046E87
:1006E000056A066A010E076E000E086E065006E0E7
:1006F000E86CD89007360836010FFCE30450071663
:1007000005500816075005E1085003E1076A072A5B
:1007100001D0076A0750D880E866D890076A073684
:100720000250086E07500818026E062A080E065C72
:10073000D9E3025003120150006E016A026A0050B0
:10074000031803E10150021801E002D0010E01D0AC
:10075000E86AE4CF08F0E4CF07F0E4CF06F0E4CF96
:1007600005F0E4CF04F0E4CF03F0E4CF02F0E4CFEF
:1007700001F0E4CF00F0E4CFD9FF1200D9CFE5FFBC
:10078000E1CFD9FF00C0E5FF01C0E5FF02C0E5FFF2
:1007900003C0E5FF04C0E5FF05C0E5FF06C0E5FFB7
:1007A00007C0E5FF08C0E5FF09C0E5FF0AC0E5FF97
:1007B0000BC0E5FF0CC0E5FF0DC0E5FF0EC0E5FF77
:1007C0000FC0E5FF020EDBCF00F0030EDBCF01F020
:1007D000040EDBCF02F0050EDBCF03F0A6C004F061
:1007E000A7C005F0A8C006F0A9C007F0045000019A
:1007F000A65D086E05500001A759096E065000015C
:10080000A8590A6E07500001A9590B6E08500C6ECA
:1008100009500D6E0A500E6E0B500F6ED8800FAE41
:10082000D8901CE30B50E56E0A50E56E0950E56E5A
:100830000850E56EFF0EE56EFF0EE56EFF0EE56EED
:10084000FF0EE56EB4EC01F00C6EF3CF0DF0F4CFBB
:100850000EF0E9CF0FF0080EE12608D008C00CF02A
:1008600009C00DF00AC00EF00BC00FF003500F5C72
:1008700008E102500E5C05E101500D5C02E1005000
:100880000C5CD8A0B3D7E4CF0FF0E4CF0EF0E4CFE8
:100890000DF0E4CF0CF0E4CF0BF0E4CF0AF0E4CF9E
:1008A00009F0E4CF08F0E4CF07F0E4CF06F0E4CF9E
:1008B00005F0E4CF04F0E4CF03F0E4CF02F0E4CF9E
:1008C00001F0E4CF00F0E4CFD9FF1200D8CFE5FF6C
:1008D000E0CFE5FFE56EF3CFE5FFF4CFE5FFE9CF2D
:1008E000E5FFEACFE5FFFACFE5FFFBCFE5FFD9CF84
:1008F000E5FFE1CFD9FF00C0E5FF9EA010D0F80EC4
:10090000CF6E530ECE6E9E900001A62B08E3000121
:10091000A72B05E30001A83F02D00001A92BD8ECCA
:1009200005F0006E005006E095EC05F0006E0050FA
:10093000D0EC05F0E4CF00F0E4CFD9FFE4CFFBFF2B
:10094000E4CFFAFFE4CFEAFFE4CFE9FFE4CFF4FF1E
:10095000E4CFF3FFE450E4CFE0FFE4CFD8FF100092
:10096000D9CFE5FFE1CFD9FF00C0E5FF01C0E5FF2A
:1009700002C0E5FF03C0E5FF020EDBCF00F0004040
:100980007F0B016E550E01160044FE0B026EAA0E7F
:100990000216025001120040E8403F0B026E330E77
:1009A00002160044E844FC0B036ECC0E0316035001
:1009B00002120250011200380F0B026E0F0E0216C7
:1009C0000038F00B036EF00E0314006E005002129C
:1009D000025001120150E4CF03F0E4CF02F0E4CF63
:1009E00001F0E4CF00F0E4CFD9FF1200D9CFE5FF4A
:1009F000E1CFD9FF00C0E5FF01C0E5FF02C0E5FF80
:100A000003C0E5FF020EDBCF00F0030EDBCF01F0E9
:100A1000040EDBCF02F006EC00F0036E0350FBE1A6
:100A200000C0E9FF01C0F3FF0250A9EC05F0D0ECD3
:100A300005F000C0E9FF01C0F3FF0250A9EC05F08A
:100A4000036E002A02E3014A022A0350E4E1E4CFE4
:100A500003F0E4CF02F0E4CF01F0E4CF00F0E4CF04
:100A6000D9FF1200D350FC0BD36ED3508F0B7009FB
:100A7000D36E0001A66B0001A76B0001A86B0001FB
:100A8000A96B0001A06B0001A26B61EC05F09F9ABD
:100A90009F9880EC05F0000E026E030E016E3C0E76
:100AA000006E0250E56E0150E56E0050E56EF6EC0A
:100AB00004F0030EE1269380948093928192FFD7F5
:100AC0001200D9CFE5FFE1CFD9FFD58ED590D592D1
:100AD000D594D59CD59AD586F184F28AF284CD80BE
:100AE000CD8ECD92CD96CD98CD9A9F909D809E80B3
:100AF000D08EF288F18CF28CF28EE4CFD9FF120006
:100B0000D9CFE5FFE1CFD9FF670EAF6EAC84AC98CB
:100B1000B886AB8E9D989F989D8A9F9AAC9CAB9C03
:100B2000AB88AC8AE4CFD9FF1200F00E0001C015EB
:100B3000C06FABAC04D0C091ABA001D0C081ABA45E
:100B400002D00001C085ABA202D00001C087AE5028
:100B50001200E8AE04D0F3CFEAFFEE501200E8BC7A
:100B600002EF00F0E9CFF6FFF3CFF7FFF86E0900D0
:100B7000F5501200F2CFF6FFF29EA69EA69CE9CF9A
:100B8000A9FFA680A850F6BEF28E120017EEFFF065
:100B900027EEFFF0F86AA68EA69C32EC05F0FFD790
:100BA000ACAC04D0AC900001C0B3AC80AD6E120010
:080BB000000E9EBA010F1200B5
:020000040030CA
:04000000010B191EB9
:0200050082C5B2
:060008000FC00FE00F40E5
:00000001FF
