:020000040000FA
:1000000065EF15F0C96E120085EF07F0ACA2FED7C0
:10001000AD6E120015EF15F073EF12F0D9CFE5FFBA
:10002000E1CFD9FF00C0E5FF01C0E5FF02C0E5FF59
:1000300003C0E5FF04C0E5FF05C0E5FF06C0E5FF1E
:1000400007C0E5FF08C0E5FF09C0E5FF0AC0E5FFFE
:100050000BC0E5FF0CC0E5FF0DC0E5FF0EC0E5FFDE
:100060000FC0E5FF10C0E5FF11C0E5FF12C0E5FFBE
:1000700013C0E5FF14C0E5FF15C0E5FF16C0E5FF9E
:1000800017C0E5FF18C0E5FF19C0E5FF1AC0E5FF7E
:100090001BC0E5FF1CC0E5FF1DC0E5FF1EC0E5FF5E
:1000A000020EDBCF00F0030EDBCF01F0040EDBCF3E
:1000B00002F0050EDBCF03F0060EDBCF04F0070ED7
:1000C000DBCF05F0080EDBCF06F0090EDBCF07F023
:1000D0000A0EDBCF08F0096A0A6A02C00DF00D5063
:1000E000800A0DE102500001F36F0150F26F0050E1
:1000F000F16F000E016EF10E006E800E026E03C0F5
:10010000E9FF04C0F3FF055004EC15F00B6E0B5033
:10011000D8B4CAEF03F00B50250A02E0B1EF03F0A8
:100120000C6A0D6A0E6A0F6A106A0A0E116E126A64
:10013000136A146A200E156E1668176A2B0E186E55
:10014000032A02E3044A052A03C0E9FF04C0F3FFBF
:10015000055004EC15F0196E250A13E11950E56EEF
:100160000250E56E0150E56E0050E56E44EC0FF074
:10017000040EE126094A0A2A032A02E3044A052A50
:10018000BED71950300A06E1300E156E032A02E37D
:10019000044A052A03C0E9FF04C0F3FF055004EC3C
:1001A00015F02D0A06E1010E146E032A02E3044A3B
:1001B000052A03C0E9FF04C0F3FF055004EC15F065
:1001C000200A08E1010E176E200E186E032A02E3C2
:1001D000044A052A03C0E9FF04C0F3FF055004ECFC
:1001E00015F02B0A06E1010E176E032A02E3044AFA
:1001F000052A03C0E9FF04C0F3FF055004EC15F025
:10020000196E800F4F0F2DE31950800F460F29E212
:1002100003C019F004C01AF005C01BF019C0E9FFB3
:100220001AC0F3FF1B5004EC15F01C6E800F500F2A
:1002300012E31C50800F460F0EE213500A0DF3CF4D
:100240001DF01D501C26D00E1C24136E192A02E32B
:100250001A4A1B2AE3D719C003F01AC004F01BC0C6
:1002600005F003C0E9FF04C0F3FF055004EC15F0EE
:100270002E0A2EE1032A02E3044A052A166A03C065
:1002800019F004C01AF005C01BF019C0E9FF1AC02C
:10029000F3FF1B5004EC15F01C6E800F500F12E39F
:1002A0001C50800F460F0EE216500A0DF3CF1DF0C2
:1002B0001D501C26D00E1C24166E192A02E31A4A61
:1002C0001B2AE3D719C003F01AC004F01BC005F0C5
:1002D00003C0E9FF04C0F3FF055004EC15F0196EEC
:1002E0006C0A07E1010E0C6E032A02E3044A052A98
:1002F00009D01950680A06E1010E0E6E032A02E3C6
:10030000044A052A03C0E9FF04C0F3FF055004ECCA
:1003100015F0750A06E1010E106E032A02E3044A85
:10032000052A03C0E9FF04C0F3FF055004EC15F0F3
:10033000196E730A05E1010E0D6E200E156E3FD089
:100340001950780A03E1100E116E39D01950580A6D
:1003500005E1100E116E010E126E31D01950630AB4
:1003600002E1116A2CD019506F0A03E1080E116ED8
:1003700026D01950660A03E1010E0F6E20D01950E5
:10038000640A1DE01950690A1AE0105005E0FF0EDA
:1003900003260422052213D01950E56E0250E56EA3
:1003A0000150E56E0050E56E44EC0FF0040EE126BE
:1003B000094A0A2A032A02E3044A052AA0D60D5054
:1003C00021E00650030F0D6E000E0720196E000E7F
:1003D00008201A6E0DC006F019C007F01AC008F008
:1003E000FD0E0D26FF0E19221A220DC0E9FF19C0BD
:1003F000F3FF1A5039EC14F00D6EF3CF19F0F4CF6F
:100400001AF000D10F500DE0000E1A6E080E196E92
:100410001C0E0D6E040E0626000E0722082216681A
:10042000F1D016680C5023E00650040F0C6E000E3D
:1004300007200F6E000E08201B6E0CC006F00FC0C8
:1004400007F01BC008F0FC0E0C26FF0E0F221B222B
:100450000CC0E9FF0FC0F3FF1B50DEEC13F00C6E75
:10046000F3CF0FF0F4CF1BF0E9CF1CF06AD00E50A1
:1004700032E00650020F0E6E000E07201D6E000EB9
:1004800008201E6E0EC006F01DC007F01EC008F04A
:10049000FE0E0E26FF0E1D221E220EC0E9FF1DC0FD
:1004A000F3FF1E50B1EC14F00E6E0EC00CF0E86AB3
:1004B0000EBEFF0E0F6E1B6E1C6E11500A0A03E17A
:1004C0001050D8B43ED00C500E6E0EC00CF00F6A17
:1004D0001B6A1C6A36D00650020F0E6E000E0720F3
:1004E0001D6E000E08201E6E0EC006F01DC007F027
:1004F0001EC008F0FE0E0E26FF0E1D221E220EC08C
:10050000E9FF1DC0F3FF1E50B1EC14F00E6EF3CFE7
:100510001DF00EC00CF01DC00FF0E86A1DBEFF0EEE
:100520001B6E1C6E11500A0A02E110500AE00C50BA
:100530000E6E0F501D6E0EC00CF01DC00FF01B6A2A
:100540001C6A000E196EC10E0D6E800E1A6E1150CF
:10055000D8B440D0105013E01150E56E000EE56E97
:10056000C10EE56E1C50E56E1B50E56E0F50E56E3A
:100570000C50E56E0DEC0CF0070EE12612D0115078
:10058000E56E000EE56EC10EE56E1C50E56E1B506B
:10059000E56E0F50E56E0C50E56E06EC11F0070E9F
:1005A000E12617502FE00DC0E9FF19C0F3FF1A50E4
:1005B00004EC15F02D0A26E0FF0E0D2619221A2252
:1005C00018C0E5FF0DC0E9FF19C0F3FF1A5050EC49
:1005D00015F018D00CC0E5FF0DC0E9FF19C0F3FFFE
:1005E0001A5050EC15F00D50010F0C6E000E192032
:1005F0000E6E000E1A20E56A0CC0E9FF0EC0F3FF74
:1006000050EC15F00DC00CF019C00EF01AC00FF030
:1006100013C010F0105010E00CC0E9FF0EC0F3FF43
:100620000F5004EC15F0176E175006E00C2A02E389
:100630000E4A0F2A1006EED710C013F014501EE118
:1006400009C00CF00AC00EF010C00FF00F5010E0FF
:100650001550E56E0250E56E0150E56E0050E56EF6
:1006600044EC0FF0040EE1260C4A0E2A0F06EED7DA
:100670000CC009F00EC00AF00FC013F016C00CF049
:100680000DC00DF019C00EF01AC00FF009C010F027
:100690000AC015F00DC0E9FF0EC0F3FF0F5004ECC7
:1006A00015F0166E1650D8B43ED00CC016F0176A6E
:1006B000161E171E1650171005E00CC016F00C067B
:1006C000165031E00DC0E9FF0EC0F3FF0F5004ECEF
:1006D00015F0116E125010E01150E56E84EC14F01C
:1006E000166EE652165004E01150166E169A02D09D
:1006F00011C016F016C011F01150E56E0250E56EF3
:100700000150E56E0050E56E44EC0FF0040EE1265A
:100710000D2A02E30E4A0F2A104A152A1350D8B4A4
:10072000B9D71306B7D710C009F015C00AF0145096
:100730002BE010C00CF015C00DF013C00EF00E50E1
:100740001FE0200EE56E0250E56E0150E56E005090
:10075000E56E44EC0FF0040EE1260C4A0D2A0E065D
:10076000EED70B50E56E0250E56E0150E56E00507D
:10077000E56E44EC0FF0040EE126094A0A2A04D083
:100780000CC009F00DC00AF0032A02E3044A052A4E
:100790007FEF00F00AC0F3FF0950E4CF1EF0E4CF72
:1007A0001DF0E4CF1CF0E4CF1BF0E4CF1AF0E4CF4F
:1007B00019F0E4CF18F0E4CF17F0E4CF16F0E4CF4F
:1007C00015F0E4CF14F0E4CF13F0E4CF12F0E4CF4F
:1007D00011F0E4CF10F0E4CF0FF0E4CF0EF0E4CF4F
:1007E0000DF0E4CF0CF0E4CF0BF0E4CF0AF0E4CF4F
:1007F00009F0E4CF08F0E4CF07F0E4CF06F0E4CF4F
:1008000005F0E4CF04F0E4CF03F0E4CF02F0E4CF4E
:1008100001F0E4CF00F0E4CFD9FF12003C4E4F20AE
:10082000464C4F41543E0000D9CFE5FFE1CFD9FF00
:1008300082820000000000000000000000000000B4
:1008400000000000000000000000000000000000A8
:100850000000000000000000000000000000000098
:100860000000000000000000000000000000000088
:100870000000000000000000000000000000000078
:100880000000000000000000000000000000000068
:100890000000000000000000000000000000000058
:1008A0000000000000000000000000000000000048
:1008B0000000000000000000000000000000000038
:1008C0000000000000000000000000000000000028
:1008D0000000000000000000000000000000829204
:1008E0000000000000000000000000000000000008
:1008F00000000000000000000000000000000000F8
:1009000000000000000000000000000000000000E7
:1009100000000000000000000000000000000000D7
:1009200000000000000000000000000000000000C7
:1009300000000000000000000000000000000000B7
:1009400000000000000000000000000000000000A7
:100950000000000000000000000000000000000097
:100960000000000000000000000000000000000087
:100970000000000000000000000000000000000077
:100980000000000000000000000000008282000063
:100990000000000000000000000000000000000057
:1009A0000000000000000000000000000000000047
:1009B0000000000000000000000000000000000037
:1009C0000000000000000000000000000000000027
:1009D0000000000000000000000000000000000017
:1009E00000000000829200000000000000000000F3
:1009F00000000000000000000000000000000000F7
:100A000000000000000000000000000000000000E6
:100A100000000000000000000000000000000000D6
:100A200000000000000000000000000000000000C6
:100A300000000000000000000000000082820000B2
:100A400000000000000000000000000000000000A6
:100A50000000000000000000000000000000000096
:100A60000000000000000000000000000000000086
:100A70000000000000000000000000000000000076
:100A80000000000000000000000000000000000066
:100A90000000000000000000000000000000000056
:100AA0000000000000000000000000000000000046
:100AB0000000000000000000000000000000000036
:100AC0000000000000000000000000000000000026
:100AD0000000000000000000000000000000000016
:100AE00000000000000000000000829200000000F2
:100AF00000000000000000000000000000000000F6
:100B000000000000000000000000000000000000E5
:100B100000000000000000000000000000000000D5
:100B200000000000000000000000000000000000C5
:100B300000000000000000000000000000000000B5
:100B400000008282000000000000000000000000A1
:100B50000000000000000000000000000000000095
:100B60000000000000000000000000000000000085
:100B70000000000000000000000000000000000075
:100B80000000000000000000000000000000000065
:100B90000000000000000000000082920000000041
:100BA0000000000000000000000000000000000045
:100BB0000000000000000000000000000000000035
:100BC0000000000000000000000000000000000025
:100BD0000000000000000000000000000000000015
:100BE0000000000000000000000000000000000005
:100BF00000000000000000000000000000000000F5
:100C000000000000000000000000000000000000E4
:100C100000000000000000000000000000000000D4
:100C200000000000000000000000000000000000C4
:100C300000000000000000000000000000000000B4
:100C400000000000000000008282000000000000A0
:100C50000000000000000000000000000000000094
:100C60000000000000000000000000000000000084
:100C70000000000000000000000000000000000074
:100C80000000000000000000000000000000000064
:100C90000000000000000000000000000000000054
:100CA0008292000000000000000000000000000030
:100CB0000000000000000000000000000000000034
:100CC0000000000000000000000000000000000024
:100CD0000000000000000000000000000000000014
:100CE0000000000000000000000000000000000004
:100CF00000000000000000008282000000000000F0
:100D000000000000000000000000000000000000E3
:100D100000000000000000000000000000000000D3
:100D200000000000000000000000000000000000C3
:100D300000000000000000000000000000000000B3
:100D400000000000000000000000000000000000A3
:100D5000829200000000000000000000000000007F
:100D60000000000000000000000000000000000083
:100D70000000000000000000000000000000000073
:100D80000000000000000000000000000000000063
:100D90000000000000000000000000000000000053
:100DA000000000000000000082820000000000003F
:100DB0000000000000000000000000000000000033
:100DC0000000000000000000000000000000000023
:100DD0000000000000000000000000000000000013
:100DE0000000000000000000000000000000000003
:100DF00000000000000000000000000000000000F3
:100E000000000000000000000000000000000000E2
:100E100000000000000000000000000000000000D2
:100E200000000000000000000000000000000000C2
:100E300000000000000000000000000000000000B2
:100E400000000000000000000000000000000000A2
:100E5000000000000000829200000000000000007E
:100E60000000000000000000000000000000000082
:100E70000000000000000000000000000000000072
:100E80000000000000000000000000000000000062
:100E90000000000000000000000000000000000052
:100EA0000000000000000000000000000000000042
:100EB0000000000000000000000000000000000032
:100EC0000000000000000000000000000000000022
:100ED0000000000000000000000000000000000012
:100EE0000000000000000000000000000000000002
:100EF00000000000000000000000000000000000F2
:100F000000000000E4CFD9FF1200D8CFE5FFE0CF0A
:100F1000E5FFE56EF3CFE5FFF4CFE5FFE9CFE5FFB1
:100F2000EACFE5FFFACFE5FFFBCFE5FFD9CFE5FF3D
:100F3000E1CFD9FF00C0E5FF01C0E5FF02C0E5FF3A
:100F400003C0E5FF04C0E5FF05C0E5FFF2A279D1CB
:100F5000D6CF00F0016AD7CF02F0036A0250056EC7
:100F6000046A045000100001F86F055001100001E0
:100F7000F96F0001FB51006E016A0050D76E00014D
:100F8000FA51D66E0001FE51010A01E059D1CDC0DF
:100F900000F0005008E00050010A0DE00050030A84
:100FA00001E145D04DD1D58E010E0001CF6F010E6C
:100FB0000001CD6F45D10001FA518F0F006E020E76
:100FC0000001FB21016E0001F951015C03E1000108
:100FD000F851005C25E20001FA511F0F006E040E6B
:100FE0000001FB21016E01500001F95D03E1005099
:100FF0000001F85D15E2020E0001CF5D07E2CFC0EF
:1010000000F0002A00500001CF6F1AD10001D06B10
:101010000001D16B0001D26B030E0001CD6F10D126
:10102000010E0001CF6F010E0001CD6F09D10D0E31
:101030000001D25DD8B004D10001FA518F0F006ECB
:10104000020E0001FB21016E0001F951015C03E178
:101050000001F851005C10E20001FA511F0F006E10
:10106000040E0001FB21016E01500001F95D03E156
:1010700000500001F85D22E30001FA513D0F006EBF
:10108000090E0001FB21016E0001F951015C03E131
:101090000001F851005CD8B051D00001FA51CD0FD9
:1010A000006E0A0E0001FB21016E01500001F95D86
:1010B00003E100500001F85DD8B040D00001D0A19C
:1010C0001CD00001D051006E00260001D135016E08
:1010D00000500001D06F01500001D16FFE0E0001E1
:1010E000D015006E0F0E0001D115016E00500001E9
:1010F000D06F01500001D16F1AD00001D051006EA5
:1011000000260001D135016E00500001D06F015062
:101110000001D16F010E0001D011006E0001D1510C
:10112000016E00500001D06F01500001D16FD2C09C
:1011300000F0002A00500001D26F68D00001FA517F
:10114000E60F006E050E0001FB21016E0001F95152
:10115000015C03E10001F851005CD8B051D00001FE
:10116000FA51760F006E070E0001FB21016E01504F
:101170000001F95D03E100500001F85DD8B040D0F6
:101180000001D0A11BD00001D051006E002600014B
:10119000D135016E00500001D06F01500001D16FB8
:1011A000010E0001D011006E0001D151016E0050FE
:1011B0000001D06F01500001D16F1BD00001D05150
:1011C000006E00260001D135016E00500001D06F85
:1011D00001500001D16FFE0E0001D015006E0F0E00
:1011E0000001D115016E00500001D06F01500001C7
:1011F000D16FD2C000F0002A00500001D26F06D09B
:10120000010E0001CF6F010E0001CD6F0001D25120
:101210000C0A16E10001D151E56E0001D051E56ED6
:101220000DEC0BF0006EE652E652005007E00001B4
:10123000D051006E016A00507FEC15F00001CD6BBB
:10124000F292F2A46CD00001FB51006E016A0050D2
:10125000D76E0001FA51D66E0001FE51010A05E079
:101260000001FE51030A08E059D0D59E0001CD6B64
:101270000300CDC0E8FF52D0D3C000F0005008E01A
:101280000050020A25E00050070A01E144D046D090
:10129000000E016EFD0E006E800E026E0250E56EB5
:1012A0000150E56E0050E56E27EC12F0006E030E63
:1012B000E1260050D8B432D08292020E0001D36FE2
:1012C000080E0001D66F0001FD510001D56F26D038
:1012D000010E0001D65D1AE3010E0001D515006E66
:1012E0000050010BE844F46E8250FD0BF410826E46
:1012F0000001D5417F0B006E00500001D56FD6C0B4
:1013000000F0000600500001D66F08D08282070E60
:101310000001D36F03D082820001D36BF294A1ACA1
:101320003AD0B4AC36D0D6CF00F0016AD7CF02F0B5
:10133000036A0250056E046A045000100001F86F41
:10134000055001100001F96F0001FB51006E016AA8
:101350000050D76E0001FA51D66E8182010E000155
:10136000F95D03E1550E0001F85D14E3010E000183
:10137000F95D03E1DC0E0001F85D0CE28184000000
:101380000000000000000000000000000000819448
:1013900001D08192A19CE4CF05F0E4CF04F0E4CF2A
:1013A00003F0E4CF02F0E4CF01F0E4CF00F0E4CFAB
:1013B000D9FFE4CFFBFFE4CFFAFFE4CFEAFFE4CFAD
:1013C000E9FFE4CFF4FFE4CFF3FFE450E4CFE0FF24
:1013D000E4CFD8FF1000546573746F207072696E8B
:1013E00074657220656D756C61746F722E2E2E207F
:1013F00073657269616C20776F726B696E670A0D35
:10140000000025642000D9CFE5FFE1CFD9FF00C05F
:10141000E5FF01C0E5FF02C0E5FF03C0E5FF04C032
:10142000E5FF05C0E5FF06C0E5FF07C0E5FF020ECA
:10143000DBCF00F0030EDBCF01F0040EDBCF02F0B8
:10144000050EDBCF03F0060EDBCF04F0070EDBCF7B
:1014500005F0080EDBCF06F0090EDBCF07F00050D9
:101460000001DD6F0150DE6F0250DF6F0350E06F4F
:1014700004500001E16F0550E26F0650E36F075022
:10148000E46F0001DD510001E303F4CF01F0F3CF7D
:1014900000F000500001E76F0150E86F0001DD51DE
:1014A0000001E103F4CF01F0F3CF00F000500001A0
:1014B000E56F0150E66F0001E0510001E103F3CF59
:1014C00000F00001E85100260050E86F0001DF51F4
:1014D0000001E203F3CF00F00001E85100260050C4
:1014E000E86F0001DF510001E103F4CF01F0F3CF19
:1014F00000F00001E7510026E85101220050E76F9B
:101500000150E86F0001DE510001E203F4CF01F069
:10151000F3CF00F00001E7510026E851012200500E
:10152000E76F0150E86F0001DE510001E303F3CFE4
:1015300000F000500001EC6F0001DE510001E103FA
:10154000F4CF01F0F3CF00F000500001EA6F01503A
:10155000EB6F0001DD510001E403F3CF00F0005018
:101560000001F06F0001DD510001E203F4CF01F052
:10157000F3CF00F000500001EE6F0150EF6F00015B
:10158000E96B0001ED6B0001E9510001E525006EFA
:101590000001EA510001E621016E0001EB5100015A
:1015A000E721026E0001EC510001E821036E0050BA
:1015B000E56F0150E66F0250E76F0350E86F0001DE
:1015C000ED510001E525006E0001EE510001E6211C
:1015D000016E0001EF510001E721026E0001F051A0
:1015E0000001E821036E03C0E9FF02C0F4FF01C05F
:1015F000F3FF0050E4CF07F0E4CF06F0E4CF05F0AE
:10160000E4CF04F0E4CF03F0E4CF02F0E4CF01F044
:10161000E4CF00F0E4CFD9FF1200D9CFE5FFE1CF4E
:10162000D9FF00C0E5FF01C0E5FF02C0E5FF03C030
:10163000E5FF04C0E5FF05C0E5FF06C0E5FF07C004
:10164000E5FF08C0E5FF020EDBCF00F0030EDBCFA5
:1016500001F0026A780E0014036E046A056A010E36
:10166000066E000E076E055006E0E86CD890063650
:101670000736010FFCE30350061604500716065008
:1016800005E1075003E1066A062A01D0066A065002
:10169000D880E866D890066A06360250076E065073
:1016A0000718026E052A080E055CD9E30244FE0BFA
:1016B000036E026AE60E0014046E056A066A010EE5
:1016C000076E000E086E065006E0E86CD8900736EC
:1016D0000836010FFCE304500716055008160750A2
:1016E00005E1085003E1076A072A01D0076A07509D
:1016F000D880E866D890076A07360250086E07500F
:101700000818026E062A080E065CD9E3025003127E
:10171000D8900336026AD50E0014046E056A066A74
:10172000010E076E000E086E065006E0E86CD890B9
:1017300007360836010FFCE304500716055008165B
:10174000075005E1085003E1076A072A01D0076A3C
:101750000750D880E866D890076A07360250086EAE
:1017600007500818026E062A080E065CD9E30250DC
:101770000312D8900336026A8B0E0014046E056AB9
:10178000066A010E076E000E086E065006E0E86C51
:10179000D89007360836010FFCE3045007160550B1
:1017A0000816075005E1085003E1076A072A01D02F
:1017B000076A0750D880E866D890076A0736025053
:1017C000086E07500818026E062A080E065CD9E358
:1017D000025003120150006E016A026A00500318A1
:1017E00003E10150021801E002D0010E01D0E86AC5
:1017F000E4CF08F0E4CF07F0E4CF06F0E4CF05F043
:10180000E4CF04F0E4CF03F0E4CF02F0E4CF01F042
:10181000E4CF00F0E4CFD9FF1200D9CFE5FFE1CF4C
:10182000D9FF00C0E5FF01C0E5FF02C0E5FF03C02E
:10183000E5FF04C0E5FF05C0E5FF06C0E5FF07C002
:10184000E5FF08C0E5FF09C0E5FF0AC0E5FF0BC0E2
:10185000E5FF0CC0E5FF0DC0E5FF0EC0E5FF0FC0C2
:10186000E5FF020EDBCF00F0030EDBCF01F0040E2C
:10187000DBCF02F0050EDBCF03F0060EDBCF04F06A
:10188000070EDBCF05F0080EDBCF06F0200E076E4B
:10189000086A06C009F00A6A0B6A0C6AE56AE56A1A
:1018A000E56A0950E56E0350E56E0250E56E0150A1
:1018B000E56E0050E56E91EC0DF00D6E080EE12620
:1018C000300E0D263A0E0D5C05E30D500E6E270E00
:1018D0000E240D6EFF0E07260822A00E07240E6EA2
:1018E000000E08200F6E0EC0E9FF0FC0EAFF0DC00A
:1018F000EFFF0C50E56E0B50E56E0A50E56E095097
:10190000E56E0350E56E0250E56E0150E56E005045
:10191000E56E2EEC0EF0006EF3CF01F0F4CF02F086
:10192000E9CF03F0080EE126005001100210031069
:10193000D8A4AFD707C000F008C001F004C002F07F
:1019400005C003F000C004F001C005F0004A012A00
:10195000A00E0426000E052204C0E9FF05C0EAFF20
:10196000EFCF04F002C0E9FF03C0EAFF04C0EFFFBD
:10197000024A032A000E015C02E1200E005CE2E351
:1019800002C0E9FF03C0EAFF000EEF6AE4CF0FF0E8
:10199000E4CF0EF0E4CF0DF0E4CF0CF0E4CF0BF089
:1019A000E4CF0AF0E4CF09F0E4CF08F0E4CF07F089
:1019B000E4CF06F0E4CF05F0E4CF04F0E4CF03F089
:1019C000E4CF02F0E4CF01F0E4CF00F0E4CFD9FFA0
:1019D0001200D9CFE5FFE1CFD9FF00C0E5FF01C07C
:1019E000E5FF02C0E5FF03C0E5FF04C0E5FF05C059
:1019F000E5FF06C0E5FF07C0E5FF08C0E5FF09C039
:101A0000E5FF0AC0E5FF0BC0E5FF0CC0E5FF0DC018
:101A1000E5FF0EC0E5FF0FC0E5FF020EDBCF00F0D3
:101A2000030EDBCF01F0040EDBCF02F0050EDBCF9F
:101A300003F0D9C004F0DAC005F0DBC006F0DCC06A
:101A400007F004500001D95D086E05500001DA5915
:101A5000096E06500001DB590A6E07500001DC597F
:101A60000B6E08500C6E09500D6E0A500E6E0B5026
:101A70000F6ED8800FAED8901CE30B50E56E0A5065
:101A8000E56E0950E56E0850E56EFF0EE56EFF0E3F
:101A9000E56EFF0EE56EFF0EE56E03EC0AF00C6ED0
:101AA000F3CF0DF0F4CF0EF0E9CF0FF0080EE126E2
:101AB00008D008C00CF009C00DF00AC00EF00BC031
:101AC0000FF003500F5C08E102500E5C05E101507D
:101AD0000D5C02E100500C5CD8A0B3D7E4CF0FF04E
:101AE000E4CF0EF0E4CF0DF0E4CF0CF0E4CF0BF038
:101AF000E4CF0AF0E4CF09F0E4CF08F0E4CF07F038
:101B0000E4CF06F0E4CF05F0E4CF04F0E4CF03F037
:101B1000E4CF02F0E4CF01F0E4CF00F0E4CFD9FF4E
:101B20001200D9CFE5FFE1CFD9FF00C0E5FF01C02A
:101B3000E5FF02C0E5FF03C0E5FF04C0E5FF05C007
:101B4000E5FF06C0E5FF07C0E5FF08C0E5FF09C0E7
:101B5000E5FF0AC0E5FF020EDBCF00F0030EDBCF8E
:101B600001F0040EDBCF02F0050EDBCF03F0060E12
:101B7000DBCF04F0070EDBCF05F0080EDBCF06F05D
:101B8000090EDBCF07F0086A045005100610071095
:101B900005E1E968F468F368E86847D0096A075026
:101BA000800BE8440A6E0A501BE1045004260536F7
:101BB000063607360750035C08E10650025C05E173
:101BC0000550015C02E10450005C06E2D890073247
:101BD00006320532043204D0092A09C008F0DFD7E2
:101BE0000750035C08E10650025C05E10550015C0A
:101BF00002E10450005C08E30450005E0550015A05
:101C00000650025A0750035AD8900732063205325E
:101C1000043208C009F008060950E2E103C0E9FFF8
:101C200002C0F4FF01C0F3FF0050E4CF0AF0E4CF9C
:101C300009F0E4CF08F0E4CF07F0E4CF06F0E4CFFA
:101C400005F0E4CF04F0E4CF03F0E4CF02F0E4CFFA
:101C500001F0E4CF00F0E4CFD9FF1200D9CFE5FFC7
:101C6000E1CFD9FF00C0E5FF01C0E5FF02C0E5FFFD
:101C700003C0E5FF04C0E5FF05C0E5FF06C0E5FFC2
:101C800007C0E5FF08C0E5FF09C0E5FF0AC0E5FFA2
:101C90000BC0E5FF0CC0E5FF0DC0E5FF020EDBCF7A
:101CA00000F0030EDBCF01F0040EDBCF02F0050ED7
:101CB000DBCF03F0060EDBCF04F0070EDBCF05F021
:101CC000080EDBCF06F0090EDBCF07F0086A096AC1
:101CD0000A6A0B6A200E0C6E0350800BE8440D6EEE
:101CE0000050002601360236033608500826093611
:101CF0000A360B360D50D8A4088007500B5C08E15B
:101D000006500A5C05E10550095C02E10450085CDC
:101D100009E30450085E0550095A06500A5A075054
:101D20000B5A00800C2ED8D703C0E9FF02C0F4FF85
:101D300001C0F3FF0050E4CF0DF0E4CF0CF0E4CF8E
:101D40000BF0E4CF0AF0E4CF09F0E4CF08F0E4CFE1
:101D500007F0E4CF06F0E4CF05F0E4CF04F0E4CFE1
:101D600003F0E4CF02F0E4CF01F0E4CF00F0E4CFE1
:101D7000D9FF1200D9CFE5FFE1CFD9FF00C0E5FFC1
:101D800001C0E5FF02C0E5FF03C0E5FF04C0E5FFB9
:101D900005C0E5FF050ED924006E000EDA20016EA5
:101DA000800E026E030E0026000E0122022206C0E3
:101DB000E5FF07C0E5FF08C0E5FF020EDBCF06F038
:101DC000030EDBCF07F0040EDBCF08F00850056EE2
:101DD0000750046E0650036EE4CF08F0E4CF07F01E
:101DE000E4CF06F00250E56E0150E56E0050E56E5E
:101DF000070EDBCFE5FF060EDBCFE5FF050EDBCFE1
:101E0000E5FF0550E56E0450E56E0350E56E0EECFF
:101E100000F0006EF3CF01F0090EE12606C0E5FFE9
:101E200007C0E5FF08C0E5FF020EDBCF06F0030E9A
:101E3000DBCF07F0040EDBCF08F000500624026E63
:101E400001500720036EE86A0820E4CF08F0E4CFD1
:101E500007F0E4CF06F0E56A02C0E9FF03C0F3FF34
:101E600050EC15F001C0F3FF0050E4CF05F0E4CFD3
:101E700004F0E4CF03F0E4CF02F0E4CF01F0E4CFCC
:101E800000F0E4CFD9FF1200D9CFE5FFE1CFD9FFB1
:101E900000C0E5FF01C0E5FF02C0E5FF03C0E5FFAC
:101EA00004C0E5FF05C0E5FF06C0E5FF07C0E5FF8C
:101EB000020EDBCF00F0030EDBCF01F0040EDBCF10
:101EC00002F0050EDBCF03F002C006F00650046EF0
:101ED000800A33E100C0E9FF01C0F3FF025039EC92
:101EE00014F0056EF3CF06F0F4CF07F003C0E5FF62
:101EF00005C0E9FF06C0F3FF075050EC15F000C025
:101F0000E9FF01C0F3FF025039EC14F0056EF3CF86
:101F100006F0F4CF07F0052A02E3064A072A05C0B7
:101F2000E5FF06C0F4FF07C0F6FF00C0E9FF01C0EF
:101F3000F3FF025035EC15F01DD004AA1BD0047A33
:101F4000045004E1035006EC00F014D00450010AE0
:101F500004E1035002EC00F00DD004500F0A04E13C
:101F60000350ABEC15F006D004500E0A03E1035009
:101F70009EEC15F0E4CF07F0E4CF06F0E4CF05F0D7
:101F8000E4CF04F0E4CF03F0E4CF02F0E4CF01F0BB
:101F9000E4CF00F0E4CFD9FF1200D350FC0BD36E96
:101FA000D3508F0B7009D36E0001D96B0001DA6B2F
:101FB0000001DB6B0001DC6B0001F46B0001F56BD1
:101FC0000001F66B0001F76B9AEC13F076EC13F05E
:101FD000000E026E130E016ED60E006E0250E56EFC
:101FE0000150E56E0050E56E03EC13F0030EE126A0
:101FF000000E016EFC0E006E800E026E0250E56E49
:102000000150E56E0050E56E27EC12F0006E030EF5
:10201000E1260050EDE0FCC000F0016A000E046E05
:10202000140E036E020E026E000E066E600E056E3A
:10203000800E076E0150E56E0050E56E0450E56EAF
:102040000350E56E0250E56E0750E56E0650E56EF2
:102050000550E56EBAEC0EF0080EE126000E016E9A
:10206000600E006E800E026E0250E56E0150E56E4D
:102070000050E56E03EC13F0030EE126B9D7120011
:10208000D9CFE5FFE1CFD9FF818400000000000037
:102090000000000000000000000000000000000040
:1020A0000000000000000000000000000000000030
:1020B0000000000000000000000000000000000020
:1020C0000000000000000000000000000000000010
:1020D0000000000000000000000000000000000000
:1020E00000000000819400000000000000000000DB
:1020F00000000000000000000000000000000000E0
:1021000000000000000000000000000000000000CF
:1021100000000000000000000000000000000000BF
:1021200000000000000000000000000000000000AF
:10213000000000000000000000000000000000009F
:10214000E4CFD9FF1200D9CFE5FFE1CFD9FF8182DB
:10215000000000000000000000000000000000007F
:10216000000000000000000000000000000000006F
:10217000000000000000000000000000000000005F
:10218000000000000000000000000000000000004F
:10219000000000000000000000000000000000003F
:1021A000000000000000000000008192000000001C
:1021B000000000000000000000000000000000001F
:1021C000000000000000000000000000000000000F
:1021D00000000000000000000000000000000000FF
:1021E00000000000000000000000000000000000EF
:1021F00000000000000000000000000000000000DF
:10220000000000000000E4CFD9FF1200D9CFE5FFA5
:10221000E1CFD9FF00C0E5FF01C0E5FF02C0E5FF47
:1022200003C0E5FF04C0E5FF05C0E5FF06C0E5FF0C
:10223000020EDBCF00F0030EDBCF01F0040EDBCF8C
:1022400002F0050EDBCF03F0060EDBCF04F0070E25
:10225000DBCF05F0080EDBCF06F0D88003AED890B8
:1022600015E306500A0A12E104C0E9FF05C0EAFFBF
:102270002D0EEF6E044A052A031E021E011E006C7D
:1022800005E1012A03E1022AD8B4032A0650E56ECB
:102290000550E56E0450E56E0350E56E0250E56EA4
:1022A0000150E56E0050E56E0DEC0CF0070EE126D6
:1022B000E4CF06F0E4CF05F0E4CF04F0E4CF03F080
:1022C000E4CF02F0E4CF01F0E4CF00F0E4CFD9FF97
:1022D0001200D9CFE5FFE1CFD9FF00C0E5FF01C073
:1022E000E5FF02C0E5FF03C0E5FF04C0E5FF05C050
:1022F000E5FF06C0E5FF07C0E5FF020EDBCF00F0FB
:10230000030EDBCF01F0040EDBCF02F0050EDBCFB6
:1023100003F01DEC14F0046EF3CF05F003C006F0DB
:10232000076A0550075C02E10450065C1DE2046A7E
:102330000001F65103260001F7510422046A000E41
:102340000326070E042203C0E9FF04C0EAFFEFCF13
:1023500003F003C0E5FF00C0E9FF01C0F3FF025036
:1023600050EC15F0010E01D0E86AE4CF07F0E4CF9D
:1023700006F0E4CF05F0E4CF04F0E4CF03F0E4CFBF
:1023800002F0E4CF01F0E4CF00F0E4CFD9FF120077
:10239000D9CFE5FFE1CFD9FF828200000000000025
:1023A000000000000000000000000000000000002D
:1023B000000000000000000000000000000000001D
:1023C000000000000000000000000000000000000D
:1023D00000000000000000000000000000000000FD
:1023E00000000000000000000000000000000000ED
:1023F00082920000000000000000000000000000C9
:1024000000000000000000000000000000000000CC
:1024100000000000000000000000000000000000BC
:1024200000000000000000000000000000000000AC
:10243000000000000000000000000000000000009C
:102440000000000000000000E4CFD9FF1200D9CF47
:10245000E5FFE1CFD9FF00C0E5FF01C0E5FF02C005
:10246000E5FF03C0E5FF04C0E5FF020EDBCF00F08F
:10247000030EDBCF01F0040EDBCF02F01DEC14F0F5
:10248000036EF3CF04F0035004101FE0F6C003F016
:10249000F7C004F00001F63F02D00001F72B046AF8
:1024A000000E0326070E042203C0E9FF04C0EAFF62
:1024B000EFCF03F003C0E5FF00C0E9FF01C0F3FF69
:1024C000025050EC15F0010E01D0E86AE4CF04F0A0
:1024D000E4CF03F0E4CF02F0E4CF01F0E4CF00F06A
:1024E000E4CFD9FF1200D8CFE5FFE0CFE5FFE56EDE
:1024F000F3CFE5FFF4CFE5FFE9CFE5FFEACFE5FF56
:10250000FACFE5FFFBCFE5FFD9CFE5FFE1CFD9FF5C
:1025100000C0E5FF9EA010D0F80ECF6E530ECE6E19
:102520009E900001D92B08E30001DA2B05E300019E
:10253000DB3F02D00001DC2B9AEC15F0006E00505E
:1025400006E0DCEC14F0006E00507FEC15F0E4CFF8
:1025500000F0E4CFD9FFE4CFFBFFE4CFFAFFE4CFF4
:10256000EAFFE4CFE9FFE4CFF4FFE4CFF3FFE45068
:10257000E4CFE0FFE4CFD8FF1000D9CFE5FFE1CFF3
:10258000D9FF00C0E5FF01C0E5FF02C0E5FF03C0C1
:10259000E5FF020EDBCF00F000407F0B016E550E11
:1025A00001160044FE0B026EAA0E02160250011222
:1025B0000040E8403F0B026E330E02160044E84430
:1025C000FC0B036ECC0E03160350021202500112D4
:1025D00000380F0B026E0F0E02160038F00B036E60
:1025E000F00E0314006E005002120250011201504E
:1025F000E4CF03F0E4CF02F0E4CF01F0E4CF00F049
:10260000E4CFD9FF1200D9CFE5FFE1CFD9FF00C059
:10261000E5FF01C0E5FF02C0E5FF03C0E5FF020ED4
:10262000DBCF00F0030EDBCF01F0040EDBCF02F0B6
:1026300096EC15F0036E0350FBE100C0E9FF01C00A
:10264000F3FF025004EC15F07FEC15F000C0E9FF39
:1026500001C0F3FF025004EC15F0036E002A02E300
:10266000014A022A0350E4E1E4CF03F0E4CF02F090
:10267000E4CF01F0E4CF00F0E4CFD9FF1200D9CFCE
:10268000E5FFE1CFD9FF00C0E5FF01C0E5FF02C0D3
:10269000E5FF020EDBCF00F01DEC14F0016EF3CF6E
:1026A00002F0015003E10250010A16E0F4C001F00B
:1026B000F5C002F00001F43F02D00001F52B026AE0
:1026C000000E0126070E022201C0E9FF02C0EAFF48
:1026D00000C0EFFF010E01D0E86AE4CF02F0E4CFC2
:1026E00001F0E4CF00F0E4CFD9FF1200D9CFE5FF2D
:1026F000E1CFD9FF0001FA6B0001FB6BD58ED590BD
:10270000D592D594D59CD59AD586F29AB588B598A8
:10271000B59AB550F00B0909B56EB59CB58EB4509D
:10272000F80B0609B46EB496B498A28CA08CE4CFD2
:10273000D9FF1200D9CFE5FFE1CFD9FF9380939263
:102740008192939481949280928294928292948EB8
:10275000949CCD80CD8ECD92CD96CD98CD9A9F90E4
:102760009D809E80D08EF298F18CF28CF28E9F9A92
:102770009F98C7EC14F0E4CFD9FF1200D9CFE5FF42
:10278000E1CFD9FF0001CD6B0001CF6B230E00011B
:10279000FA6FF30E0001FB6F010E0001FE6FD59E74
:1027A000D590D592D594D59CD59AD586F184F28AC8
:1027B000F294F288F18CE4CFD9FF1200E8AE0AD08F
:1027C000F3CFEAFFEE50EECFF3FFEECFF4FFEECF04
:1027D000E9FF1200E8BCA7EF15F0E9CFF6FFF3CF51
:1027E000F7FFF86E0900F5500900F5CFF3FF090077
:1027F000F5CFF4FF0900F5CFE9FF1200D9CFE5FFCF
:10280000E1CFD9FF0001D36BF20E0001FA6FFC0E8D
:102810000001FB6F8282030E0001FE6FD59ED590F2
:10282000D592D594D59CD59AD586F184F28AF29426
:10283000F298D58EE4CFD9FF1200D9CFE5FFE1CFD2
:10284000D9FF00C0E5FF01C0E5FF0001F65100011E
:10285000F45D006E0001F7510001F559016E01C0F1
:10286000F3FF0050E4CF01F0E4CF00F0E4CFD9FF54
:102870001200E8AE08D0F3CFEAFFEE50EECFF3FF40
:10288000EECFF4FF1200E8BCA5EF15F0E9CFF6FF9C
:10289000F3CFF7FFF86E0900F5500900F5CFF3FF0D
:1028A0000900F5CFF4FF1200F2CFEAFFF29EA69ED8
:1028B000A69CA684E9CFA9FFE4CFA8FF87EC15F07A
:1028C000F4CFA8FF87EC15F0F6CFA8FF87EC15F042
:1028D000A694EABEF28E1200F2CFF6FFF29EA69EFA
:1028E000A69CE9CFA9FFA680A850A92AA680A8CFB8
:1028F000F3FFA92AA680A8CFF4FFA92AA680A8CF13
:10290000EAFFF6BEF28E1200D9CFE5FFE1CFD9FF84
:1029100000C0E5FF020EDBCF00F0610E005C05E3B6
:102920007B0E005C02E2010E01D0E86AE4CF00F009
:10293000E4CFD9FF1200D9CFE5FFE1CFD9FF5A0E7E
:10294000CB6E2D0EBB6ECA50FC0BCA6ECA50870BE5
:10295000CA6ECA84BA50F00B0C09BA6EE4CFD9FF24
:102960001200E8AE06D0F3CFEAFFEE50EECFF3FF51
:102970001200E8BCA3EF15F0E9CFF6FFF3CFF7FFA5
:10298000F86E0900F5500900F5CFF3FF1200D9CF1A
:10299000E5FFE1CFD9FF670EAF6EAC84AC98B88687
:1029A000AB8E9D989F989D8A9F9AAC9CAB9CAB8860
:1029B000AC8AE4CFD9FF1200F00E02010015006FBF
:1029C000ABAC04D00091ABA001D00081ABA402D08D
:1029D00002010085ABA202D002010087AE501200B6
:1029E000F2CFF6FFF29EA69EA69CE9CFA9FFA68095
:1029F000A850A92AA680A8CFF3FFA92AA680A8CF0D
:102A0000F4FFF6BEF28E1200E8AE04D0F3CFEAFF78
:102A1000EE501200E8BCA1EF15F0E9CFF6FFF3CFBE
:102A2000F7FFF86E0900F5501200F2CFEAFFF29EB0
:102A3000A69EA69CA684E9CFA9FFE4CFA8FF87ECB9
:102A400015F0A694EABEF28E1200F2CFF6FFF29EC7
:102A5000A69EA69CE9CFA9FFA680A850A92AA68079
:102A6000A8CFF3FFF6BEF28E1200E8AE09D0F3CF86
:102A7000EAFFE4CFEEFFF4CFEEFFF6CFEEFF120059
:102A8000E8BCA9EF15F01200F2CFF6FFF29EA69E69
:102A9000A69CE9CFA9FFA680A850F6BEF28E120030
:102AA000E8AE05D0F3CFEAFFE4CFEEFF1200E8BCBA
:102AB0000AEF00F01200D9CFE5FFE1CFD9FF000106
:102AC000FE6BF298E4CFD9FF120011EEFFF021EE79
:102AD000FFF0F86AA68EA69CCDEC0FF0FFD7D9CFF9
:102AE000E5FFE1CFD9FFA09CE4CFD9FF1200D9CFF9
:102AF000E5FFE1CFD9FFCA94E4CFD9FF1200ACAC17
:102B000004D0AC90020100B3AC80AD6E1200550E43
:102B1000A76EAA0EA76EA682A6B2FED7A94AD9CFE3
:102B2000E5FFE1CFD9FFE4CFD9FF1200000EACA240
:102B3000010F1200000E9EBA010F1200E8CF7FFFB6
:102B4000120044EF15F025EF15F0F0EF14F06CEFE4
:082B500014F054EF14F0120020
:020000040030CA
:04000000010A191EBA
:020005008185F3
:060008000FC00FE00F40E5
:00000001FF
